:040000001CEF00F001
:100008005F820E0133AB0BEF00F00DEF00F01AEF3B
:1000180000F000019D51D8B414EF00F016EF00F085
:1000280018EF00F0010E9C6F0E01339B5F921100D8
:0400380048EF0BF092
:100E0000002564200D0025640000000E116E000E08
:100E1000106E0C50D96EDA6ADFCFF6FF0E0EF76E49
:100E2000000EF86E0800F550250AD8A41AEF07F056
:100E30001CEF07F0E6EF07F00C50D96EDA6ADF2AF4
:100E4000000E0001976F000E966F96C09AF0986999
:100E500099690C50D96EDA6ADF50126E12C0F6FF33
:100E60000E0EF76E000EF86E0800F550640AD8B446
:100E70003CEF07F03EEF07F04EEF07F012C0F6FF31
:100E80000E0EF76E000EF86E0800F550690AD8A431
:100E90004CEF07F04EEF07F0DCEF07F00D50D96E86
:100EA000DA6A020EDF26DF5CD96EDA6ADECF13F073
:100EB000DECF14F00C50D96EDA6A1228DF6E200EE5
:100EC000176E14BE66EF07F069EF07F0010E6AEFC8
:100ED00007F0000E0F6E17061750600FD96EDA6A12
:100EE00013C001F014C002F0000E046E0A0E036E6F
:100EF00034EC09F001C007F002C008F08AEC0BF0F6
:100F00000750300FDF6E13C001F014C002F0000E66
:100F1000046E0A0E036E75EC08F001C013F002C0F7
:100F200014F0104A112A13501410D8B49AEF07F095
:100F30009CEF07F0A4EF07F01750D8A4A2EF07F03A
:100F4000A4EF07F06BEF07F01750D8B4AAEF07F043
:100F5000ACEF07F0CDEF07F00F50D8B4B2EF07F0C9
:100F6000B4EF07F0CDEF07F017061750600FD96EFA
:100F7000DA6A2D0EDF6E104A112ACDEF07F01750F6
:100F8000600FD96EDA6ADF500E6E0E50016E026A83
:100F90000BC003F0D7EC08F0172A200E1718D8A4BE
:100FA000D4EF07F0D6EF07F0BFEF07F010C00BF05B
:100FB00011C00CF0FFEF07F00C50D96EDA6ADF2A8F
:100FC000000E0C6E000E0B6EFFEF07F00C50D96E8A
:100FD000DA6ADFCFF6FF0E0EF76E000EF86E08002D
:100FE000F550016E026A0BC003F0D7EC08F00C500C
:100FF000D96EDA6ADF2A000E0C6E010E0B6E12003B
:10100000520E446E2B0E436E000EE82EFED7432E7A
:10101000FCD7442EFAD700D0000E4D6E010E4E6E56
:10102000010E4F6E000E516E630E506EAA0E526E80
:101030000F0E536EA60E546E0F0E556E000E566EAA
:10104000010E576E010E586E000E5A6E630E596EE9
:10105000250E5B6E0F0E5C6E210E5D6E0F0E5E6ECA
:10106000000E026E630E016E8CEC09F0FBEC0AF0D0
:10107000A4EC0BF031EC0CF0FCEC0BF086848686D3
:101080000E01B495B497450E0C6E30EC0AF04BC0CF
:1010900030F04CC031F010EC0CF08EB452EF08F090
:1010A00054EF08F065EF08F07CAE59EF08F05DEF03
:1010B00008F0436A432A5EEF08F0436A4332433242
:1010C0007C5043187F0B43187C6E090E446E1E0E35
:1010D000436EE40EE82EFED7432EFCD7442EFAD7FB
:1010E00000D043EF08F01CEF00F0000E066E04BEC7
:1010F0007EEF08F07CEF08F084EF08F0036C041E2C
:10110000D8B0042A010E066E02BE8BEF08F089EFFC
:1011100008F091EF08F0016C021ED8B0022A010E0F
:10112000061A000E086E000E076E03500410D8B4A5
:101130009CEF08F09EEF08F0C6EF08F0010E056E78
:10114000A6EF08F0D89003360436052A04AEABEFBC
:1011500008F0ADEF08F0A2EF08F0D8900736083697
:101160000350015C04500258D8A0B9EF08F0BBEF5F
:1011700008F0C0EF08F00350015E0450025A0780E7
:10118000D89004320332052EADEF08F00650D8B4E3
:10119000CCEF08F0CEEF08F0D2EF08F0076C081E95
:1011A000D8B0082A07C001F008C002F012000350AE
:1011B000D8B4DDEF08F0DFEF08F0E7EF08F00350F8
:1011C000D8A4E5EF08F0E7EF08F0ECEF08F00150E5
:1011D00061EC0CF033EF09F00350D96EDA6A0A0EB5
:1011E000D926DE50DE10D8B4F8EF08F0FAEF08F098
:1011F00013EF09F00350D96EDA6A0A0ED9260350AC
:10120000E16EE26A030EE126DE50E65CE650800AFB
:10121000086EDE50800A0858D8B011EF09F013EFBD
:1012200009F033EF09F00350D96EDA6A030ED926BC
:10123000DECF04F0DDCF05F00350D96EDA6ADECFE1
:1012400006F0DDCF07F004500624D96E05500720C4
:10125000DA6E01C0DFFF0350D96EDA6A030ED926B9
:10126000DE2A000EDD221200000E066E02BE3DEFE9
:1012700009F03BEF09F043EF09F0016C021ED8B012
:10128000022A010E066E04BE4AEF09F048EF09F08B
:101290004EEF09F0036C041ED8B0042A035004106A
:1012A000D8B455EF09F057EF09F07BEF09F0010EC4
:1012B000056E5FEF09F0D89003360436052A04AEB8
:1012C00064EF09F066EF09F05BEF09F00350015C91
:1012D00004500258D8A06FEF09F071EF09F075EFD4
:1012E00009F00350015E0450025AD89004320332D0
:1012F000052E66EF09F00650D8B481EF09F083EFB0
:1013000009F087EF09F0016C021ED8B0022A01C073
:1013100001F002C002F0120085948598839E879C9C
:101320007D947D987B9E7F9C050E0E01746F060E4A
:10133000766F070E696F080E886FBD508F0B4009DE
:10134000BD6EE00EBE16BF50F00B0109BF6E01C0AE
:10135000BCFFBD8E000EAA6E000EA66E000E0F0121
:10136000256F000E216FFC0EAD16F30EAD16CF0EDD
:10137000AD163F0EAD16AB88AB50F00B0C09AB6E43
:10138000AB8EA788A750F00B0C09A76EA78E2689F5
:101390002651F00B0C09266F268F22892251F00B63
:1013A0000C09226F228F1200EBEF09F002C0F6FF4A
:1013B00003C0F7FF000EF86E0D0EF76403D00800AF
:1013C000F55005D0F6CFE9FFF7CFEAFFEF5040EC3C
:1013D0000CF0024A032A02C0F6FF03C0F7FF000E1A
:1013E000F86E0D0EF76403D00800F55005D0F6CF67
:1013F000E9FFF7CFEAFFEF500009D8A402EF0AF0A7
:1014000004EF0AF0D6EF09F0120019C01BF0000E2D
:101410000001956F000E946F1BEF0AF018C00BF0DF
:101420001B0E0C6E1AC00DF005EC07F00B500001FE
:1014300094270C5095231BC0F6FF0E0EF76E000E7E
:10144000F86E0800F5500009D8A429EF0AF02BEF38
:101450000AF00EEF0AF094C018F095C019F01200CF
:101460005BEC0AF00C50D96EDA6A05C0DEFF06C0EC
:10147000DDFFD3EC0AF00C50D96EDA6A040ED926DF
:1014800005C0DEFF06C0DDFF83EC0AF00C50D96E0C
:10149000DA6A020ED92605C0DEFF06C0DDFFABEC1E
:1014A0000AF00C50D96EDA6A060ED92605C0DEFFA6
:1014B00006C0DDFF12005CEC0CF0520E4CEC0CF0A0
:1014C000B60E4CEC0CF052EC0CF0530E4CEC0CF055
:1014D000010E69EC0BF0076E07500A6E0B6A000EE6
:1014E00069EC0BF0076E0750096E086A0A50081085
:1014F0000A6E0B5009100B6E57EC0CF00AC005F089
:101500000BC006F012005CEC0CF0520E4CEC0CF030
:10151000B80E4CEC0CF052EC0CF0530E4CEC0CF002
:10152000010E69EC0BF0076E07500A6E0B6A000E95
:1015300069EC0BF0076E0750096E086A0A50081034
:101540000A6E0B5009100B6E57EC0CF00AC005F038
:101550000BC006F012005CEC0CF0520E4CEC0CF0E0
:10156000B40E4CEC0CF052EC0CF0530E4CEC0CF0B6
:10157000010E69EC0BF0076E07500A6E0B6A000E45
:1015800069EC0BF0076E0750096E086A0A500810E4
:101590000A6E0B5009100B6E57EC0CF00AC005F0E8
:1015A0000BC006F012005CEC0CF0520E4CEC0CF090
:1015B000BA0E4CEC0CF052EC0CF0530E4CEC0CF060
:1015C000010E69EC0BF0076E07500A6E0B6A000EF5
:1015D00069EC0BF0076E0750096E086A0A50081094
:1015E0000A6E0B5009100B6E57EC0CF00AC005F098
:1015F0000BC006F01200849888928496869088909A
:101600007C8880827C867E808080849E88967C8E8A
:10161000808681908394849079807B847C80819281
:10162000839C889479827B8C808487928198869E23
:101630007F8279887E8E8790859E81967F807D8E41
:10164000798612001F0E236E1CC024F01DC025F0E9
:10165000000E286E000E276E000E2F6E000E2E6EEE
:10166000240E186E1EC019F0230E1A6E05EC0AF037
:1016700018C021F019C022F027501C24D96E285020
:101680001D20DA6EDF6A21C01CF022C01DF012009E
:10169000A60EF66E170EF76E000EF86E00EECAF08C
:1016A00010EE29F00900F5CFEEFFE550E150FAE128
:1016B00001EE00F03C0EEE6AE806FDE100EE60F09F
:1016C0006A0EEE6AE806FDE15F905F92000100EFAE
:1016D00008F0036EE8EC0BF00E01DA87E8EC0BF093
:1016E000D5CE04F0E8EC0BF00350D8B47AEF0BF051
:1016F0007EEF0BF0026A022A7FEF0BF0026A023AD9
:1017000002460E01DA510218DF0B0218DA6FDA898D
:101710000450120008BE8FEF0BF091EF0BF097EF23
:101720000BF007C007F008C008F0A3EF0BF007C0EC
:1017300009F008C00AF0091E0A1E094A0A2A09C04F
:1017400007F00AC008F01200BEEC0BF0010E036EA9
:10175000000E21EC0CF03F0E056E550EE82EFED764
:10176000052EFCD70000030E036E000E21EC0CF0DA
:10177000D50E036E010E21EC0CF012000E01D951B2
:10178000F00B0809D96FD98B9F0ED66F848A848C91
:10179000A79BA79D1D0E1D6F1E0E1C6F1C0E6F6F4D
:1017A0001B0E706F12002C014600FE012C012C0153
:1017B000AF00AF00A2B6DF2A141408030603060325
:0F17C000060306030603060306030603060306D5
:1017D0000E01D8B5EEEF0BF0F0EF0BF0E8EF0BF0E9
:1017E000DACE01F01F0E0116D8A4F9EF0BF0FBEFD3
:1017F0000BF0E8EF0BF01200D6501F0B4009D66E2D
:10180000D688D588D650F00B0E09D66E000ED46E51
:10181000000ED36ED58E0E01298BF28CF28E120043
:10182000320E1C6E1D6A010E1E6E30C01FF031C0DC
:1018300020F022EC0BF0320E026E036AD4EC09F0B9
:101840001200046E5CEC0CF0520E4CEC0CF00450E8
:1018500080094CEC0CF003504CEC0CF057EC0CF005
:101860001200120E0E01626F110E156FE997E895C6
:10187000330EE56F000EE66FE789E88BE78F120005
:10188000016E0E0137A547EF0CF049EF0CF041EF68
:101890000CF001C0E4FE1200026EE8EC0BF002C096
:1018A000D5FE1200E8EC0BF00E01DA831200E8EC32
:1018B0000BF00E01DA851200E8EC0BF00E01DA8174
:0418C0001200120000
:020000040020DA
:10000000FFFFFFFFFFFFFFFFFFFFFFFFFFFFFFFF00
:020000040030CA
:0C000000AAFFFFFF9FFFFFFFFFFFFFFFB5
:00000001FF
