:040000001EEF00F0FF
:100008005E820E0133AB0BEF00F00DEF00F01CEF3A
:1000180000F05D50D8B413EF00F015EF00F019EFC1
:1000280000F0010E5C6E1BEF00F0010E5B6E339B5F
:080038005E9211008BEF19F03C
:100E0000002575202575202575202575200D0025C8
:090E100064200D0025642000009F
:100E1A00000E1F6E000E1E6E000E3D6E3C0E3C6EE6
:100E2A00000E196E640E186E0FC001F0DAEC17F09E
:100E3A0001C03EF002C03FF00FC001F09CEC17F079
:100E4A0001C01AF002C01BF01A503E5C406E1B50E3
:100E5A003F58416E40504110D8A436EF07F038EFA2
:100E6A0007F03EEF07F0000E1F6E000E1E6E0EEF2B
:100E7A000AF00F50D96EDA6A3E50DE1807E13F5089
:100E8A00DE18D8A44BEF07F04DEF07F03AEF08F061
:100E9A000F50D96EDA6A040ED9260F50E16EE26A53
:100EAA00020EE126DE50E65CDE50E658D8A060EF7E
:100EBA0007F062EF07F0C2EF07F0000E246E000E93
:100ECA00256E000E266E000E276E0F50D96EDA6A56
:100EDA00040ED926DECF10F0DDCF11F00F50D96EF7
:100EEA00DA6A020ED926DECF12F0DDCF13F01050E7
:100EFA00125C146E11501358156E14502426155096
:100F0A002522000E2622000E272224C001F025C029
:100F1A0002F026C003F027C004F03C0E056E000E56
:100F2A00066E000E076E000E086E52EC18F001C035
:100F3A0024F002C025F003C026F004C027F024C024
:100F4A0001F025C002F026C003F027C004F040C01B
:100F5A0005F041C006F0076A086AEAEC15F001C01C
:100F6A0024F002C025F003C026F004C027F024C0F4
:100F7A001EF025C01FF03AEF08F040C038F041C01B
:100F8A0039F03A6A3B6A38C001F039C002F03AC017
:100F9A0003F03BC004F0060E056E000E066E000E4E
:100FAA00076E000E086E52EC18F001C038F002C04D
:100FBA0039F003C03AF004C03BF00F50D96EDA6A38
:100FCA00020ED926DECF10F0DDCF11F00F50D96E08
:100FDA00DA6A040ED926DECF12F0DDCF13F01050F4
:100FEA00125C146E11501358156E166A176A145053
:100FFA00385E1550395A16503A5A17503B5A38C06B
:10100A0001F039C002F03AC003F03BC004F03C0ED4
:10101A00056E000E066E000E076E000E086E52EC8C
:10102A0018F001C038F002C039F003C03AF004C029
:10103A003BF038C001F039C002F03AC003F03BC0BF
:10104A0004F040C005F041C006F0076A086AEAECFD
:10105A0015F001C038F002C039F003C03AF004C0FC
:10106A003BF038C01EF039C01FF00F50D96EDA6A53
:10107A00020ED9263E50DE1807E13F50DE18D8A4EA
:10108A0049EF08F04BEF08F020EF09F00F50D96E46
:10109A00DA6A0F50E16EE26A040EE126DE50E65C7F
:1010AA00DE50E658D8A05CEF08F05EEF08F0BFEF1C
:1010BA0008F040C028F041C029F02A6A2B6AD8906B
:1010CA00283629362A362B360F50D96EDA6ADECF01
:1010DA0010F0DDCF11F00F50D96EDA6A040ED9265E
:1010EA00DECF12F0DDCF13F01050125C146E1150E7
:1010FA001358156E1450282615502922000E2A223C
:10110A00000E2B2228C001F029C002F02AC003F0E9
:10111A002BC004F03C0E056E000E066E000E076E24
:10112A00000E086E52EC18F001C028F002C029F037
:10113A0003C02AF004C02BF028C001F029C002F035
:10114A002AC003F02BC004F040C005F041C006F0ED
:10115A00076A086AEAEC15F001C028F002C029F013
:10116A0003C02AF004C02BF028C01EF029C01FF0CB
:10117A0020EF09F040C02CF041C02DF02E6A2F6AF2
:10118A00D8902C362D362E362F360F50D96EDA6A75
:10119A00040ED926DECF10F0DDCF11F00F50D96E34
:1011AA00DA6ADECF12F0DDCF13F01050125C146E43
:1011BA0011501358156E166A176A14502C5E155082
:1011CA002D5A16502E5A17502F5A2CC001F02DC0E6
:1011DA0002F02EC003F02FC004F03C0E056E000E84
:1011EA00066E000E076E000E086E52EC18F001C073
:1011FA002CF002C02DF003C02EF004C02FF02CC03A
:10120A0001F02DC002F02EC003F02FC004F040C040
:10121A0005F041C006F0076A086AEAEC15F001C059
:10122A002CF002C02DF003C02EF004C02FF02CC009
:10123A001EF02DC01FF00F50D96EDA6A040ED9269F
:10124A003E50DE1807E13F50DE18D8A42FEF09F010
:10125A0031EF09F00EEF0AF00F50D96EDA6A020E7A
:10126A00D9260F50E16EE26ADE50E65CDE50E6589F
:10127A00D8A042EF09F044EF09F0A9EF09F040C005
:10128A0030F041C031F0326A336A020ED8903036FB
:10129A00313632363336E82E4BEF09F00F50D96E1D
:1012AA00DA6A020ED926DECF10F0DDCF11F00F5028
:1012BA00D96EDA6ADECF12F0DDCF13F01050125C6D
:1012CA00146E11501358156E1450302615503122D1
:1012DA00000E3222000E332230C001F031C002F07B
:1012EA0032C003F033C004F03C0E056E000E066EE9
:1012FA00000E076E000E086E52EC18F001C030F0B6
:10130A0002C031F003C032F004C033F030C001F043
:10131A0031C002F032C003F033C004F040C005F01F
:10132A0041C006F0076A086AEAEC15F001C030F01D
:10133A0002C031F003C032F004C033F030C01EF0F6
:10134A0031C01FF00EEF0AF040C034F041C035F052
:10135A00366A376A020ED89034363536363637361C
:10136A00E82EB0EF09F00F50D96EDA6ADECF10F02E
:10137A00DDCF11F00F50D96EDA6A020ED926DECF10
:10138A0012F0DDCF13F01050125C146E1150135886
:10139A00156E166A176A1450345E1550355A16506F
:1013AA00365A1750375A34C001F035C002F036C0E9
:1013BA0003F037C004F03C0E056E000E066E000EF8
:1013CA00076E000E086E52EC18F001C034F002C02D
:1013DA0035F003C036F004C037F034C001F035C030
:1013EA0002F036C003F037C004F040C005F041C037
:1013FA0006F0076A086AEAEC15F001C034F002C088
:10140A0035F003C036F004C037F034C01EF035C0E2
:10141A001FF03E503F10D8A415EF0AF017EF0AF05C
:10142A001DEF0AF0000E1D6E000E1C6E59EF0AF039
:10143A0040C020F041C021F0226A236A20C001F096
:10144A0021C002F022C003F023C004F0640E056E2E
:10145A00000E066E000E076E000E086E52EC18F0B3
:10146A0001C020F002C021F003C022F004C023F022
:10147A0020C001F021C002F022C003F023C004F012
:10148A003EC005F03FC006F0076A086AEAEC15F0AC
:10149A0001C020F002C021F003C022F004C023F0F2
:1014AA0020C01CF021C01DF00E50D96EDA6A1EC091
:1014BA00DEFF1FC0DDFF0E50D96EDA6A020ED92692
:1014CA001CC0DEFF1DC0DDFF0E50D96EDA6A040EA5
:1014DA00D9263EC0DEFF3FC0DDFF1200000E056EBA
:1014EA000150D96EDA6A250EDE5C010EDE58D8A0EC
:1014FA0081EF0AF083EF0AF0B5EF0AF00150D96ED6
:10150A00DA6A690EDE5C010EDE58D8B08FEF0AF097
:10151A0091EF0AF0B5EF0AF00150D96EDA6A020EBD
:10152A00D926010EDB5009E12E0EDE5CD8A0A0EF11
:10153A000AF0A2EF0AF0B5EF0AF00150D96EDA6AA2
:10154A00020ED926010EDB5007E15B0EDE5CD8B035
:10155A00B1EF0AF0B3EF0AF0B5EF0AF0010E056E2B
:10156A000150D96EDA6A010EDB5009E1710EDE5CB8
:10157A00D8A0C2EF0AF0C4EF0AF0F7EF0AF0015060
:10158A00D96EDA6A010EDB5007E19A0EDE5CD8B03A
:10159A00D1EF0AF0D3EF0AF0F7EF0AF00150D96E53
:1015AA00DA6A020ED926010EDB5009E10D0EDE5C65
:1015BA00D8A0E2EF0AF0E4EF0AF0F7EF0AF00150E0
:1015CA00D96EDA6A020ED926010EDB5007E12C0E1B
:1015DA00DE5CD8B0F3EF0AF0F5EF0AF0F7EF0AF0A5
:1015EA00020E056E0150D96EDA6A010EDB5009E16E
:1015FA00B40EDE5CD8A004EF0BF006EF0BF039EF67
:10160A000BF00150D96EDA6A010EDB5007E1F50ED4
:10161A00DE5CD8B013EF0BF015EF0BF039EF0BF0DF
:10162A000150D96EDA6A020ED926010EDB5009E1A1
:10163A000D0EDE5CD8A024EF0BF026EF0BF039EF8D
:10164A000BF00150D96EDA6A020ED926010EDB5070
:10165A0007E1390EDE5CD8B035EF0BF037EF0BF04F
:10166A0039EF0BF0030E056E0150D96EDA6A010EDE
:10167A00DB5009E10A0EDE5CD8A046EF0BF048EF1A
:10168A000BF07BEF0BF00150D96EDA6A010EDB50DA
:10169A0007E1200EDE5CD8B055EF0BF057EF0BF0E8
:1016AA007BEF0BF00150D96EDA6A020ED926010ED1
:1016BA00DB5009E1110EDE5CD8A066EF0BF068EF93
:1016CA000BF07BEF0BF00150D96EDA6A020ED926C5
:1016DA00010EDB5007E1210EDE5CD8B077EF0BF08C
:1016EA0079EF0BF07BEF0BF0040E056E0150D96E0B
:1016FA00DA6A170EDE5C010EDE58D8A087EF0BF00F
:10170A0089EF0BF0BBEF0BF00150D96EDA6A690E64
:10171A00DE5C010EDE58D8B095EF0BF097EF0BF0B8
:10172A00BBEF0BF00150D96EDA6A020ED926010E10
:10173A00DB5009E10B0EDE5CD8A0A6EF0BF0A8EF98
:10174A000BF0BBEF0BF00150D96EDA6A020ED92604
:10175A00010EDB5007E1100EDE5CD8B0B7EF0BF0DC
:10176A00B9EF0BF0BBEF0BF0050E056E0150D96E09
:10177A00DA6A2A0EDE5C010EDE58D8A0C7EF0BF03B
:10178A00C9EF0BF0FBEF0BF00150D96EDA6A690E64
:10179A00DE5C010EDE58D8B0D5EF0BF0D7EF0BF0B8
:1017AA00FBEF0BF00150D96EDA6A020ED926010E50
:1017BA00DB5009E1140EDE5CD8A0E6EF0BF0E8EF8F
:1017CA000BF0FBEF0BF00150D96EDA6A020ED92644
:1017DA00010EDB5007E12E0EDE5CD8B0F7EF0BF0FE
:1017EA00F9EF0BF0FBEF0BF0060E056E0150D96E08
:1017FA00DA6A010EDB5009E19A0EDE5CD8A008EF26
:10180A000CF00AEF0CF03DEF0CF00150D96EDA6AD9
:10181A00010EDB5007E1D00EDE5CD8B017EF0CF0FA
:10182A0019EF0CF03DEF0CF00150D96EDA6A020E96
:10183A00D926010EDB5009E10D0EDE5CD8A028EF97
:10184A000CF02AEF0CF03DEF0CF00150D96EDA6A79
:10185A00020ED926010EDB5007E12E0EDE5CD8B04F
:10186A0039EF0CF03BEF0CF03DEF0CF0070E056E74
:10187A000250D96EDA6A060ED926B80EDE5C0B0E55
:10188A00DE58D8A04BEF0CF04DEF0CF070EF0CF0D7
:10189A000250D96EDA6A060ED926410EDE5C9C0E1B
:1018AA00DE58D8B05BEF0CF05DEF0CF070EF0CF087
:1018BA000150D96EDA6A020ED926010EDB5007E111
:1018CA000B0EDE5CD8B06CEF0CF06EEF0CF070EF24
:1018DA000CF0080E056E0250D96EDA6A060ED92689
:1018EA00E80EDE5C030EDE58D8A07EEF0CF080EF27
:1018FA000CF0A3EF0CF00250D96EDA6A060ED92664
:10190A00290EDE5C0A0EDE58D8B08EEF0CF090EF8E
:10191A000CF0A3EF0CF00150D96EDA6A020ED92648
:10192A00010EDB5007E10D0EDE5CD8B09FEF0CF024
:10193A00A1EF0CF0A3EF0CF0090E056E0550120092
:10194A001250800B1B6E12501224216E11AEB0EF92
:10195A000CF0B2EF0CF0B3EF0CF021802150D8B4A8
:10196A00B9EF0CF0BBEF0CF0CEEF0CF02128D8A4A5
:10197A00C1EF0CF0C3EF0CF0CBEF0CF0000E0F6EC2
:10198A00000E106E000E116E000E126E118ED6EF42
:10199A000CF0000E0F6E000E106E000E116E000E8F
:1019AA00126E1650800B1B1A16501624206E15AE96
:1019BA00E1EF0CF0E3EF0CF0E4EF0CF020802050A4
:1019CA00D8B4EAEF0CF0ECEF0CF0FFEF0CF02028A3
:1019DA00D8A4F2EF0CF0F4EF0CF0FCEF0CF0000ED0
:1019EA00136E000E146E000E156E000E166E158E16
:1019FA0007EF0DF0000E136E000E146E000E156E3A
:101A0A00000E166E2050D8B40DEF0DF00FEF0DF04A
:101A1A0017EF0DF02150D8A415EF0DF017EF0DF0C8
:101A2A0021EF0DF0000E0F6E000E106E000E116EFB
:101A3A00000E126EB9EF0EF015500F02F3CF26F01A
:101A4A00F4CF27F026501C6E1D6A1E6A1F6A2750A3
:101A5A00226E236A246A256A14501002F3CF26F0F4
:101A6A00F4CF27F026501C26000E1D221E221F220C
:101A7A0027502226000E2322242225221350110247
:101A8A00F3CF26F0F4CF27F026501C26000E1D2295
:101A9A001E221F2227502226000E2322242225221C
:101AAA001EC01FF01DC01EF01CC01DF01C6A135082
:101ABA001002F3CF26F0F4CF27F026501C26275029
:101ACA001D22000E1E22000E1F2214500F02F3CFF9
:101ADA0026F0F4CF27F026501C2627501D22000E90
:101AEA001E22000E1F221EC01FF01DC01EF01CC0A9
:101AFA001DF01C6A13500F02F3CF26F0F4CF27F023
:101B0A0026501C2627501D22000E1E22000E1F22C0
:101B1A0015501002F3CF26F0F4CF27F026502226D4
:101B2A0027502322000E2422000E252214501102CF
:101B3A00F3CF26F0F4CF27F026502226275023226F
:101B4A00000E2422000E252215501102F3CF26F092
:101B5A00F4CF27F02650176E2750186E196A1A6AA2
:101B6A0019C01AF018C019F017C018F0176A1750E0
:101B7A00222618502322195024221A5025221CC02A
:101B8A0017F01DC018F01EC019F01FC01AF0190E68
:101B9A00D4EF0DF0D8901A32193218321732E82ED3
:101BAA00CFEF0DF017502226185023221950242265
:101BBA001A5025221EC01FF01DC01EF01CC01DF0A9
:101BCA001C6A205021C017F0186A1726000E182226
:101BDA00820E1724266EFF0E1820276E0AEF0EF0CB
:101BEA00D89022362336243625361FAEFFEF0DF065
:101BFA0001EF0EF002EF0EF02280D8901C361D364F
:101C0A001E361F362606D8A0270624AE0FEF0EF082
:101C1A0011EF0EF0F5EF0DF0000E206E1FAE18EF6B
:101C2A000EF01AEF0EF03EEF0EF0FF0E1C14176EB8
:101C3A00FF0E1D14186EFF0E1E14196E7F0E1F1450
:101C4A001A6E1750181019101A10D8B42FEF0EF078
:101C5A0031EF0EF035EF0EF0010E206E3EEF0EF072
:101C6A0022A03AEF0EF03CEF0EF03EEF0EF031EF0D
:101C7A000EF02050D8B444EF0EF046EF0EF06AEFA3
:101C8A000EF0010E2226000E23222422252225A050
:101C9A0051EF0EF053EF0EF06AEF0EF022C017F07C
:101CAA0023C018F024C019F025C01AF01A341A32C9
:101CBA0019321832173217C022F018C023F019C08F
:101CCA0024F01AC025F0264A272A27BE75EF0EF0FF
:101CDA00275008E12628D8A075EF0EF077EF0EF00E
:101CEA0081EF0EF0000E226E000E236E800E246E1F
:101CFA007F0E256EAFEF0EF027BE8EEF0EF0275047
:101D0A0006E12604D8B08CEF0EF08EEF0EF09AEFB3
:101D1A000EF0000E226E000E236E000E246E000ED0
:101D2A00256E000E1B6EAFEF0EF026C021F0FF0EDF
:101D3A002216FF0E23167F0E2416000E251621A04A
:101D4A00A9EF0EF0ABEF0EF0ACEF0EF0248ED890A8
:101D5A002130256E1B50251222C00FF023C010F02F
:101D6A0024C011F025C012F01200000E126E000EEF
:101D7A00136E000E146E000E156E000E166E000E17
:101D8A00176E000E186E000E196E000E1A6E000EF7
:101D9A001B6E000E1C6E000E1D6E000E1E6E000ED7
:101DAA001F6E000E206E000E216E000E116E25EFC2
:101DBA000FF00EC00CF0BAEC19F00E50D96EDA6AB8
:101DCA00DECF0FF0DDCF10F00F5012261050132285
:101DDA00000E1422000E15220E50D96EDA6A020E77
:101DEA00D926DECF0FF0DDCF10F00F501626105097
:101DFA001722000E1822000E19220E50D96EDA6A26
:101E0A00040ED926DECF0FF0DDCF10F00F501A26C0
:101E1A0010501B22000E1C22000E1D220E50D96EDD
:101E2A00DA6A060ED926DECF0FF0DDCF10F00F509A
:101E3A001E2610501F22000E2022000E2122112AD7
:101E4A00130E11642BEF0FF02DEF0FF0DEEF0EF0F3
:101E5A0012C001F013C002F014C003F015C004F060
:101E6A00140E056E000E066E000E076E000E086E4A
:101E7A00EAEC15F001C012F002C013F003C014F02E
:101E8A0004C015F016C001F017C002F018C003F024
:101E9A0019C004F0140E056E000E066E000E076ED1
:101EAA00000E086EEAEC15F001C016F002C017F039
:101EBA0003C018F004C019F01AC001F01BC002F0E8
:101ECA001CC003F01DC004F0140E056E000E066E51
:101EDA00000E076E000E086EEAEC15F001C01AF04B
:101EEA0002C01BF003C01CF004C01DF01EC001F0AC
:101EFA001FC002F020C003F021C004F0140E056ECA
:101F0A00000E066E000E076E000E086EEAEC15F063
:101F1A0001C01EF002C01FF003C020F004C021F06F
:101F2A000E50D96EDA6A12C0DEFF13C0DDFF0E5002
:101F3A00D96EDA6A020ED92616C0DEFF17C0DDFF97
:101F4A000E50D96EDA6A040ED9261AC0DEFF1BC0FB
:101F5A00DDFF0E50D96EDA6A060ED9261EC0DEFFE4
:101F6A001FC0DDFF1200096E0950D8B4BFEF0FF091
:101F7A00C1EF0FF0E3EF0FF004BEC8EF0FF0C6EFAA
:101F8A000FF0E3EF0FF001C005F002C006F003C046
:101F9A0007F004C008F0051E061E071E081E052AC3
:101FAA00000E06220722082205C00BF006C00CF01C
:101FBA0007C00DF008C00EF0EBEF0FF001C00BF0F8
:101FCA0002C00CF003C00DF004C00EF00150021064
:101FDA0003100410D8A4F4EF0FF0F6EF0FF000EF9F
:101FEA0010F0000E016E000E026E000E036E000E5F
:101FFA00046E91EF10F0960E0A6E0AEF10F00A2A9C
:10200A00D8900E320D320C320B32000E0B14056EC4
:10201A00000E0C14066E000E0D14076EFE0E0E1442
:10202A00086E0550061007100810D8A41FEF10F00C
:10203A0021EF10F004EF10F02FEF10F00A2A010E32
:10204A000B26000E0C220D220E22D8900E320D32D3
:10205A000C320B32000E0B14056E000E0C14066EB9
:10206A00000E0D14076EFF0E0E14086E05500610B2
:10207A0007100810D8A444EF10F046EF10F023EF31
:10208A0010F04EEF10F00A06D8900B360C360D36CB
:10209A000E360DBE53EF10F055EF10F05DEF10F055
:1020AA00020E0A605BEF10F05DEF10F048EF10F0DF
:1020BA000AB062EF10F064EF10F065EF10F00D9EB9
:1020CA00D8900A320AC005F0066A076A086A05C08B
:1020DA0008F0076A066A056A05500B1206500C12C8
:1020EA0007500D1208500E120950D8B47FEF10F0A5
:1020FA0081EF10F089EF10F004BE88EF10F086EF40
:10210A0010F089EF10F00E8E0BC001F00CC002F037
:10211A000DC003F00EC004F0120057EF11F0000ECC
:10212A00486E000E496ED9EC1CF0F6EC1CF042C069
:10213A0013F043C014F07AEC14F045C00DF05BC004
:10214A000EF085EC1AF0F4EC1CF0480E016E490E04
:10215A00026EBAEC1CF042C013F043C014F0D5EC86
:10216A0016F016EC14F0110E476E3C0E466ECB0EAE
:10217A00E82EFED7462EFCD7472EFAD7000045C0D8
:10218A000EF0BAEC0EF045C032F0ABEC13F044C0DE
:10219A000EF045C00FF00DEC07F044C001F045C049
:1021AA0002F073EC0AF04A6E16EC14F0110E476E48
:1021BA003C0E466ECB0EE82EFED7462EFCD7472E97
:1021CA00FAD700005B50D8B4EDEF10F0EFEF10F043
:1021DA0004EF11F048684968080E4A6E7CAEF8EFC1
:1021EA0010F0FCEF10F0466A462AFDEF10F0466A3E
:1021FA00463246327C5046187F0B46187C6E130EC8
:10220A005A18D8B40BEF11F00DEF11F016EF11F0C8
:10221A00090E4A18D8A414EF11F016EF11F029EF9D
:10222A0011F0080E4A6E7CAE1DEF11F021EF11F08D
:10223A00466A462A22EF11F0466A463246327C50F6
:10224A0046187F0B46187C6E49C001F04AC002F05E
:10225A004850E2EC1BF042C021F043C022F05DC0BE
:10226A0023F04AC024F02DEC13F0080E4A18D8A423
:10227A0041EF11F043EF11F057EF11F0010E5D6ECF
:10228A0080A64AEF11F04EEF11F0466A462A4FEF48
:10229A0011F0466A46464646464680504618F70BAF
:1022AA004618806E5D50D8B45DEF11F05FEF11F003
:1022BA0094EF10F012000E50D96EDA6A020ED92687
:1022CA00DF50D8B46BEF11F06DEF11F09DEF11F004
:1022DA000E50D96EDA6ADF500F6E0F50016E026A25
:1022EA000E50D96EDA6A030ED926DECF03F0DDCF9F
:1022FA0004F046EC1CF001C007F002C008F0000E22
:10230A000A6E640E096E18EC18F00E50D96EDA6A6D
:10231A00030ED926DF50106E0750105C116E0E5056
:10232A00D96EDA6A030ED926DF50126EBEEF11F0AB
:10233A00000E116E0E50D96EDA6ADF500F6E0F5012
:10234A00016E026A0E50D96EDA6A030ED926DECF02
:10235A0003F0DDCF04F046EC1CF001C007F002C028
:10236A0008F0000E0A6E640E096E18EC18F0075099
:10237A00126E0E50D96EDA6A010ED926DF50D8B421
:10238A00C9EF11F0CBEF11F0EBEF11F00E50D96E4F
:10239A00DA6A050ED926DECF0FF0DDCF10F00FC0B6
:1023AA00D9FF10C0DAFF11C0DFFF0E50D96EDA6A0A
:1023BA00070ED926DECF0FF0DDCF10F00FC0D9FF00
:1023CA0010C0DAFF12C0DFFF09EF12F00E50D96E0B
:1023DA00DA6A050ED926DECF0FF0DDCF10F00FC076
:1023EA00D9FF10C0DAFF12C0DFFF0E50D96EDA6AC9
:1023FA00070ED926DECF0FF0DDCF10F00FC0D9FFC0
:10240A0010C0DAFF11C0DFFF1200000E0001B56F25
:10241A00000EB46F000EB76F000EB66F000EB96FE4
:10242A00000EB86F000EBB6F000EBA6F000E9D6FE4
:10243A00000E9C6F000E9F6F000E9E6F000EA16F24
:10244A00000EA06F000EA26F010EA36F010EA46F03
:10245A00000EA66F630EA56FAA0EA76F0F0EA86FC8
:10246A00A60EA96F0F0EAA6F000EAB6F010EAC6F0E
:10247A00010EAD6F000EAF6F630EAE6F250EB06F1B
:10248A000F0EB16F210EB26F0F0EB36F000E026EF8
:10249A00630E016E8DEC16F0CBEC1BF0B1EC1BF069
:1024AA00ABEC1CF06AEC1CF0849E88967C9E8096AD
:1024BA00868486860E01B495B4978EB667EF12F0BD
:1024CA0069EF12F062EF12F07CAE6EEF12F072EF6B
:1024DA0012F04B6A4B2A73EF12F04B6A4B324B32B3
:1024EA007C504B187F0B4B187C6E80A67FEF12F046
:1024FA0083EF12F04B6A4B2A84EF12F04B6A4B4679
:10250A004B464B4680504B18F70B4B18806E520EB9
:10251A004C6E2B0E4B6E000EE82EFED74B2EFCD7C0
:10252A004C2EFAD700D0A20E426EAB0E436E9C0E12
:10253A00446EB40E456E92EC10F0A20E276EAB0EEE
:10254A00286E3CEC16F01EEF00F02A342B34316E64
:10255A003150D8A4B3EF12F0B5EF12F0BFEF12F07A
:10256A00000E286E000E296E000E2A6E000E2B6ECB
:10257A002CEF13F028C02CF029C02DF02AC02EF021
:10258A002BC02FF0200ECFEF12F0D8902F322E3220
:10259A002D322C32E82ECAEF12F02C50306E2A8ED1
:1025AA00FF0E2816FF0E2916FF0E2A16000E2B16EE
:1025BA00960E315E31BEE6EF12F0E4EF12F0FCEF58
:1025CA0012F03150800A970FD8B0EEEF12F0F0EF08
:1025DA0012F0F2EF12F0B5EF12F0D8902B322A3245
:1025EA0029322832313EF2EF12F014EF13F01F0EA7
:1025FA00316402EF13F004EF13F00CEF13F0B5EFB0
:10260A0012F0D890283629362A362B363106315020
:10261A00D8A412EF13F014EF13F006EF13F03050B2
:10262A00D8B41AEF13F01CEF13F024EF13F02B1E9B
:10263A002A1E291E286C000E29222A222B2228C093
:10264A0028F029C029F02AC02AF02BC02BF012004A
:10265A007DEF13F021C01CF022C01DF023C01EF034
:10266A0087EC18F0AAEF13F021C01CF022C01DF06D
:10267A0023C01EF0EFEC18F0AAEF13F021C01CF0F3
:10268A0022C01DF023C01EF057EC19F0AAEF13F078
:10269A0021C01CF022C01DF023C01EF01CEC17F054
:1026AA00AAEF13F021C01CF022C01DF023C01EF0B7
:1026BA005CEC17F0AAEF13F021C01CF022C01DF049
:1026CA0023C01EF0BBEC18F0AAEF13F021C01CF0D7
:1026DA0022C01DF023C01EF023EC19F0AAEF13F05C
:1026EA0021C01CF022C01DF033EC1CF0AAEF13F03D
:1026FA002450256E266A2650000AD8B487EF13F0B4
:10270A00AAEF13F02550010AD8B42FEF13F0030AE9
:10271A00D8B439EF13F0010AD8B443EF13F0070A1B
:10272A00D8B44DEF13F0010AD8B457EF13F0030AE7
:10273A00D8B461EF13F0010AD8B46BEF13F00F0AA3
:10274A00D8B475EF13F0AAEF13F01200000E136E4F
:10275A00000E146E000E156E3F0E166E3250D96EB4
:10276A00DA6ADECF33F0DDCF34F033C001F034C0A3
:10277A0002F0036A046A000EB8EC0FF001C00FF011
:10278A0002C010F003C011F004C012F0A5EC0CF066
:10279A000FC028F010C029F011C02AF012C02BF087
:1027AA00AAEC12F03250D96EDA6A28C0DEFF29C0CC
:1027BA00DDFF330E136E330E146E330E156E3F0E9D
:1027CA00166E3250D96EDA6A020ED926DECF33F08F
:1027DA00DDCF34F033C001F034C002F0036A046A7A
:1027EA00000EB8EC0FF001C00FF002C010F003C0E9
:1027FA0011F004C012F0A5EC0CF00FC028F010C0C4
:10280A0029F011C02AF012C02BF0AAEC12F03250B3
:10281A00D96EDA6A020ED92628C0DEFF29C0DDFF8A
:10282A0012007FA01BEF14F01FEF14F0016A012AB7
:10283A0020EF14F0016A7F500118FE0B01187F6E19
:10284A007DAE2AEF14F02EEF14F0016A012A2FEF61
:10285A0014F0016A013201327D5001187F0B011810
:10286A007D6E79A63BEF14F03FEF14F0016A012A5E
:10287A0040EF14F0016A01460146014679500118F9
:10288A00F70B0118796E7FA24DEF14F051EF14F097
:10289A00016A012A52EF14F0016A01467F500118B9
:1028AA00FD0B01187F6E79A85DEF14F061EF14F04B
:1028BA00016A012A62EF14F0016A013A795001189B
:1028CA00EF0B0118796E7EAE6DEF14F071EF14F014
:1028DA00016A012A72EF14F0016A013201327E5054
:1028EA0001187F0B01187E6E1200140E166E140E5C
:1028FA00176E1350D96EDA6A010ED926010EDF6EF1
:10290A001450D96EDA6A010ED926010EDF6EBEEFB7
:10291A0014F01350D96EDA6A1650DE5CD8B098EF0C
:10292A0014F09AEF14F09EEF14F01350D96EDA6A8D
:10293A00DF2A1450D96EDA6A1750DE5CD8B0A8EFD5
:10294A0014F0AAEF14F0AEEF14F01450D96EDA6A4C
:10295A00DF2A13C00EF060EC11F014C00EF060EC28
:10296A0011F0A70E156E3A0EE82EFED7152EFCD7DB
:10297A0000D01350D96EDA6A1650DE5CD8A0C8EFC0
:10298A0014F0CAEF14F08EEF14F01450D96EDA6A0C
:10299A001750DE5CD8A0D4EF14F0D6EF14F08EEF07
:1029AA0014F01200280E166E280E176E1350D96EE8
:1029BA00DA6A010ED926010EDF6E1450D96EDA6A70
:1029CA00010ED926DF6A1AEF15F01350D96EDA6AAA
:1029DA001650DE5CD8B0F4EF14F0F6EF14F0FAEF0C
:1029EA0014F01350D96EDA6ADF2A1450D96EDA6AF3
:1029FA001750DE5CD8B004EF15F006EF15F00AEFB9
:102A0A0015F01450D96EDA6ADF2A13C00EF060ECA2
:102A1A0011F014C00EF060EC11F0A70E156E3A0E0C
:102A2A00E82EFED7152EFCD700D01350D96EDA6ADD
:102A3A001650DE5CD8A024EF15F026EF15F0EAEF69
:102A4A0014F01450D96EDA6A1750DE5CD8A030EF51
:102A5A0015F032EF15F0EAEF14F01200280E166E98
:102A6A00280E176E1350D96EDA6A010ED926DF6A5C
:102A7A001450D96EDA6A010ED926010EDF6E76EF8E
:102A8A0015F01350D96EDA6A1650DE5CD8B050EFE2
:102A9A0015F052EF15F056EF15F01350D96EDA6AA9
:102AAA00DF2A1450D96EDA6A1750DE5CD8B060EFAC
:102ABA0015F062EF15F066EF15F01450D96EDA6A68
:102ACA00DF2A13C00EF060EC11F014C00EF060ECB7
:102ADA0011F0A70E156E3A0EE82EFED7152EFCD76A
:102AEA0000D01350D96EDA6A1650DE5CD8A080EF97
:102AFA0015F082EF15F046EF15F01450D96EDA6A28
:102B0A001750DE5CD8A08CEF15F08EEF15F046EF6B
:102B1A0015F01200140E166E150E176E1350D96E9C
:102B2A00DA6A010ED926DF6A1450D96EDA6A010E02
:102B3A00D926DF6AD1EF15F01350D96EDA6A16502A
:102B4A00DE5CD8B0ABEF15F0ADEF15F0B1EF15F0D4
:102B5A001350D96EDA6ADF2A1450D96EDA6A17501E
:102B6A00DE5CD8B0BBEF15F0BDEF15F0C1EF15F084
:102B7A001450D96EDA6ADF2A13C00EF060EC11F035
:102B8A0014C00EF060EC11F0A70E156E3A0EE82E86
:102B9A00FED7152EFCD700D01350D96EDA6A16501C
:102BAA00DE5CD8A0DBEF15F0DDEF15F0A1EF15F034
:102BBA001450D96EDA6A1750DE5CD8A0E7EF15F028
:102BCA00E9EF15F0A1EF15F01200000E096E000EE4
:102BDA000A6E000E0B6E000E0C6E055006100710E2
:102BEA000810D8B4FBEF15F0FDEF15F033EF16F02F
:102BFA00010E0D6E07EF16F0D89005360636073629
:102C0A0008360D2A08AE0CEF16F00EEF16F001EF9B
:102C1A0016F0D89009360A360B360C360550015C88
:102C2A00065002580750035808500458D8A020EFFD
:102C3A0016F022EF16F02BEF16F00550015E065043
:102C4A00025A0750035A0850045A0980D890083289
:102C5A000732063205320D2E0EEF16F009C001F0CA
:102C6A000AC002F00BC003F00CC004F0120084EF9B
:102C7A0016F0000E296E000E2A6E000E2B6E290E1B
:102C8A00016E2A0E026E2B0E036EE9EC1AF0080E84
:102C9A002B18D8B453EF16F055EF16F05FEF16F075
:102CAA0027C021F028C022F05DC023F02BC024F0F9
:102CBA002DEC13F020EC1CF02A50FF0A016E29506B
:102CCA00FF0ADFEC1CF0F6EC1CF027C013F028C05A
:102CDA0014F07AEC14F05C50D8B476EF16F078EF72
:102CEA0016F070EF16F027C013F028C014F0D5ECD8
:102CFA0016F0F4EC1CF0000E5C6E20EC1CF05A503E
:102D0A00D8A48AEF16F08CEF16F03EEF16F01200F8
:102D1A0085948598839E879C7D947D987B9E7F9CD5
:102D2A00050E0E01746F060E766F070E696F080E98
:102D3A00886FBD508F0B4009BD6EE00EBE16BF50A6
:102D4A00F00B0109BF6E01C0BCFFBD8E000EAA6E5A
:102D5A00000EA66E000E0F01256F000E216FFC0EED
:102D6A00AD16F30EAD16CF0EAD163F0EAD16AB88EF
:102D7A00AB50F00B0C09AB6EAB8EA788A750F00BCB
:102D8A000C09A76EA78E26892651F00B0C09266F0F
:102D9A00268F22892251F00B0C09226F228F1200F2
:102DAA0005EF17F01350D96EDA6ADF50D8B4E0EFA6
:102DBA0016F0E2EF16F0E6EF16F01350D96EDA6A63
:102DCA00DF061450D96EDA6ADF50D8B4EFEF16F086
:102DDA00F1EF16F0F5EF16F01450D96EDA6ADF0645
:102DEA0013C00EF060EC11F014C00EF060EC11F09C
:102DFA00A70E156E3A0EE82EFED7152EFCD700D078
:102E0A001350D96EDA6ADF50D8A40EEF17F010EF1C
:102E1A0017F0D7EF16F01450D96EDA6ADF50D8A43B
:102E2A0019EF17F01BEF17F0D7EF16F0120046EF65
:102E3A0017F01CC018F01DC019F095EC1BF01CC04F
:102E4A0018F01DC019F006EC1BF01CC018F01DC0CC
:102E5A0019F05DEC1BF05BEF17F01CC018F01DC0F9
:102E6A0019F079EC1BF01CC018F01DC019F006EC23
:102E7A001BF01CC018F01DC019F095EC1BF05BEF9D
:102E8A0017F01E501F6E206A2050000AD8B450EF67
:102E9A0017F05BEF17F01F50000AD8B41EEF17F0B7
:102EAA00010AD8B432EF17F05BEF17F0120086EF81
:102EBA0017F01CC018F01DC019F095EC1BF01CC0CF
:102ECA0018F01DC019F006EC1BF01CC018F01DC04C
:102EDA0019F079EC1BF09BEF17F01CC018F01DC01D
:102EEA0019F05DEC1BF01CC018F01DC019F006ECBF
:102EFA001BF01CC018F01DC019F095EC1BF09BEFDD
:102F0A0017F01E501F6E206A2050000AD8B490EFA6
:102F1A0017F09BEF17F01F50000AD8B45EEF17F0B6
:102F2A00010AD8B472EF17F09BEF17F012000150A4
:102F3A00D96EDA6ADECF05F0DDCF06F00150D96E20
:102F4A00DA6A020ED9260550DE5C0650DE58D8B081
:102F5A00B1EF17F0B3EF17F0BCEF17F00150D96ECD
:102F6A00DA6A020ED926DECF05F0DDCF06F001506F
:102F7A00D96EDA6A040ED9260550DE5C0650DE5890
:102F8A00D8B0CAEF17F0CCEF17F0D5EF17F0015011
:102F9A00D96EDA6A040ED926DECF05F0DDCF06F047
:102FAA0005C001F006C002F012000150D96EDA6ABB
:102FBA00DECF05F0DDCF06F00150D96EDA6A020ED7
:102FCA00D926DE50055CDE500658D8B0EFEF17F070
:102FDA00F1EF17F0FAEF17F00150D96EDA6A020E24
:102FEA00D926DECF05F0DDCF06F00150D96EDA6AB8
:102FFA00040ED926DE50055CDE500658D8B008EF1C
:10300A0018F00AEF18F013EF18F00150D96EDA6AC7
:10301A00040ED926DECF05F0DDCF06F005C001F09B
:10302A0006C002F01200000E0C6E000E0B6E095064
:10303A000A10D8B423EF18F025EF18F04DEF18F066
:10304A00010E0D6E2DEF18F0D89009360A360D2AAA
:10305A000AAE32EF18F034EF18F029EF18F0D890D2
:10306A000B360C360950075C0A500858D8A040EFB6
:10307A0018F042EF18F047EF18F00950075E0A50AF
:10308A00085A0B80D8900A3209320D2E34EF18F004
:10309A000BC007F00CC008F01200000E096E000EFB
:1030AA000A6E000E0B6E000E0C6E01A05FEF18F098
:1030BA0061EF18F069EF18F00550092606500A2248
:1030CA0007500B2208500C22D890053606360736D0
:1030DA000836D8900432033202320132015002100B
:1030EA0003100410D8A47CEF18F07EEF18F05AEF02
:1030FA0018F009C001F00AC002F00BC003F00CC0BE
:10310A0004F01200A5EF18F01CC018F01DC019F049
:10311A0095EC1BF01CC018F01DC019F05DEC1BF0FB
:10312A00BAEF18F01CC018F01DC019F079EC1BF0AA
:10313A001CC018F01DC019F095EC1BF0BAEF18F07E
:10314A001E501F6E206A2050000AD8B4AFEF18F044
:10315A00BAEF18F01F50000AD8B489EF18F0010A24
:10316A00D8B497EF18F0BAEF18F01200D9EF18F0A8
:10317A001CC018F01DC019F095EC1BF01CC018F00B
:10318A001DC019F023EC1BF0EEEF18F01CC018F06C
:10319A001DC019F040EC1BF01CC018F01DC019F03E
:1031AA0095EC1BF0EEEF18F01E501F6E206A2050AF
:1031BA00000AD8B4E3EF18F0EEEF18F01F50000A37
:1031CA00D8B4BDEF18F0010AD8B4CBEF18F0EEEF7F
:1031DA0018F012000DEF19F01CC018F01DC019F0FC
:1031EA0095EC1BF01CC018F01DC019F079EC1BF00F
:1031FA0022EF19F01CC018F01DC019F05DEC1BF08D
:10320A001CC018F01DC019F095EC1BF022EF19F044
:10321A001E501F6E206A2050000AD8B417EF19F00A
:10322A0022EF19F01F50000AD8B4F1EF18F0010A82
:10323A00D8B4FFEF18F022EF19F0120041EF19F09D
:10324A001CC018F01DC019F095EC1BF01CC018F03A
:10325A001DC019F040EC1BF056EF19F01CC018F015
:10326A001DC019F023EC1BF01CC018F01DC019F08A
:10327A0095EC1BF056EF19F01E501F6E206A205075
:10328A00000AD8B44BEF19F056EF19F01F50000A94
:10329A00D8B425EF19F0010AD8B433EF19F056EF74
:1032AA0019F0120075EF19F01CC018F01DC019F0C2
:1032BA0095EC1BF01CC018F01DC019F0A7EC1AF011
:1032CA008AEF19F01CC018F01DC019F0A7EC1AF00B
:1032DA001CC018F01DC019F095EC1BF08AEF19F00C
:1032EA001E501F6E206A2050000AD8B47FEF19F0D2
:1032FA008AEF19F01F50000AD8B459EF19F0010AE1
:10330A00D8B467EF19F08AEF19F012008A0EF66E38
:10331A00390EF76E000EF86E00EEBCF010EE0EF0ED
:10332A000900F5CFEEFFE550E150FAE1980EF66E8E
:10333A00390EF76E000EF86E00EE4DF010EE0DF03D
:10334A000900F5CFEEFFE550E150FAE100EE60F03A
:10335A003C0EEE6AE806FDE15D6A5C6A5B6A5A6ADF
:10336A005E905E9200010AEF12F0E5EC19F00C5043
:10337A00D96EDA6A05C0DEFF06C0DDFF0DEC1AF071
:10338A000C50D96EDA6A020ED92605C0DEFF06C0D5
:10339A00DDFF5DEC1AF00C50D96EDA6A040ED926FC
:1033AA0005C0DEFF06C0DDFF35EC1AF00C50D96E01
:1033BA00DA6A060ED92605C0DEFF06C0DDFF120056
:1033CA00EFEC1CF0520ED3EC1CF0B60ED3EC1CF052
:1033DA00E5EC1CF0530ED3EC1CF0010EC8EC1AF00D
:1033EA00076E07500A6E0B6A000EC8EC1AF0076ED9
:1033FA000750096E086A0A5008100A6E0B50091025
:10340A000B6EEAEC1CF00AC005F00BC006F01200C5
:10341A00EFEC1CF0520ED3EC1CF0B80ED3EC1CF0FF
:10342A00E5EC1CF0530ED3EC1CF0010EC8EC1AF0BC
:10343A00076E07500A6E0B6A000EC8EC1AF0076E88
:10344A000750096E086A0A5008100A6E0B500910D4
:10345A000B6EEAEC1CF00AC005F00BC006F0120075
:10346A00EFEC1CF0520ED3EC1CF0B40ED3EC1CF0B3
:10347A00E5EC1CF0530ED3EC1CF0010EC8EC1AF06C
:10348A00076E07500A6E0B6A000EC8EC1AF0076E38
:10349A000750096E086A0A5008100A6E0B50091084
:1034AA000B6EEAEC1CF00AC005F00BC006F0120025
:1034BA00EFEC1CF0520ED3EC1CF0BA0ED3EC1CF05D
:1034CA00E5EC1CF0530ED3EC1CF0010EC8EC1AF01C
:1034DA00076E07500A6E0B6A000EC8EC1AF0076EE8
:1034EA000750096E086A0A5008100A6E0B50091034
:1034FA000B6EEAEC1CF00AC005F00BC006F01200D5
:10350A009EEF1AF00DC00CF0BAEC19F00D50D96EFE
:10351A00DA6A060ED926010EDB5007E1320EDE5CAE
:10352A00D8B09AEF1AF09CEF1AF09EEF1AF0A6EFB5
:10353A001AF00E50D8B4A4EF1AF0A6EF1AF087EFDB
:10354A001AF012008BEC1CF07BEC1CF018C013F084
:10355A0019C014F033EC15F0210E1B6E780E1A6E9A
:10356A00980EE82EFED71A2EFCD71B2EFAD700D0BB
:10357A0018C013F019C014F0D5EC16F08BEC1CF03F
:10358A007BEC1CF01200036E0CEC1CF00E01DA87C7
:10359A000CEC1CF0D5CE04F00CEC1CF00350D8B4A3
:1035AA00D9EF1AF0DDEF1AF0026A022ADEEF1AF0FA
:1035BA00026A023A02460E01DA510218DF0B0218B9
:1035CA00DA6FDA8904501200510650064F065A067D
:1035DA005150D96EDA6A0150E16EE26ADFCFE7FF35
:1035EA005050D96EDA6A0250E16EE26ADFCFE7FF25
:1035FA004F50D96EDA6A0350E16EE26ADFCFE7FF15
:10360A00120059EC1CF018C013F019C014F08FEC1A
:10361A0015F0C70E1B6E0D0E1A6EC60EE82EFED7DB
:10362A001A2EFCD71B2EFAD700D018C013F019C0D7
:10363A0014F0D5EC16F059EC1CF012007BEC1CF0DF
:10364A0018C013F019C014F0D7EC14F0160E1B6E44
:10365A00450E1A6E170EE82EFED71A2EFCD71B2E11
:10366A00FAD7000018C013F019C014F0D5EC16F000
:10367A007BEC1CF012008BEC1CF018C013F019C084
:10368A0014F033EC15F0150E1B6E4B0E1A6EBE0EAF
:10369A00E82EFED71A2EFCD71B2EFAD700D018C058
:1036AA0013F019C014F0D5EC16F08BEC1CF01200D4
:1036BA007BEC1CF018C013F019C014F0D7EC14F00E
:1036CA00090E1B6EC50E1A6E200EE82EFED71A2E94
:1036DA00FCD71B2EFAD718C013F019C014F0D5EC7A
:1036EA0016F07BEC1CF012008BEC1CF018C013F0E7
:1036FA0019C014F033EC15F0070E1B6ED20E1A6EB9
:10370A006E0EE82EFED71A2EFCD71B2EFAD718C03B
:10371A0013F019C014F0D5EC16F08BEC1CF0120063
:10372A0059EC1CF018C013F019C014F08FEC15F006
:10373A00430E1B6E8F0E1A6EC80EE82EFED71A2E77
:10374A00FCD71B2EFAD718C013F019C014F0D5EC09
:10375A0016F059EC1CF01200F7EC1BF0010E036E88
:10376A00000E9BEC1CF03F0E056E550EE82EFED7A0
:10377A00052EFCD70000030E036E000E9BEC1CF016
:10378A00D50E036E010E9BEC1CF0120084988892F1
:10379A008496869088907C9880927C967E90809081
:1037AA008790859E81967F907D9E79968792819853
:1037BA00869E7F9279987E9E1200036E5150D96E32
:1037CA00DA6A03C0DFFF5050D96EDA6A01C0DFFF40
:1037DA004F50D96EDA6A02C0DFFF512A502A4F2AA7
:1037EA005A2A12000E01D951F00B0809D96FD98B48
:1037FA009F0ED66F848A848CA79BA79D1D0E1D6F72
:10380A001E0E1C6F1C0E6F6F1B0E706F12000E01C6
:10381A00D8B512EF1CF014EF1CF00CEF1CF0DACE46
:10382A0001F01F0E0116D8A41DEF1CF01FEF1CF0AB
:10383A000CEF1CF012007CA625EF1CF029EF1CF0FF
:10384A00016A012A2AEF1CF0016A01460146014673
:10385A007C500118F70B01187C6E12001CC018F07E
:10386A001DC019F095EC1BF01CC018F01DC019F012
:10387A00A7EC1AF01CC018F01DC019F095EC1BF04B
:10388A00120001500302F3CF05F0F4CF06F0015005
:10389A000402F350062602500302F350062605C01E
:1038AA0001F006C002F012007CA85EEF1CF062EF85
:1038BA001CF0016A012A63EF1CF0016A013A7C508C
:1038CA000118EF0B01187C6E1200D6501F0B40092D
:1038DA00D66ED688D588D650F00B0E09D66ED9EC9E
:1038EA001CF00E01298BF28CF28E120080A080EF60
:1038FA001CF084EF1CF0016A012A85EF1CF0016AB2
:10390A0080500118FE0B0118806E12007EA090EF05
:10391A001CF094EF1CF0016A012A95EF1CF0016A71
:10392A007E500118FE0B01187E6E1200046EEFEC39
:10393A001CF0520ED3EC1CF004508009D3EC1CF09E
:10394A000350D3EC1CF0EAEC1CF01200120E0E012C
:10395A00626F110E156FE997E895330EE56F000E49
:10396A00E66FE789E88BE78F12000250D96EDA6AB0
:10397A00D3CFDFFF0150D96EDA6AD4CFDFFF12004E
:10398A008809340390010601FA006C0054003200E1
:0B399A00607488082828151414141409
:1039A600026E0CEC1CF002C0D5FE1200000E016E79
:1039B600000EDFEC1CF01200026E02C0D4FF01C044
:1039C600D3FF12000CEC1CF00E01DA8312000CEC93
:1039D6001CF00E01DA8512000CEC1CF00E01DA81E7
:0A39E6001200D59E1200D58E1200CB
:020000040020DA
:10000000FFFFFFFFFFFFFFFFFFFFFFFFFFFFFFFF00
:020000040030CA
:0C000000AAFFFFFF9FFFFFFFFFFFFFFFB5
:00000001FF
