:040000001AEF00F003
:100008005E820E0133AB0BEF00F00DEF00F018EF3E
:1000180000F05D50D8B413EF00F015EF00F017EFC3
:1000280000F0010E5C6E339B5E92110015EF16F026
:100E00000025752025752025752025752000257560
:100E1000202575202575200D002564200D002564F2
:030E2000200000AF
:100E2400000E196E640E186E000E1F6E000E1E6EFC
:100E3400000E1D6E000E1C6E0FC007F02AEC15F09C
:100E440007C03CF008C03DF00FC007F000EC15F0FF
:100E540007C01AF008C01BF01A503C5C3E6E1B50D1
:100E64003D583F6E3E503F10D8A43BEF07F03DEF96
:100E740007F043EF07F0000E1F6E000E1E6E13EF17
:100E84000AF00F50D96EDA6A3C50DE1807E13D5083
:100E9400DE18D8A450EF07F052EF07F03FEF08F048
:100EA4000F50D96EDA6A040ED9260F50E16EE26A49
:100EB400020EE126DE50E65CDE50E658D8A065EF6F
:100EC40007F067EF07F0C7EF07F0000E246E000E7F
:100ED400256E000E266E000E276E0F50D96EDA6A4C
:100EE400040ED926DECF10F0DDCF11F00F50D96EED
:100EF400DA6A020ED926DECF12F0DDCF13F01050DD
:100F0400125C146E11501358156E1450242615508B
:100F14002522000E2622000E272224C001F025C01F
:100F240002F026C003F027C004F03C0E056E000E4C
:100F3400066E000E076E000E086E9CEC13F001C0E6
:100F440024F002C025F003C026F004C027F024C01A
:100F540001F025C002F026C003F027C004F03EC013
:100F640005F03FC006F0076A086A01EC12F001C000
:100F740024F002C025F003C026F004C027F024C0EA
:100F84001EF025C01FF03FEF08F03EC038F03FC010
:100F940039F03A6A3B6A38C001F039C002F03AC00D
:100FA40003F03BC004F0060E056E000E066E000E44
:100FB400076E000E086E9CEC13F001C038F002C0FE
:100FC40039F003C03AF004C03BF00F50D96EDA6A2E
:100FD400020ED926DECF10F0DDCF11F00F50D96EFE
:100FE400DA6A040ED926DECF12F0DDCF13F01050EA
:100FF400125C146E11501358156E166A176A145049
:10100400385E1550395A16503A5A17503B5A38C060
:1010140001F039C002F03AC003F03BC004F03C0ECA
:10102400056E000E066E000E076E000E086E9CEC38
:1010340013F001C038F002C039F003C03AF004C024
:101044003BF038C001F039C002F03AC003F03BC0B5
:1010540004F03EC005F03FC006F0076A086A01ECE0
:1010640012F001C038F002C039F003C03AF004C0F5
:101074003BF038C01EF039C01FF00F50D96EDA6A49
:10108400020ED9263C50DE1807E13D50DE18D8A4E4
:101094004EEF08F050EF08F025EF09F00F50D96E2D
:1010A400DA6A0F50E16EE26A040EE126DE50E65C75
:1010B400DE50E658D8A061EF08F063EF08F0C4EF03
:1010C40008F03EC028F03FC029F02A6A2B6AD89065
:1010D400283629362A362B360F50D96EDA6ADECFF7
:1010E40010F0DDCF11F00F50D96EDA6A040ED92654
:1010F400DECF12F0DDCF13F01050125C146E1150DD
:101104001358156E1450282615502922000E2A2231
:10111400000E2B2228C001F029C002F02AC003F0DF
:101124002BC004F03C0E056E000E066E000E076E1A
:10113400000E086E9CEC13F001C028F002C029F0E8
:1011440003C02AF004C02BF028C001F029C002F02B
:101154002AC003F02BC004F03EC005F03FC006F0E7
:10116400076A086A01EC12F001C028F002C029F0F5
:1011740003C02AF004C02BF028C01EF029C01FF0C1
:1011840025EF09F03EC02CF03FC02DF02E6A2F6AE7
:10119400D8902C362D362E362F360F50D96EDA6A6B
:1011A400040ED926DECF10F0DDCF11F00F50D96E2A
:1011B400DA6ADECF12F0DDCF13F01050125C146E39
:1011C40011501358156E166A176A14502C5E155078
:1011D4002D5A16502E5A17502F5A2CC001F02DC0DC
:1011E40002F02EC003F02FC004F03C0E056E000E7A
:1011F400066E000E076E000E086E9CEC13F001C024
:101204002CF002C02DF003C02EF004C02FF02CC02F
:1012140001F02DC002F02EC003F02FC004F03EC038
:1012240005F03FC006F0076A086A01EC12F001C03D
:101234002CF002C02DF003C02EF004C02FF02CC0FF
:101244001EF02DC01FF00F50D96EDA6A040ED92695
:101254003C50DE1807E13D50DE18D8A434EF09F005
:1012640036EF09F013EF0AF00F50D96EDA6A020E66
:10127400D9260F50E16EE26ADE50E65CDE50E65895
:10128400D8A047EF09F049EF09F0AEEF09F03EC0EE
:1012940030F03FC031F0326A336A020ED8903036F3
:1012A400313632363336E82E50EF09F00F50D96E0E
:1012B400DA6A020ED926DECF10F0DDCF11F00F501E
:1012C400D96EDA6ADECF12F0DDCF13F01050125C63
:1012D400146E11501358156E1450302615503122C7
:1012E400000E3222000E332230C001F031C002F071
:1012F40032C003F033C004F03C0E056E000E066EDF
:10130400000E076E000E086E9CEC13F001C030F066
:1013140002C031F003C032F004C033F030C001F039
:1013240031C002F032C003F033C004F03EC005F017
:101334003FC006F0076A086A01EC12F001C030F001
:1013440002C031F003C032F004C033F030C01EF0EC
:1013540031C01FF013EF0AF03EC034F03FC035F047
:10136400366A376A020ED890343635363636373612
:10137400E82EB5EF09F00F50D96EDA6ADECF10F01F
:10138400DDCF11F00F50D96EDA6A020ED926DECF06
:1013940012F0DDCF13F01050125C146E115013587C
:1013A400156E166A176A1450345E1550355A165065
:1013B400365A1750375A34C001F035C002F036C0DF
:1013C40003F037C004F03C0E056E000E066E000EEE
:1013D400076E000E086E9CEC13F001C034F002C0DE
:1013E40035F003C036F004C037F034C001F035C026
:1013F40002F036C003F037C004F03EC005F03FC031
:1014040006F0076A086A01EC12F001C034F002C069
:1014140035F003C036F004C037F034C01EF035C0D8
:101424001FF03C503D10D8A41AEF0AF01CEF0AF04C
:1014340022EF0AF0000E1D6E000E1C6E5EEF0AF025
:101444003EC020F03FC021F0226A236A20C001F090
:1014540021C002F022C003F023C004F0640E056E24
:10146400000E066E000E076E000E086E9CEC13F064
:1014740001C020F002C021F003C022F004C023F018
:1014840020C001F021C002F022C003F023C004F008
:101494003CC005F03DC006F0076A086A01EC12F092
:1014A40001C020F002C021F003C022F004C023F0E8
:1014B40020C01CF021C01DF00E50D96EDA6A1EC087
:1014C400DEFF1FC0DDFF0E50D96EDA6A020ED92688
:1014D4001CC0DEFF1DC0DDFF0E50D96EDA6A040E9B
:1014E400D9263CC0DEFF3DC0DDFF12001250800B48
:1014F4001B6E12501224216E11AE83EF0AF085EF99
:101504000AF086EF0AF021802150D8B48CEF0AF05B
:101514008EEF0AF0A1EF0AF02128D8A494EF0AF084
:1015240096EF0AF09EEF0AF0000E0F6E000E106E9A
:10153400000E116E000E126E118EA9EF0AF0000E4D
:101544000F6E000E106E000E116E000E126E16500D
:10155400800B1B1A16501624206E15AEB4EF0AF039
:10156400B6EF0AF0B7EF0AF020802050D8B4BDEFF0
:101574000AF0BFEF0AF0D2EF0AF02028D8A4C5EF92
:101584000AF0C7EF0AF0CFEF0AF0000E136E000E58
:10159400146E000E156E000E166E158EDAEF0AF03C
:1015A400000E136E000E146E000E156E000E166EF5
:1015B4002050D8B4E0EF0AF0E2EF0AF0EAEF0AF0C4
:1015C4002150D8A4E8EF0AF0EAEF0AF0F4EF0AF0A9
:1015D400000E0F6E000E106E000E116E000E126ED5
:1015E4008CEF0CF015500F02F3CF26F0F4CF27F058
:1015F40026501C6E1D6A1E6A1F6A2750226E236ABB
:10160400246A256A14501002F3CF26F0F4CF27F091
:1016140026501C26000E1D221E221F222750222681
:10162400000E23222422252213501102F3CF26F088
:10163400F4CF27F026501C26000E1D221E221F2246
:1016440027502226000E2322242225221EC01FF00A
:101654001DC01EF01CC01DF01C6A13501002F3CFF5
:1016640026F0F4CF27F026501C2627501D22000E0A
:101674001E22000E1F2214500F02F3CF26F0F4CFC7
:1016840027F026501C2627501D22000E1E22000E75
:101694001F221EC01FF01DC01EF01CC01DF01C6ABE
:1016A40013500F02F3CF26F0F4CF27F026501C2658
:1016B40027501D22000E1E22000E1F22155010025C
:1016C400F3CF26F0F4CF27F02650222627502322EA
:1016D400000E2422000E252214501102F3CF26F00E
:1016E400F4CF27F02650222627502322000E24224E
:1016F400000E252215501102F3CF26F0F4CF27F067
:101704002650176E2750186E196A1A6A19C01AF0F3
:1017140018C019F017C018F0176A1750222618506D
:101724002322195024221A5025221CC017F01DC050
:1017340018F01EC019F01FC01AF0190EA7EF0BF015
:10174400D8901A32193218321732E82EA2EF0BF061
:101754001750222618502322195024221A502522C9
:101764001EC01FF01DC01EF01CC01DF01C6A2050BE
:1017740021C017F0186A1726000E1822820E1724AB
:10178400266EFF0E1820276EDDEF0BF0D890223660
:101794002336243625361FAED2EF0BF0D4EF0BF0F0
:1017A400D5EF0BF02280D8901C361D361E361F361E
:1017B4002606D8A0270624AEE2EF0BF0E4EF0BF0E8
:1017C400C8EF0BF0000E206E1FAEEBEF0BF0EDEF49
:1017D4000BF011EF0CF0FF0E1C14176EFF0E1D140E
:1017E400186EFF0E1E14196E7F0E1F141A6E1750FA
:1017F400181019101A10D8B402EF0CF004EF0CF002
:1018040008EF0CF0010E206E11EF0CF022A00DEF8A
:101814000CF00FEF0CF011EF0CF004EF0CF0205073
:10182400D8B417EF0CF019EF0CF03DEF0CF0010EEB
:101834002226000E23222422252225A024EF0CF0A8
:1018440026EF0CF03DEF0CF022C017F023C018F087
:1018540024C019F025C01AF01A341A321932183279
:10186400173217C022F018C023F019C024F01AC090
:1018740025F0264A272A27BE48EF0CF0275008E116
:101884002628D8A048EF0CF04AEF0CF054EF0CF0E7
:10189400000E226E000E236E800E246E7F0E256EC7
:1018A40082EF0CF027BE61EF0CF0275006E126040E
:1018B400D8B05FEF0CF061EF0CF06DEF0CF0000EA0
:1018C400226E000E236E000E246E000E256E000E96
:1018D4001B6E82EF0CF026C021F0FF0E2216FF0EC5
:1018E40023167F0E2416000E251621A07CEF0CF083
:1018F4007EEF0CF07FEF0CF0248ED8902130256E13
:101904001B50251222C00FF023C010F024C011F088
:1019140025C012F01200096E0950D8B494EF0CF0EF
:1019240096EF0CF0B8EF0CF004BE9DEF0CF09BEFBB
:101934000CF0B8EF0CF001C005F002C006F003C0D3
:1019440007F004C008F0051E061E071E081E052A1F
:10195400000E06220722082205C00BF006C00CF078
:1019640007C00DF008C00EF0C0EF0CF001C00BF082
:1019740002C00CF003C00DF004C00EF001500210C0
:1019840003100410D8A4C9EF0CF0CBEF0CF0D5EF82
:101994000CF0000E016E000E026E000E036E000EBF
:1019A400046E66EF0DF0960E0A6EDFEF0CF00A2A55
:1019B400D8900E320D320C320B32000E0B14056E21
:1019C400000E0C14066E000E0D14076EFE0E0E149F
:1019D400086E0550061007100810D8A4F4EF0CF098
:1019E400F6EF0CF0D9EF0CF004EF0DF00A2A010E1B
:1019F4000B26000E0C220D220E22D8900E320D3230
:101A04000C320B32000E0B14056E000E0C14066E15
:101A1400000E0D14076EFF0E0E14086E055006100E
:101A240007100810D8A419EF0DF01BEF0DF0F8EF14
:101A34000CF023EF0DF00A06D8900B360C360D3659
:101A44000E360DBE28EF0DF02AEF0DF032EF0DF03B
:101A5400020E0A6030EF0DF032EF0DF01DEF0DF0C5
:101A64000AB037EF0DF039EF0DF03AEF0DF00D9E9F
:101A7400D8900A320AC005F0066A076A086A05C0E7
:101A840008F0076A066A056A05500B1206500C1224
:101A940007500D1208500E120950D8B454EF0DF02F
:101AA40056EF0DF05EEF0DF004BE5DEF0DF05BEF51
:101AB4000DF05EEF0DF00E8E0BC001F00CC002F0C5
:101AC4000DC003F00EC004F012000E50D96EDA6A95
:101AD400020ED926DF50D8B472EF0DF074EF0DF07A
:101AE400A4EF0DF00E50D96EDA6ADF500F6E0F506E
:101AF400016E026A0E50D96EDA6A030ED926DECF61
:101B040003F0DDCF04F07BEC17F001C007F002C056
:101B140008F0000E0A6E640E096E62EC13F00E50AB
:101B2400D96EDA6A030ED926DF50106E0750105CA6
:101B3400116E0E50D96EDA6A030ED926DF50126E7A
:101B4400C5EF0DF0000E116E0E50D96EDA6ADF503B
:101B54000F6E0F50016E026A0E50D96EDA6A030ED0
:101B6400D926DECF03F0DDCF04F07BEC17F001C003
:101B740007F002C008F0000E0A6E640E096E62ECF3
:101B840013F00750126E0E50D96EDA6A010ED92680
:101B9400DF50D8B4D0EF0DF0D2EF0DF0F2EF0DF02E
:101BA4000E50D96EDA6A050ED926DECF0FF0DDCFDE
:101BB40010F00FC0D9FF10C0DAFF11C0DFFF0E50C4
:101BC400D96EDA6A070ED926DECF0FF0DDCF10F01A
:101BD4000FC0D9FF10C0DAFF12C0DFFF10EF0EF004
:101BE4000E50D96EDA6A050ED926DECF0FF0DDCF9E
:101BF40010F00FC0D9FF10C0DAFF12C0DFFF0E5083
:101C0400D96EDA6A070ED926DECF0FF0DDCF10F0D9
:101C14000FC0D9FF10C0DAFF11C0DFFF1200000EA1
:101C24002A6E010E2B6E010E2C6E000E2E6E630EAC
:101C34002D6EAA0E2F6E0F0E306EA60E316E0F0E85
:101C4400326E000E336E010E346E010E356E000ED0
:101C5400376E630E366E250E386E0F0E396E210EFA
:101C64003A6E0F0E3B6E2750D96EDA6A220EDE5C96
:101C74000B0EDE58D8A041EF0EF043EF0EF09BEFB1
:101C84000EF02750D96EDA6A100EDE5C0F0EDE58A5
:101C9400D8B04FEF0EF051EF0EF09BEF0EF027503F
:101CA400D96EDA6A020ED9265A0EDE5C020EDE58AE
:101CB400D8A05FEF0EF061EF0EF09BEF0EF027500F
:101CC400D96EDA6A020ED9262F0EDE5C030EDE58B8
:101CD400D8B06FEF0EF071EF0EF09BEF0EF02750BF
:101CE400D96EDA6A040ED926780EDE5C040EDE584C
:101CF400D8A07FEF0EF081EF0EF09BEF0EF027508F
:101D0400D96EDA6A040ED9260D0EDE5C060EDE5894
:101D1400D8B08FEF0EF091EF0EF09BEF0EF02A0E7D
:101D2400216E330E226E000E236E010E246EA1EC82
:101D34000FF012002A342B34316E3150D8A4A5EFA1
:101D44000EF0A7EF0EF0B1EF0EF0000E286E000EAD
:101D5400296E000E2A6E000E2B6E1EEF0FF028C0A7
:101D64002CF029C02DF02AC02EF02BC02FF0200E0D
:101D7400C1EF0EF0D8902F322E322D322C32E82EB5
:101D8400BCEF0EF02C50306E2A8EFF0E2816FF0E7C
:101D94002916FF0E2A16000E2B16960E315E31BE42
:101DA400D8EF0EF0D6EF0EF0EEEF0EF03150800AC1
:101DB400970FD8B0E0EF0EF0E2EF0EF0E4EF0EF084
:101DC400A7EF0EF0D8902B322A3229322832313E36
:101DD400E4EF0EF006EF0FF01F0E3164F4EF0EF097
:101DE400F6EF0EF0FEEF0EF0A7EF0EF0D8902836C7
:101DF40029362A362B3631063150D8A404EF0FF099
:101E040006EF0FF0F8EF0EF03050D8B40CEF0FF0EF
:101E14000EEF0FF016EF0FF02B1E2A1E291E286C52
:101E2400000E29222A222B2228C028F029C029F0BA
:101E34002AC02AF02BC02BF01200000E0001796F8B
:101E4400000E786F000E7B6F000E7A6F000E7D6FB0
:101E5400000E7C6F000E7F6F000E7E6F000E616FB0
:101E6400000E606F000E636F000E626F000E656FF0
:101E7400000E646F000E666F010E676F010E686FCF
:101E8400000E6A6F630E696FAA0E6B6F0F0E6C6F94
:101E9400A60E6D6F0F0E6E6F000E6F6F010E706FDA
:101EA400010E716F000E736F630E726F250E746FE7
:101EB4000F0E756F210E766F0F0E776F000E026E88
:101EC400630E016E53EC12F028EC17F033EC16F0AD
:101ED400B0EC17F08EEC17F0849E88967C9E80966A
:101EE400868486860E01B495B49780A67CEF0FF0A5
:101EF40080EF0FF0406A402A81EF0FF0406A4046BD
:101F04004046404680504018F70B4018806E8AECDB
:101F140010F0780E0C6ED5EC14F0780E326E1FECC7
:101F240010F0600E0E6E780E0F6E12EC07F0780E45
:101F3400276E11EC0EF08BEF0FF01AEF00F0F1EFBB
:101F44000FF021C01CF022C01DF023C01EF0D1EC04
:101F540013F01EEF10F021C01CF022C01DF023C0AE
:101F64001EF039EC14F01EEF10F021C01CF022C05A
:101F74001DF023C01EF0A1EC14F01EEF10F021C0E0
:101F84001CF022C01DF023C01EF0E2EC12F01EEF84
:101F940010F021C01CF022C01DF023C01EF022EC62
:101FA40013F01EEF10F021C01CF022C01DF023C05E
:101FB4001EF005EC14F01EEF10F021C01CF022C03E
:101FC4001DF023C01EF06DEC14F01EEF10F021C0C4
:101FD4001CF022C01DF068EC17F01EEF10F0245026
:101FE400256E266A2650000AD8B4FBEF0FF01EEFC8
:101FF40010F02550010AD8B4A3EF0FF0030AD8B4A7
:10200400ADEF0FF0010AD8B4B7EF0FF0070AD8B458
:10201400C1EF0FF0010AD8B4CBEF0FF0030AD8B424
:10202400D5EF0FF0010AD8B4DFEF0FF00F0AD8B4E0
:10203400E9EF0FF01EEF10F01200000E136E000E09
:10204400146E000E156E3F0E166E3250D96EDA6A9B
:10205400DECF33F0DDCF34F033C001F034C002F012
:10206400036A046A000E8DEC0CF001C00FF002C08C
:1020740010F003C011F004C012F078EC0AF00FC0A5
:1020840028F010C029F011C02AF012C02BF09CECEB
:102094000EF03250D96EDA6A28C0DEFF29C0DDFFA7
:1020A400330E136E330E146E330E156E3F0E166E12
:1020B4003250D96EDA6A020ED926DECF33F0DDCF84
:1020C40034F033C001F034C002F0036A046A000E35
:1020D4008DEC0CF001C00FF002C010F003C011F041
:1020E40004C012F078EC0AF00FC028F010C029F0F8
:1020F40011C02AF012C02BF09CEC0EF03250D96EB5
:10210400DA6A020ED92628C0DEFF29C0DDFF1200DC
:102114007FA28FEF10F093EF10F0016A012A94EF81
:1021240010F0016A01467F500118FD0B01187F6E03
:1021340079A89FEF10F0A3EF10F0016A012AA4EF31
:1021440010F0016A013A79500118EF0B0118796E09
:102154007EAEAFEF10F0B3EF10F0016A012AB4EFD6
:1021640010F0016A013201327E5001187F0B011810
:102174007E6E7FA0C0EF10F0C4EF10F0016A012A58
:10218400C5EF10F0016A7F500118FE0B01187F6E35
:102194007DAECFEF10F0D3EF10F0016A012AD4EF37
:1021A40010F0016A013201327D5001187F0B0118D1
:1021B4007D6E79A6E0EF10F0E4EF10F0016A012AD9
:1021C400E5EF10F0016A0146014601467950011815
:1021D400F70B0118796E12002A0E166E2A0E176E6E
:1021E4001350D96EDA6A010ED926010EDF6E14502F
:1021F400D96EDA6A010ED926DF6A31EF11F0135075
:10220400D96EDA6A1650DE5CD8B00BEF11F00DEF20
:1022140011F011EF11F01350D96EDA6ADF2A14505D
:10222400D96EDA6A1750DE5CD8B01BEF11F01DEFDF
:1022340011F021EF11F01450D96EDA6ADF2A13C0BD
:102244000EF067EC0DF014C00EF067EC0DF0A70E65
:10225400156E3A0EE82EFED7152EFCD700D013507B
:10226400D96EDA6A1650DE5CD8A03BEF11F03DEF70
:1022740011F001EF11F01450D96EDA6A1750DE5CD8
:10228400D8A047EF11F049EF11F001EF11F012005F
:102294002A0E166E2A0E176E1350D96EDA6A010EC4
:1022A400D926DF6A1450D96EDA6A010ED926010ED6
:1022B400DF6E8DEF11F01350D96EDA6A1650DE5CC2
:1022C400D8B067EF11F069EF11F06DEF11F0135012
:1022D400D96EDA6ADF2A1450D96EDA6A1750DE5CD6
:1022E400D8B077EF11F079EF11F07DEF11F01450C1
:1022F400D96EDA6ADF2A13C00EF067EC0DF014C051
:102304000EF067EC0DF0A70E156E3A0EE82EFED710
:10231400152EFCD700D01350D96EDA6A1650DE5C45
:10232400D8A097EF11F099EF11F05DEF11F0145070
:10233400D96EDA6A1750DE5CD8A0A3EF11F0A5EFCE
:1023440011F05DEF11F01200140E166E140E176EDC
:102354001350D96EDA6A010ED926DF6A1450D96E89
:10236400DA6A010ED926DF6AE8EF11F01350D96E4C
:10237400DA6A1650DE5CD8B0C2EF11F0C4EF11F087
:10238400C8EF11F01350D96EDA6ADF2A1450D96EEF
:10239400DA6A1750DE5CD8B0D2EF11F0D4EF11F046
:1023A400D8EF11F01450D96EDA6ADF2A13C00EF098
:1023B40067EC0DF014C00EF067EC0DF0A70E156E6F
:1023C4003A0EE82EFED7152EFCD700D01350D96E46
:1023D400DA6A1650DE5CD8A0F2EF11F0F4EF11F0D7
:1023E400B8EF11F01450D96EDA6A1750DE5CD8A039
:1023F400FEEF11F000EF12F0B8EF11F01200000E32
:10240400096E000E0A6E000E0B6E000E0C6E055067
:10241400061007100810D8B412EF12F014EF12F0DF
:102424004AEF12F0010E0D6E1EEF12F0D890053631
:102434000636073608360D2A08AE23EF12F025EFCC
:1024440012F018EF12F0D89009360A360B360C3613
:102454000550015C065002580750035808500458B0
:10246400D8A037EF12F039EF12F042EF12F0055016
:10247400015E0650025A0750035A0850045A098054
:10248400D89008320732063205320D2E25EF12F0AD
:1024940009C001F00AC002F00BC003F00CC004F044
:1024A400120085948598839E879C7D947D987B9E5D
:1024B4007F9C050E0E01746F060E766F070E696F12
:1024C400080E886FBD508F0B4009BD6EE00EBE161E
:1024D400BF50F00B0109BF6E01C0BCFFBD8E000EE2
:1024E400AA6E000EA66E000E0F01256F000E216F5E
:1024F400FC0EAD16F30EAD16CF0EAD163F0EAD1697
:10250400AB88AB50F00B0C09AB6EAB8EA788A75011
:10251400F00B0C09A76EA78E26892651F00B0C0927
:10252400266F268F22892251F00B0C09226F228FED
:102534001200CBEF12F01350D96EDA6ADF50D8B420
:10254400A6EF12F0A8EF12F0ACEF12F01350D96E10
:10255400DA6ADF061450D96EDA6ADF50D8B4B5EF00
:1025640012F0B7EF12F0BBEF12F01450D96EDA6A22
:10257400DF0613C00EF067EC0DF014C00EF067EC2C
:102584000DF0A70E156E3A0EE82EFED7152EFCD7C9
:1025940000D01350D96EDA6ADF50D8A4D4EF12F009
:1025A400D6EF12F09DEF12F01450D96EDA6ADF50B4
:1025B400D8A4DFEF12F0E1EF12F09DEF12F0120059
:1025C4000CEF13F01CC018F01DC019F010EC17F03C
:1025D4001CC018F01DC019F0C8EC16F01CC018F08F
:1025E4001DC019F04DEC16F021EF13F01CC018F0CB
:1025F4001DC019F066EC16F01CC018F01DC019F0CF
:10260400C8EC16F01CC018F01DC019F010EC17F03F
:1026140021EF13F01E501F6E206A2050000AD8B418
:1026240016EF13F021EF13F01F50000AD8B4E4EFB3
:1026340012F0010AD8B4F8EF12F021EF13F01200EF
:102644004CEF13F01CC018F01DC019F010EC17F07B
:102654001CC018F01DC019F0C8EC16F01CC018F00E
:102664001DC019F066EC16F061EF13F01CC018F0F1
:102674001DC019F04DEC16F01CC018F01DC019F067
:10268400C8EC16F01CC018F01DC019F010EC17F0BF
:1026940061EF13F01E501F6E206A2050000AD8B458
:1026A40056EF13F061EF13F01F50000AD8B424EF73
:1026B40013F0010AD8B438EF13F061EF13F01200ED
:1026C400000E0C6E000E0B6E09500A10D8B46DEF9C
:1026D40013F06FEF13F097EF13F0010E0D6E77EF19
:1026E40013F0D89009360A360D2A0AAE7CEF13F09F
:1026F4007EEF13F073EF13F0D8900B360C360950BD
:10270400075C0A500858D8A08AEF13F08CEF13F036
:1027140091EF13F00950075E0A50085A0B80D890C5
:102724000A3209320D2E7EEF13F00BC007F00CC0F5
:1027340008F01200000E096E000E0A6E000E0B6EF9
:10274400000E0C6E01A0A9EF13F0ABEF13F0B3EF82
:1027540013F00550092606500A2207500B22085090
:102764000C22D8900536063607360836D89004323F
:102774000332023201320150021003100410D8A4B3
:10278400C6EF13F0C8EF13F0A4EF13F009C001F083
:102794000AC002F00BC003F00CC004F01200EFEF0B
:1027A40013F01CC018F01DC019F010EC17F01CC079
:1027B40018F01DC019F04DEC16F004EF14F01CC015
:1027C40018F01DC019F066EC16F01CC018F01DC0FE
:1027D40019F010EC17F004EF14F01E501F6E206A6D
:1027E4002050000AD8B4F9EF13F004EF14F01F508E
:1027F400000AD8B4D3EF13F0010AD8B4E1EF13F010
:1028040004EF14F0120023EF14F01CC018F01DC0E4
:1028140019F010EC17F01CC018F01DC019F0E0EC12
:1028240016F038EF14F01CC018F01DC019F0F8ECC5
:1028340016F01CC018F01DC019F010EC17F038EF9A
:1028440014F01E501F6E206A2050000AD8B42DEFD9
:1028540014F038EF14F01F50000AD8B407EF14F046
:10286400010AD8B415EF14F038EF14F0120057EF42
:1028740014F01CC018F01DC019F010EC17F01CC0A7
:1028840018F01DC019F066EC16F06CEF14F01CC0C3
:1028940018F01DC019F04DEC16F01CC018F01DC046
:1028A40019F010EC17F06CEF14F01E501F6E206A34
:1028B4002050000AD8B461EF14F06CEF14F01F50EC
:1028C400000AD8B43BEF14F0010AD8B449EF14F06D
:1028D4006CEF14F012008BEF14F01CC018F01DC044
:1028E40019F010EC17F01CC018F01DC019F0F8EC2A
:1028F40016F0A0EF14F01CC018F01DC019F0E0ECA5
:1029040016F01CC018F01DC019F010EC17F0A0EF61
:1029140014F01E501F6E206A2050000AD8B495EFA0
:1029240014F0A0EF14F01F50000AD8B46FEF14F0A5
:10293400010AD8B47DEF14F0A0EF14F01200BFEF39
:1029440014F01CC018F01DC019F010EC17F01CC0D6
:1029540018F01DC019F07FEC16F0D4EF14F01CC071
:1029640018F01DC019F07FEC16F01CC018F01DC043
:1029740019F010EC17F0D4EF14F01E501F6E206AFB
:102984002050000AD8B4C9EF14F0D4EF14F01F504B
:10299400000AD8B4A3EF14F0010AD8B4B1EF14F0CC
:1029A400D4EF14F0120054EC15F00C50D96EDA6A1E
:1029B40005C0DEFF06C0DDFF7CEC15F00C50D96EBF
:1029C400DA6A020ED92605C0DEFF06C0DDFFCCECB4
:1029D40015F00C50D96EDA6A040ED92605C0DEFF54
:1029E40006C0DDFFA4EC15F00C50D96EDA6A060EB1
:1029F400D92605C0DEFF06C0DDFF12000750D96EE0
:102A0400DA6ADECF01F0DDCF02F00750D96EDA6A60
:102A1400020ED926DECF03F0DDCF04F098EC16F0D9
:102A240001C009F002C00AF009C001F00AC002F0B6
:102A34000750D96EDA6A040ED926DECF03F0DDCF53
:102A440004F098EC16F001C007F002C008F0120080
:102A54000750D96EDA6ADECF01F0DDCF02F00750FD
:102A6400D96EDA6A020ED926DECF03F0DDCF04F088
:102A7400B0EC16F001C009F002C00AF009C001F080
:102A84000AC002F00750D96EDA6A040ED926DECFE6
:102A940003F0DDCF04F0B0EC16F001C007F002C083
:102AA40008F01200E8EC17F0520ECCEC17F0B60E5A
:102AB400CCEC17F0DEEC17F0530ECCEC17F0010E53
:102AC400F4EC15F0076E07500A6E0B6A000EF4EC76
:102AD40015F0076E0750096E086A0A5008100A6E4E
:102AE4000B5009100B6EE3EC17F00AC005F00BC095
:102AF40006F01200E8EC17F0520ECCEC17F0B80E0A
:102B0400CCEC17F0DEEC17F0530ECCEC17F0010E02
:102B1400F4EC15F0076E07500A6E0B6A000EF4EC25
:102B240015F0076E0750096E086A0A5008100A6EFD
:102B34000B5009100B6EE3EC17F00AC005F00BC044
:102B440006F01200E8EC17F0520ECCEC17F0B40EBD
:102B5400CCEC17F0DEEC17F0530ECCEC17F0010EB2
:102B6400F4EC15F0076E07500A6E0B6A000EF4ECD5
:102B740015F0076E0750096E086A0A5008100A6EAD
:102B84000B5009100B6EE3EC17F00AC005F00BC0F4
:102B940006F01200E8EC17F0520ECCEC17F0BA0E67
:102BA400CCEC17F0DEEC17F0530ECCEC17F0010E62
:102BB400F4EC15F0076E07500A6E0B6A000EF4EC85
:102BC40015F0076E0750096E086A0A5008100A6E5D
:102BD4000B5009100B6EE3EC17F00AC005F00BC0A4
:102BE40006F01200036E54EC17F00E01DA8754EC71
:102BF40017F0D5CE04F054EC17F00350D8B405EF19
:102C040016F009EF16F0026A022A0AEF16F0026AB9
:102C1400023A02460E01DA510218DF0B0218DA6F8B
:102C2400DA89045012007E0EF66E2F0EF76E000E37
:102C3400F86E00EE41F010EE1AF00900F5CFEEFF49
:102C4400E550E150FAE101EE00F03C0EEE6AE806D0
:102C5400FDE15D6A5C6A5B6A5E905E9200011FEF53
:102C64000FF03FEC17F0010E036E000EA0EC17F00E
:102C74003F0E056E550EE82EFED7052EFCD700003C
:102C8400030E036E000EA0EC17F0D50E036E010EBA
:102C9400A0EC17F0120018C013F019C014F0EEECF9
:102CA40010F00F0E1B6E350E1A6E510EE82EFED765
:102CB4001A2EFCD71B2EFAD7000018C013F019C027
:102CC40014F09BEC12F0120018C013F019C014F0A9
:102CD4004AEC11F00F0E1B6E350E1A6E510EE82ED3
:102CE400FED71A2EFCD71B2EFAD7000018C013F0FB
:102CF40019C014F09BEC12F0120018C013F019C0A4
:102D040014F04AEC11F02A0E1B6E660E1A6E490E70
:102D1400E82EFED71A2EFCD71B2EFAD7000018C0B7
:102D240013F019C014F09BEC12F0120003C005F06C
:102D340004C006F00350015C04500258D8B0A5EF5B
:102D440016F0A7EF16F0ABEF16F001C005F002C0C5
:102D540006F005C001F006C002F0120003C005F041
:102D640004C006F00150035C02500458D8B0BDEF13
:102D740016F0BFEF16F0C3EF16F001C005F002C065
:102D840006F005C001F006C002F0120018C013F0EE
:102D940019C014F0A6EC11F0190E1B6E5A0E1A6E1F
:102DA400B20EE82EFED71A2EFCD71B2EFAD718C067
:102DB40013F019C014F09BEC12F0120018C013F0B9
:102DC40019C014F0EEEC10F0190E1B6E5A0E1A6EA8
:102DD400B20EE82EFED71A2EFCD71B2EFAD718C037
:102DE40013F019C014F09BEC12F0120018C013F089
:102DF40019C014F04AEC11F0190E1B6E5A0E1A6E1B
:102E0400B20EE82EFED71A2EFCD71B2EFAD718C006
:102E140013F019C014F09BEC12F0120018C013F058
:102E240019C014F0A6EC11F0060E1B6EAF0E1A6E4C
:102E3400860EE82EFED71A2EFCD71B2EFAD718C002
:102E440013F019C014F09BEC12F0120084988892CD
:102E54008496869088907C9880927C967E908090D0
:102E640087928198869E7F9279987E9E8790859E90
:102E740081967F907D9E799612000E01D951F00BB8
:102E84000809D96FD98B9F0ED66F848A848CA79B2F
:102E9400A79D1D0E1D6F1E0E1C6F1C0E6F6F1B0E4B
:102EA400706F12000E01D8B55AEF17F05CEF17F0EF
:102EB40054EF17F0DACE01F01F0E0116D8A465EF17
:102EC40017F067EF17F054EF17F012001CC018F05A
:102ED4001DC019F010EC17F01CC018F01DC019F03B
:102EE4007FEC16F01CC018F01DC019F010EC17F0A0
:102EF400120001500302F3CF05F0F4CF06F00150A5
:102F04000402F350062602500302F350062605C0BD
:102F140001F006C002F01200D6501F0B4009D66E15
:102F2400D688D588D650F00B0E09D66ED2EC17F0A1
:102F3400D58E0E01298BF28CF28E1200046EE8EC11
:102F440017F0520ECCEC17F004508009CCEC17F0BB
:102F54000350CCEC17F0E3EC17F01200120E0E0144
:102F6400626F110E156FE997E895330EE56F000E49
:102F7400E66FE789E88BE78F12000001140128014E
:102F84002C012C014600FE012C012C01AF00AF00E6
:102F94002A141408026E54EC17F002C0D5FE120075
:102FA400000E016E000ED8EC17F01200026E02C083
:102FB400D4FF01C0D3FF120054EC17F00E01DA83E2
:102FC400120054EC17F00E01DA85120054EC17F0DD
:062FD4000E01DA8112007B
:020000040020DA
:10000000FFFFFFFFFFFFFFFFFFFFFFFFFFFFFFFF00
:020000040030CA
:0C000000AAFFFFFF9FFFFFFFFFFFFFFFB5
:00000001FF
