:040000001AEF00F003
:100008004E820E0133AB0BEF00F00DEF00F018EF4E
:1000180000F04450D8B413EF00F015EF00F017EFDC
:1000280000F0010E496E339B4E9211008DEF09F0DE
:100E0000002564200D00256400000E50D96EDA6ABA
:100E1000020ED926DF50D8B410EF07F012EF07F01A
:100E200042EF07F00E50D96EDA6ADF500F6E0F50A6
:100E3000016E026A0E50D96EDA6A030ED926DECF31
:100E400003F0DDCF04F06CEC0AF001C007F002C043
:100E500008F0000E0A6E640E096E53EC09F00E5095
:100E6000D96EDA6A030ED926DF50106E0750105C77
:100E7000116E0E50D96EDA6A030ED926DF50126E4B
:100E800063EF07F0000E116E0E50D96EDA6ADF5074
:100E90000F6E0F50016E026A0E50D96EDA6A030EA1
:100EA000D926DECF03F0DDCF04F06CEC0AF001C0F0
:100EB00007F002C008F0000E0A6E640E096E53ECD3
:100EC00009F00750126E0E50D96EDA6A010ED9265B
:100ED000DF50D8B46EEF07F070EF07F090EF07F037
:100EE0000E50D96EDA6A050ED926DECF0FF0DDCFAF
:100EF00010F00FC0D9FF10C0DAFF11C0DFFF0E5095
:100F0000D96EDA6A070ED926DECF0FF0DDCF10F0EA
:100F10000FC0D9FF10C0DAFF12C0DFFFAEEF07F03D
:100F20000E50D96EDA6A050ED926DECF0FF0DDCF6E
:100F300010F00FC0D9FF10C0DAFF12C0DFFF0E5053
:100F4000D96EDA6A070ED926DECF0FF0DDCF10F0AA
:100F50000FC0D9FF10C0DAFF11C0DFFF1200520E20
:100F60001F6E2B0E1E6E000EE82EFED71E2EFCD717
:100F70001F2EFAD700D0000E206E010E216E010E3A
:100F8000226E000E246E630E236EAA0E256E0F0EC7
:100F9000266EA60E276E0F0E286E000E296E010E0D
:100FA0002A6E010E2B6E000E2D6E630E2C6E250E1A
:100FB0002E6E0F0E2F6E210E306E0F0E316E000E44
:100FC000026E630E016E7DEC08F0BDEC09F001ECE1
:100FD0000AF08FEC0AF058EC0AF0868486860E013F
:100FE000B495B497200E186E290E196EC5EC08F052
:100FF0008EB4FDEF07F0FFEF07F010EF08F07CAEC6
:1010000004EF08F008EF08F01E6A1E2A09EF08F046
:101010001E6A1E321E327C501E187F0B1E187C6EFC
:10102000290E1F6E960E1E6E7F0EE82EFED71E2E08
:10103000FCD71F2EFAD70000F8EF07F01AEF00F0E8
:10104000140E166E140E176E1350D96EDA6A010E56
:10105000D926010EDF6E1450D96EDA6A010ED92638
:10106000010EDF6E64EF08F01350D96EDA6A165085
:10107000DE5CD8B03EEF08F040EF08F044EF08F037
:101080001350D96EDA6ADF2A1450D96EDA6A175013
:10109000DE5CD8B04EEF08F050EF08F054EF08F0E7
:1010A0001450D96EDA6ADF2A13C00EF005EC07F08F
:1010B00014C00EF005EC07F0A70E156E3A0EE82EE0
:1010C000FED7152EFCD700D01350D96EDA6A165011
:1010D000DE5CD8A06EEF08F070EF08F034EF08F097
:1010E0001450D96EDA6A1750DE5CD8A07AEF08F097
:1010F0007CEF08F034EF08F0120085948598839E09
:10110000879C7D947D987B9E7F9C050E0E01746F5D
:10111000060E766F070E696F080E886FBD508F0B35
:101120004009BD6EE00EBE16BF50F00B0109BF6E48
:1011300001C0BCFFBD8E000EAA6E000EA66E000E92
:101140000F01256F000E216FFC0EAD16F30EAD16CC
:10115000CF0EAD163F0EAD16AB88AB50F00B0C09A1
:10116000AB6EAB8EA788A750F00B0C09A76EA78EAD
:1011700026892651F00B0C09266F268F22892251D1
:10118000F00B0C09226F228F1200F1EF08F0000E15
:101190001C6E000E1D6E000E1B6E1C0E016E1D0ED1
:1011A000026E1B0E036EE4EC09F01C50FF0AD46EB5
:1011B0001D50FF0AD36E18C013F019C014F020ECB4
:1011C00008F04950D8B4E7EF08F0E9EF08F0E1EF94
:1011D00008F018C013F019C014F00CEC09F0000E60
:1011E000496E4050D8A4F7EF08F0F9EF08F0C7EFC8
:1011F00008F080A6FEEF08F002EF09F01A6A1A2A3A
:1012000003EF09F01A6A1A461A461A4680501A184D
:10121000F70B1A18806E12003CEF09F01350D96ECC
:10122000DA6ADF50D8B417EF09F019EF09F01DEFB3
:1012300009F01350D96EDA6ADF061450D96EDA6AF3
:10124000DF50D8B426EF09F028EF09F02CEF09F0B1
:101250001450D96EDA6ADF0613C00EF005EC07F001
:1012600014C00EF005EC07F0A70E156E3A0EE82E2E
:10127000FED7152EFCD700D01350D96EDA6ADF5096
:10128000D8A445EF09F047EF09F00EEF09F014502C
:10129000D96EDA6ADF50D8A450EF09F052EF09F0A6
:1012A0000EEF09F01200000E0C6E000E0B6E0950CE
:1012B0000A10D8B45EEF09F060EF09F088EF09F08A
:1012C000010E0D6E68EF09F0D89009360A360D2A26
:1012D0000AAE6DEF09F06FEF09F064EF09F0D890F6
:1012E0000B360C360950075C0A500858D8A07BEF23
:1012F00009F07DEF09F082EF09F00950075E0A500E
:10130000085A0B80D8900A3209320D2E6FEF09F07F
:101310000BC007F00CC008F01200600EF66E140E41
:10132000F76E000EF86E00EEC4F010EE28F0090023
:10133000F5CFEEFFE550E150FAE13C0EF66E150EEA
:10134000F76E000EF86E00EE32F010EE17F00900A6
:10135000F5CFEEFFE550E150FAE100EE60F0640EEB
:10136000EE6AE806FDE14D6A4C6A4B6A4A6A496AD0
:101370004E904E920001AFEF07F0849888928496C9
:10138000869088907C8880827C867E808080849E07
:1013900088967C8E808681908394849079807B84EB
:1013A0007C808192839C889479827B8C80848792D4
:1013B0008198869E7F8279887E8E8790859E819691
:1013C0007F807D8E79861200430642064106435097
:1013D000D96EDA6A0150E16EE26ADFCFE7FF425070
:1013E000D96EDA6A0250E16EE26ADFCFE7FF415060
:1013F000D96EDA6A0350E16EE26ADFCFE7FF40069A
:1014000012001BEC0AF0010E036E000E7FEC0AF0D6
:101410003F0E056E550EE82EFED7052EFCD70000B8
:10142000030E036E000E7FEC0AF0D50E036E010E64
:101430007FEC0AF012000E01D951F00B0809D96FA8
:10144000D98B9F0ED66F848A848CA79BA79D1D0E77
:101450001D6F1E0E1C6F1C0E6F6F1B0E706F120027
:10146000010203040506070809000102030405063A
:10147000070809000306030603060306030603061E
:1014800003060306030603060E01D8B54AEF0AF069
:101490004CEF0AF044EF0AF0DACE01F01F0E01160D
:1014A000D8A455EF0AF057EF0AF044EF0AF0120003
:1014B000D6501F0B4009D66ED688D588D650F00B73
:1014C0000E09D66E000ED46E000ED36ED58E0E01B0
:1014D000298BF28CF28E120001500302F3CF05F03B
:1014E000F4CF06F001500402F35006260250030226
:1014F000F350062605C001F006C002F01200046E8B
:10150000B5EC0AF0520EAAEC0AF004508009AAECDD
:101510000AF00350AAEC0AF0B0EC0AF01200120E26
:101520000E01626F110E156FE997E895330EE56FA6
:10153000000EE66FE789E88BE78F12002C0146006A
:10154000FE012C012C01AF00AF0014D8C4EC012A1D
:0315500014140868
:10155400026E44EC0AF002C0D5FE120044EC0AF01C
:101564000E01DA85120044EC0AF00E01DA81120051
:020000040020DA
:10000000FFFFFFFFFFFFFFFFFFFFFFFFFFFFFFFF00
:020000040030CA
:0C000000AAFFFFFF9FFFFFFFFFFFFFFFB5
:00000001FF
