:040000001CEF00F001
:100008005F820E0133AB0BEF00F00DEF00F01AEF3B
:1000180000F000019D51D8B414EF00F016EF00F085
:1000280018EF00F0010E9C6F0E01339B5F921100D8
:0400380013EF0BF0C7
:0B0E0000002564200D00256420000088
:100E0C00000E116E000E106E0C50D96EDA6ADFCF28
:100E1C00F6FF0E0EF76E000EF86E0800F550250A60
:100E2C00D8A41BEF07F01DEF07F0E7EF07F00C500D
:100E3C00D96EDA6ADF2A000E0001976F000E966FEA
:100E4C0096C09AF0986999690C50D96EDA6ADF509D
:100E5C00126E12C0F6FF0E0EF76E000EF86E080042
:100E6C00F550640AD8B43DEF07F03FEF07F04FEFB1
:100E7C0007F012C0F6FF0E0EF76E000EF86E0800AB
:100E8C00F550690AD8A44DEF07F04FEF07F0DDEFEE
:100E9C0007F00D50D96EDA6A020EDF26DF5CD96ED0
:100EAC00DA6ADECF13F0DECF14F00C50D96EDA6AAA
:100EBC001228DF6E200E176E14BE67EF07F06AEF74
:100ECC0007F0010E6BEF07F0000E0F6E17061750B0
:100EDC00600FD96EDA6A13C001F014C002F0000E74
:100EEC00046E0A0E036E26EC09F001C007F002C076
:100EFC0008F055EC0BF00750300FDF6E13C001F00B
:100F0C0014C002F0000E046E0A0E036E67EC08F0BB
:100F1C0001C013F002C014F0104A112A135014101F
:100F2C00D8B49BEF07F09DEF07F0A5EF07F0175033
:100F3C00D8A4A3EF07F0A5EF07F06CEF07F017505C
:100F4C00D8B4ABEF07F0ADEF07F0CEEF07F00F50D2
:100F5C00D8B4B3EF07F0B5EF07F0CEEF07F01706F4
:100F6C001750600FD96EDA6A2D0EDF6E104A112AF7
:100F7C00CEEF07F01750600FD96EDA6ADF500E6EA5
:100F8C000E50016E026A0BC003F0C9EC08F0172A70
:100F9C00200E1718D8A4D5EF07F0D7EF07F0C0EF45
:100FAC0007F010C00BF011C00CF000EF08F00C5063
:100FBC00D96EDA6ADF2A000E0C6E000E0B6E00EF93
:100FCC0008F00C50D96EDA6ADFCFF6FF0E0EF76E12
:100FDC00000EF86E0800F550016E026A0BC003F0AB
:100FEC00C9EC08F00C50D96EDA6ADF2A000E0C6ED0
:100FFC00010E0B6E1200000E4D6E010E4E6E010EA8
:10100C004F6E000E516E630E506EAA0E526E0F0E86
:10101C00536EA60E546E0F0E556E000E566E010ECC
:10102C00576E010E586E000E5A6E630E596E250ED9
:10103C005B6E0F0E5C6E210E5D6E0F0E5E6E000E03
:10104C00026E630E016E7EEC09F089EC0BF06FEC16
:10105C000BF011EC0CF0DEEC0BF0849E88967C8E81
:10106C008086868486860E01B495B497450E0C6EE8
:10107C0022EC0AF04BC030F04CC031F0F0EC0BF02D
:10108C007CAE4BEF08F04FEF08F0436A432A50EF69
:10109C0008F0436A433243327C5043187F0B4318A9
:1010AC007C6E110E446E3C0E436ECB0EE82EFED7BA
:1010BC00432EFCD7442EFAD700003CEF08F01CEF6F
:1010CC0000F0000E066E04BE70EF08F06EEF08F034
:1010DC0076EF08F0036C041ED8B0042A010E066EDD
:1010EC0002BE7DEF08F07BEF08F083EF08F0016C97
:1010FC00021ED8B0022A010E061A000E086E000E4F
:10110C00076E03500410D8B48EEF08F090EF08F07F
:10111C00B8EF08F0010E056E98EF08F0D890033682
:10112C000436052A04AE9DEF08F09FEF08F094EF0B
:10113C0008F0D890073608360350015C045002586A
:10114C00D8A0ABEF08F0ADEF08F0B2EF08F0035009
:10115C00015E0450025A0780D89004320332052EE7
:10116C009FEF08F00650D8B4BEEF08F0C0EF08F0BF
:10117C00C4EF08F0076C081ED8B0082A07C001F0AD
:10118C0008C002F012000350D8B4CFEF08F0D1EF32
:10119C0008F0D9EF08F00350D8A4D7EF08F0D9EF36
:1011AC0008F0DEEF08F0015046EC0CF025EF09F0EA
:1011BC000350D96EDA6A0A0ED926DE50DE10D8B486
:1011CC00EAEF08F0ECEF08F005EF09F00350D96EE8
:1011DC00DA6A0A0ED9260350E16EE26A030EE126A2
:1011EC00DE50E65CE650800A086EDE50800A085835
:1011FC00D8B003EF09F005EF09F025EF09F0035023
:10120C00D96EDA6A030ED926DECF04F0DDCF05F0F5
:10121C000350D96EDA6ADECF06F0DDCF07F004504A
:10122C000624D96E05500720DA6E01C0DFFF03508B
:10123C00D96EDA6A030ED926DE2A000EDD221200E0
:10124C00000E066E02BE2FEF09F02DEF09F035EF00
:10125C0009F0016C021ED8B0022A010E066E04BE03
:10126C003CEF09F03AEF09F040EF09F0036C041E73
:10127C00D8B0042A03500410D8B447EF09F049EF52
:10128C0009F06DEF09F0010E056E51EF09F0D890E1
:10129C0003360436052A04AE56EF09F058EF09F070
:1012AC004DEF09F00350015C04500258D8A061EFD7
:1012BC0009F063EF09F067EF09F00350015E045089
:1012CC00025AD89004320332052E58EF09F006501A
:1012DC00D8B473EF09F075EF09F079EF09F0016CF0
:1012EC00021ED8B0022A01C001F002C002F01200A6
:1012FC0085948598839E879C7D947D987B9E7F9C0E
:10130C00050E0E01746F060E766F070E696F080ED0
:10131C00886FBD508F0B4009BD6EE00EBE16BF50DE
:10132C00F00B0109BF6E01C0BCFFBD8E000EAA6E92
:10133C00000EA66E000E0F01256F000E216FFC0E25
:10134C00AD16F30EAD16CF0EAD163F0EAD16AB8827
:10135C00AB50F00B0C09AB6EAB8EA788A750F00B03
:10136C000C09A76EA78E26892651F00B0C09266F47
:10137C00268F22892251F00B0C09226F228F12002A
:10138C00DDEF09F002C0F6FF03C0F7FF000EF86EA8
:10139C000D0EF76403D00800F55005D0F6CFE9FF29
:1013AC00F7CFEAFFEF5020EC0CF0024A032A02C000
:1013BC00F6FF03C0F7FF000EF86E0D0EF76403D0B6
:1013CC000800F55005D0F6CFE9FFF7CFEAFFEF5054
:1013DC000009D8A4F4EF09F0F6EF09F0C8EF09F012
:1013EC00120019C01BF0000E0001956F000E946FD7
:1013FC000DEF0AF018C00BF01B0E0C6E1AC00DF09E
:10140C0006EC07F00B50000194270C5095231BC0E1
:10141C00F6FF0E0EF76E000EF86E0800F550000980
:10142C00D8A41BEF0AF01DEF0AF000EF0AF094C0ED
:10143C0018F095C019F012004DEC0AF00C50D96E52
:10144C00DA6A05C0DEFF06C0DDFFC5EC0AF00C5001
:10145C00D96EDA6A040ED92605C0DEFF06C0DDFFA0
:10146C0075EC0AF00C50D96EDA6A020ED92605C05A
:10147C00DEFF06C0DDFF9DEC0AF00C50D96EDA6A77
:10148C00060ED92605C0DEFF06C0DDFF12003CECBF
:10149C000CF0520E2CEC0CF0B60E2CEC0CF032ECDA
:1014AC000CF0530E2CEC0CF0010E34EC0BF0076E20
:1014BC0007500A6E0B6A000E34EC0BF0076E0750E7
:1014CC00096E086A0A5008100A6E0B5009100B6E50
:1014DC0037EC0CF00AC005F00BC006F012003CEC27
:1014EC000CF0520E2CEC0CF0B80E2CEC0CF032EC88
:1014FC000CF0530E2CEC0CF0010E34EC0BF0076ED0
:10150C0007500A6E0B6A000E34EC0BF0076E075096
:10151C00096E086A0A5008100A6E0B5009100B6EFF
:10152C0037EC0CF00AC005F00BC006F012003CECD6
:10153C000CF0520E2CEC0CF0B40E2CEC0CF032EC3B
:10154C000CF0530E2CEC0CF0010E34EC0BF0076E7F
:10155C0007500A6E0B6A000E34EC0BF0076E075046
:10156C00096E086A0A5008100A6E0B5009100B6EAF
:10157C0037EC0CF00AC005F00BC006F012003CEC86
:10158C000CF0520E2CEC0CF0BA0E2CEC0CF032ECE5
:10159C000CF0530E2CEC0CF0010E34EC0BF0076E2F
:1015AC0007500A6E0B6A000E34EC0BF0076E0750F6
:1015BC00096E086A0A5008100A6E0B5009100B6E5F
:1015CC0037EC0CF00AC005F00BC006F012001F0E31
:1015DC00236E1CC024F01DC025F0000E286E000EDA
:1015EC00276E000E2F6E000E2E6E240E186E1EC06F
:1015FC0019F0230E1A6EF7EC09F018C021F019C07F
:10160C0022F027501C24D96E28501D20DA6EDF6A78
:10161C0021C01CF022C01DF012006A0EF66E170ECF
:10162C00F76E000EF86E00EECAF010EE29F009000D
:10163C00F5CFEEFFE550E150FAE101EE00F03C0E83
:10164C00EE6AE806FDE100EE60F06A0EEE6AE8066E
:10165C00FDE15F905F92000101EF08F0036ECAECB0
:10166C000BF00E01DA87CAEC0BF0D5CE04F0CAEC05
:10167C000BF00350D8B445EF0BF049EF0BF0026AB6
:10168C00022A4AEF0BF0026A023A02460E01DA51C4
:10169C000218DF0B0218DA6FDA890450120008BE48
:1016AC005AEF0BF05CEF0BF062EF0BF007C007F09A
:1016BC0008C008F06EEF0BF007C009F008C00AF084
:1016CC00091E0A1E094A0A2A09C007F00AC008F0B6
:1016DC001200A0EC0BF0010E036E000E01EC0CF0EE
:1016EC003F0E056E550EE82EFED7052EFCD70000DA
:1016FC00030E036E000E01EC0CF0D50E036E010E02
:10170C0001EC0CF012008498889284968690889054
:10171C007C9880927C967E90809087928198869E11
:10172C007F9279987E9E8790859E81967F907D9EF4
:10173C00799612000E01D951F00B0809D96FD98B8B
:10174C009F0ED66F848A848CA79BA79D1D0E1D6F40
:10175C001E0E1C6F1C0E6F6F1B0E706F12002C0177
:10176C004600FE012C012C01AF00AF00A2B6DF2A0F
:10177C0014140803060306030603060306030603F4
:07178C000603060306030635
:101794000E01D8B5D0EF0BF0D2EF0BF0CAEF0BF07F
:1017A400DACE01F01F0E0116D8A4DBEF0BF0DDEF4B
:1017B4000BF0CAEF0BF01200D6501F0B4009D66E87
:1017C400D688D588D650F00B0E09D66E41EC0CF0B5
:1017D400D58E0E01298BF28CF28E1200320E1C6E05
:1017E4001D6A010E1E6E30C01FF031C020F0EDECFA
:1017F4000AF0320E026E036AC6EC09F01200046E9F
:101804003CEC0CF0520E2CEC0CF0045080092CEC47
:101814000CF003502CEC0CF037EC0CF01200120E10
:101824000E01626F110E156FE997E895330EE56F9F
:10183400000EE66FE789E88BE78F1200016E0E0158
:1018440037A527EF0CF029EF0CF021EF0CF001C0C5
:10185400E4FE1200026ECAEC0BF002C0D5FE1200C8
:10186400CAEC0BF00E01DA831200CAEC0BF00E0185
:10187400DA851200CAEC0BF00E01DA811200000EB8
:0A188400D46E000ED36E12001200A5
:020000040020DA
:10000000FFFFFFFFFFFFFFFFFFFFFFFFFFFFFFFF00
:020000040030CA
:0C000000AAFFFFFF9FFFFFFFFFFFFFFFB5
:00000001FF
