:0400000020EF00F0FD
:100008005F820E0133AB0BEF00F00DEF00F01EEF37
:1000180000F05E50D8B413EF00F015EF00F01AEFBF
:1000280000F0010E0001866F1CEF00F0010E5D6EFE
:0C0038000E01339B5F92110091EF0CF061
:100E0000002575202575202575202575200D0025C8
:090E100064200D0025642000009F
:100E1A00000E156E000E146E0F50D96EDA6ADFCF0F
:100E2A00F6FF0E0EF76E000EF86E0800F550250A52
:100E3A00D8A422EF07F024EF07F079EF08F00F505B
:100E4A00D96EDA6ADF2A000E0001836F000E826F04
:100E5A0082C05BF0846985690F50D96EDA6ADF5007
:100E6A00166E16C0F6FF0E0EF76E000EF86E08002C
:100E7A00F550640AD8B444EF07F046EF07F056EF8E
:100E8A0007F016C0F6FF0E0EF76E000EF86E080099
:100E9A00F550690AD8A454EF07F056EF07F0E4EFCB
:100EAA0007F01050D96EDA6A020EDF26DF5CD96EBF
:100EBA00DA6ADECF17F0DECF18F00F50D96EDA6A91
:100ECA001628DF6E200E1B6E18BE6EEF07F071EF4C
:100EDA0007F0010E72EF07F0000E136E1B061B508F
:100EEA00600FD96EDA6A17C001F018C002F0000E5E
:100EFA00046E0A0E036E70EC0BF001C007F002C01C
:100F0A0008F0BDEC0DF00750300FDF6E17C001F08E
:100F1A0018C002F0000E046E0A0E036E54EC0AF0BA
:100F2A0001C017F002C018F0144A152A17501810F9
:100F3A00D8B4A2EF07F0A4EF07F0ACEF07F01B500C
:100F4A00D8A4AAEF07F0ACEF07F073EF07F01B5035
:100F5A00D8B4B2EF07F0B4EF07F0D5EF07F01350AB
:100F6A00D8B4BAEF07F0BCEF07F0D5EF07F01B06CD
:100F7A001B50600FD96EDA6A2D0EDF6E144A152ADD
:100F8A00D5EF07F01B50600FD96EDA6ADF50116E89
:100F9A001150016E026A0EC003F0B6EC0AF01B2A69
:100FAA00200E1B18D8A4DCEF07F0DEEF07F0C7EF1E
:100FBA0007F014C00EF015C00FF092EF08F016C03B
:100FCA00F6FF0E0EF76E000EF86E0800F550750A61
:100FDA00D8A4F2EF07F0F4EF07F06FEF08F0105023
:100FEA00D96EDA6A020EDF26DF5CD96EDA6ADECFE4
:100FFA0017F0DECF18F00F50D96EDA6A1628DF6EB6
:10100A0057EF08F0200E1B6E1B061B50600FD96E9F
:10101A00DA6A17C001F018C002F0000E046E0A0E58
:10102A00036EC6EC0CF00150300FDF6E17C007F0EC
:10103A0018C008F0000E0A6E0A0E096E57EC0CF082
:10104A0007C017F008C018F0144A152A17501810CC
:10105A00D8B432EF08F034EF08F04CEF08F01B5028
:10106A00D8A43AEF08F03CEF08F009EF08F04CEF8B
:10107A0008F01B50600FD96EDA6ADF50116E1150FA
:10108A00016E026A0EC003F0B6EC0AF01B2A200EAB
:10109A001B18D8A453EF08F055EF08F03EEF08F0FC
:1010AA00DEEF07F016C0F6FF0E0EF76E000EF86EB2
:1010BA000800F550116E126A1250000AD8B468EF8F
:1010CA0008F06FEF08F01150750AD8B407EF08F06E
:1010DA006FEF08F00F50D96EDA6ADF2A000E0F6E32
:1010EA00000E0E6E92EF08F00F50D96EDA6ADFCF5B
:1010FA00F6FF0E0EF76E000EF86E0800F550016E40
:10110A00026A0EC003F0B6EC0AF00F50D96EDA6A22
:10111A00DF2A000E0F6E010E0E6E1200000E000185
:10112A008F6F000E8E6F000E916F000E906F000E83
:10113A00936F000E926F000E956F000E946F000E63
:10114A00896F000E886F000E8B6F000E8A6F000E7B
:10115A008D6F000E8C6F000E986F010E996F010E45
:10116A009A6F000E9C6F630E9B6FAA0E9D6F0F0EF7
:10117A009E6FA60E9F6F0F0EA06F000EA16F010E3D
:10118A00A26F010EA36F000EA56F630EA46F250E4A
:10119A00A66F0F0EA76F210EA86F0F0EA96F000E74
:1011AA00026E630E016EC8EC0BF0F1EC0DF0D7EC99
:1011BA000DF079EC0EF031EC0EF0849E88967C9E50
:1011CA008096868486860E01B495B4978EB6F0EF23
:1011DA0008F0F2EF08F0EBEF08F07CAEF7EF08F05A
:1011EA00FBEF08F04D6A4D2AFCEF08F04D6A4D32CC
:1011FA004D327C504D187F0B4D187C6E80A608EF3F
:10120A0009F00CEF09F04D6A4D2A0DEF09F04D6A0D
:10121A004D464D464D4680504D18F70B4D18806E81
:10122A00520E4E6E2B0E4D6E000EE82EFED74D2E30
:10123A00FCD74E2EFAD700D0000E0001966F000E92
:10124A00976F000E876FB4EC0EF0CCEC0EF0980E90
:10125A00136EA10E146E13EC0BF0000E4E6EED0E13
:10126A004D6E360EE82EFED74D2EFCD74E2EFAD7EF
:10127A00960E016E970E026E94EC0EF0CAEC0EF00A
:10128A00980E136EA10E146E10EC0CF096C03AF084
:10129A003B6A58EC0EF097C03AF03B6A58EC0EF0F5
:1012AA0097C001F087C002F000019651A1EC0DF041
:1012BA00010E5E6E8EB664EF09F066EF09F05FEF1D
:1012CA0009F0520E4E6E2B0E4D6E000EE82EFED712
:1012DA004D2EFCD74E2EFAD700D0960E016E970EE1
:1012EA00026E870E036E54EC0DF096C03AF03B6A1C
:1012FA0058EC0EF097C03AF03B6A58EC0EF0000139
:10130A009751FF0A016E9651FF0ABAEC0EF0CCEC27
:10131A000EF0980E136EA10E146E13EC0BF0000172
:10132A008651D8B49BEF09F09DEF09F094EF09F0CC
:10133A00980E136EA10E146E10EC0CF0CAEC0EF09F
:10134A00000E0001866F20EF00F00E50D96EDA6AA7
:10135A00020ED926DF50D8B4B5EF09F0B7EF09F07D
:10136A00E7EF09F00E50D96EDA6ADF500F6E0F50B0
:10137A00016E026A0E50D96EDA6A030ED926DECFE2
:10138A0003F0DDCF04F045EC0EF001C007F002C017
:10139A0008F0000E0A6E640E096E57EC0CF00E503F
:1013AA00D96EDA6A030ED926DF50106E0750105C28
:1013BA00116E0E50D96EDA6A030ED926DF50126EFC
:1013CA0008EF0AF0000E116E0E50D96EDA6ADF507D
:1013DA000F6E0F50016E026A0E50D96EDA6A030E52
:1013EA00D926DECF03F0DDCF04F045EC0EF001C0C4
:1013FA0007F002C008F0000E0A6E640E096E57EC80
:10140A000CF00750126E0E50D96EDA6A010ED92608
:10141A00DF50D8B413EF0AF015EF0AF035EF0AF0EF
:10142A000E50D96EDA6A050ED926DECF0FF0DDCF5F
:10143A0010F00FC0D9FF10C0DAFF11C0DFFF0E5045
:10144A00D96EDA6A070ED926DECF0FF0DDCF10F09B
:10145A000FC0D9FF10C0DAFF12C0DFFF53EF0AF046
:10146A000E50D96EDA6A050ED926DECF0FF0DDCF1F
:10147A0010F00FC0D9FF10C0DAFF12C0DFFF0E5004
:10148A00D96EDA6A070ED926DECF0FF0DDCF10F05B
:10149A000FC0D9FF10C0DAFF11C0DFFF1200000E23
:1014AA00066E04BE5DEF0AF05BEF0AF063EF0AF026
:1014BA00036C041ED8B0042A010E066E02BE6AEF3F
:1014CA000AF068EF0AF070EF0AF0016C021ED8B059
:1014DA00022A010E061A000E086E000E076E03504D
:1014EA000410D8B47BEF0AF07DEF0AF0A5EF0AF0FA
:1014FA00010E056E85EF0AF0D89003360436052AE8
:10150A0004AE8AEF0AF08CEF0AF081EF0AF0D89065
:10151A00073608360350015C04500258D8A098EFE9
:10152A000AF09AEF0AF09FEF0AF00350015E0450A6
:10153A00025A0780D89004320332052E8CEF0AF043
:10154A000650D8B4ABEF0AF0ADEF0AF0B1EF0AF0EB
:10155A00076C081ED8B0082A07C001F008C002F0BC
:10156A0012000350D8B4BCEF0AF0BEEF0AF0C6EF7F
:10157A000AF00350D8A4C4EF0AF0C6EF0AF0CBEF82
:10158A000AF00150CEEC0EF012EF0BF00350D96EB8
:10159A00DA6A0A0ED926DE50DE10D8B4D7EF0AF07E
:1015AA00D9EF0AF0F2EF0AF00350D96EDA6A0A0E9E
:1015BA00D9260350E16EE26A030EE126DE50E65CAC
:1015CA00E650800A086EDE50800A0858D8B0F0EF5C
:1015DA000AF0F2EF0AF012EF0BF00350D96EDA6A52
:1015EA00030ED926DECF04F0DDCF05F00350D96E05
:1015FA00DA6ADECF06F0DDCF07F004500624D96E92
:10160A0005500720DA6E01C0DFFF0350D96EDA6A8F
:10161A00030ED926DE2A000EDD221200140E166EE3
:10162A00140E176E1350D96EDA6A010ED926010EFE
:10163A00DF6E1450D96EDA6A010ED926010EDF6EFA
:10164A0057EF0BF01350D96EDA6A1650DE5CD8B039
:10165A0031EF0BF033EF0BF037EF0BF01350D96E7D
:10166A00DA6ADF2A1450D96EDA6A1750DE5CD8B00B
:10167A0041EF0BF043EF0BF047EF0BF01450D96E2C
:10168A00DA6ADF2A13C00EF0AAEC09F014C00EF0D1
:10169A00AAEC09F0A70E156E3A0EE82EFED7152E03
:1016AA00FCD700D01350D96EDA6A1650DE5CD8A087
:1016BA0061EF0BF063EF0BF027EF0BF01450D96ECC
:1016CA00DA6A1750DE5CD8A06DEF0BF06FEF0BF003
:1016DA0027EF0BF01200000E066E02BE79EF0BF038
:1016EA0077EF0BF07FEF0BF0016C021ED8B0022AE5
:1016FA00010E066E04BE86EF0BF084EF0BF08AEF44
:10170A000BF0036C041ED8B0042A03500410D8B49A
:10171A0091EF0BF093EF0BF0B7EF0BF0010E056EA4
:10172A009BEF0BF0D89003360436052A04AEA0EFDF
:10173A000BF0A2EF0BF097EF0BF00350015C045093
:10174A000258D8A0ABEF0BF0ADEF0BF0B1EF0BF0F6
:10175A000350015E0450025AD89004320332052E17
:10176A00A2EF0BF00650D8B4BDEF0BF0BFEF0BF0B1
:10177A00C3EF0BF0016C021ED8B0022A01C001F0BF
:10178A0002C002F0120085948598839E879C7D94FE
:10179A007D987B9E7F9C050E0E01746F060E766FF8
:1017AA00070E696F080E886FBD508F0B4009BD6E1A
:1017BA00E00EBE16BF50F00B0109BF6E01C0BCFFA0
:1017CA00BD8E000EAA6E000EA66E000E0F01256FCA
:1017DA00000E216FFC0EAD16F30EAD16CF0EAD1630
:1017EA003F0EAD16AB88AB50F00B0C09AB6EAB8E4F
:1017FA00A788A750F00B0C09A76EA78E2689265139
:10180A00F00B0C09266F268F22892251F00B0C0946
:10181A00226F228F120040EF0CF01350D96EDA6A51
:10182A00DF50D8B41BEF0CF01DEF0CF021EF0CF0D9
:10183A001350D96EDA6ADF061450D96EDA6ADF50AD
:10184A00D8B42AEF0CF02CEF0CF030EF0CF0145057
:10185A00D96EDA6ADF0613C00EF0AAEC09F014C0DA
:10186A000EF0AAEC09F0A70E156E3A0EE82EFED776
:10187A00152EFCD700D01350D96EDA6ADF50D8A4DF
:10188A0049EF0CF04BEF0CF012EF0CF01450D96E3C
:10189A00DA6ADF50D8A454EF0CF056EF0CF012EFCE
:1018AA000CF01200000E0C6E000E0B6E09500A109E
:1018BA00D8B462EF0CF064EF0CF08CEF0CF0010E70
:1018CA000D6E6CEF0CF0D89009360A360D2A0AAE66
:1018DA0071EF0CF073EF0CF068EF0CF0D8900B3648
:1018EA000C360950075C0A500858D8A07FEF0CF054
:1018FA0081EF0CF086EF0CF00950075E0A50085A87
:10190A000B80D8900A3209320D2E73EF0CF00BC0FF
:10191A0007F00CC008F012003E0EF66E1D0EF76EB0
:10192A00000EF86E00EEAAF010EE12F00900F5CFE4
:10193A00EEFFE550E150FAE1500EF66E1D0EF76E1D
:10194A00000EF86E00EE4FF010EE0CF00900F5CF25
:10195A00EEFFE550E150FAE101EE00F03C0EEE6ACE
:10196A00E806FDE100EE60F0270EEE6AE806FDE10A
:10197A005E6A5D6A5C6A5B6A5F905F92000193EFE0
:10198A0008F003500410D8B4CDEF0CF0CFEF0CF0F0
:10199A00F3EF0CF0010E056ED7EF0CF0D89003367A
:1019AA000436052A04AEDCEF0CF0DEEF0CF0D3EFC0
:1019BA000CF00350015C04500258D8A0E7EF0CF079
:1019CA00E9EF0CF0EDEF0CF00350015E0450025AFF
:1019DA00D89004320332052EDEEF0CF001C001F07C
:1019EA0002C002F012000FEF0DF002C0F6FF03C0B2
:1019FA00F7FF000EF86E0D0EF76403D00800F550DD
:101A0A0005D0F6CFE9FFF7CFEAFFEF5088EC0EF0EA
:101A1A00024A032A02C0F6FF03C0F7FF000EF86E5F
:101A2A000D0EF76403D00800F55005D0F6CFE9FF94
:101A3A00F7CFEAFFEF500009D8A426EF0DF028EF00
:101A4A000DF0FAEF0CF012001DC01FF0000E00019D
:101A5A00816F000E806F3FEF0DF01CC00EF01F0E5D
:101A6A000F6E1EC010F00DEC07F00E50000180271B
:101A7A000F5081231FC0F6FF0E0EF76E000EF86E90
:101A8A000800F5500009D8A44DEF0DF04FEF0DF006
:101A9A0032EF0DF080C01CF081C01DF0120051061B
:101AAA00D8A052064F06D8A050060001AA07D8A00F
:101ABA00AB075C0651C0D9FF52C0DAFF0150E16E94
:101ACA00E26ADFCFE7FF4FC0D9FF50C0DAFF02500A
:101ADA00E16EE26ADFCFE7FFAAC0D9FFABC0DAFF47
:101AEA000350E16EE26ADFCFE7FF1200230E2D6E8C
:101AFA0020C02EF021C02FF0000E326E000E316E83
:101B0A00000E396E000E386E2E0E1C6E22C01DF0AD
:101B1A002D0E1E6E29EC0DF01CC02BF01DC02CF0F2
:101B2A0031502024D96E32502120DA6EDF6A2BC060
:101B3A0020F02CC021F01200036E51C0D9FF52C010
:101B4A00DAFF03C0DFFF4FC0D9FF50C0DAFF01C080
:101B5A00DFFFAAC0D9FFABC0DAFF02C0DFFF514ADC
:101B6A00522A4F4A502A0001AA4BAB2B5C2A120078
:101B7A0008BEC2EF0DF0C4EF0DF0CAEF0DF007C0BA
:101B8A0007F008C008F0D6EF0DF007C009F008C04A
:101B9A000AF0091E0A1E094A0A2A09C007F00AC0E1
:101BAA0008F0120008EC0EF0010E036E000E69EC4C
:101BBA000EF03F0E056E550EE82EFED7052EFCD709
:101BCA000000030E036E000E69EC0EF0D50E036ED4
:101BDA00010E69EC0EF01200849888928496869021
:101BEA0088907C9880927C967E908090879281984B
:101BFA00869E7F9279987E9E8790859E81967F9019
:101C0A007D9E799612000E01D951F00B0809D96F01
:101C1A00D98B9F0ED66F848A848CA79BA79D1D0E95
:101C2A001D6F1E0E1C6F1C0E6F6F1B0E706F120045
:101C3A000E01D8B523EF0EF025EF0EF01DEF0EF0D2
:101C4A00DACE01F01F0E0116D8A42EEF0EF030EFF7
:101C5A000EF01DEF0EF01200D6501F0B4009D66E83
:101C6A00D688D588D650F00B0E09D66EB4EC0EF095
:101C7A00D58ECCEC0EF00E01298BF28CF28E12006E
:101C8A0001500302F3CF05F0F4CF06F0015004022D
:101C9A00F350062602500302F350062605C001F04F
:101CAA0006C002F012003C0E206E216A0F0E226E50
:101CBA003AC023F03BC024F07BEC0DF03C0E026EE0
:101CCA00036AF8EC0CF01200046EC5EC0EF0520E2A
:101CDA00AEEC0EF004508009AEEC0EF00350AEEC00
:101CEA000EF0C0EC0EF01200120E0E01626F110E11
:101CFA00156FE997E895330EE56F000EE66FE789F1
:101D0A00E88BE78F1200016E0E0137A58FEF0EF0F8
:101D1A0091EF0EF089EF0EF001C0E4FE12000250BE
:101D2A00D96EDA6AD3CFDFFF0150D96EDA6AD4CF1F
:101D3A00DFFF120000018809340390010601FA004E
:101D4A006C005400320014012801282815141414B8
:101D5A000814026E1DEC0EF002C0D5FE1200000E31
:101D6A00016E000EBAEC0EF01200026E02C0D4FF31
:101D7A0001C0D3FF12001DEC0EF00E01DA8512002D
:101D8A001DEC0EF00E01DA811200D59E1200D58EDE
:041D9A001200120021
:020000040020DA
:10000000FFFFFFFFFFFFFFFFFFFFFFFFFFFFFFFF00
:020000040030CA
:0C000000AAFFFFFF9FFFFFFFFFFFFFFFB5
:00000001FF
