:0400000021EF00F0FC
:100008005F820E0133AB0BEF00F00DEF00F01FEF36
:1000180000F05E50D8B413EF00F015EF00F01AEFBF
:1000280000F0010E0001876F1DEF00F0010E0101C5
:0E003800A56F0E01339B5F92110077EF1EF053
:100E0000002575202575202575202575200D0025C8
:090E100064200D0025642000009F
:100E1A00000E1F6E000E1E6E000E3D6E3C0E3C6EE6
:100E2A00000E196E640E186E0FC001F08FEC1AF0E6
:100E3A0001C03EF002C03FF00FC001F051EC1AF0C1
:100E4A0001C01AF002C01BF01A503E5C406E1B50E3
:100E5A003F58416E40504110D8A436EF07F038EFA2
:100E6A0007F03EEF07F0000E1F6E000E1E6E0EEF2B
:100E7A000AF00F50D96EDA6A3E50DE1807E13F5089
:100E8A00DE18D8A44BEF07F04DEF07F03AEF08F061
:100E9A000F50D96EDA6A040ED9260F50E16EE26A53
:100EAA00020EE126DE50E65CDE50E658D8A060EF7E
:100EBA0007F062EF07F0C2EF07F0000E246E000E93
:100ECA00256E000E266E000E276E0F50D96EDA6A56
:100EDA00040ED926DECF10F0DDCF11F00F50D96EF7
:100EEA00DA6A020ED926DECF12F0DDCF13F01050E7
:100EFA00125C146E11501358156E14502426155096
:100F0A002522000E2622000E272224C001F025C029
:100F1A0002F026C003F027C004F03C0E056E000E56
:100F2A00066E000E076E000E086E42EC1BF001C042
:100F3A0024F002C025F003C026F004C027F024C024
:100F4A0001F025C002F026C003F027C004F040C01B
:100F5A0005F041C006F0076A086AF0EC18F001C013
:100F6A0024F002C025F003C026F004C027F024C0F4
:100F7A001EF025C01FF03AEF08F040C038F041C01B
:100F8A0039F03A6A3B6A38C001F039C002F03AC017
:100F9A0003F03BC004F0060E056E000E066E000E4E
:100FAA00076E000E086E42EC1BF001C038F002C05A
:100FBA0039F003C03AF004C03BF00F50D96EDA6A38
:100FCA00020ED926DECF10F0DDCF11F00F50D96E08
:100FDA00DA6A040ED926DECF12F0DDCF13F01050F4
:100FEA00125C146E11501358156E166A176A145053
:100FFA00385E1550395A16503A5A17503B5A38C06B
:10100A0001F039C002F03AC003F03BC004F03C0ED4
:10101A00056E000E066E000E076E000E086E42EC9C
:10102A001BF001C038F002C039F003C03AF004C026
:10103A003BF038C001F039C002F03AC003F03BC0BF
:10104A0004F040C005F041C006F0076A086AF0ECF7
:10105A0018F001C038F002C039F003C03AF004C0F9
:10106A003BF038C01EF039C01FF00F50D96EDA6A53
:10107A00020ED9263E50DE1807E13F50DE18D8A4EA
:10108A0049EF08F04BEF08F020EF09F00F50D96E46
:10109A00DA6A0F50E16EE26A040EE126DE50E65C7F
:1010AA00DE50E658D8A05CEF08F05EEF08F0BFEF1C
:1010BA0008F040C028F041C029F02A6A2B6AD8906B
:1010CA00283629362A362B360F50D96EDA6ADECF01
:1010DA0010F0DDCF11F00F50D96EDA6A040ED9265E
:1010EA00DECF12F0DDCF13F01050125C146E1150E7
:1010FA001358156E1450282615502922000E2A223C
:10110A00000E2B2228C001F029C002F02AC003F0E9
:10111A002BC004F03C0E056E000E066E000E076E24
:10112A00000E086E42EC1BF001C028F002C029F044
:10113A0003C02AF004C02BF028C001F029C002F035
:10114A002AC003F02BC004F040C005F041C006F0ED
:10115A00076A086AF0EC18F001C028F002C029F00A
:10116A0003C02AF004C02BF028C01EF029C01FF0CB
:10117A0020EF09F040C02CF041C02DF02E6A2F6AF2
:10118A00D8902C362D362E362F360F50D96EDA6A75
:10119A00040ED926DECF10F0DDCF11F00F50D96E34
:1011AA00DA6ADECF12F0DDCF13F01050125C146E43
:1011BA0011501358156E166A176A14502C5E155082
:1011CA002D5A16502E5A17502F5A2CC001F02DC0E6
:1011DA0002F02EC003F02FC004F03C0E056E000E84
:1011EA00066E000E076E000E086E42EC1BF001C080
:1011FA002CF002C02DF003C02EF004C02FF02CC03A
:10120A0001F02DC002F02EC003F02FC004F040C040
:10121A0005F041C006F0076A086AF0EC18F001C050
:10122A002CF002C02DF003C02EF004C02FF02CC009
:10123A001EF02DC01FF00F50D96EDA6A040ED9269F
:10124A003E50DE1807E13F50DE18D8A42FEF09F010
:10125A0031EF09F00EEF0AF00F50D96EDA6A020E7A
:10126A00D9260F50E16EE26ADE50E65CDE50E6589F
:10127A00D8A042EF09F044EF09F0A9EF09F040C005
:10128A0030F041C031F0326A336A020ED8903036FB
:10129A00313632363336E82E4BEF09F00F50D96E1D
:1012AA00DA6A020ED926DECF10F0DDCF11F00F5028
:1012BA00D96EDA6ADECF12F0DDCF13F01050125C6D
:1012CA00146E11501358156E1450302615503122D1
:1012DA00000E3222000E332230C001F031C002F07B
:1012EA0032C003F033C004F03C0E056E000E066EE9
:1012FA00000E076E000E086E42EC1BF001C030F0C3
:10130A0002C031F003C032F004C033F030C001F043
:10131A0031C002F032C003F033C004F040C005F01F
:10132A0041C006F0076A086AF0EC18F001C030F014
:10133A0002C031F003C032F004C033F030C01EF0F6
:10134A0031C01FF00EEF0AF040C034F041C035F052
:10135A00366A376A020ED89034363536363637361C
:10136A00E82EB0EF09F00F50D96EDA6ADECF10F02E
:10137A00DDCF11F00F50D96EDA6A020ED926DECF10
:10138A0012F0DDCF13F01050125C146E1150135886
:10139A00156E166A176A1450345E1550355A16506F
:1013AA00365A1750375A34C001F035C002F036C0E9
:1013BA0003F037C004F03C0E056E000E066E000EF8
:1013CA00076E000E086E42EC1BF001C034F002C03A
:1013DA0035F003C036F004C037F034C001F035C030
:1013EA0002F036C003F037C004F040C005F041C037
:1013FA0006F0076A086AF0EC18F001C034F002C07F
:10140A0035F003C036F004C037F034C01EF035C0E2
:10141A001FF03E503F10D8A415EF0AF017EF0AF05C
:10142A001DEF0AF0000E1D6E000E1C6E59EF0AF039
:10143A0040C020F041C021F0226A236A20C001F096
:10144A0021C002F022C003F023C004F0640E056E2E
:10145A00000E066E000E076E000E086E42EC1BF0C0
:10146A0001C020F002C021F003C022F004C023F022
:10147A0020C001F021C002F022C003F023C004F012
:10148A003EC005F03FC006F0076A086AF0EC18F0A3
:10149A0001C020F002C021F003C022F004C023F0F2
:1014AA0020C01CF021C01DF00E50D96EDA6A1EC091
:1014BA00DEFF1FC0DDFF0E50D96EDA6A020ED92692
:1014CA001CC0DEFF1DC0DDFF0E50D96EDA6A040EA5
:1014DA00D9263EC0DEFF3FC0DDFF1200000E056EBA
:1014EA000150D96EDA6A250EDE5C010EDE58D8A0EC
:1014FA0081EF0AF083EF0AF0B5EF0AF00150D96ED6
:10150A00DA6A690EDE5C010EDE58D8B08FEF0AF097
:10151A0091EF0AF0B5EF0AF00150D96EDA6A020EBD
:10152A00D926010EDB5009E12E0EDE5CD8A0A0EF11
:10153A000AF0A2EF0AF0B5EF0AF00150D96EDA6AA2
:10154A00020ED926010EDB5007E15B0EDE5CD8B035
:10155A00B1EF0AF0B3EF0AF0B5EF0AF0010E056E2B
:10156A000150D96EDA6A010EDB5009E1710EDE5CB8
:10157A00D8A0C2EF0AF0C4EF0AF0F7EF0AF0015060
:10158A00D96EDA6A010EDB5007E19A0EDE5CD8B03A
:10159A00D1EF0AF0D3EF0AF0F7EF0AF00150D96E53
:1015AA00DA6A020ED926010EDB5009E10D0EDE5C65
:1015BA00D8A0E2EF0AF0E4EF0AF0F7EF0AF00150E0
:1015CA00D96EDA6A020ED926010EDB5007E12C0E1B
:1015DA00DE5CD8B0F3EF0AF0F5EF0AF0F7EF0AF0A5
:1015EA00020E056E0150D96EDA6A010EDB5009E16E
:1015FA00B40EDE5CD8A004EF0BF006EF0BF039EF67
:10160A000BF00150D96EDA6A010EDB5007E1F50ED4
:10161A00DE5CD8B013EF0BF015EF0BF039EF0BF0DF
:10162A000150D96EDA6A020ED926010EDB5009E1A1
:10163A000D0EDE5CD8A024EF0BF026EF0BF039EF8D
:10164A000BF00150D96EDA6A020ED926010EDB5070
:10165A0007E1390EDE5CD8B035EF0BF037EF0BF04F
:10166A0039EF0BF0030E056E0150D96EDA6A010EDE
:10167A00DB5009E10A0EDE5CD8A046EF0BF048EF1A
:10168A000BF07BEF0BF00150D96EDA6A010EDB50DA
:10169A0007E1200EDE5CD8B055EF0BF057EF0BF0E8
:1016AA007BEF0BF00150D96EDA6A020ED926010ED1
:1016BA00DB5009E1110EDE5CD8A066EF0BF068EF93
:1016CA000BF07BEF0BF00150D96EDA6A020ED926C5
:1016DA00010EDB5007E1210EDE5CD8B077EF0BF08C
:1016EA0079EF0BF07BEF0BF0040E056E0150D96E0B
:1016FA00DA6A170EDE5C010EDE58D8A087EF0BF00F
:10170A0089EF0BF0BBEF0BF00150D96EDA6A690E64
:10171A00DE5C010EDE58D8B095EF0BF097EF0BF0B8
:10172A00BBEF0BF00150D96EDA6A020ED926010E10
:10173A00DB5009E10B0EDE5CD8A0A6EF0BF0A8EF98
:10174A000BF0BBEF0BF00150D96EDA6A020ED92604
:10175A00010EDB5007E1100EDE5CD8B0B7EF0BF0DC
:10176A00B9EF0BF0BBEF0BF0050E056E0150D96E09
:10177A00DA6A2A0EDE5C010EDE58D8A0C7EF0BF03B
:10178A00C9EF0BF0FBEF0BF00150D96EDA6A690E64
:10179A00DE5C010EDE58D8B0D5EF0BF0D7EF0BF0B8
:1017AA00FBEF0BF00150D96EDA6A020ED926010E50
:1017BA00DB5009E1140EDE5CD8A0E6EF0BF0E8EF8F
:1017CA000BF0FBEF0BF00150D96EDA6A020ED92644
:1017DA00010EDB5007E12E0EDE5CD8B0F7EF0BF0FE
:1017EA00F9EF0BF0FBEF0BF0060E056E0150D96E08
:1017FA00DA6A010EDB5009E19A0EDE5CD8A008EF26
:10180A000CF00AEF0CF03DEF0CF00150D96EDA6AD9
:10181A00010EDB5007E1D00EDE5CD8B017EF0CF0FA
:10182A0019EF0CF03DEF0CF00150D96EDA6A020E96
:10183A00D926010EDB5009E10D0EDE5CD8A028EF97
:10184A000CF02AEF0CF03DEF0CF00150D96EDA6A79
:10185A00020ED926010EDB5007E12E0EDE5CD8B04F
:10186A0039EF0CF03BEF0CF03DEF0CF0070E056E74
:10187A000250D96EDA6A060ED926B80EDE5C0B0E55
:10188A00DE58D8A04BEF0CF04DEF0CF070EF0CF0D7
:10189A000250D96EDA6A060ED926410EDE5C9C0E1B
:1018AA00DE58D8B05BEF0CF05DEF0CF070EF0CF087
:1018BA000150D96EDA6A020ED926010EDB5007E111
:1018CA000B0EDE5CD8B06CEF0CF06EEF0CF070EF24
:1018DA000CF0080E056E0250D96EDA6A060ED92689
:1018EA00E80EDE5C030EDE58D8A07EEF0CF080EF27
:1018FA000CF0A3EF0CF00250D96EDA6A060ED92664
:10190A00290EDE5C0A0EDE58D8B08EEF0CF090EF8E
:10191A000CF0A3EF0CF00150D96EDA6A020ED92648
:10192A00010EDB5007E10D0EDE5CD8B09FEF0CF024
:10193A00A1EF0CF0A3EF0CF0090E056E0550120092
:10194A001250800B1B6E12501224216E11AEB0EF92
:10195A000CF0B2EF0CF0B3EF0CF021802150D8B4A8
:10196A00B9EF0CF0BBEF0CF0CEEF0CF02128D8A4A5
:10197A00C1EF0CF0C3EF0CF0CBEF0CF0000E0F6EC2
:10198A00000E106E000E116E000E126E118ED6EF42
:10199A000CF0000E0F6E000E106E000E116E000E8F
:1019AA00126E1650800B1B1A16501624206E15AE96
:1019BA00E1EF0CF0E3EF0CF0E4EF0CF020802050A4
:1019CA00D8B4EAEF0CF0ECEF0CF0FFEF0CF02028A3
:1019DA00D8A4F2EF0CF0F4EF0CF0FCEF0CF0000ED0
:1019EA00136E000E146E000E156E000E166E158E16
:1019FA0007EF0DF0000E136E000E146E000E156E3A
:101A0A00000E166E2050D8B40DEF0DF00FEF0DF04A
:101A1A0017EF0DF02150D8A415EF0DF017EF0DF0C8
:101A2A0021EF0DF0000E0F6E000E106E000E116EFB
:101A3A00000E126EB9EF0EF015500F02F3CF26F01A
:101A4A00F4CF27F026501C6E1D6A1E6A1F6A2750A3
:101A5A00226E236A246A256A14501002F3CF26F0F4
:101A6A00F4CF27F026501C26000E1D221E221F220C
:101A7A0027502226000E2322242225221350110247
:101A8A00F3CF26F0F4CF27F026501C26000E1D2295
:101A9A001E221F2227502226000E2322242225221C
:101AAA001EC01FF01DC01EF01CC01DF01C6A135082
:101ABA001002F3CF26F0F4CF27F026501C26275029
:101ACA001D22000E1E22000E1F2214500F02F3CFF9
:101ADA0026F0F4CF27F026501C2627501D22000E90
:101AEA001E22000E1F221EC01FF01DC01EF01CC0A9
:101AFA001DF01C6A13500F02F3CF26F0F4CF27F023
:101B0A0026501C2627501D22000E1E22000E1F22C0
:101B1A0015501002F3CF26F0F4CF27F026502226D4
:101B2A0027502322000E2422000E252214501102CF
:101B3A00F3CF26F0F4CF27F026502226275023226F
:101B4A00000E2422000E252215501102F3CF26F092
:101B5A00F4CF27F02650176E2750186E196A1A6AA2
:101B6A0019C01AF018C019F017C018F0176A1750E0
:101B7A00222618502322195024221A5025221CC02A
:101B8A0017F01DC018F01EC019F01FC01AF0190E68
:101B9A00D4EF0DF0D8901A32193218321732E82ED3
:101BAA00CFEF0DF017502226185023221950242265
:101BBA001A5025221EC01FF01DC01EF01CC01DF0A9
:101BCA001C6A205021C017F0186A1726000E182226
:101BDA00820E1724266EFF0E1820276E0AEF0EF0CB
:101BEA00D89022362336243625361FAEFFEF0DF065
:101BFA0001EF0EF002EF0EF02280D8901C361D364F
:101C0A001E361F362606D8A0270624AE0FEF0EF082
:101C1A0011EF0EF0F5EF0DF0000E206E1FAE18EF6B
:101C2A000EF01AEF0EF03EEF0EF0FF0E1C14176EB8
:101C3A00FF0E1D14186EFF0E1E14196E7F0E1F1450
:101C4A001A6E1750181019101A10D8B42FEF0EF078
:101C5A0031EF0EF035EF0EF0010E206E3EEF0EF072
:101C6A0022A03AEF0EF03CEF0EF03EEF0EF031EF0D
:101C7A000EF02050D8B444EF0EF046EF0EF06AEFA3
:101C8A000EF0010E2226000E23222422252225A050
:101C9A0051EF0EF053EF0EF06AEF0EF022C017F07C
:101CAA0023C018F024C019F025C01AF01A341A32C9
:101CBA0019321832173217C022F018C023F019C08F
:101CCA0024F01AC025F0264A272A27BE75EF0EF0FF
:101CDA00275008E12628D8A075EF0EF077EF0EF00E
:101CEA0081EF0EF0000E226E000E236E800E246E1F
:101CFA007F0E256EAFEF0EF027BE8EEF0EF0275047
:101D0A0006E12604D8B08CEF0EF08EEF0EF09AEFB3
:101D1A000EF0000E226E000E236E000E246E000ED0
:101D2A00256E000E1B6EAFEF0EF026C021F0FF0EDF
:101D3A002216FF0E23167F0E2416000E251621A04A
:101D4A00A9EF0EF0ABEF0EF0ACEF0EF0248ED890A8
:101D5A002130256E1B50251222C00FF023C010F02F
:101D6A0024C011F025C012F01200000E156E000EEC
:101D7A00146E0F50D96EDA6ADFCFF6FF0E0EF76EC9
:101D8A00000EF86E0800F550250AD8A4CFEF0EF021
:101D9A00D1EF0EF026EF10F00F50D96EDA6ADF2A73
:101DAA00000E0001836F000E826F82C086F0846984
:101DBA0085690F50D96EDA6ADF50166E16C0F6FFC3
:101DCA000E0EF76E000EF86E0800F550640AD8B4CD
:101DDA00F1EF0EF0F3EF0EF003EF0FF016C0F6FF7F
:101DEA000E0EF76E000EF86E0800F550690AD8A4B8
:101DFA0001EF0FF003EF0FF091EF0FF01050D96ED3
:101E0A00DA6A020EDF26DF5CD96EDA6ADECF17F0F5
:101E1A00DECF18F00F50D96EDA6A1628DF6E200E60
:101E2A001B6E18BE1BEF0FF01EEF0FF0010E1FEF17
:101E3A000FF0000E136E1B061B50600FD96EDA6A84
:101E4A0017C001F018C002F0000E046E0A0E036EED
:101E5A0098EC18F001C007F002C008F0C5EC1FF0BA
:101E6A000750300FDF6E17C001F018C002F0000EE5
:101E7A00046E0A0E036E69EC16F001C017F002C078
:101E8A0018F0144A152A17501810D8B44FEF0FF04B
:101E9A0051EF0FF059EF0FF01B50D8A457EF0FF086
:101EAA0059EF0FF020EF0FF01B50D8B45FEF0FF08F
:101EBA0061EF0FF082EF0FF01350D8B467EF0FF015
:101ECA0069EF0FF082EF0FF01B061B50600FD96EFF
:101EDA00DA6A2D0EDF6E144A152A82EF0FF01B50B4
:101EEA00600FD96EDA6ADF50116E1150016E026A04
:101EFA000EC003F0CBEC16F01B2A200E1B18D8A438
:101F0A0089EF0FF08BEF0FF074EF0FF014C00EF0A3
:101F1A0015C00FF03FEF10F016C0F6FF0E0EF76E69
:101F2A00000EF86E0800F550750AD8A49FEF0FF05E
:101F3A00A1EF0FF01CEF10F01050D96EDA6A020E02
:101F4A00DF26DF5CD96EDA6ADECF17F0DECF18F053
:101F5A000F50D96EDA6A1628DF6E04EF10F0200EE1
:101F6A001B6E1B061B50600FD96EDA6A17C001F090
:101F7A0018C002F0000E046E0A0E036E7BEC1CF011
:101F8A000150300FDF6E17C007F018C008F0000EBE
:101F9A000A6E0A0E096E08EC1BF007C017F008C09B
:101FAA0018F0144A152A17501810D8B4DFEF0FF09A
:101FBA00E1EF0FF0F9EF0FF01B50D8A4E7EF0FF0A5
:101FCA00E9EF0FF0B6EF0FF0F9EF0FF01B50600FCB
:101FDA00D96EDA6ADF50116E1150016E026A0EC0B4
:101FEA0003F0CBEC16F01B2A200E1B18D8A400EF26
:101FFA0010F002EF10F0EBEF0FF08BEF0FF016C0BE
:10200A00F6FF0E0EF76E000EF86E0800F550116E10
:10201A00126A1250000AD8B415EF10F01CEF10F033
:10202A001150750AD8B4B4EF0FF01CEF10F00F502E
:10203A00D96EDA6ADF2A000E0F6E000E0E6E3FEFBF
:10204A0010F00F50D96EDA6ADFCFF6FF0E0EF76E78
:10205A00000EF86E0800F550016E026A0EC003F019
:10206A00CBEC16F00F50D96EDA6ADF2A000E0F6E2B
:10207A00010E0E6E1200000E126E000E136E000E8E
:10208A00146E000E156E000E166E000E176E000E00
:10209A00186E000E196E000E1A6E000E1B6E000EE0
:1020AA001C6E000E1D6E000E1E6E000E1F6E000EC0
:1020BA00206E000E216E000E116EABEF10F00EC0F6
:1020CA000CF038EC1DF00E50D96EDA6ADECF0FF044
:1020DA00DDCF10F00F50122610501322000E1422DA
:1020EA00000E15220E50D96EDA6A020ED926DECFFC
:1020FA000FF0DDCF10F00F50162610501722000EE9
:10210A001822000E19220E50D96EDA6A040ED92648
:10211A00DECF0FF0DDCF10F00F501A2610501B2221
:10212A00000E1C22000E1D220E50D96EDA6A060E0F
:10213A00D926DECF0FF0DDCF10F00F501E2610503B
:10214A001F22000E2022000E2122112A130E1164D2
:10215A00B1EF10F0B3EF10F064EF10F012C001F01D
:10216A0013C002F014C003F015C004F0140E056E7B
:10217A00000E066E000E076E000E086EF0EC18F0E8
:10218A0001C012F002C013F003C014F004C015F02D
:10219A0016C001F017C002F018C003F019C004F00D
:1021AA00140E056E000E066E000E076E000E086E07
:1021BA00F0EC18F001C016F002C017F003C018F0D6
:1021CA0004C019F01AC001F01BC002F01CC003F0D1
:1021DA001DC004F0140E056E000E066E000E076E8A
:1021EA00000E086EF0EC18F001C01AF002C01BF0E5
:1021FA0003C01CF004C01DF01EC001F01FC002F095
:10220A0020C003F021C004F0140E056E000E066E05
:10221A00000E076E000E086EF0EC18F001C01EF0FA
:10222A0002C01FF003C020F004C021F00E50D96E86
:10223A00DA6A12C0DEFF13C0DDFF0E50D96EDA6A09
:10224A00020ED92616C0DEFF17C0DDFF0E50D96E6A
:10225A00DA6A040ED9261AC0DEFF1BC0DDFF0E5053
:10226A00D96EDA6A060ED9261EC0DEFF1FC0DDFF50
:10227A001200096E0950D8B445EF11F047EF11F07A
:10228A0069EF11F004BE4EEF11F04CEF11F069EF57
:10229A0011F001C005F002C006F003C007F004C047
:1022AA0008F0051E061E071E081E052A000E062235
:1022BA000722082205C00BF006C00CF007C00DF07B
:1022CA0008C00EF071EF11F001C00BF002C00CF063
:1022DA0003C00DF004C00EF00150021003100410E8
:1022EA00D8A47AEF11F07CEF11F086EF11F0000E0E
:1022FA00016E000E026E000E036E000E046E17EFE2
:10230A0012F0960E0A6E90EF11F00A2AD8900E3249
:10231A000D320C320B32000E0B14056E000E0C142B
:10232A00066E000E0D14076EFE0E0E14086E055092
:10233A00061007100810D8A4A5EF11F0A7EF11F0A6
:10234A008AEF11F0B5EF11F00A2A010E0B26000EE2
:10235A000C220D220E22D8900E320D320C320B3284
:10236A00000E0B14056E000E0C14066E000E0D14F2
:10237A00076EFF0E0E14086E05500610071008109F
:10238A00D8A4CAEF11F0CCEF11F0A9EF11F0D4EFF5
:10239A0011F00A06D8900B360C360D360E360DBEE5
:1023AA00D9EF11F0DBEF11F0E3EF11F0020E0A6042
:1023BA00E1EF11F0E3EF11F0CEEF11F00AB0E8EF20
:1023CA0011F0EAEF11F0EBEF11F00D9ED8900A32FE
:1023DA000AC005F0066A076A086A05C008F0076AB3
:1023EA00066A056A05500B1206500C1207500D12A8
:1023FA0008500E120950D8B405EF12F007EF12F088
:10240A000FEF12F004BE0EEF12F00CEF12F00FEF06
:10241A0012F00E8E0BC001F00CC002F00DC003F0DA
:10242A000EC004F01200DFEF12F0000E5B6E000E19
:10243A005C6E13EC21F030EC21F055C013F056C05D
:10244A0014F028EC17F058C00DF0A5C10EF099EC65
:10245A001EF05B0E016E5C0E026E02EC21F02EEC99
:10246A0021F055C013F056C014F08AEC19F0A2EC12
:10247A0015F0110E5A6E3C0E596ECB0EE82EFED791
:10248A00592EFCD75A2EFAD7000058C00EF040EC4D
:10249A0010F058C032F037EC15F057C00EF058C0A3
:1024AA000FF00DEC07F057C001F058C002F073ECC2
:1024BA000AF05D6EA2EC15F0110E5A6E3C0E596EC2
:1024CA00CB0EE82EFED7592EFCD75A2EFAD700008B
:1024DA000101A551D8B474EF12F076EF12F08BEF28
:1024EA0012F05B685C68080E5D6E7CAE7FEF12F0DE
:1024FA0083EF12F0596A592A84EF12F0596A593255
:10250A0059327C5059187F0B59187C6E130E0101F1
:10251A00A419D8A493EF12F095EF12F097EF12F0E6
:10252A00080E5D6E5CC001F05DC002F05B50FDEC10
:10253A001EF055C021F056C022F05EC023F05DC0E7
:10254A0024F0B9EC14F0080E5D18D8A4AFEF12F01D
:10255A00B1EF12F0C5EF12F0010E5E6E80A6B8EF71
:10256A0012F0BCEF12F0596A592ABDEF12F0596AFB
:10257A0059465946594680505918F70B5918806ED2
:10258A0058C03AF0DEEC1CF057C03AF02BEC1EF0C3
:10259A00CE0E3A6E010E3B6ECDEC1AF0BA0E3A6EC2
:1025AA00010E3B6ECDEC1AF0A60E3A6E010E3B6E92
:1025BA00CDEC1AF05E50D8B4E5EF12F0E7EF12F066
:1025CA001AEF12F012000E50D96EDA6A020ED926EC
:1025DA00DF50D8B4F3EF12F0F5EF12F025EF13F055
:1025EA000E50D96EDA6ADF500F6E0F50016E026A12
:1025FA000E50D96EDA6A030ED926DECF03F0DDCF8C
:10260A0004F073EC20F001C007F002C008F0000EDD
:10261A000A6E640E096E08EC1BF00E50D96EDA6A67
:10262A00030ED926DF50106E0750105C116E0E5043
:10263A00D96EDA6A030ED926DF50126E46EF13F00E
:10264A00000E116E0E50D96EDA6ADF500F6E0F50FF
:10265A00016E026A0E50D96EDA6A030ED926DECFEF
:10266A0003F0DDCF04F073EC20F001C007F002C0E4
:10267A0008F0000E0A6E640E096E08EC1BF0075093
:10268A00126E0E50D96EDA6A010ED926DF50D8B40E
:10269A0051EF13F053EF13F073EF13F00E50D96E9E
:1026AA00DA6A050ED926DECF0FF0DDCF10F00FC0A3
:1026BA00D9FF10C0DAFF11C0DFFF0E50D96EDA6AF7
:1026CA00070ED926DECF0FF0DDCF10F00FC0D9FFED
:1026DA0010C0DAFF12C0DFFF91EF13F00E50D96E6F
:1026EA00DA6A050ED926DECF0FF0DDCF10F00FC063
:1026FA00D9FF10C0DAFF12C0DFFF0E50D96EDA6AB6
:10270A00070ED926DECF0FF0DDCF10F00FC0D9FFAC
:10271A0010C0DAFF11C0DFFF1200000E0001A36F24
:10272A00000EA26F000EA56F000EA46F000EA76F19
:10273A00000EA66F000EA96F000EA86F000E8B6F19
:10274A00000E8A6F000E8D6F000E8C6F000E8F6F59
:10275A00000E8E6F000E906F010E916F010E926F38
:10276A00000E946F630E936FAA0E956F0F0E966FFD
:10277A00A60E976F0F0E986F000E996F010E9A6F43
:10278A00010E9B6F000E9D6F630E9C6F250E9E6F50
:10279A000F0E9F6F210EA06F0F0EA16F000E026E1B
:1027AA00630E016E42EC19F0F9EC1FF0DFEC1FF03A
:1027BA00E7EC20F039EC20F0849E88967C9E809687
:1027CA00868486860E01B495B4978EB6EFEF13F021
:1027DA00F1EF13F0EAEF13F07CAEF6EF13F0FBEF34
:1027EA0013F00001886B882BFDEF13F00001886B52
:1027FA00883388337C5088197F0B88197C6E80A6B1
:10280A0009EF14F00DEF14F0886B882B0FEF14F01A
:10281A000001886B88478847884780508819F70BDA
:10282A008819806E520E0001896F2B0E886F000E78
:10283A00E82EFED7882FFCD7892FFAD70000900EF2
:10284A00556E990E566E8A0E576EA20E586E18EC79
:10285A0012F0900E4D6E990E4E6E06EC16F021EFA8
:10286A0000F02A342B34316E3150D8A43FEF14F0E3
:10287A0041EF14F04BEF14F0000E286E000E296E93
:10288A00000E2A6E000E2B6EB8EF14F028C02CF042
:10289A0029C02DF02AC02EF02BC02FF0200E5BEF9E
:1028AA0014F0D8902F322E322D322C32E82E56EFD9
:1028BA0014F02C50306E2A8EFF0E2816FF0E2916A1
:1028CA00FF0E2A16000E2B16960E315E31BE72EFDF
:1028DA0014F070EF14F088EF14F03150800A970F5B
:1028EA00D8B07AEF14F07CEF14F07EEF14F041EFD9
:1028FA0014F0D8902B322A3229322832313E7EEF18
:10290A0014F0A0EF14F01F0E31648EEF14F090EF64
:10291A0014F098EF14F041EF14F0D89028362936C5
:10292A002A362B3631063150D8A49EEF14F0A0EF88
:10293A0014F092EF14F03050D8B4A6EF14F0A8EFC8
:10294A0014F0B0EF14F02B1E2A1E291E286C000E5C
:10295A0029222A222B2228C028F029C029F02AC09D
:10296A002AF02BC02BF0120009EF15F021C01CF041
:10297A0022C01DF023C01EF077EC1BF036EF15F0D5
:10298A0021C01CF022C01DF023C01EF0DFEC1BF09A
:10299A0036EF15F021C01CF022C01DF023C01EF036
:1029AA0047EC1CF036EF15F021C01CF022C01DF0D8
:1029BA0023C01EF0D1EC19F036EF15F021C01CF03F
:1029CA0022C01DF023C01EF011EC1AF036EF15F0EC
:1029DA0021C01CF022C01DF023C01EF0ABEC1BF07E
:1029EA0036EF15F021C01CF022C01DF023C01EF0E6
:1029FA0013EC1CF036EF15F021C01CF022C01DF0BC
:102A0A0060EC20F036EF15F02450256E266A265029
:102A1A00000AD8B413EF15F036EF15F02550010A65
:102A2A00D8B4BBEF14F0030AD8B4C5EF14F0010A06
:102A3A00D8B4CFEF14F0070AD8B4D9EF14F0010ACA
:102A4A00D8B4E3EF14F0030AD8B4EDEF14F0010A96
:102A5A00D8B4F7EF14F00F0AD8B401EF15F036EF37
:102A6A0015F01200000E136E000E146E000E156E95
:102A7A003F0E166E3250D96EDA6ADECF33F0DDCFF2
:102A8A0034F033C001F034C002F0036A046A000E65
:102A9A003EEC11F001C00FF002C010F003C011F0BB
:102AAA0004C012F0A5EC0CF00FC028F010C029F0F9
:102ABA0011C02AF012C02BF036EC14F03250D96E45
:102ACA00DA6A28C0DEFF29C0DDFF330E136E330E2B
:102ADA00146E330E156E3F0E166E3250D96EDA6AC8
:102AEA00020ED926DECF33F0DDCF34F033C001F049
:102AFA0034C002F0036A046A000E3EEC11F001C011
:102B0A000FF002C010F003C011F004C012F0A5ECDF
:102B1A000CF00FC028F010C029F011C02AF012C022
:102B2A002BF036EC14F03250D96EDA6A020ED9263E
:102B3A0028C0DEFF29C0DDFF12007FA2A7EF15F033
:102B4A00ABEF15F0016A012AACEF15F0016A0146F4
:102B5A007F500118FD0B01187F6E79A8B7EF15F0A9
:102B6A00BBEF15F0016A012ABCEF15F0016A013AC0
:102B7A0079500118EF0B0118796E7EAEC7EF15F088
:102B8A00CBEF15F0016A012ACCEF15F0016A013288
:102B9A0001327E5001187F0B01187E6E7FA0D8EF9C
:102BAA0015F0DCEF15F0016A012ADDEF15F0016A74
:102BBA007F500118FE0B01187F6E7DAEE7EF15F00E
:102BCA00EBEF15F0016A012AECEF15F0016A013208
:102BDA0001327D5001187F0B01187D6E79A6F8EF3E
:102BEA0015F0FCEF15F0016A012AFDEF15F0016AF4
:102BFA0001460146014679500118F70B0118796E12
:102C0A0012005FEF16F0000E4F6E000E506E000EAF
:102C1A00516E4F0E016E500E026E510E036E63EC32
:102C2A001DF04FC03AF03B6A86EC20F050C03AF0F3
:102C3A003B6A86EC20F051C03AF03B6A86EC20F001
:102C4A00080E5118D8B42CEF16F02EEF16F038EF04
:102C5A0016F04DC021F04EC022F05EC023F051C0E4
:102C6A0024F0B9EC14F04DEC20F05050FF0A016E3C
:102C7A004F50FF0A19EC21F030EC21F04DC013F04F
:102C8A004EC014F028EC17F000018751D8B450EF69
:102C9A0016F052EF16F049EF16F04DC013F04EC081
:102CAA0014F08AEC19F02EEC21F0000E0001876F67
:102CBA004DEC20F00101A451D8A466EF16F068EF9C
:102CCA0016F008EF16F01200000E066E04BE72EF40
:102CDA0016F070EF16F078EF16F0036C041ED8B0F9
:102CEA00042A010E066E02BE7FEF16F07DEF16F083
:102CFA0085EF16F0016C021ED8B0022A010E061AE0
:102D0A00000E086E000E076E03500410D8B490EF40
:102D1A0016F092EF16F0BAEF16F0010E056E9AEF62
:102D2A0016F0D89003360436052A04AE9FEF16F043
:102D3A00A1EF16F096EF16F0D89007360836035032
:102D4A00015C04500258D8A0ADEF16F0AFEF16F0B0
:102D5A00B4EF16F00350015E0450025A0780D8906F
:102D6A0004320332052EA1EF16F00650D8B4C0EF94
:102D7A0016F0C2EF16F0C6EF16F0076C081ED8B0B0
:102D8A00082A07C001F008C002F012000350D8B4A4
:102D9A00D1EF16F0D3EF16F0DBEF16F00350D8A4FC
:102DAA00D9EF16F0DBEF16F0E0EF16F0015032EC37
:102DBA0021F027EF17F00350D96EDA6A0A0ED926E6
:102DCA00DE50DE10D8B4ECEF16F0EEEF16F007EF97
:102DDA0017F00350D96EDA6A0A0ED9260350E16E4B
:102DEA00E26A030EE126DE50E65CE650800A086ECF
:102DFA00DE50800A0858D8B005EF17F007EF17F031
:102E0A0027EF17F00350D96EDA6A030ED926DECF00
:102E1A0004F0DDCF05F00350D96EDA6ADECF06F092
:102E2A00DDCF07F004500624D96E05500720DA6E6C
:102E3A0001C0DFFF0350D96EDA6A030ED926DE2AF3
:102E4A00000EDD221200140E166E140E176E1350A9
:102E5A00D96EDA6A010ED926010EDF6E1450D96EC8
:102E6A00DA6A010ED926010EDF6E6CEF17F01350E5
:102E7A00D96EDA6A1650DE5CD8B046EF17F048EF22
:102E8A0017F04CEF17F01350D96EDA6ADF2A145094
:102E9A00D96EDA6A1750DE5CD8B056EF17F058EFE1
:102EAA0017F05CEF17F01450D96EDA6ADF2A13C0F4
:102EBA000EF0E8EC12F014C00EF0E8EC12F0A70ED7
:102ECA00156E3A0EE82EFED7152EFCD700D01350F9
:102EDA00D96EDA6A1650DE5CD8A076EF17F078EF72
:102EEA0017F03CEF17F01450D96EDA6A1750DE5C0F
:102EFA00D8A082EF17F084EF17F03CEF17F012001A
:102F0A00280E166E280E176E1350D96EDA6A010E45
:102F1A00D926010EDF6E1450D96EDA6A010ED9264F
:102F2A00DF6AC8EF17F01350D96EDA6A1650DE5C02
:102F3A00D8B0A2EF17F0A4EF17F0A8EF17F01350CC
:102F4A00D96EDA6ADF2A1450D96EDA6A1750DE5C53
:102F5A00D8B0B2EF17F0B4EF17F0B8EF17F014507B
:102F6A00D96EDA6ADF2A13C00EF0E8EC12F014C048
:102F7A000EF0E8EC12F0A70E156E3A0EE82EFED708
:102F8A00152EFCD700D01350D96EDA6A1650DE5CC3
:102F9A00D8A0D2EF17F0D4EF17F098EF17F014502B
:102FAA00D96EDA6A1750DE5CD8A0DEEF17F0E0EFD0
:102FBA0017F098EF17F01200280E166E280E176EEB
:102FCA001350D96EDA6A010ED926DF6A1450D96E07
:102FDA00DA6A010ED926010EDF6E24EF18F01350BB
:102FEA00D96EDA6A1650DE5CD8B0FEEF17F000EF41
:102FFA0018F004EF18F01350D96EDA6ADF2A145069
:10300A00D96EDA6A1750DE5CD8B00EEF18F010EFFE
:10301A0018F014EF18F01450D96EDA6ADF2A13C0C8
:10302A000EF0E8EC12F014C00EF0E8EC12F0A70E65
:10303A00156E3A0EE82EFED7152EFCD700D0135087
:10304A00D96EDA6A1650DE5CD8A02EEF18F030EF8F
:10305A0018F0F4EF17F01450D96EDA6A1750DE5CE4
:10306A00D8A03AEF18F03CEF18F0F4EF17F012007E
:10307A00140E166E150E176E1350D96EDA6A010EFB
:10308A00D926DF6A1450D96EDA6A010ED926DF6AA8
:10309A007FEF18F01350D96EDA6A1650DE5CD8B09A
:1030AA0059EF18F05BEF18F05FEF18F01350D96E74
:1030BA00DA6ADF2A1450D96EDA6A1750DE5CD8B0A1
:1030CA0069EF18F06BEF18F06FEF18F01450D96E23
:1030DA00DA6ADF2A13C00EF0E8EC12F014C00EF020
:1030EA00E8EC12F0A70E156E3A0EE82EFED7152E52
:1030FA00FCD700D01350D96EDA6A1650DE5CD8A01D
:10310A0089EF18F08BEF18F04FEF18F01450D96EC2
:10311A00DA6A1750DE5CD8A095EF18F097EF18F02E
:10312A004FEF18F01200000E066E02BEA1EF18F063
:10313A009FEF18F0A7EF18F0016C021ED8B0022A10
:10314A00010E066E04BEAEEF18F0ACEF18F0B2EF47
:10315A0018F0036C041ED8B0042A03500410D8B423
:10316A00B9EF18F0BBEF18F0DFEF18F0010E056E9B
:10317A00C3EF18F0D89003360436052A04AEC8EF18
:10318A0018F0CAEF18F0BFEF18F00350015C0450B2
:10319A000258D8A0D3EF18F0D5EF18F0D9EF18F0ED
:1031AA000350015E0450025AD89004320332052EAD
:1031BA00CAEF18F00650D8B4E5EF18F0E7EF18F0A8
:1031CA00EBEF18F0016C021ED8B0022A01C001F020
:1031DA0002C002F01200000E096E000E0A6E000E06
:1031EA000B6E000E0C6E0550061007100810D8B4AE
:1031FA0001EF19F003EF19F039EF19F0010E0D6E16
:10320A000DEF19F0D89005360636073608360D2A1E
:10321A0008AE12EF19F014EF19F007EF19F0D89071
:10322A0009360A360B360C360550015C0650025830
:10323A000750035808500458D8A026EF19F028EF71
:10324A0019F031EF19F00550015E0650025A075085
:10325A00035A0850045A0980D890083207320632B5
:10326A0005320D2E14EF19F009C001F00AC002F060
:10327A000BC003F00CC004F0120085948598839E5D
:10328A00879C7D947D987B9E7F9C050E0E01746FB2
:10329A00060E766F070E696F080E886FBD508F0B8A
:1032AA004009BD6EE00EBE16BF50F00B0109BF6E9D
:1032BA0001C0BCFFBD8E000EAA6E000EA66E000EE7
:1032CA000F01256F000E216FFC0EAD16F30EAD1621
:1032DA00CF0EAD163F0EAD16AB88AB50F00B0C09F6
:1032EA00AB6EAB8EA788A750F00B0C09A76EA78E02
:1032FA0026892651F00B0C09266F268F2289225126
:10330A00F00B0C09226F228F1200BAEF19F013503A
:10331A00D96EDA6ADF50D8B495EF19F097EF19F041
:10332A009BEF19F01350D96EDA6ADF061450D96E82
:10333A00DA6ADF50D8B4A4EF19F0A6EF19F0AAEFB1
:10334A0019F01450D96EDA6ADF0613C00EF0E8ECF1
:10335A0012F014C00EF0E8EC12F0A70E156E3A0E39
:10336A00E82EFED7152EFCD700D01350D96EDA6A94
:10337A00DF50D8A4C3EF19F0C5EF19F08CEF19F09C
:10338A001450D96EDA6ADF50D8A4CEEF19F0D0EF14
:10339A0019F08CEF19F01200FBEF19F01CC018F0AD
:1033AA001DC019F0A9EC1FF01CC018F01DC019F0BF
:1033BA001AEC1FF01CC018F01DC019F071EC1FF0B8
:1033CA0010EF1AF01CC018F01DC019F08DEC1FF098
:1033DA001CC018F01DC019F01AEC1FF01CC018F020
:1033EA001DC019F0A9EC1FF010EF1AF01E501F6E45
:1033FA00206A2050000AD8B405EF1AF010EF1AF02C
:10340A001F50000AD8B4D3EF19F0010AD8B4E7EF75
:10341A0019F010EF1AF012003BEF1AF01CC018F066
:10342A001DC019F0A9EC1FF01CC018F01DC019F03E
:10343A001AEC1FF01CC018F01DC019F08DEC1FF01B
:10344A0050EF1AF01CC018F01DC019F071EC1FF0F3
:10345A001CC018F01DC019F01AEC1FF01CC018F09F
:10346A001DC019F0A9EC1FF050EF1AF01E501F6E84
:10347A00206A2050000AD8B445EF1AF050EF1AF02B
:10348A001F50000AD8B413EF1AF0010AD8B427EF74
:10349A001AF050EF1AF012000150D96EDA6ADECF34
:1034AA0005F0DDCF06F00150D96EDA6A020ED92690
:1034BA000550DE5C0650DE58D8B066EF1AF068EFA9
:1034CA001AF071EF1AF00150D96EDA6A020ED92693
:1034DA00DECF05F0DDCF06F00150D96EDA6A040EB0
:1034EA00D9260550DE5C0650DE58D8B07FEF1AF0B8
:1034FA0081EF1AF08AEF1AF00150D96EDA6A040ED7
:10350A00D926DECF05F0DDCF06F005C001F006C0F2
:10351A0002F012000150D96EDA6ADECF05F0DDCF73
:10352A0006F00150D96EDA6A020ED926DE50055C21
:10353A00DE500658D8B0A4EF1AF0A6EF1AF0AFEF93
:10354A001AF00150D96EDA6A020ED926DECF05F0DA
:10355A00DDCF06F00150D96EDA6A040ED926DE50A4
:10356A00055CDE500658D8B0BDEF1AF0BFEF1AF06E
:10357A00C8EF1AF00150D96EDA6A040ED926DECFE6
:10358A0005F0DDCF06F005C001F006C002F012001A
:10359A00000E0101A16F000EA36F000EA26F000EB4
:1035AA00A125206E216A010E2122140E226EA2513B
:1035BA003A24D96EA3513B20DA6EDF503C6E3C5060
:1035CA00236E246A51EC1EF020500101A127A24B60
:1035DA00A32BA35109E1140EA25DD8A0F7EF1AF0AC
:1035EA00F9EF1AF0D4EF1AF0000E026E010E036E14
:1035FA00ADEC1CF0110E026E0250D8A40E0E036E32
:10360A00ADEC1CF01200000E0C6E000E0B6E095091
:10361A000A10D8B413EF1BF015EF1BF03DEF1BF0A7
:10362A00010E0D6E1DEF1BF0D89009360A360D2AD1
:10363A000AAE22EF1BF024EF1BF019EF1BF0D89013
:10364A000B360C360950075C0A500858D8A030EFE0
:10365A001BF032EF1BF037EF1BF00950075E0A50E0
:10366A00085A0B80D8900A3209320D2E24EF1BF02B
:10367A000BC007F00CC008F01200000E096E000E15
:10368A000A6E000E0B6E000E0C6E01A04FEF1BF0BF
:10369A0051EF1BF059EF1BF00550092606500A227C
:1036AA0007500B2208500C22D890053606360736EA
:1036BA000836D89004320332023201320150021025
:1036CA0003100410D8A46CEF1BF06EEF1BF04AEF46
:1036DA001BF009C001F00AC002F00BC003F00CC0D5
:1036EA0004F0120095EF1BF01CC018F01DC019F071
:1036FA00A9EC1FF01CC018F01DC019F071EC1FF0E6
:10370A00AAEF1BF01CC018F01DC019F08DEC1FF0B9
:10371A001CC018F01DC019F0A9EC1FF0AAEF1BF08D
:10372A001E501F6E206A2050000AD8B49FEF1BF06B
:10373A00AAEF1BF01F50000AD8B479EF1BF0010A58
:10374A00D8B487EF1BF0AAEF1BF01200C9EF1BF0E9
:10375A001CC018F01DC019F0A9EC1FF01CC018F00D
:10376A001DC019F037EC1FF0DEEF1BF01CC018F07B
:10377A001DC019F054EC1FF01CC018F01DC019F040
:10378A00A9EC1FF0DEEF1BF01E501F6E206A2050BE
:10379A00000AD8B4D3EF1BF0DEEF1BF01F50000A6B
:1037AA00D8B4ADEF1BF0010AD8B4BBEF1BF0DEEFC3
:1037BA001BF01200FDEF1BF01CC018F01DC019F021
:1037CA00A9EC1FF01CC018F01DC019F08DEC1FF0F9
:1037DA0012EF1CF01CC018F01DC019F071EC1FF09C
:1037EA001CC018F01DC019F0A9EC1FF012EF1CF054
:1037FA001E501F6E206A2050000AD8B407EF1CF032
:10380A0012EF1CF01F50000AD8B4E1EF1BF0010AB6
:10381A00D8B4EFEF1BF012EF1CF0120031EF1CF0DE
:10382A001CC018F01DC019F0A9EC1FF01CC018F03C
:10383A001DC019F054EC1FF046EF1CF01CC018F024
:10384A001DC019F037EC1FF01CC018F01DC019F08C
:10385A00A9EC1FF046EF1CF01E501F6E206A205084
:10386A00000AD8B43BEF1CF046EF1CF01F50000AC8
:10387A00D8B415EF1CF0010AD8B423EF1CF046EFB8
:10388A001CF0120065EF1CF01CC018F01DC019F0E6
:10389A00A9EC1FF01CC018F01DC019F0BBEC1EF0FB
:1038AA007AEF1CF01CC018F01DC019F0BBEC1EF01A
:1038BA001CC018F01DC019F0A9EC1FF07AEF1CF01B
:1038CA001E501F6E206A2050000AD8B46FEF1CF0F9
:1038DA007AEF1CF01F50000AD8B449EF1CF0010A15
:1038EA00D8B457EF1CF07AEF1CF012000350041002
:1038FA00D8B482EF1CF084EF1CF0A8EF1CF0010E84
:10390A00056E8CEF1CF0D89003360436052A04AEF7
:10391A0091EF1CF093EF1CF088EF1CF00350015C50
:10392A0004500258D8A09CEF1CF09EEF1CF0A2EFA6
:10393A001CF00350015E0450025AD890043203323C
:10394A00052E93EF1CF001C001F002C002F0120034
:10395A00C4EF1CF002C0F6FF03C0F7FF000EF86EBA
:10396A000D0EF76403D00800F55005D0F6CFE1FF3D
:10397A00F7CFE2FFE750F6EC20F0024A032A02C032
:10398A00F6FF03C0F7FF000EF86E0D0EF76403D0C2
:10399A000800F55005D0F6CFE1FFF7CFE2FFE75078
:1039AA000009D8A4DBEF1CF0DDEF1CF0AFEF1CF030
:1039BA0012003B0E206E216A010E226E3A50D96E19
:1039CA00DA6ADECF23F0DDCF24F03A50D96EDA6A14
:1039DA00020ED926DECF25F0DDCF26F03A50D96E79
:1039EA00DA6A040ED926DECF27F0DDCF28F03A5066
:1039FA00D96EDA6A060ED926DECF29F0DDCF2AF093
:103A0A0051EC1EF03B0E026E036AADEC1CF0120084
:103A1A001DC01FF0000E0001816F000E806F23EFA2
:103A2A001DF01CC00EF01F0E0F6E1EC010F0BAEC77
:103A3A000EF00E50000180270F5081231FC0F6FFA1
:103A4A000E0EF76E000EF86E0800F5500009D8A4A5
:103A5A0031EF1DF033EF1DF016EF1DF080C01CF0A2
:103A6A0081C01DF012008BEC1DF00C50D96EDA6A81
:103A7A0005C0DEFF06C0DDFFB3EC1DF00C50D96EA9
:103A8A00DA6A020ED92605C0DEFF06C0DDFF03ECA6
:103A9A001EF00C50D96EDA6A040ED92605C0DEFF74
:103AAA0006C0DDFFDBEC1DF00C50D96EDA6A060E9B
:103ABA00D92605C0DEFF06C0DDFF12000001AE07F1
:103ACA00D8A0AF07AC07D8A0AD07AA07D8A0AB0704
:103ADA000101A407AEC0D9FFAFC0DAFF0150E16E01
:103AEA00E26ADFCFE7FFACC0D9FFADC0DAFF025010
:103AFA00E16EE26ADFCFE7FFAAC0D9FFABC0DAFF07
:103B0A000350E16EE26ADFCFE7FF120029EC21F0F1
:103B1A00520E0DEC21F0B60E0DEC21F01FEC21F047
:103B2A00530E0DEC21F0010EDCEC1EF0076E07506F
:103B3A000A6E0B6A000EDCEC1EF0076E0750096E67
:103B4A00086A0A5008100A6E0B5009100B6E24EC12
:103B5A0021F00AC005F00BC006F0120029EC21F092
:103B6A00520E0DEC21F0B80E0DEC21F01FEC21F0F5
:103B7A00530E0DEC21F0010EDCEC1EF0076E07501F
:103B8A000A6E0B6A000EDCEC1EF0076E0750096E17
:103B9A00086A0A5008100A6E0B5009100B6E24ECC2
:103BAA0021F00AC005F00BC006F0120029EC21F042
:103BBA00520E0DEC21F0B40E0DEC21F01FEC21F0A9
:103BCA00530E0DEC21F0010EDCEC1EF0076E0750CF
:103BDA000A6E0B6A000EDCEC1EF0076E0750096EC7
:103BEA00086A0A5008100A6E0B5009100B6E24EC72
:103BFA0021F00AC005F00BC006F0120029EC21F0F2
:103C0A00520E0DEC21F0BA0E0DEC21F01FEC21F052
:103C1A00530E0DEC21F0010EDCEC1EF0076E07507E
:103C2A000A6E0B6A000EDCEC1EF0076E0750096E76
:103C3A00086A0A5008100A6E0B5009100B6E24EC21
:103C4A0021F00AC005F00BC006F012003B0E206EF0
:103C5A00216A040E226E3A50D96EDA6ADECF23F058
:103C6A00DDCF24F03A50D96EDA6A020ED926DECFB9
:103C7A0025F0DDCF26F03A50D96EDA6A040ED9263D
:103C8A00DECF27F0DDCF28F051EC1EF03B0E026E9E
:103C9A00036AADEC1CF01200230E2D6E20C02EF02C
:103CAA0021C02FF0000E326E000E316E000E396EFA
:103CBA00000E386E2E0E1C6E22C01DF02D0E1E6ECA
:103CCA000DEC1DF01CC02BF01DC02CF0315020242F
:103CDA00D96E32502120DA6EDF6A2BC020F02CC058
:103CEA0021F01200B00EF66E410EF76E000EF86E5D
:103CFA0000EEAAF010EE1EF00900F5CFEEFFE55037
:103D0A00E150FAE101EEA4F03E0EEE6AE806FDE1AA
:103D1A0000EE60F0280EEE6AE806FDE15E6A5F904A
:103D2A005F92000192EF13F0B2EF1EF00DC00CF09B
:103D3A0038EC1DF00D50D96EDA6A060ED926010E3E
:103D4A00DB5007E1320EDE5CD8B0AEEF1EF0B0EF0A
:103D5A001EF0B2EF1EF0BAEF1EF00E50D8B4B8EF54
:103D6A001EF0BAEF1EF09BEF1EF01200B8EC20F026
:103D7A00A8EC20F018C013F019C014F0E1EC17F009
:103D8A00210E1B6E780E1A6E980EE82EFED71A2E8A
:103D9A00FCD71B2EFAD700D018C013F019C014F0A4
:103DAA008AEC19F0B8EC20F0A8EC20F01200036EAF
:103DBA0025EC20F00E01DA8725EC20F0D5CE04F0B0
:103DCA0025EC20F00350D8B4EDEF1EF0F1EF1EF011
:103DDA00026A022AF2EF1EF0026A023A02460E0153
:103DEA00DA510218DF0B0218DA6FDA89045012006E
:103DFA00036EAEC0D9FFAFC0DAFF03C0DFFFACC0AD
:103E0A00D9FFADC0DAFF01C0DFFFAAC0D9FFABC03E
:103E1A00DAFF02C0DFFF0001AE4BAF2BAC4BAD2B7C
:103E2A00AA4BAB2B0101A42B120097EC20F018C06F
:103E3A0013F019C014F03DEC18F0C70E1B6E0D0EEE
:103E4A001A6EC60EE82EFED71A2EFCD71B2EFAD7EC
:103E5A0000D018C013F019C014F08AEC19F097ECCE
:103E6A0020F01200A8EC20F018C013F019C014F0CA
:103E7A0085EC17F0160E1B6E450E1A6E170EE82EFD
:103E8A00FED71A2EFCD71B2EFAD7000018C013F043
:103E9A0019C014F08AEC19F0A8EC20F01200B8EC62
:103EAA0020F018C013F019C014F0E1EC17F0150E49
:103EBA001B6E4B0E1A6EBE0EE82EFED71A2EFCD7BC
:103ECA001B2EFAD700D018C013F019C014F08AECD0
:103EDA0019F0B8EC20F01200A8EC20F018C013F08A
:103EEA0019C014F085EC17F0090E1B6EC50E1A6E78
:103EFA00200EE82EFED71A2EFCD71B2EFAD718C092
:103F0A0013F019C014F08AEC19F0A8EC20F0120092
:103F1A00B8EC20F018C013F019C014F0E1EC17F057
:103F2A00070E1B6ED20E1A6E6E0EE82EFED71A2ED2
:103F3A00FCD71B2EFAD718C013F019C014F08AEC5C
:103F4A0019F0B8EC20F0120097EC20F018C013F02A
:103F5A0019C014F03DEC18F0430E1B6E8F0E1A6E4A
:103F6A00C80EE82EFED71A2EFCD71B2EFAD718C079
:103F7A0013F019C014F08AEC19F097EC20F0120033
:103F8A0008BECAEF1FF0CCEF1FF0D2EF1FF007C038
:103F9A0007F008C008F0DEEF1FF007C009F008C0FC
:103FAA000AF0091E0A1E094A0A2A09C007F00AC0AD
:103FBA0008F0120010EC20F0010E036E000EC8EC9F
:103FCA0020F03F0E056E550EE82EFED7052EFCD7C3
:103FDA000000030E036E000EC8EC20F0D50E036E2F
:103FEA00010EC8EC20F0120084988892849686907C
:103FFA0088907C9880927C967E9080908792819817
:10400A00869E7F9279987E9E8790859E81967F90E4
:10401A007D9E799612000E01D951F00B0809D96FCD
:10402A00D98B9F0ED66F848A848CA79BA79D1D0E61
:10403A001D6F1E0E1C6F1C0E6F6F1B0E706F120011
:10404A000E01D8B52BEF20F02DEF20F025EF20F050
:10405A00DACE01F01F0E0116D8A436EF20F038EFA1
:10406A0020F025EF20F01200D6501F0B4009D66E23
:10407A00D688D588D650F00B0E09D66E13EC21F0EF
:10408A00D58E30EC21F00E01298BF28CF28E1200C3
:10409A007CA652EF20F056EF20F0016A012A57EF72
:1040AA0020F0016A0146014601467C500118F70BCF
:1040BA0001187C6E12001CC018F01DC019F0A9EC82
:1040CA001FF01CC018F01DC019F0BBEC1EF01CC07C
:1040DA0018F01DC019F0A9EC1FF0120001500302DC
:1040EA00F3CF05F0F4CF06F001500402F350062690
:1040FA0002500302F350062605C001F006C002F082
:10410A0012003C0E206E216A0F0E226E3AC023F076
:10411A003BC024F051EC1EF03C0E026E036AADEC7B
:10412A001CF012007CA89CEF20F0A0EF20F0016A9E
:10413A00012AA1EF20F0016A013A7C500118EF0B25
:10414A0001187C6E120080A0ADEF20F0B1EF20F0D4
:10415A00016A012AB2EF20F0016A80500118FE0BB1
:10416A000118806E12007EA0BDEF20F0C1EF20F092
:10417A00016A012AC2EF20F0016A7E500118FE0B83
:10418A0001187E6E1200046E29EC21F0520E0DEC1D
:10419A0021F0045080090DEC21F003500DEC21F0C0
:1041AA0024EC21F01200A601BA01CE0188093403D9
:1041BA0090010601FA006C005400320028281514F8
:1041CA0014140814120E0E01626F110E156FE9977E
:1041DA00E895330EE56F000EE66FE789E88BE78F07
:1041EA001200016E0E0137A5FDEF20F0FFEF20F05F
:1041FA00F7EF20F001C0E4FE12000250D96EDA6A2D
:10420A00D3CFDFFF0150D96EDA6AD4CFDFFF1200B5
:10421A00026E25EC20F002C0D5FE1200000E016EDF
:10422A00000E19EC21F01200026E02C0D4FF01C088
:10423A00D3FF120025EC20F00E01DA83120025ECE0
:10424A0020F00E01DA85120025EC20F00E01DA8149
:0C425A001200D59E1200D58E120012003A
:020000040020DA
:10000000FFFFFFFFFFFFFFFFFFFFFFFFFFFFFFFF00
:020000040030CA
:0C000000AAFFFFFF9FFFFFFFFFFFFFFFB5
:00000001FF
