:040000001EEF00F0FF
:100008005E820E0133AB0BEF00F00DEF00F01CEF3A
:1000180000F05D50D8B413EF00F015EF00F019EFC1
:1000280000F0010E5C6E1BEF00F0010E5B6E339B5F
:080038005E92110033EF13F09A
:100E0000002575202575202575202575200D0025C8
:090E100064200D0025642000009F
:100E1A00000E1F6E000E1E6E000E3D6E3C0E3C6EE6
:100E2A00000E196E640E186E0FC001F0BBEC12F0C2
:100E3A0001C03EF002C03FF00FC001F07DEC12F09D
:100E4A0001C01AF002C01BF01A503E5C406E1B50E3
:100E5A003F58416E40504110D8A436EF07F038EFA2
:100E6A0007F03EEF07F0000E1F6E000E1E6E0EEF2B
:100E7A000AF00F50D96EDA6A3E50DE1807E13F5089
:100E8A00DE18D8A44BEF07F04DEF07F03AEF08F061
:100E9A000F50D96EDA6A040ED9260F50E16EE26A53
:100EAA00020EE126DE50E65CDE50E658D8A060EF7E
:100EBA0007F062EF07F0C2EF07F0000E246E000E93
:100ECA00256E000E266E000E276E0F50D96EDA6A56
:100EDA00040ED926DECF10F0DDCF11F00F50D96EF7
:100EEA00DA6A020ED926DECF12F0DDCF13F01050E7
:100EFA00125C146E11501358156E14502426155096
:100F0A002522000E2622000E272224C001F025C029
:100F1A0002F026C003F027C004F03C0E056E000E56
:100F2A00066E000E076E000E086E68EC13F001C024
:100F3A0024F002C025F003C026F004C027F024C024
:100F4A0001F025C002F026C003F027C004F040C01B
:100F5A0005F041C006F0076A086AE3EC11F001C027
:100F6A0024F002C025F003C026F004C027F024C0F4
:100F7A001EF025C01FF03AEF08F040C038F041C01B
:100F8A0039F03A6A3B6A38C001F039C002F03AC017
:100F9A0003F03BC004F0060E056E000E066E000E4E
:100FAA00076E000E086E68EC13F001C038F002C03C
:100FBA0039F003C03AF004C03BF00F50D96EDA6A38
:100FCA00020ED926DECF10F0DDCF11F00F50D96E08
:100FDA00DA6A040ED926DECF12F0DDCF13F01050F4
:100FEA00125C146E11501358156E166A176A145053
:100FFA00385E1550395A16503A5A17503B5A38C06B
:10100A0001F039C002F03AC003F03BC004F03C0ED4
:10101A00056E000E066E000E076E000E086E68EC76
:10102A0013F001C038F002C039F003C03AF004C02E
:10103A003BF038C001F039C002F03AC003F03BC0BF
:10104A0004F040C005F041C006F0076A086AE3EC04
:10105A0011F001C038F002C039F003C03AF004C000
:10106A003BF038C01EF039C01FF00F50D96EDA6A53
:10107A00020ED9263E50DE1807E13F50DE18D8A4EA
:10108A0049EF08F04BEF08F020EF09F00F50D96E46
:10109A00DA6A0F50E16EE26A040EE126DE50E65C7F
:1010AA00DE50E658D8A05CEF08F05EEF08F0BFEF1C
:1010BA0008F040C028F041C029F02A6A2B6AD8906B
:1010CA00283629362A362B360F50D96EDA6ADECF01
:1010DA0010F0DDCF11F00F50D96EDA6A040ED9265E
:1010EA00DECF12F0DDCF13F01050125C146E1150E7
:1010FA001358156E1450282615502922000E2A223C
:10110A00000E2B2228C001F029C002F02AC003F0E9
:10111A002BC004F03C0E056E000E066E000E076E24
:10112A00000E086E68EC13F001C028F002C029F026
:10113A0003C02AF004C02BF028C001F029C002F035
:10114A002AC003F02BC004F040C005F041C006F0ED
:10115A00076A086AE3EC11F001C028F002C029F01E
:10116A0003C02AF004C02BF028C01EF029C01FF0CB
:10117A0020EF09F040C02CF041C02DF02E6A2F6AF2
:10118A00D8902C362D362E362F360F50D96EDA6A75
:10119A00040ED926DECF10F0DDCF11F00F50D96E34
:1011AA00DA6ADECF12F0DDCF13F01050125C146E43
:1011BA0011501358156E166A176A14502C5E155082
:1011CA002D5A16502E5A17502F5A2CC001F02DC0E6
:1011DA0002F02EC003F02FC004F03C0E056E000E84
:1011EA00066E000E076E000E086E68EC13F001C062
:1011FA002CF002C02DF003C02EF004C02FF02CC03A
:10120A0001F02DC002F02EC003F02FC004F040C040
:10121A0005F041C006F0076A086AE3EC11F001C064
:10122A002CF002C02DF003C02EF004C02FF02CC009
:10123A001EF02DC01FF00F50D96EDA6A040ED9269F
:10124A003E50DE1807E13F50DE18D8A42FEF09F010
:10125A0031EF09F00EEF0AF00F50D96EDA6A020E7A
:10126A00D9260F50E16EE26ADE50E65CDE50E6589F
:10127A00D8A042EF09F044EF09F0A9EF09F040C005
:10128A0030F041C031F0326A336A020ED8903036FB
:10129A00313632363336E82E4BEF09F00F50D96E1D
:1012AA00DA6A020ED926DECF10F0DDCF11F00F5028
:1012BA00D96EDA6ADECF12F0DDCF13F01050125C6D
:1012CA00146E11501358156E1450302615503122D1
:1012DA00000E3222000E332230C001F031C002F07B
:1012EA0032C003F033C004F03C0E056E000E066EE9
:1012FA00000E076E000E086E68EC13F001C030F0A5
:10130A0002C031F003C032F004C033F030C001F043
:10131A0031C002F032C003F033C004F040C005F01F
:10132A0041C006F0076A086AE3EC11F001C030F028
:10133A0002C031F003C032F004C033F030C01EF0F6
:10134A0031C01FF00EEF0AF040C034F041C035F052
:10135A00366A376A020ED89034363536363637361C
:10136A00E82EB0EF09F00F50D96EDA6ADECF10F02E
:10137A00DDCF11F00F50D96EDA6A020ED926DECF10
:10138A0012F0DDCF13F01050125C146E1150135886
:10139A00156E166A176A1450345E1550355A16506F
:1013AA00365A1750375A34C001F035C002F036C0E9
:1013BA0003F037C004F03C0E056E000E066E000EF8
:1013CA00076E000E086E68EC13F001C034F002C01C
:1013DA0035F003C036F004C037F034C001F035C030
:1013EA0002F036C003F037C004F040C005F041C037
:1013FA0006F0076A086AE3EC11F001C034F002C093
:10140A0035F003C036F004C037F034C01EF035C0E2
:10141A001FF03E503F10D8A415EF0AF017EF0AF05C
:10142A001DEF0AF0000E1D6E000E1C6E59EF0AF039
:10143A0040C020F041C021F0226A236A20C001F096
:10144A0021C002F022C003F023C004F0640E056E2E
:10145A00000E066E000E076E000E086E68EC13F0A2
:10146A0001C020F002C021F003C022F004C023F022
:10147A0020C001F021C002F022C003F023C004F012
:10148A003EC005F03FC006F0076A086AE3EC11F0B7
:10149A0001C020F002C021F003C022F004C023F0F2
:1014AA0020C01CF021C01DF00E50D96EDA6A1EC091
:1014BA00DEFF1FC0DDFF0E50D96EDA6A020ED92692
:1014CA001CC0DEFF1DC0DDFF0E50D96EDA6A040EA5
:1014DA00D9263EC0DEFF3FC0DDFF12001250800B4E
:1014EA001B6E12501224216E11AE7EEF0AF080EFAD
:1014FA000AF081EF0AF021802150D8B487EF0AF070
:10150A0089EF0AF09CEF0AF02128D8A48FEF0AF09D
:10151A0091EF0AF099EF0AF0000E0F6E000E106EAE
:10152A00000E116E000E126E118EA4EF0AF0000E5C
:10153A000F6E000E106E000E116E000E126E165017
:10154A00800B1B1A16501624206E15AEAFEF0AF048
:10155A00B1EF0AF0B2EF0AF020802050D8B4B8EF09
:10156A000AF0BAEF0AF0CDEF0AF02028D8A4C0EFAB
:10157A000AF0C2EF0AF0CAEF0AF0000E136E000E6C
:10158A00146E000E156E000E166E158ED5EF0AF04B
:10159A00000E136E000E146E000E156E000E166EFF
:1015AA002050D8B4DBEF0AF0DDEF0AF0E5EF0AF0DD
:1015BA002150D8A4E3EF0AF0E5EF0AF0EFEF0AF0C2
:1015CA00000E0F6E000E106E000E116E000E126EDF
:1015DA0087EF0CF015500F02F3CF26F0F4CF27F067
:1015EA0026501C6E1D6A1E6A1F6A2750226E236AC5
:1015FA00246A256A14501002F3CF26F0F4CF27F09C
:10160A0026501C26000E1D221E221F22275022268B
:10161A00000E23222422252213501102F3CF26F092
:10162A00F4CF27F026501C26000E1D221E221F2250
:10163A0027502226000E2322242225221EC01FF014
:10164A001DC01EF01CC01DF01C6A13501002F3CFFF
:10165A0026F0F4CF27F026501C2627501D22000E14
:10166A001E22000E1F2214500F02F3CF26F0F4CFD1
:10167A0027F026501C2627501D22000E1E22000E7F
:10168A001F221EC01FF01DC01EF01CC01DF01C6AC8
:10169A0013500F02F3CF26F0F4CF27F026501C2662
:1016AA0027501D22000E1E22000E1F221550100266
:1016BA00F3CF26F0F4CF27F02650222627502322F4
:1016CA00000E2422000E252214501102F3CF26F018
:1016DA00F4CF27F02650222627502322000E242258
:1016EA00000E252215501102F3CF26F0F4CF27F071
:1016FA002650176E2750186E196A1A6A19C01AF0FE
:10170A0018C019F017C018F0176A17502226185077
:10171A002322195024221A5025221CC017F01DC05A
:10172A0018F01EC019F01FC01AF0190EA2EF0BF024
:10173A00D8901A32193218321732E82E9DEF0BF070
:10174A001750222618502322195024221A502522D3
:10175A001EC01FF01DC01EF01CC01DF01C6A2050C8
:10176A0021C017F0186A1726000E1822820E1724B5
:10177A00266EFF0E1820276ED8EF0BF0D89022366F
:10178A002336243625361FAECDEF0BF0CFEF0BF004
:10179A00D0EF0BF02280D8901C361D361E361F362D
:1017AA002606D8A0270624AEDDEF0BF0DFEF0BF0FC
:1017BA00C3EF0BF0000E206E1FAEE6EF0BF0E8EF62
:1017CA000BF00CEF0CF0FF0E1C14176EFF0E1D141D
:1017DA00186EFF0E1E14196E7F0E1F141A6E175004
:1017EA00181019101A10D8B4FDEF0BF0FFEF0BF018
:1017FA0003EF0CF0010E206E0CEF0CF022A008EFA4
:10180A000CF00AEF0CF00CEF0CF0FFEF0BF020508D
:10181A00D8B412EF0CF014EF0CF038EF0CF0010E04
:10182A002226000E23222422252225A01FEF0CF0B7
:10183A0021EF0CF038EF0CF022C017F023C018F09B
:10184A0024C019F025C01AF01A341A321932183283
:10185A00173217C022F018C023F019C024F01AC09A
:10186A0025F0264A272A27BE43EF0CF0275008E125
:10187A002628D8A043EF0CF045EF0CF04FEF0CF000
:10188A00000E226E000E236E800E246E7F0E256ED1
:10189A007DEF0CF027BE5CEF0CF0275006E1260422
:1018AA00D8B05AEF0CF05CEF0CF068EF0CF0000EB9
:1018BA00226E000E236E000E246E000E256E000EA0
:1018CA001B6E7DEF0CF026C021F0FF0E2216FF0ED4
:1018DA0023167F0E2416000E251621A077EF0CF092
:1018EA0079EF0CF07AEF0CF0248ED8902130256E27
:1018FA001B50251222C00FF023C010F024C011F093
:10190A0025C012F01200000E126E000E116E0C505D
:10191A00D96EDA6ADFCFF6FF0E0EF76E000EF86E9A
:10192A000800F550250AD8A49DEF0CF09FEF0CF0A3
:10193A00F4EF0DF00C50D96EDA6ADF2A000E0001BE
:10194A00836F000E826F82C086F0846985690C50AD
:10195A00D96EDA6ADF50136E13C0F6FF0E0EF76EF9
:10196A00000EF86E0800F550640AD8B4BFEF0CF008
:10197A00C1EF0CF0D1EF0CF013C0F6FF0E0EF76EAC
:10198A00000EF86E0800F550690AD8A4CFEF0CF0E3
:10199A00D1EF0CF05FEF0DF00D50D96EDA6A020E3E
:1019AA00DF26DF5CD96EDA6ADECF14F0DECF15F0FF
:1019BA000C50D96EDA6A1328DF6E200E186E15BE27
:1019CA00E9EF0CF0ECEF0CF0010EEDEF0CF0000E6D
:1019DA00106E18061850600FD96EDA6A14C001F03A
:1019EA0015C002F0000E046E0A0E036E8BEC11F0A5
:1019FA0001C007F002C008F092EC15F00750300F52
:101A0A00DF6E14C001F015C002F0000E046E0A0E5B
:101A1A00036ECCEC10F001C014F002C015F0114AAC
:101A2A00122A14501510D8B41DEF0DF01FEF0DF047
:101A3A0027EF0DF01850D8A425EF0DF027EF0DF081
:101A4A00EEEF0CF01850D8B42DEF0DF02FEF0DF08B
:101A5A0050EF0DF01050D8B435EF0DF037EF0DF010
:101A6A0050EF0DF018061850600FD96EDA6A2D0E75
:101A7A00DF6E114A122A50EF0DF01850600FD96E1E
:101A8A00DA6ADF500E6E0E50016E026A0BC003F066
:101A9A002EEC11F0182A200E1818D8A457EF0DF0C2
:101AAA0059EF0DF042EF0DF011C00BF012C00CF01F
:101ABA000DEF0EF013C0F6FF0E0EF76E000EF86E65
:101ACA000800F550750AD8A46DEF0DF06FEF0DF010
:101ADA00EAEF0DF00D50D96EDA6A020EDF26DF5CEE
:101AEA00D96EDA6ADECF14F0DECF15F00C50D96E5B
:101AFA00DA6A1328DF6ED2EF0DF0200E186E180680
:101B0A001850600FD96EDA6A14C001F015C002F0DD
:101B1A00000E046E0A0E036E9DEC13F00150300F96
:101B2A00DF6E14C001F015C002F0000E046E0A0E3A
:101B3A00036EF9EC12F001C014F002C015F0114A5C
:101B4A00122A14501510D8B4ADEF0DF0AFEF0DF006
:101B5A00C7EF0DF01850D8A4B5EF0DF0B7EF0DF0A0
:101B6A0084EF0DF0C7EF0DF01850600FD96EDA6AE6
:101B7A00DF500E6E0E50016E026A0BC003F02EEC9F
:101B8A0011F0182A200E1818D8A4CEEF0DF0D0EFB5
:101B9A000DF0B9EF0DF059EF0DF013C0F6FF0E0E70
:101BAA00F76E000EF86E0800F5500E6E0F6A0F50B1
:101BBA00000AD8B4E3EF0DF0EAEF0DF00E50750A03
:101BCA00D8B482EF0DF0EAEF0DF00C50D96EDA6A54
:101BDA00DF2A000E0C6E000E0B6E0DEF0EF00C508D
:101BEA00D96EDA6ADFCFF6FF0E0EF76E000EF86EC8
:101BFA000800F550016E026A0BC003F02EEC11F0DA
:101C0A000C50D96EDA6ADF2A000E0C6E010E0B6ECA
:101C1A001200096E0950D8B415EF0EF017EF0EF046
:101C2A0039EF0EF004BE1EEF0EF01CEF0EF039EF86
:101C3A000EF001C005F002C006F003C007F004C0B0
:101C4A0008F0051E061E071E081E052A000E06229B
:101C5A000722082205C00BF006C00CF007C00DF0E1
:101C6A0008C00EF041EF0EF001C00BF002C00CF0FC
:101C7A0003C00DF004C00EF001500210031004104E
:101C8A00D8A44AEF0EF04CEF0EF056EF0EF0000E0D
:101C9A00016E000E026E000E036E000E046EE7EF78
:101CAA000EF0960E0A6E60EF0EF00A2AD8900E32E7
:101CBA000D320C320B32000E0B14056E000E0C1492
:101CCA00066E000E0D14076EFE0E0E14086E0550F9
:101CDA00061007100810D8A475EF0EF077EF0EF073
:101CEA005AEF0EF085EF0EF00A2A010E0B26000EAF
:101CFA000C220D220E22D8900E320D320C320B32EB
:101D0A00000E0B14056E000E0C14066E000E0D1458
:101D1A00076EFF0E0E14086E055006100710081005
:101D2A00D8A49AEF0EF09CEF0EF079EF0EF0A4EF24
:101D3A000EF00A06D8900B360C360D360E360DBE4E
:101D4A00A9EF0EF0ABEF0EF0B3EF0EF0020E0A6041
:101D5A00B1EF0EF0B3EF0EF09EEF0EF00AB0B8EF4F
:101D6A000EF0BAEF0EF0BBEF0EF00D9ED8900A32CD
:101D7A000AC005F0066A076A086A05C008F0076A19
:101D8A00066A056A05500B1206500C1207500D120E
:101D9A0008500E120950D8B4D5EF0EF0D7EF0EF056
:101DAA00DFEF0EF004BEDEEF0EF0DCEF0EF0DFEF39
:101DBA000EF00E8E0BC001F00CC002F00DC003F045
:101DCA000EC004F01200000E0001A06F000E9F6FFB
:101DDA00000EA26F000EA16F000EA46F000EA36F7B
:101DEA00000EA66F000EA56F000E886F000E876F9B
:101DFA00000E8A6F000E896F000E8C6F000E8B6FBB
:101E0A00000E8D6F010E8E6F010E8F6F000E916F97
:101E1A00630E906FAA0E926F0F0E936FA60E946FB9
:101E2A000F0E956F000E966F010E976F010E986F49
:101E3A00000E9A6F630E996F250E9B6F0F0E9C6FA3
:101E4A00210E9D6F0F0E9E6F000E026E630E016EC5
:101E5A0035EC12F0C6EC15F0ACEC15F028EC16F0E7
:101E6A0006EC16F0849E88967C9E809686848686EA
:101E7A000E01B495B49780A645EF0FF049EF0FF025
:101E8A00526A522A4AEF0FF0526A52465246524654
:101E9A0080505218F70B5218806E68EC10F09F0EA3
:101EAA000C6E5AEC14F09F0E326EFDEC0FF0870E9A
:101EBA000E6E9F0E0F6E0DEC07F09F0E376E00EC44
:101ECA0014F0870E376E25EC15F0520E536E2B0E5A
:101EDA00526E000EE82EFED7522EFCD7532EFAD79A
:101EEA0000D054EF0FF01EEF00F02A342B34316E7D
:101EFA003150D8A483EF0FF085EF0FF08FEF0FF07A
:101F0A00000E286E000E296E000E2A6E000E2B6E31
:101F1A00FCEF0FF028C02CF029C02DF02AC02EF0BB
:101F2A002BC02FF0200E9FEF0FF0D8902F322E32B9
:101F3A002D322C32E82E9AEF0FF02C50306E2A8E6A
:101F4A00FF0E2816FF0E2916FF0E2A16000E2B1654
:101F5A00960E315E31BEB6EF0FF0B4EF0FF0CCEF54
:101F6A000FF03150800A970FD8B0BEEF0FF0C0EFD4
:101F7A000FF0C2EF0FF085EF0FF0D8902B322A3214
:101F8A0029322832313EC2EF0FF0E4EF0FF01F0E74
:101F9A003164D2EF0FF0D4EF0FF0DCEF0FF085EFE2
:101FAA000FF0D890283629362A362B36310631508A
:101FBA00D8A4E2EF0FF0E4EF0FF0D6EF0FF03050B5
:101FCA00D8B4EAEF0FF0ECEF0FF0F4EF0FF02B1E9E
:101FDA002A1E291E286C000E29222A222B2228C0FA
:101FEA0028F029C029F02AC02AF02BC02BF01200B1
:101FFA00000E136E000E146E000E156E3F0E166E56
:10200A003250D96EDA6ADECF33F0DDCF34F033C026
:10201A0001F034C002F0036A046A000E0EEC0EF0FE
:10202A0001C00FF002C010F003C011F004C012F09A
:10203A0073EC0AF00FC028F010C029F011C02AF082
:10204A0012C02BF07AEC0FF03250D96EDA6A28C03F
:10205A00DEFF29C0DDFF330E136E330E146E330E0E
:10206A00156E3F0E166E3250D96EDA6A020ED926F6
:10207A00DECF33F0DDCF34F033C001F034C002F0EC
:10208A00036A046A000E0EEC0EF001C00FF002C0E3
:10209A0010F003C011F004C012F073EC0AF00FC084
:1020AA0028F010C029F011C02AF012C02BF07AECE7
:1020BA000FF03250D96EDA6A020ED92628C0DEFF36
:1020CA0029C0DDFF12007FA26DEF10F071EF10F052
:1020DA00016A012A72EF10F0016A01467F50011865
:1020EA00FD0B01187F6E79A87DEF10F081EF10F0DB
:1020FA00016A012A82EF10F0016A013A7950011847
:10210A00EF0B0118796E7EAE8DEF10F091EF10F0A3
:10211A00016A012A92EF10F0016A013201327E50FF
:10212A0001187F0B01187E6E7FA09EEF10F0A2EFC0
:10213A0010F0016A012AA3EF10F0016A7F5001181A
:10214A00FE0B01187F6E7DAEADEF10F0B1EF10F00F
:10215A00016A012AB2EF10F0016A013201327D50A0
:10216A0001187F0B01187D6E79A6BEEF10F0C2EF41
:10217A0010F0016A012AC3EF10F0016A0146014614
:10218A00014679500118F70B0118796E1200000EFA
:10219A00066E04BED5EF10F0D3EF10F0DBEF10F0AF
:1021AA00036C041ED8B0042A010E066E02BEE2EFCA
:1021BA0010F0E0EF10F0E8EF10F0016C021ED8B05A
:1021CA00022A010E061A000E086E000E076E035050
:1021DA000410D8B4F3EF10F0F5EF10F01DEF11F082
:1021EA00010E056EFDEF10F0D89003360436052A6D
:1021FA0004AE02EF11F004EF11F0F9EF10F0D890ED
:10220A00073608360350015C04500258D8A010EF74
:10221A0011F012EF11F017EF11F00350015E0450A4
:10222A00025A0780D89004320332052E04EF11F0C7
:10223A000650D8B423EF11F025EF11F029EF11F071
:10224A00076C081ED8B0082A07C001F008C002F0BF
:10225A0012000350D8B434EF11F036EF11F03EEF0C
:10226A0011F00350D8A43CEF11F03EEF11F043EF08
:10227A0011F0015071EC16F08AEF11F00350D96E8B
:10228A00DA6A0A0ED926DE50DE10D8B44FEF11F002
:10229A0051EF11F06AEF11F00350D96EDA6A0A0EA3
:1022AA00D9260350E16EE26A030EE126DE50E65CAF
:1022BA00E650800A086EDE50800A0858D8B068EFE7
:1022CA0011F06AEF11F08AEF11F00350D96EDA6A51
:1022DA00030ED926DECF04F0DDCF05F00350D96E08
:1022EA00DA6ADECF06F0DDCF07F004500624D96E95
:1022FA0005500720DA6E01C0DFFF0350D96EDA6A93
:10230A00030ED926DE2A000EDD221200000E066E0A
:10231A0002BE94EF11F092EF11F09AEF11F0016CF6
:10232A00021ED8B0022A010E066E04BEA1EF11F0F9
:10233A009FEF11F0A5EF11F0036C041ED8B0042A28
:10234A0003500410D8B4ACEF11F0AEEF11F0D2EF95
:10235A0011F0010E056EB6EF11F0D890033604366F
:10236A00052A04AEBBEF11F0BDEF11F0B2EF11F088
:10237A000350015C04500258D8A0C6EF11F0C8EF10
:10238A0011F0CCEF11F00350015E0450025AD890BC
:10239A0004320332052EBDEF11F00650D8B4D8EF3F
:1023AA0011F0DAEF11F0DEEF11F0016C021ED8B075
:1023BA00022A01C001F002C002F01200000E096EEA
:1023CA00000E0A6E000E0B6E000E0C6E0550061003
:1023DA0007100810D8B4F4EF11F0F6EF11F02CEF53
:1023EA0012F0010E0D6E00EF12F0D8900536063687
:1023FA00073608360D2A08AE05EF12F007EF12F07D
:10240A00FAEF11F0D89009360A360B360C36055019
:10241A00015C065002580750035808500458D8A0C7
:10242A0019EF12F01BEF12F024EF12F00550015EC3
:10243A000650025A0750035A0850045A0980D89085
:10244A0008320732063205320D2E07EF12F009C0A4
:10245A0001F00AC002F00BC003F00CC004F0120035
:10246A0085948598839E879C7D947D987B9E7F9C8E
:10247A00050E0E01746F060E766F070E696F080E51
:10248A00886FBD508F0B4009BD6EE00EBE16BF505F
:10249A00F00B0109BF6E01C0BCFFBD8E000EAA6E13
:1024AA00000EA66E000E0F01256F000E216FFC0EA6
:1024BA00AD16F30EAD16CF0EAD163F0EAD16AB88A8
:1024CA00AB50F00B0C09AB6EAB8EA788A750F00B84
:1024DA000C09A76EA78E26892651F00B0C09266FC8
:1024EA00268F22892251F00B0C09226F228F1200AB
:1024FA000150D96EDA6ADECF05F0DDCF06F0015061
:10250A00D96EDA6A020ED9260550DE5C0650DE580C
:10251A00D8B092EF12F094EF12F09DEF12F0015042
:10252A00D96EDA6A020ED926DECF05F0DDCF06F0C3
:10253A000150D96EDA6A040ED9260550DE5C0650BF
:10254A00DE58D8B0ABEF12F0ADEF12F0B6EF12F0E2
:10255A000150D96EDA6A040ED926DECF05F0DDCF36
:10256A0006F005C001F006C002F012000150D96E53
:10257A00DA6ADECF05F0DDCF06F00150D96EDA6AED
:10258A00020ED926DE50055CDE500658D8B0D0EFD0
:10259A0012F0D2EF12F0DBEF12F00150D96EDA6AC4
:1025AA00020ED926DECF05F0DDCF06F00150D96E36
:1025BA00DA6A040ED926DE50055CDE500658D8B019
:1025CA00E9EF12F0EBEF12F0F4EF12F00150D96ECE
:1025DA00DA6A040ED926DECF05F0DDCF06F005C093
:1025EA0001F006C002F01200000E066E000E056E23
:1025FA0003500410D8B404EF13F006EF13F02EEFD3
:10260A0013F0010E076E0EEF13F0D890033604365E
:10261A00072A04AE13EF13F015EF13F00AEF13F0C5
:10262A00D890053606360350015C04500258D8A0EB
:10263A0021EF13F023EF13F028EF13F00350015E9C
:10264A000450025A0580D89004320332072E15EF3F
:10265A0013F005C001F006C002F01200860EF66EF5
:10266A002C0EF76E000EF86E00EEA7F010EE14F0C6
:10267A000900F5CFEEFFE550E150FAE1DC0EF66E07
:10268A002C0EF76E000EF86E00EE54F010EE06F007
:10269A000900F5CFEEFFE550E150FAE101EE00F056
:1026AA003C0EEE6AE806FDE100EE60F0270EEE6AE7
:1026BA00E806FDE15D6A5C6A5B6A5A6A5E905E9250
:1026CA000001E8EF0EF0000E096E000E0A6E000E11
:1026DA000B6E000E0C6E01A075EF13F077EF13F07E
:1026EA007FEF13F00550092606500A2207500B22E5
:1026FA0008500C22D8900536063607360836D89088
:10270A000432033202320132015002100310041063
:10271A00D8A492EF13F094EF13F070EF13F009C0FE
:10272A0001F00AC002F00BC003F00CC004F0120062
:10273A0003500410D8B4A4EF13F0A6EF13F0CAEFB5
:10274A0013F0010E056EAEEF13F0D890033604367F
:10275A00052A04AEB3EF13F0B5EF13F0AAEF13F0A6
:10276A000350015C04500258D8A0BEEF13F0C0EF2A
:10277A0013F0C4EF13F00350015E0450025AD890CC
:10278A0004320332052EB5EF13F001C001F002C086
:10279A0002F01200E6EF13F002C0F6FF03C0F7FFE3
:1027AA00000EF86E0D0EF76403D00800F55005D040
:1027BA00F6CFE9FFF7CFEAFFEF5037EC16F0024AFF
:1027CA00032A02C0F6FF03C0F7FF000EF86E0D0ED3
:1027DA00F76403D00800F55005D0F6CFE9FFF7CF2C
:1027EA00EAFFEF500009D8A4FDEF13F0FFEF13F052
:1027FA00D1EF13F01200380E1D6E1E6A010E1F6E05
:10280A003750D96EDA6ADECF20F0DDCF21F03750AB
:10281A00D96EDA6A020ED926DECF22F0DDCF23F096
:10282A003750D96EDA6A040ED926DECF24F0DDCF0E
:10283A0025F03750D96EDA6A060ED926DECF26F091
:10284A00DDCF27F04BEC15F0380E026E036ACFECA1
:10285A0013F012001AC01CF0000E0001816F000E66
:10286A00806F45EF14F019C00BF01C0E0C6E1BC0E4
:10287A000DF088EC0CF00B50000180270C508123DE
:10288A001CC0F6FF0E0EF76E000EF86E0800F5502B
:10289A000009D8A453EF14F055EF14F038EF14F0F0
:1028AA0080C019F081C01AF0120085EC14F00C50A7
:1028BA00D96EDA6A05C0DEFF06C0DDFFADEC14F0A2
:1028CA000C50D96EDA6A020ED92605C0DEFF06C0A0
:1028DA00DDFFFDEC14F00C50D96EDA6A040ED9262D
:1028EA0005C0DEFF06C0DDFFD5EC14F00C50D96E32
:1028FA00DA6A060ED92605C0DEFF06C0DDFF120021
:10290A0069EC16F0520E4DEC16F0B60E4DEC16F0C0
:10291A005FEC16F0530E4DEC16F0010E71EC15F04B
:10292A00076E07500A6E0B6A000E71EC15F0076EFF
:10293A000750096E086A0A5008100A6E0B500910EF
:10294A000B6E64EC16F00AC005F00BC006F012001C
:10295A0069EC16F0520E4DEC16F0B80E4DEC16F06E
:10296A005FEC16F0530E4DEC16F0010E71EC15F0FB
:10297A00076E07500A6E0B6A000E71EC15F0076EAF
:10298A000750096E086A0A5008100A6E0B5009109F
:10299A000B6E64EC16F00AC005F00BC006F01200CC
:1029AA0069EC16F0520E4DEC16F0B40E4DEC16F022
:1029BA005FEC16F0530E4DEC16F0010E71EC15F0AB
:1029CA00076E07500A6E0B6A000E71EC15F0076E5F
:1029DA000750096E086A0A5008100A6E0B5009104F
:1029EA000B6E64EC16F00AC005F00BC006F012007C
:1029FA0069EC16F0520E4DEC16F0BA0E4DEC16F0CC
:102A0A005FEC16F0530E4DEC16F0010E71EC15F05A
:102A1A00076E07500A6E0B6A000E71EC15F0076E0E
:102A2A000750096E086A0A5008100A6E0B500910FE
:102A3A000B6E64EC16F00AC005F00BC006F012002B
:102A4A00380E1D6E1E6A040E1F6E3750D96EDA6A72
:102A5A00DECF20F0DDCF21F03750D96EDA6A020ED0
:102A6A00D926DECF22F0DDCF23F03750D96EDA6ACD
:102A7A00040ED926DECF24F0DDCF25F04BEC15F07D
:102A8A00380E026E036ACFEC13F01200200E2A6E83
:102A9A001DC02BF01EC02CF0000E2F6E000E2E6EE5
:102AAA00000E366E000E356E2B0E196E1FC01AF010
:102ABA002A0E1B6E2FEC14F019C028F01AC029F048
:102ACA002E501D24D96E2F501E20DA6EDF6A28C0C0
:102ADA001DF029C01EF01200036EF2EC15F00E0173
:102AEA00DA87F2EC15F0D5CE04F0F2EC15F00350CB
:102AFA00D8B482EF15F086EF15F0026A022A87EF42
:102B0A0015F0026A023A02460E01DA510218DF0B88
:102B1A000218DA6FDA890450120008BE97EF15F02E
:102B2A0099EF15F09FEF15F007C007F008C008F0FD
:102B3A00ABEF15F007C009F008C00AF0091E0A1E1B
:102B4A00094A0A2A09C007F00AC008F01200DDEC97
:102B5A0015F0010E036E000E18EC16F03F0E056E0E
:102B6A00550EE82EFED7052EFCD70000030E036E85
:102B7A00000E18EC16F0D50E036E010E18EC16F0C6
:102B8A001200849888928496869088907C98809285
:102B9A007C967E90809087928198869E7F92799883
:102BAA007E9E8790859E81967F907D9E7996120063
:102BBA000E01D951F00B0809D96FD98B9F0ED66F28
:102BCA00848A848CA79BA79D1D0E1D6F1E0E1C6FE9
:102BDA001C0E6F6F1B0E706F12000E01D8B5F8EF46
:102BEA0015F0FAEF15F0F2EF15F0DACE01F01F0E3C
:102BFA000116D8A403EF16F005EF16F0F2EF15F060
:102C0A001200D6501F0B4009D66ED688D588D650EA
:102C1A00F00B0E09D66E53EC16F0D58E0E01298BE9
:102C2A00F28CF28E1200046E69EC16F0520E4DEC24
:102C3A0016F0045080094DEC16F003504DEC16F0D6
:102C4A0064EC16F01200120E0E01626F110E156F6F
:102C5A00E997E895330EE56F000EE66FE789E88B92
:102C6A00E78F1200016E0E0137A53EEF16F040EF16
:102C7A0016F038EF16F001C0E4FE1200000114014C
:102C8A002C014600FE012C012C01AF00AF002C01E3
:102C9A00026EF2EC15F002C0D5FE1200000E016EB3
:102CAA00000E59EC16F01200026E02C0D4FF01C0E9
:102CBA00D3FF1200F2EC15F00E01DA831200F2ECE7
:102CCA0015F00E01DA851200F2EC15F00E01DA8128
:0A2CDA00120028012A141408120049
:020000040020DA
:10000000FFFFFFFFFFFFFFFFFFFFFFFFFFFFFFFF00
:020000040030CA
:0C000000AAFFFFFF9FFFFFFFFFFFFFFFB5
:00000001FF
