:0400000016EF00F007
:1000080046820E0133AB0BEF00F00DEF00F014EF5A
:1000180000F0154A162A0B0ED46EDC0ED36E339BF5
:08002800469211008CEF07F075
:070E0000002564200D000035
:100E080085948598839E879C7D947D987B9E7F9C06
:100E1800050E0E01746F060E766F070E696F080EC9
:100E2800886FBD508F0B4009BD6EE00EBE16BF50D7
:100E3800F00B0109BF6E1BC0BCFFBD8E000EAA6E71
:100E4800000EA66E000E0F01256F000E216FFC0E1E
:100E5800AD16F30EAD16CF0EAD163F0EAD16AB8820
:100E6800AB50F00B0C09AB6EAB8EA788A750F00BFC
:100E78000C09A76EA78E26892651F00B0C09266F40
:100E8800268F22892251F00B0C09226F228F120023
:100E9800520E216E2B0E206E000EE82EFED7202E4D
:100EA800FCD7212EFAD700D0000E1C6E630E1B6EE5
:100EB80004EC07F0000E226E010E236E010E246E64
:100EC800000E266E630E256EAA0E276E0F0E286E74
:100ED800A60E296E0F0E2A6E000E2B6E010E2C6EBA
:100EE800010E2D6E000E2F6E630E2E6E250E306EC7
:100EF8000F0E316E210E326E0F0E336EDCEC07F0E2
:100F0800ADEC07F029EC08F005EC08F016EF00F05E
:100F1800700EF66E100EF76E000EF86E00EE34F0DE
:100F280010EE12F00900F5CFEEFFE550E150FAE1BE
:100F380000EE60F03C0EEE6AE806FDE100EE01F01E
:100F48001A0EEE6AE806FDE14690469200014CEF63
:100F580007F0C7EC07F0010E1D6E000E19EC08F043
:100F68003F0E1F6E550EE82EFED71F2EFCD7000031
:100F7800030E1D6E000E19EC08F0D50E1D6E010E45
:100F880019EC08F012000E01D951F00B0809D96FBD
:100F9800D98B9F0ED66F848A848CA79BA79D1D0E24
:100FA8001D6F1E0E1C6F1C0E6F6F1B0E706F1200D4
:100FB800849888928496869088907C9880927C9673
:100FC8007E908090849E88967C9E80968190839463
:100FD800849079907B947C9012000E01D8B5F7EF3D
:100FE80007F0F9EF07F0F1EF07F0DACE1BF01F0E6C
:100FF8001B16D8A402EF08F004EF08F0F1EF07F091
:101008001200D6501F0B4009D66ED688D588D65008
:10101800F00B0809D66E0B0ED46EDC0ED36ED58E8F
:101028000E01298BF28CF28E12001E6E4CEC08F029
:10103800520E41EC08F01E50800941EC08F01D509A
:1010480041EC08F047EC08F01200120E0E01626F36
:10105800110E156FE997E895330EE56F000EE66FF0
:10106800E789E88BE78F12002C014600FE012C016E
:101078002C01AF00AF002A201E081C6EF1EC07F00F
:101088001CC0D5FE1200F1EC07F00E01DA85120043
:0A109800F1EC07F00E01DA811200FE
:020000040020DA
:10000000FFFFFFFFFFFFFFFFFFFFFFFFFFFFFFFF00
:020000040030CA
:0C000000AAFFFFFF9FFFFFFFFFFFFFFFB5
:00000001FF
