:0400000096EF0AF07D
:100E000000000E50D96EDA6A020ED926DF50D8B42F
:100E10000CEF07F00EEF07F03EEF07F00E50D96E23
:100E2000DA6ADF500F6E0F50016E026A0E50D96EF3
:100E3000DA6A030ED926DECF03F0DDCF04F0A9EC89
:100E40000AF001C007F002C008F0000E0A6E640E3E
:100E5000096EE0EC09F00E50D96EDA6A030ED9265D
:100E6000DF50106E0750105C116E0E50D96EDA6AAA
:100E7000030ED926DF50126E5FEF07F0000E116EE1
:100E80000E50D96EDA6ADF500F6E0F50016E026A93
:100E90000E50D96EDA6A030ED926DECF03F0DDCF0D
:100EA00004F0A9EC0AF001C007F002C008F0000E3F
:100EB0000A6E640E096EE0EC09F00750126E0E50D7
:100EC000D96EDA6A010ED926DF50D8B46AEF07F07E
:100ED0006CEF07F08CEF07F00E50D96EDA6A050E52
:100EE000D926DECF0FF0DDCF10F00FC0D9FF10C034
:100EF000DAFF11C0DFFF0E50D96EDA6A070ED9266D
:100F0000DECF0FF0DDCF10F00FC0D9FF10C0DAFF39
:100F100012C0DFFFAAEF07F00E50D96EDA6A050E95
:100F2000D926DECF0FF0DDCF10F00FC0D9FF10C0F3
:100F3000DAFF12C0DFFF0E50D96EDA6A070ED9262B
:100F4000DECF0FF0DDCF10F00FC0D9FF10C0DAFFF9
:100F500011C0DFFF12002A0E166E2A0E176E1350F4
:100F6000D96EDA6A010ED926010EDF6E1450D96EE1
:100F7000DA6A010ED926DF6AEEEF07F01350D96E58
:100F8000DA6A1650DE5CD8B0C8EF07F0CAEF07F097
:100F9000CEEF07F01350D96EDA6ADF2A1450D96EFB
:100FA000DA6A1750DE5CD8B0D8EF07F0DAEF07F056
:100FB000DEEF07F01450D96EDA6ADF2A13C00EF0A4
:100FC00001EC07F014C00EF001EC07F0A70E156E4F
:100FD0003A0EE82EFED7152EFCD700D01350D96E4E
:100FE000DA6A1650DE5CD8A0F8EF07F0FAEF07F0E7
:100FF000BEEF07F01450D96EDA6A1750DE5CD8A045
:1010000004EF08F006EF08F0BEEF07F012002A0E1A
:10101000166E2A0E176E1350D96EDA6A010ED92693
:10102000DF6A1450D96EDA6A010ED926010EDF6E1E
:101030004AEF08F01350D96EDA6A1650DE5CD8B069
:1010400024EF08F026EF08F02AEF08F01350D96ECD
:10105000DA6ADF2A1450D96EDA6A1750DE5CD8B02B
:1010600034EF08F036EF08F03AEF08F01450D96E7C
:10107000DA6ADF2A13C00EF001EC07F014C00EF09C
:1010800001EC07F0A70E156E3A0EE82EFED7152ECE
:10109000FCD700D01350D96EDA6A1650DE5CD8A0A7
:1010A00054EF08F056EF08F01AEF08F01450D96E1C
:1010B000DA6A1750DE5CD8A060EF08F062EF08F043
:1010C0001AEF08F012001E0E166E200E176E135047
:1010D000D96EDA6A010ED926DF6A1450D96EDA6A3F
:1010E000010ED926DF6AA5EF08F01350D96EDA6A2F
:1010F0001650DE5CD8B07FEF08F081EF08F085EF86
:1011000008F01350D96EDA6ADF2A1450D96EDA6A01
:101110001750DE5CD8B08FEF08F091EF08F095EF34
:1011200008F01450D96EDA6ADF2A13C00EF001EC11
:1011300007F014C00EF001EC07F0A70E156E3A0E82
:10114000E82EFED7152EFCD700D01350D96EDA6AE0
:101150001650DE5CD8A0AFEF08F0B1EF08F075EFE5
:1011600008F01450D96EDA6A1750DE5CD8A0BBEFD5
:1011700008F0BDEF08F075EF08F012007CA8C3EF8F
:1011800008F0C7EF08F0016A012AC8EF08F0016A09
:10119000013A7C500118EF0B01187C6E7CA6D3EF4E
:1011A00008F0D7EF08F0016A012AD8EF08F0016AC9
:1011B0000146014601467C500118F70B01187C6E70
:1011C000290E026E960E016E7F0EE82EFED7012EBE
:1011D000FCD7022EFAD700007EA0F1EF08F0F5EF61
:1011E00008F0016A012AF6EF08F0016A7E50011842
:1011F000FE0B01187E6E80A000EF09F004EF09F0ED
:10120000016A012A05EF09F0016A80500118FE0BFE
:101210000118806E120085948598839E879C7D942A
:101220007D987B9E7F9C050E0E01746F060E766F77
:10123000070E696F080E886FBD508F0B4009BD6E99
:10124000E00EBE16BF50F00B0109BF6E01C0BCFF1F
:10125000BD8E000EAA6E000EA66E000E0F01256F49
:10126000000E216FFC0EAD16F30EAD16CF0EAD16AF
:101270003F0EAD16AB88AB50F00B0C09AB6EAB8ECE
:10128000A788A750F00B0C09A76EA78E26892651B8
:10129000F00B0C09266F268F22892251F00B0C09C6
:1012A000226F228F120083EF09F01350D96EDA6A91
:1012B000DF50D8B45EEF09F060EF09F064EF09F099
:1012C0001350D96EDA6ADF061450D96EDA6ADF502D
:1012D000D8B46DEF09F06FEF09F073EF09F0145017
:1012E000D96EDA6ADF0613C00EF001EC07F014C005
:1012F0000EF001EC07F0A70E156E3A0EE82EFED7A1
:10130000152EFCD700D01350D96EDA6ADF50D8A45E
:101310008CEF09F08EEF09F055EF09F01450D96EFB
:10132000DA6ADF50D8A497EF09F099EF09F055EF8A
:1013300009F01200290E226E960E216E7F0EE82E05
:10134000FED7212EFCD7222EFAD70000000E026E07
:10135000630E016E0BEC09F0000E236E010E246E7D
:10136000010E256E000E276E630E266EAA0E286EE5
:101370000F0E296EA60E2A6E0F0E2B6E000E2C6E0F
:10138000010E2D6E010E2E6E000E306E630E2F6E4E
:10139000250E316E0F0E326E210E336E0F0E346E2F
:1013A000BCEC0AF0230E1C6E2C0E1D6E010E1E6E80
:1013B0001AEC0AF0BEEC08F0DAEF09F000EF00F0EA
:1013C000000E0C6E000E0B6E09500A10D8B4EBEF35
:1013D00009F0EDEF09F015EF0AF0010E0D6EF5EFD3
:1013E00009F0D89009360A360D2A0AAEFAEF09F04C
:1013F000FCEF09F0F1EF09F0D8900B360C360950EC
:10140000075C0A500858D8A008EF0AF00AEF0AF063
:101410000FEF0AF00950075E0A50085A0B80D89067
:101420000A3209320D2EFCEF09F00BC007F00CC098
:1014300008F0120038EF0AF01CC018F01DC019F0B7
:101440007EEC0AF01CC018F01DC019F04EEC0AF03A
:101450004DEF0AF01CC018F01DC019F066EC0AF040
:101460001CC018F01DC019F07EEC0AF04DEF0AF018
:101470001E501F6E206A2050000AD8B442EF0AF0B6
:101480004DEF0AF01F50000AD8B41CEF0AF0010A11
:10149000D8B42AEF0AF04DEF0AF0120018C013F08A
:1014A00019C014F0ABEC07F0190E1B6E5A0E1A6E31
:1014B000B20EE82EFED71A2EFCD71B2EFAD718C074
:1014C00013F019C014F053EC09F0120018C013F017
:1014D00019C014F007EC08F0190E1B6E5A0E1A6EA4
:1014E000B20EE82EFED71A2EFCD71B2EFAD718C044
:1014F00013F019C014F053EC09F0120018C013F0E7
:1015000019C014F063EC08F0060E1B6EAF0E1A6ED5
:10151000860EE82EFED71A2EFCD71B2EFAD718C03F
:1015200013F019C014F053EC09F012008E0EF66E91
:10153000150EF76E000EF86E00EE35F010EE12F09C
:101540000900F5CFEEFFE550E150FAE100019AEF16
:1015500009F001500302F3CF05F0F4CF06F001507B
:101560000402F350062602500302F350062605C07B
:1015700001F006C002F0120084988892849686904A
:1015800088907C8880827C867E80808012002C01FE
:101590004600FE012C012C01AF00AF002A201E08DE
:020000040030CA
:02000000AAFF55
:020004009FFF5C
:00000001FF
