:0400000021EF00F0FC
:100008005F820E0133AB0BEF00F00DEF00F01FEF36
:1000180000F05E50D8B413EF00F015EF00F01AEFBF
:1000280000F0010E0001876F1DEF00F0010E0101C5
:0E003800A56F0E01339B5F9211007FEF1EF04B
:100E0000002575202575202575202575200D0025C8
:090E100064200D0025642000009F
:100E1A00000E1F6E000E1E6E000E3D6E3C0E3C6EE6
:100E2A00000E196E640E186E0FC001F097EC1AF0DE
:100E3A0001C03EF002C03FF00FC001F059EC1AF0B9
:100E4A0001C01AF002C01BF01A503E5C406E1B50E3
:100E5A003F58416E40504110D8A436EF07F038EFA2
:100E6A0007F03EEF07F0000E1F6E000E1E6E0EEF2B
:100E7A000AF00F50D96EDA6A3E50DE1807E13F5089
:100E8A00DE18D8A44BEF07F04DEF07F03AEF08F061
:100E9A000F50D96EDA6A040ED9260F50E16EE26A53
:100EAA00020EE126DE50E65CDE50E658D8A060EF7E
:100EBA0007F062EF07F0C2EF07F0000E246E000E93
:100ECA00256E000E266E000E276E0F50D96EDA6A56
:100EDA00040ED926DECF10F0DDCF11F00F50D96EF7
:100EEA00DA6A020ED926DECF12F0DDCF13F01050E7
:100EFA00125C146E11501358156E14502426155096
:100F0A002522000E2622000E272224C001F025C029
:100F1A0002F026C003F027C004F03C0E056E000E56
:100F2A00066E000E076E000E086E4AEC1BF001C03A
:100F3A0024F002C025F003C026F004C027F024C024
:100F4A0001F025C002F026C003F027C004F040C01B
:100F5A0005F041C006F0076A086AF8EC18F001C00B
:100F6A0024F002C025F003C026F004C027F024C0F4
:100F7A001EF025C01FF03AEF08F040C038F041C01B
:100F8A0039F03A6A3B6A38C001F039C002F03AC017
:100F9A0003F03BC004F0060E056E000E066E000E4E
:100FAA00076E000E086E4AEC1BF001C038F002C052
:100FBA0039F003C03AF004C03BF00F50D96EDA6A38
:100FCA00020ED926DECF10F0DDCF11F00F50D96E08
:100FDA00DA6A040ED926DECF12F0DDCF13F01050F4
:100FEA00125C146E11501358156E166A176A145053
:100FFA00385E1550395A16503A5A17503B5A38C06B
:10100A0001F039C002F03AC003F03BC004F03C0ED4
:10101A00056E000E066E000E076E000E086E4AEC94
:10102A001BF001C038F002C039F003C03AF004C026
:10103A003BF038C001F039C002F03AC003F03BC0BF
:10104A0004F040C005F041C006F0076A086AF8ECEF
:10105A0018F001C038F002C039F003C03AF004C0F9
:10106A003BF038C01EF039C01FF00F50D96EDA6A53
:10107A00020ED9263E50DE1807E13F50DE18D8A4EA
:10108A0049EF08F04BEF08F020EF09F00F50D96E46
:10109A00DA6A0F50E16EE26A040EE126DE50E65C7F
:1010AA00DE50E658D8A05CEF08F05EEF08F0BFEF1C
:1010BA0008F040C028F041C029F02A6A2B6AD8906B
:1010CA00283629362A362B360F50D96EDA6ADECF01
:1010DA0010F0DDCF11F00F50D96EDA6A040ED9265E
:1010EA00DECF12F0DDCF13F01050125C146E1150E7
:1010FA001358156E1450282615502922000E2A223C
:10110A00000E2B2228C001F029C002F02AC003F0E9
:10111A002BC004F03C0E056E000E066E000E076E24
:10112A00000E086E4AEC1BF001C028F002C029F03C
:10113A0003C02AF004C02BF028C001F029C002F035
:10114A002AC003F02BC004F040C005F041C006F0ED
:10115A00076A086AF8EC18F001C028F002C029F002
:10116A0003C02AF004C02BF028C01EF029C01FF0CB
:10117A0020EF09F040C02CF041C02DF02E6A2F6AF2
:10118A00D8902C362D362E362F360F50D96EDA6A75
:10119A00040ED926DECF10F0DDCF11F00F50D96E34
:1011AA00DA6ADECF12F0DDCF13F01050125C146E43
:1011BA0011501358156E166A176A14502C5E155082
:1011CA002D5A16502E5A17502F5A2CC001F02DC0E6
:1011DA0002F02EC003F02FC004F03C0E056E000E84
:1011EA00066E000E076E000E086E4AEC1BF001C078
:1011FA002CF002C02DF003C02EF004C02FF02CC03A
:10120A0001F02DC002F02EC003F02FC004F040C040
:10121A0005F041C006F0076A086AF8EC18F001C048
:10122A002CF002C02DF003C02EF004C02FF02CC009
:10123A001EF02DC01FF00F50D96EDA6A040ED9269F
:10124A003E50DE1807E13F50DE18D8A42FEF09F010
:10125A0031EF09F00EEF0AF00F50D96EDA6A020E7A
:10126A00D9260F50E16EE26ADE50E65CDE50E6589F
:10127A00D8A042EF09F044EF09F0A9EF09F040C005
:10128A0030F041C031F0326A336A020ED8903036FB
:10129A00313632363336E82E4BEF09F00F50D96E1D
:1012AA00DA6A020ED926DECF10F0DDCF11F00F5028
:1012BA00D96EDA6ADECF12F0DDCF13F01050125C6D
:1012CA00146E11501358156E1450302615503122D1
:1012DA00000E3222000E332230C001F031C002F07B
:1012EA0032C003F033C004F03C0E056E000E066EE9
:1012FA00000E076E000E086E4AEC1BF001C030F0BB
:10130A0002C031F003C032F004C033F030C001F043
:10131A0031C002F032C003F033C004F040C005F01F
:10132A0041C006F0076A086AF8EC18F001C030F00C
:10133A0002C031F003C032F004C033F030C01EF0F6
:10134A0031C01FF00EEF0AF040C034F041C035F052
:10135A00366A376A020ED89034363536363637361C
:10136A00E82EB0EF09F00F50D96EDA6ADECF10F02E
:10137A00DDCF11F00F50D96EDA6A020ED926DECF10
:10138A0012F0DDCF13F01050125C146E1150135886
:10139A00156E166A176A1450345E1550355A16506F
:1013AA00365A1750375A34C001F035C002F036C0E9
:1013BA0003F037C004F03C0E056E000E066E000EF8
:1013CA00076E000E086E4AEC1BF001C034F002C032
:1013DA0035F003C036F004C037F034C001F035C030
:1013EA0002F036C003F037C004F040C005F041C037
:1013FA0006F0076A086AF8EC18F001C034F002C077
:10140A0035F003C036F004C037F034C01EF035C0E2
:10141A001FF03E503F10D8A415EF0AF017EF0AF05C
:10142A001DEF0AF0000E1D6E000E1C6E59EF0AF039
:10143A0040C020F041C021F0226A236A20C001F096
:10144A0021C002F022C003F023C004F0640E056E2E
:10145A00000E066E000E076E000E086E4AEC1BF0B8
:10146A0001C020F002C021F003C022F004C023F022
:10147A0020C001F021C002F022C003F023C004F012
:10148A003EC005F03FC006F0076A086AF8EC18F09B
:10149A0001C020F002C021F003C022F004C023F0F2
:1014AA0020C01CF021C01DF00E50D96EDA6A1EC091
:1014BA00DEFF1FC0DDFF0E50D96EDA6A020ED92692
:1014CA001CC0DEFF1DC0DDFF0E50D96EDA6A040EA5
:1014DA00D9263EC0DEFF3FC0DDFF1200000E056EBA
:1014EA000150D96EDA6A250EDE5C010EDE58D8A0EC
:1014FA0081EF0AF083EF0AF0B5EF0AF00150D96ED6
:10150A00DA6A690EDE5C010EDE58D8B08FEF0AF097
:10151A0091EF0AF0B5EF0AF00150D96EDA6A020EBD
:10152A00D926010EDB5009E12E0EDE5CD8A0A0EF11
:10153A000AF0A2EF0AF0B5EF0AF00150D96EDA6AA2
:10154A00020ED926010EDB5007E15B0EDE5CD8B035
:10155A00B1EF0AF0B3EF0AF0B5EF0AF0010E056E2B
:10156A000150D96EDA6A010EDB5009E1710EDE5CB8
:10157A00D8A0C2EF0AF0C4EF0AF0F7EF0AF0015060
:10158A00D96EDA6A010EDB5007E19A0EDE5CD8B03A
:10159A00D1EF0AF0D3EF0AF0F7EF0AF00150D96E53
:1015AA00DA6A020ED926010EDB5009E10D0EDE5C65
:1015BA00D8A0E2EF0AF0E4EF0AF0F7EF0AF00150E0
:1015CA00D96EDA6A020ED926010EDB5007E12C0E1B
:1015DA00DE5CD8B0F3EF0AF0F5EF0AF0F7EF0AF0A5
:1015EA00020E056E0150D96EDA6A010EDB5009E16E
:1015FA00B40EDE5CD8A004EF0BF006EF0BF039EF67
:10160A000BF00150D96EDA6A010EDB5007E1F50ED4
:10161A00DE5CD8B013EF0BF015EF0BF039EF0BF0DF
:10162A000150D96EDA6A020ED926010EDB5009E1A1
:10163A000D0EDE5CD8A024EF0BF026EF0BF039EF8D
:10164A000BF00150D96EDA6A020ED926010EDB5070
:10165A0007E1390EDE5CD8B035EF0BF037EF0BF04F
:10166A0039EF0BF0030E056E0150D96EDA6A010EDE
:10167A00DB5009E10A0EDE5CD8A046EF0BF048EF1A
:10168A000BF07BEF0BF00150D96EDA6A010EDB50DA
:10169A0007E1200EDE5CD8B055EF0BF057EF0BF0E8
:1016AA007BEF0BF00150D96EDA6A020ED926010ED1
:1016BA00DB5009E1110EDE5CD8A066EF0BF068EF93
:1016CA000BF07BEF0BF00150D96EDA6A020ED926C5
:1016DA00010EDB5007E1210EDE5CD8B077EF0BF08C
:1016EA0079EF0BF07BEF0BF0040E056E0150D96E0B
:1016FA00DA6A170EDE5C010EDE58D8A087EF0BF00F
:10170A0089EF0BF0BBEF0BF00150D96EDA6A690E64
:10171A00DE5C010EDE58D8B095EF0BF097EF0BF0B8
:10172A00BBEF0BF00150D96EDA6A020ED926010E10
:10173A00DB5009E10B0EDE5CD8A0A6EF0BF0A8EF98
:10174A000BF0BBEF0BF00150D96EDA6A020ED92604
:10175A00010EDB5007E1100EDE5CD8B0B7EF0BF0DC
:10176A00B9EF0BF0BBEF0BF0050E056E0150D96E09
:10177A00DA6A2A0EDE5C010EDE58D8A0C7EF0BF03B
:10178A00C9EF0BF0FBEF0BF00150D96EDA6A690E64
:10179A00DE5C010EDE58D8B0D5EF0BF0D7EF0BF0B8
:1017AA00FBEF0BF00150D96EDA6A020ED926010E50
:1017BA00DB5009E1140EDE5CD8A0E6EF0BF0E8EF8F
:1017CA000BF0FBEF0BF00150D96EDA6A020ED92644
:1017DA00010EDB5007E12E0EDE5CD8B0F7EF0BF0FE
:1017EA00F9EF0BF0FBEF0BF0060E056E0150D96E08
:1017FA00DA6A010EDB5009E19A0EDE5CD8A008EF26
:10180A000CF00AEF0CF03DEF0CF00150D96EDA6AD9
:10181A00010EDB5007E1D00EDE5CD8B017EF0CF0FA
:10182A0019EF0CF03DEF0CF00150D96EDA6A020E96
:10183A00D926010EDB5009E10D0EDE5CD8A028EF97
:10184A000CF02AEF0CF03DEF0CF00150D96EDA6A79
:10185A00020ED926010EDB5007E12E0EDE5CD8B04F
:10186A0039EF0CF03BEF0CF03DEF0CF0070E056E74
:10187A000250D96EDA6A060ED926B80EDE5C0B0E55
:10188A00DE58D8A04BEF0CF04DEF0CF070EF0CF0D7
:10189A000250D96EDA6A060ED926410EDE5C9C0E1B
:1018AA00DE58D8B05BEF0CF05DEF0CF070EF0CF087
:1018BA000150D96EDA6A020ED926010EDB5007E111
:1018CA000B0EDE5CD8B06CEF0CF06EEF0CF070EF24
:1018DA000CF0080E056E0250D96EDA6A060ED92689
:1018EA00E80EDE5C030EDE58D8A07EEF0CF080EF27
:1018FA000CF0A3EF0CF00250D96EDA6A060ED92664
:10190A00290EDE5C0A0EDE58D8B08EEF0CF090EF8E
:10191A000CF0A3EF0CF00150D96EDA6A020ED92648
:10192A00010EDB5007E10D0EDE5CD8B09FEF0CF024
:10193A00A1EF0CF0A3EF0CF0090E056E0550120092
:10194A001250800B1B6E12501224216E11AEB0EF92
:10195A000CF0B2EF0CF0B3EF0CF021802150D8B4A8
:10196A00B9EF0CF0BBEF0CF0CEEF0CF02128D8A4A5
:10197A00C1EF0CF0C3EF0CF0CBEF0CF0000E0F6EC2
:10198A00000E106E000E116E000E126E118ED6EF42
:10199A000CF0000E0F6E000E106E000E116E000E8F
:1019AA00126E1650800B1B1A16501624206E15AE96
:1019BA00E1EF0CF0E3EF0CF0E4EF0CF020802050A4
:1019CA00D8B4EAEF0CF0ECEF0CF0FFEF0CF02028A3
:1019DA00D8A4F2EF0CF0F4EF0CF0FCEF0CF0000ED0
:1019EA00136E000E146E000E156E000E166E158E16
:1019FA0007EF0DF0000E136E000E146E000E156E3A
:101A0A00000E166E2050D8B40DEF0DF00FEF0DF04A
:101A1A0017EF0DF02150D8A415EF0DF017EF0DF0C8
:101A2A0021EF0DF0000E0F6E000E106E000E116EFB
:101A3A00000E126EB9EF0EF015500F02F3CF26F01A
:101A4A00F4CF27F026501C6E1D6A1E6A1F6A2750A3
:101A5A00226E236A246A256A14501002F3CF26F0F4
:101A6A00F4CF27F026501C26000E1D221E221F220C
:101A7A0027502226000E2322242225221350110247
:101A8A00F3CF26F0F4CF27F026501C26000E1D2295
:101A9A001E221F2227502226000E2322242225221C
:101AAA001EC01FF01DC01EF01CC01DF01C6A135082
:101ABA001002F3CF26F0F4CF27F026501C26275029
:101ACA001D22000E1E22000E1F2214500F02F3CFF9
:101ADA0026F0F4CF27F026501C2627501D22000E90
:101AEA001E22000E1F221EC01FF01DC01EF01CC0A9
:101AFA001DF01C6A13500F02F3CF26F0F4CF27F023
:101B0A0026501C2627501D22000E1E22000E1F22C0
:101B1A0015501002F3CF26F0F4CF27F026502226D4
:101B2A0027502322000E2422000E252214501102CF
:101B3A00F3CF26F0F4CF27F026502226275023226F
:101B4A00000E2422000E252215501102F3CF26F092
:101B5A00F4CF27F02650176E2750186E196A1A6AA2
:101B6A0019C01AF018C019F017C018F0176A1750E0
:101B7A00222618502322195024221A5025221CC02A
:101B8A0017F01DC018F01EC019F01FC01AF0190E68
:101B9A00D4EF0DF0D8901A32193218321732E82ED3
:101BAA00CFEF0DF017502226185023221950242265
:101BBA001A5025221EC01FF01DC01EF01CC01DF0A9
:101BCA001C6A205021C017F0186A1726000E182226
:101BDA00820E1724266EFF0E1820276E0AEF0EF0CB
:101BEA00D89022362336243625361FAEFFEF0DF065
:101BFA0001EF0EF002EF0EF02280D8901C361D364F
:101C0A001E361F362606D8A0270624AE0FEF0EF082
:101C1A0011EF0EF0F5EF0DF0000E206E1FAE18EF6B
:101C2A000EF01AEF0EF03EEF0EF0FF0E1C14176EB8
:101C3A00FF0E1D14186EFF0E1E14196E7F0E1F1450
:101C4A001A6E1750181019101A10D8B42FEF0EF078
:101C5A0031EF0EF035EF0EF0010E206E3EEF0EF072
:101C6A0022A03AEF0EF03CEF0EF03EEF0EF031EF0D
:101C7A000EF02050D8B444EF0EF046EF0EF06AEFA3
:101C8A000EF0010E2226000E23222422252225A050
:101C9A0051EF0EF053EF0EF06AEF0EF022C017F07C
:101CAA0023C018F024C019F025C01AF01A341A32C9
:101CBA0019321832173217C022F018C023F019C08F
:101CCA0024F01AC025F0264A272A27BE75EF0EF0FF
:101CDA00275008E12628D8A075EF0EF077EF0EF00E
:101CEA0081EF0EF0000E226E000E236E800E246E1F
:101CFA007F0E256EAFEF0EF027BE8EEF0EF0275047
:101D0A0006E12604D8B08CEF0EF08EEF0EF09AEFB3
:101D1A000EF0000E226E000E236E000E246E000ED0
:101D2A00256E000E1B6EAFEF0EF026C021F0FF0EDF
:101D3A002216FF0E23167F0E2416000E251621A04A
:101D4A00A9EF0EF0ABEF0EF0ACEF0EF0248ED890A8
:101D5A002130256E1B50251222C00FF023C010F02F
:101D6A0024C011F025C012F01200000E156E000EEC
:101D7A00146E0F50D96EDA6ADFCFF6FF0E0EF76EC9
:101D8A00000EF86E0800F550250AD8A4CFEF0EF021
:101D9A00D1EF0EF026EF10F00F50D96EDA6ADF2A73
:101DAA00000E0001836F000E826F82C086F0846984
:101DBA0085690F50D96EDA6ADF50166E16C0F6FFC3
:101DCA000E0EF76E000EF86E0800F550640AD8B4CD
:101DDA00F1EF0EF0F3EF0EF003EF0FF016C0F6FF7F
:101DEA000E0EF76E000EF86E0800F550690AD8A4B8
:101DFA0001EF0FF003EF0FF091EF0FF01050D96ED3
:101E0A00DA6A020EDF26DF5CD96EDA6ADECF17F0F5
:101E1A00DECF18F00F50D96EDA6A1628DF6E200E60
:101E2A001B6E18BE1BEF0FF01EEF0FF0010E1FEF17
:101E3A000FF0000E136E1B061B50600FD96EDA6A84
:101E4A0017C001F018C002F0000E046E0A0E036EED
:101E5A00A0EC18F001C007F002C008F001EC1FF076
:101E6A000750300FDF6E17C001F018C002F0000EE5
:101E7A00046E0A0E036E12EC16F001C017F002C0CF
:101E8A0018F0144A152A17501810D8B44FEF0FF04B
:101E9A0051EF0FF059EF0FF01B50D8A457EF0FF086
:101EAA0059EF0FF020EF0FF01B50D8B45FEF0FF08F
:101EBA0061EF0FF082EF0FF01350D8B467EF0FF015
:101ECA0069EF0FF082EF0FF01B061B50600FD96EFF
:101EDA00DA6A2D0EDF6E144A152A82EF0FF01B50B4
:101EEA00600FD96EDA6ADF50116E1150016E026A04
:101EFA000EC003F0D3EC16F01B2A200E1B18D8A430
:101F0A0089EF0FF08BEF0FF074EF0FF014C00EF0A3
:101F1A0015C00FF03FEF10F016C0F6FF0E0EF76E69
:101F2A00000EF86E0800F550750AD8A49FEF0FF05E
:101F3A00A1EF0FF01CEF10F01050D96EDA6A020E02
:101F4A00DF26DF5CD96EDA6ADECF17F0DECF18F053
:101F5A000F50D96EDA6A1628DF6E04EF10F0200EE1
:101F6A001B6E1B061B50600FD96EDA6A17C001F090
:101F7A0018C002F0000E046E0A0E036E83EC1CF009
:101F8A000150300FDF6E17C007F018C008F0000EBE
:101F9A000A6E0A0E096E10EC1BF007C017F008C093
:101FAA0018F0144A152A17501810D8B4DFEF0FF09A
:101FBA00E1EF0FF0F9EF0FF01B50D8A4E7EF0FF0A5
:101FCA00E9EF0FF0B6EF0FF0F9EF0FF01B50600FCB
:101FDA00D96EDA6ADF50116E1150016E026A0EC0B4
:101FEA0003F0D3EC16F01B2A200E1B18D8A400EF1E
:101FFA0010F002EF10F0EBEF0FF08BEF0FF016C0BE
:10200A00F6FF0E0EF76E000EF86E0800F550116E10
:10201A00126A1250000AD8B415EF10F01CEF10F033
:10202A001150750AD8B4B4EF0FF01CEF10F00F502E
:10203A00D96EDA6ADF2A000E0F6E000E0E6E3FEFBF
:10204A0010F00F50D96EDA6ADFCFF6FF0E0EF76E78
:10205A00000EF86E0800F550016E026A0EC003F019
:10206A00D3EC16F00F50D96EDA6ADF2A000E0F6E23
:10207A00010E0E6E1200000E126E000E136E000E8E
:10208A00146E000E156E000E166E000E176E000E00
:10209A00186E000E196E000E1A6E000E1B6E000EE0
:1020AA001C6E000E1D6E000E1E6E000E1F6E000EC0
:1020BA00206E000E216E000E116EABEF10F00EC0F6
:1020CA000CF040EC1DF00E50D96EDA6ADECF0FF03C
:1020DA00DDCF10F00F50122610501322000E1422DA
:1020EA00000E15220E50D96EDA6A020ED926DECFFC
:1020FA000FF0DDCF10F00F50162610501722000EE9
:10210A001822000E19220E50D96EDA6A040ED92648
:10211A00DECF0FF0DDCF10F00F501A2610501B2221
:10212A00000E1C22000E1D220E50D96EDA6A060E0F
:10213A00D926DECF0FF0DDCF10F00F501E2610503B
:10214A001F22000E2022000E2122112A130E1164D2
:10215A00B1EF10F0B3EF10F064EF10F012C001F01D
:10216A0013C002F014C003F015C004F0140E056E7B
:10217A00000E066E000E076E000E086EF8EC18F0E0
:10218A0001C012F002C013F003C014F004C015F02D
:10219A0016C001F017C002F018C003F019C004F00D
:1021AA00140E056E000E066E000E076E000E086E07
:1021BA00F8EC18F001C016F002C017F003C018F0CE
:1021CA0004C019F01AC001F01BC002F01CC003F0D1
:1021DA001DC004F0140E056E000E066E000E076E8A
:1021EA00000E086EF8EC18F001C01AF002C01BF0DD
:1021FA0003C01CF004C01DF01EC001F01FC002F095
:10220A0020C003F021C004F0140E056E000E066E05
:10221A00000E076E000E086EF8EC18F001C01EF0F2
:10222A0002C01FF003C020F004C021F00E50D96E86
:10223A00DA6A12C0DEFF13C0DDFF0E50D96EDA6A09
:10224A00020ED92616C0DEFF17C0DDFF0E50D96E6A
:10225A00DA6A040ED9261AC0DEFF1BC0DDFF0E5053
:10226A00D96EDA6A060ED9261EC0DEFF1FC0DDFF50
:10227A001200096E0950D8B445EF11F047EF11F07A
:10228A0069EF11F004BE4EEF11F04CEF11F069EF57
:10229A0011F001C005F002C006F003C007F004C047
:1022AA0008F0051E061E071E081E052A000E062235
:1022BA000722082205C00BF006C00CF007C00DF07B
:1022CA0008C00EF071EF11F001C00BF002C00CF063
:1022DA0003C00DF004C00EF00150021003100410E8
:1022EA00D8A47AEF11F07CEF11F086EF11F0000E0E
:1022FA00016E000E026E000E036E000E046E17EFE2
:10230A0012F0960E0A6E90EF11F00A2AD8900E3249
:10231A000D320C320B32000E0B14056E000E0C142B
:10232A00066E000E0D14076EFE0E0E14086E055092
:10233A00061007100810D8A4A5EF11F0A7EF11F0A6
:10234A008AEF11F0B5EF11F00A2A010E0B26000EE2
:10235A000C220D220E22D8900E320D320C320B3284
:10236A00000E0B14056E000E0C14066E000E0D14F2
:10237A00076EFF0E0E14086E05500610071008109F
:10238A00D8A4CAEF11F0CCEF11F0A9EF11F0D4EFF5
:10239A0011F00A06D8900B360C360D360E360DBEE5
:1023AA00D9EF11F0DBEF11F0E3EF11F0020E0A6042
:1023BA00E1EF11F0E3EF11F0CEEF11F00AB0E8EF20
:1023CA0011F0EAEF11F0EBEF11F00D9ED8900A32FE
:1023DA000AC005F0066A076A086A05C008F0076AB3
:1023EA00066A056A05500B1206500C1207500D12A8
:1023FA0008500E120950D8B405EF12F007EF12F088
:10240A000FEF12F004BE0EEF12F00CEF12F00FEF06
:10241A0012F00E8E0BC001F00CC002F00DC003F0DA
:10242A000EC004F01200DFEF12F0000E5B6E000E19
:10243A005C6EB7EC20F0D4EC20F055C013F056C017
:10244A0014F030EC17F058C00DF0A5C10EF0A1EC55
:10245A001EF05B0E016E5C0E026EA6EC20F0D2EC52
:10246A0020F055C013F056C014F092EC19F0AEECFF
:10247A0015F0110E5A6E3C0E596ECB0EE82EFED791
:10248A00592EFCD75A2EFAD7000058C00EF040EC4D
:10249A0010F058C032F043EC15F057C00EF058C097
:1024AA000FF00DEC07F057C001F058C002F073ECC2
:1024BA000AF05D6EAEEC15F0110E5A6E3C0E596EB6
:1024CA00CB0EE82EFED7592EFCD75A2EFAD700008B
:1024DA000101A551D8B474EF12F076EF12F08BEF28
:1024EA0012F05B685C68080E5D6E7CAE7FEF12F0DE
:1024FA0083EF12F0596A592A84EF12F0596A593255
:10250A0059327C5059187F0B59187C6E130E0101F1
:10251A00A419D8A493EF12F095EF12F097EF12F0E6
:10252A00080E5D6E5CC001F05DC002F05B50E4EC29
:10253A001EF055C021F056C022F05EC023F05DC0E7
:10254A0024F0C5EC14F0080E5D18D8A4AFEF12F011
:10255A00B1EF12F0C5EF12F0010E5E6E80A6B8EF71
:10256A0012F0BCEF12F0596A592ABDEF12F0596AFB
:10257A0059465946594680505918F70B5918806ED2
:10258A0058C03AF0E6EC1CF057C03AF033EC1EF0B3
:10259A00CE0E3A6E010E3B6ED5EC1AF0BA0E3A6EBA
:1025AA00010E3B6ED5EC1AF0A60E3A6E010E3B6E8A
:1025BA00D5EC1AF05E50D8B4E5EF12F0E7EF12F05E
:1025CA001AEF12F01200000E0001A46F000EA36FA2
:1025DA00000EA66F000EA56F000EA86F000EA76F63
:1025EA00000EAA6F000EA96F000E8C6F000E8B6F83
:1025FA00000E8E6F000E8D6F000E906F000E8F6FA3
:10260A00000E916F010E926F010E936F000E956F7F
:10261A00630E946FAA0E966F0F0E976FA60E986FA1
:10262A000F0E996F000E9A6F010E9B6F010E9C6F31
:10263A00000E9E6F630E9D6F250E9F6F0F0EA06F8B
:10264A00210EA16F0F0EA26F000E026E630E016EB5
:10265A004AEC19F0E1EC1FF01BEC1FF08BEC20F0B8
:10266A0021EC20F0849E88967C9E809686848686BD
:10267A000E01B495B4978EB645EF13F047EF13F0F9
:10268A0040EF13F07CAE4CEF13F051EF13F0000162
:10269A00886B882B53EF13F00001886B88338833DB
:1026AA007C5088197F0B88197C6E80A65FEF13F027
:1026BA0063EF13F0886B882B65EF13F00001886BCA
:1026CA0088478847884780508819F70B8819806E91
:1026DA00520E0001896F2B0E886F000EE82EFED76E
:1026EA00882FFCD7892FFAD70000910E556E9A0EC3
:1026FA00566E8B0E576EA30E586E18EC12F0910E92
:10270A004D6E9A0E4E6E74EC16F0000E00018A6F32
:10271A008A2B030E8A6594EF13F096EF13F08DEF70
:10272A0013F021EF00F00E50D96EDA6A020ED926A4
:10273A00DF50D8B4A3EF13F0A5EF13F0D5EF13F0E1
:10274A000E50D96EDA6ADF500F6E0F50016E026AB0
:10275A000E50D96EDA6A030ED926DECF03F0DDCF2A
:10276A0004F048EC20F001C007F002C008F0000EA7
:10277A000A6E640E096E10EC1BF00E50D96EDA6AFE
:10278A00030ED926DF50106E0750105C116E0E50E2
:10279A00D96EDA6A030ED926DF50126EF6EF13F0FD
:1027AA00000E116E0E50D96EDA6ADF500F6E0F509E
:1027BA00016E026A0E50D96EDA6A030ED926DECF8E
:1027CA0003F0DDCF04F048EC20F001C007F002C0AE
:1027DA0008F0000E0A6E640E096E10EC1BF007502A
:1027EA00126E0E50D96EDA6A010ED926DF50D8B4AD
:1027FA0001EF14F003EF14F023EF14F00E50D96E2A
:10280A00DA6A050ED926DECF0FF0DDCF10F00FC041
:10281A00D9FF10C0DAFF11C0DFFF0E50D96EDA6A95
:10282A00070ED926DECF0FF0DDCF10F00FC0D9FF8B
:10283A0010C0DAFF12C0DFFF41EF14F00E50D96E5C
:10284A00DA6A050ED926DECF0FF0DDCF10F00FC001
:10285A00D9FF10C0DAFF12C0DFFF0E50D96EDA6A54
:10286A00070ED926DECF0FF0DDCF10F00FC0D9FF4B
:10287A0010C0DAFF11C0DFFF12002A342B34316E88
:10288A003150D8A44BEF14F04DEF14F057EF14F079
:10289A00000E286E000E296E000E2A6E000E2B6E98
:1028AA00C4EF14F028C02CF029C02DF02AC02EF055
:1028BA002BC02FF0200E67EF14F0D8902F322E3253
:1028CA002D322C32E82E62EF14F02C50306E2A8E04
:1028DA00FF0E2816FF0E2916FF0E2A16000E2B16BB
:1028EA00960E315E31BE7EEF14F07CEF14F094EF59
:1028FA0014F03150800A970FD8B086EF14F088EFA1
:10290A0014F08AEF14F04DEF14F0D8902B322A32DB
:10291A0029322832313E8AEF14F0ACEF14F01F0E40
:10292A0031649AEF14F09CEF14F0A4EF14F04DEF19
:10293A0014F0D890283629362A362B3631063150EB
:10294A00D8A4AAEF14F0ACEF14F09EEF14F03050B4
:10295A00D8B4B2EF14F0B4EF14F0BCEF14F02B1E9D
:10296A002A1E291E286C000E29222A222B2228C060
:10297A0028F029C029F02AC02AF02BC02BF0120017
:10298A0015EF15F021C01CF022C01DF023C01EF067
:10299A007FEC1BF042EF15F021C01CF022C01DF0A5
:1029AA0023C01EF0E7EC1BF042EF15F021C01CF02B
:1029BA0022C01DF023C01EF04FEC1CF042EF15F0B0
:1029CA0021C01CF022C01DF023C01EF0D9EC19F062
:1029DA0042EF15F021C01CF022C01DF023C01EF0EA
:1029EA0019EC1AF042EF15F021C01CF022C01DF0BC
:1029FA0023C01EF0B3EC1BF042EF15F021C01CF00F
:102A0A0022C01DF023C01EF01BEC1CF042EF15F093
:102A1A0021C01CF022C01DF035EC20F042EF15F069
:102A2A002450256E266A2650000AD8B41FEF15F0E6
:102A3A0042EF15F02550010AD8B4C7EF14F0030A83
:102A4A00D8B4D1EF14F0010AD8B4DBEF14F0070AB6
:102A5A00D8B4E5EF14F0010AD8B4EFEF14F0030A82
:102A6A00D8B4F9EF14F0010AD8B403EF15F00F0A3D
:102A7A00D8B40DEF15F042EF15F01200000E136EE8
:102A8A00000E146E000E156E3F0E166E3250D96E81
:102A9A00DA6ADECF33F0DDCF34F033C001F034C070
:102AAA0002F0036A046A000E3EEC11F001C00FF056
:102ABA0002C010F003C011F004C012F0A5EC0CF033
:102ACA000FC028F010C029F011C02AF012C02BF054
:102ADA0042EC14F03250D96EDA6A28C0DEFF29C0FF
:102AEA00DDFF330E136E330E146E330E156E3F0E6A
:102AFA00166E3250D96EDA6A020ED926DECF33F05C
:102B0A00DDCF34F033C001F034C002F0036A046A46
:102B1A00000E3EEC11F001C00FF002C010F003C02D
:102B2A0011F004C012F0A5EC0CF00FC028F010C090
:102B3A0029F011C02AF012C02BF042EC14F03250E6
:102B4A00D96EDA6A020ED92628C0DEFF29C0DDFF57
:102B5A0012007FA2B3EF15F0B7EF15F0016A012A50
:102B6A00B8EF15F0016A01467F500118FD0B0118F4
:102B7A007F6E79A8C3EF15F0C7EF15F0016A012A35
:102B8A00C8EF15F0016A013A79500118EF0B0118E4
:102B9A00796E7EAED3EF15F0D7EF15F0016A012AF0
:102BAA00D8EF15F0016A013201327E5001187F0B0D
:102BBA0001187E6E7FA0E4EF15F0E8EF15F0016AC8
:102BCA00012AE9EF15F0016A7F500118FE0B01187E
:102BDA007F6E7DAEF3EF15F0F7EF15F0016A012A6B
:102BEA00F8EF15F0016A013201327D5001187F0BAE
:102BFA0001187D6E79A604EF16F008EF16F0016A47
:102C0A00012A09EF16F0016A014601460146795088
:102C1A000118F70B0118796E1200000E066E04BE39
:102C2A001BEF16F019EF16F021EF16F0036C041ED5
:102C3A00D8B0042A010E066E02BE28EF16F026EF5F
:102C4A0016F02EEF16F0016C021ED8B0022A010E01
:102C5A00061A000E086E000E076E03500410D8B450
:102C6A0039EF16F03BEF16F063EF16F0010E056E22
:102C7A0043EF16F0D89003360436052A04AE48EF1F
:102C8A0016F04AEF16F03FEF16F0D89007360836DE
:102C9A000350015C04500258D8A056EF16F058EFC2
:102CAA0016F05DEF16F00350015E0450025A0780D9
:102CBA00D89004320332052E4AEF16F00650D8B4E3
:102CCA0069EF16F06BEF16F06FEF16F0076C081E3F
:102CDA00D8B0082A07C001F008C002F01200C9EFF4
:102CEA0016F0000E4F6E000E506E000E516E4F0E13
:102CFA00016E500E026E510E036E6BEC1DF04FC04A
:102D0A003AF03B6A5BEC20F050C03AF03B6A5BEC6D
:102D1A0020F051C03AF03B6A5BEC20F0080E5118E3
:102D2A00D8B49AEF16F09CEF16F0A6EF16F04DC045
:102D3A0021F04EC022F05EC023F051C024F0C5EC51
:102D4A0014F05050FF0A016E4F50FF0ABDEC20F0FC
:102D5A00D4EC20F04DC013F04EC014F030EC17F054
:102D6A0000018751D8B4BCEF16F0BEEF16F0B5EFEC
:102D7A0016F04DC013F04EC014F092EC19F0D2ECDC
:102D8A0020F0000E0001876F0101A451D8A4D0EFF2
:102D9A0016F0D2EF16F076EF16F012000350D8B400
:102DAA00D9EF16F0DBEF16F0E3EF16F00350D8A4D4
:102DBA00E1EF16F0E3EF16F0E8EF16F00150D6EC6B
:102DCA0020F02FEF17F00350D96EDA6A0A0ED926CF
:102DDA00DE50DE10D8B4F4EF16F0F6EF16F00FEF6F
:102DEA0017F00350D96EDA6A0A0ED9260350E16E3B
:102DFA00E26A030EE126DE50E65CE650800A086EBF
:102E0A00DE50800A0858D8B00DEF17F00FEF17F010
:102E1A002FEF17F00350D96EDA6A030ED926DECFE8
:102E2A0004F0DDCF05F00350D96EDA6ADECF06F082
:102E3A00DDCF07F004500624D96E05500720DA6E5C
:102E4A0001C0DFFF0350D96EDA6A030ED926DE2AE3
:102E5A00000EDD221200140E166E140E176E135099
:102E6A00D96EDA6A010ED926010EDF6E1450D96EB8
:102E7A00DA6A010ED926010EDF6E74EF17F01350CD
:102E8A00D96EDA6A1650DE5CD8B04EEF17F050EF02
:102E9A0017F054EF17F01350D96EDA6ADF2A14507C
:102EAA00D96EDA6A1750DE5CD8B05EEF17F060EFC1
:102EBA0017F064EF17F01450D96EDA6ADF2A13C0DC
:102ECA000EF098EC13F014C00EF098EC13F0A70E65
:102EDA00156E3A0EE82EFED7152EFCD700D01350E9
:102EEA00D96EDA6A1650DE5CD8A07EEF17F080EF52
:102EFA0017F044EF17F01450D96EDA6A1750DE5CF7
:102F0A00D8A08AEF17F08CEF17F044EF17F01200F1
:102F1A00280E166E280E176E1350D96EDA6A010E35
:102F2A00D926010EDF6E1450D96EDA6A010ED9263F
:102F3A00DF6AD0EF17F01350D96EDA6A1650DE5CEA
:102F4A00D8B0AAEF17F0ACEF17F0B0EF17F01350A4
:102F5A00D96EDA6ADF2A1450D96EDA6A1750DE5C43
:102F6A00D8B0BAEF17F0BCEF17F0C0EF17F0145053
:102F7A00D96EDA6ADF2A13C00EF098EC13F014C087
:102F8A000EF098EC13F0A70E156E3A0EE82EFED747
:102F9A00152EFCD700D01350D96EDA6A1650DE5CB3
:102FAA00D8A0DAEF17F0DCEF17F0A0EF17F0145003
:102FBA00D96EDA6A1750DE5CD8A0E6EF17F0E8EFB0
:102FCA0017F0A0EF17F01200280E166E280E176ED3
:102FDA001350D96EDA6A010ED926DF6A1450D96EF7
:102FEA00DA6A010ED926010EDF6E2CEF18F01350A3
:102FFA00D96EDA6A1650DE5CD8B006EF18F008EF20
:10300A0018F00CEF18F01350D96EDA6ADF2A145050
:10301A00D96EDA6A1750DE5CD8B016EF18F018EFDE
:10302A0018F01CEF18F01450D96EDA6ADF2A13C0B0
:10303A000EF098EC13F014C00EF098EC13F0A70EF3
:10304A00156E3A0EE82EFED7152EFCD700D0135077
:10305A00D96EDA6A1650DE5CD8A036EF18F038EF6F
:10306A0018F0FCEF17F01450D96EDA6A1750DE5CCC
:10307A00D8A042EF18F044EF18F0FCEF17F0120056
:10308A00140E166E150E176E1350D96EDA6A010EEB
:10309A00D926DF6A1450D96EDA6A010ED926DF6A98
:1030AA0087EF18F01350D96EDA6A1650DE5CD8B082
:1030BA0061EF18F063EF18F067EF18F01350D96E4C
:1030CA00DA6ADF2A1450D96EDA6A1750DE5CD8B091
:1030DA0071EF18F073EF18F077EF18F01450D96EFB
:1030EA00DA6ADF2A13C00EF098EC13F014C00EF05F
:1030FA0098EC13F0A70E156E3A0EE82EFED7152E91
:10310A00FCD700D01350D96EDA6A1650DE5CD8A00C
:10311A0091EF18F093EF18F057EF18F01450D96E9A
:10312A00DA6A1750DE5CD8A09DEF18F09FEF18F00E
:10313A0057EF18F01200000E066E02BEA9EF18F043
:10314A00A7EF18F0AFEF18F0016C021ED8B0022AF0
:10315A00010E066E04BEB6EF18F0B4EF18F0BAEF1F
:10316A0018F0036C041ED8B0042A03500410D8B413
:10317A00C1EF18F0C3EF18F0E7EF18F0010E056E73
:10318A00CBEF18F0D89003360436052A04AED0EFF8
:10319A0018F0D2EF18F0C7EF18F00350015C045092
:1031AA000258D8A0DBEF18F0DDEF18F0E1EF18F0C5
:1031BA000350015E0450025AD89004320332052E9D
:1031CA00D2EF18F00650D8B4EDEF18F0EFEF18F080
:1031DA00F3EF18F0016C021ED8B0022A01C001F008
:1031EA0002C002F01200000E096E000E0A6E000EF6
:1031FA000B6E000E0C6E0550061007100810D8B49E
:10320A0009EF19F00BEF19F041EF19F0010E0D6EED
:10321A0015EF19F0D89005360636073608360D2A06
:10322A0008AE1AEF19F01CEF19F00FEF19F0D89049
:10323A0009360A360B360C360550015C0650025820
:10324A000750035808500458D8A02EEF19F030EF51
:10325A0019F039EF19F00550015E0650025A07506D
:10326A00035A0850045A0980D890083207320632A5
:10327A0005320D2E1CEF19F009C001F00AC002F048
:10328A000BC003F00CC004F0120085948598839E4D
:10329A00879C7D947D987B9E7F9C050E0E01746FA2
:1032AA00060E766F070E696F080E886FBD508F0B7A
:1032BA004009BD6EE00EBE16BF50F00B0109BF6E8D
:1032CA0001C0BCFFBD8E000EAA6E000EA66E000ED7
:1032DA000F01256F000E216FFC0EAD16F30EAD1611
:1032EA00CF0EAD163F0EAD16AB88AB50F00B0C09E6
:1032FA00AB6EAB8EA788A750F00B0C09A76EA78EF2
:10330A0026892651F00B0C09266F268F2289225115
:10331A00F00B0C09226F228F1200C2EF19F0135022
:10332A00D96EDA6ADF50D8B49DEF19F09FEF19F021
:10333A00A3EF19F01350D96EDA6ADF061450D96E6A
:10334A00DA6ADF50D8B4ACEF19F0AEEF19F0B2EF89
:10335A0019F01450D96EDA6ADF0613C00EF098EC31
:10336A0013F014C00EF098EC13F0A70E156E3A0E77
:10337A00E82EFED7152EFCD700D01350D96EDA6A84
:10338A00DF50D8A4CBEF19F0CDEF19F094EF19F074
:10339A001450D96EDA6ADF50D8A4D6EF19F0D8EFF4
:1033AA0019F094EF19F0120003EF1AF01CC018F08C
:1033BA001DC019F0C9EC1FF01CC018F01DC019F08F
:1033CA0035EC1FF01CC018F01DC019F099EC1FF065
:1033DA0018EF1AF01CC018F01DC019F0B1EC1FF05C
:1033EA001CC018F01DC019F035EC1FF01CC018F0F5
:1033FA001DC019F0C9EC1FF018EF1AF01E501F6E0D
:10340A00206A2050000AD8B40DEF1AF018EF1AF00B
:10341A001F50000AD8B4DBEF19F0010AD8B4EFEF55
:10342A0019F018EF1AF0120043EF1AF01CC018F046
:10343A001DC019F0C9EC1FF01CC018F01DC019F00E
:10344A0035EC1FF01CC018F01DC019F0B1EC1FF0CC
:10345A0058EF1AF01CC018F01DC019F099EC1FF0B3
:10346A001CC018F01DC019F035EC1FF01CC018F074
:10347A001DC019F0C9EC1FF058EF1AF01E501F6E4C
:10348A00206A2050000AD8B44DEF1AF058EF1AF00B
:10349A001F50000AD8B41BEF1AF0010AD8B42FEF54
:1034AA001AF058EF1AF012000150D96EDA6ADECF1C
:1034BA0005F0DDCF06F00150D96EDA6A020ED92680
:1034CA000550DE5C0650DE58D8B06EEF1AF070EF89
:1034DA001AF079EF1AF00150D96EDA6A020ED9267B
:1034EA00DECF05F0DDCF06F00150D96EDA6A040EA0
:1034FA00D9260550DE5C0650DE58D8B087EF1AF0A0
:10350A0089EF1AF092EF1AF00150D96EDA6A040EB6
:10351A00D926DECF05F0DDCF06F005C001F006C0E2
:10352A0002F012000150D96EDA6ADECF05F0DDCF63
:10353A0006F00150D96EDA6A020ED926DE50055C11
:10354A00DE500658D8B0ACEF1AF0AEEF1AF0B7EF6B
:10355A001AF00150D96EDA6A020ED926DECF05F0CA
:10356A00DDCF06F00150D96EDA6A040ED926DE5094
:10357A00055CDE500658D8B0C5EF1AF0C7EF1AF04E
:10358A00D0EF1AF00150D96EDA6A040ED926DECFCE
:10359A0005F0DDCF06F005C001F006C002F012000A
:1035AA00000E0101A16F000EA36F000EA26F000EA4
:1035BA00A125206E216A010E2122140E226EA2512B
:1035CA003A24D96EA3513B20DA6EDF503C6E3C5050
:1035DA00236E246A59EC1EF020500101A127A24B48
:1035EA00A32BA35109E1140EA25DD8A0FFEF1AF094
:1035FA0001EF1BF0DCEF1AF0000E026E010E036EF3
:10360A00B5EC1CF0110E026E0250D8A40E0E036E19
:10361A00B5EC1CF01200000E0C6E000E0B6E095079
:10362A000A10D8B41BEF1BF01DEF1BF045EF1BF07F
:10363A00010E0D6E25EF1BF0D89009360A360D2AB9
:10364A000AAE2AEF1BF02CEF1BF021EF1BF0D890EB
:10365A000B360C360950075C0A500858D8A038EFC8
:10366A001BF03AEF1BF03FEF1BF00950075E0A50C0
:10367A00085A0B80D8900A3209320D2E2CEF1BF013
:10368A000BC007F00CC008F01200000E096E000E05
:10369A000A6E000E0B6E000E0C6E01A057EF1BF0A7
:1036AA0059EF1BF061EF1BF00550092606500A225C
:1036BA0007500B2208500C22D890053606360736DA
:1036CA000836D89004320332023201320150021015
:1036DA0003100410D8A474EF1BF076EF1BF052EF1E
:1036EA001BF009C001F00AC002F00BC003F00CC0C5
:1036FA0004F012009DEF1BF01CC018F01DC019F059
:10370A00C9EC1FF01CC018F01DC019F099EC1FF08D
:10371A00B2EF1BF01CC018F01DC019F0B1EC1FF07D
:10372A001CC018F01DC019F0C9EC1FF0B2EF1BF055
:10373A001E501F6E206A2050000AD8B4A7EF1BF053
:10374A00B2EF1BF01F50000AD8B481EF1BF0010A38
:10375A00D8B48FEF1BF0B2EF1BF01200D1EF1BF0C1
:10376A001CC018F01DC019F0C9EC1FF01CC018F0DD
:10377A001DC019F04EEC1FF0E6EF1BF01CC018F04C
:10378A001DC019F067EC1FF01CC018F01DC019F01D
:10379A00C9EC1FF0E6EF1BF01E501F6E206A205086
:1037AA00000AD8B4DBEF1BF0E6EF1BF01F50000A4B
:1037BA00D8B4B5EF1BF0010AD8B4C3EF1BF0E6EF9B
:1037CA001BF0120005EF1CF01CC018F01DC019F008
:1037DA00C9EC1FF01CC018F01DC019F0B1EC1FF0A5
:1037EA001AEF1CF01CC018F01DC019F099EC1FF05C
:1037FA001CC018F01DC019F0C9EC1FF01AEF1CF01C
:10380A001E501F6E206A2050000AD8B40FEF1CF019
:10381A001AEF1CF01F50000AD8B4E9EF1BF0010A96
:10382A00D8B4F7EF1BF01AEF1CF0120039EF1CF0B6
:10383A001CC018F01DC019F0C9EC1FF01CC018F00C
:10384A001DC019F067EC1FF04EEF1CF01CC018F0F9
:10385A001DC019F04EEC1FF01CC018F01DC019F065
:10386A00C9EC1FF04EEF1CF01E501F6E206A20504C
:10387A00000AD8B443EF1CF04EEF1CF01F50000AA8
:10388A00D8B41DEF1CF0010AD8B42BEF1CF04EEF90
:10389A001CF012006DEF1CF01CC018F01DC019F0CE
:1038AA00C9EC1FF01CC018F01DC019F080EC1FF005
:1038BA0082EF1CF01CC018F01DC019F080EC1FF03C
:1038CA001CC018F01DC019F0C9EC1FF082EF1CF0E3
:1038DA001E501F6E206A2050000AD8B477EF1CF0E1
:1038EA0082EF1CF01F50000AD8B451EF1CF0010AF5
:1038FA00D8B45FEF1CF082EF1CF0120003500410E2
:10390A00D8B48AEF1CF08CEF1CF0B0EF1CF0010E5B
:10391A00056E94EF1CF0D89003360436052A04AEDF
:10392A0099EF1CF09BEF1CF090EF1CF00350015C28
:10393A0004500258D8A0A4EF1CF0A6EF1CF0AAEF7E
:10394A001CF00350015E0450025AD890043203322C
:10395A00052E9BEF1CF001C001F002C002F012001C
:10396A00CCEF1CF002C0F6FF03C0F7FF000EF86EA2
:10397A000D0EF76403D00800F55005D0F6CFE1FF2D
:10398A00F7CFE2FFE7509AEC20F0024A032A02C07E
:10399A00F6FF03C0F7FF000EF86E0D0EF76403D0B2
:1039AA000800F55005D0F6CFE1FFF7CFE2FFE75068
:1039BA000009D8A4E3EF1CF0E5EF1CF0B7EF1CF008
:1039CA0012003B0E206E216A010E226E3A50D96E09
:1039DA00DA6ADECF23F0DDCF24F03A50D96EDA6A04
:1039EA00020ED926DECF25F0DDCF26F03A50D96E69
:1039FA00DA6A040ED926DECF27F0DDCF28F03A5056
:103A0A00D96EDA6A060ED926DECF29F0DDCF2AF082
:103A1A0059EC1EF03B0E026E036AB5EC1CF0120064
:103A2A001DC01FF0000E0001816F000E806F2BEF8A
:103A3A001DF01CC00EF01F0E0F6E1EC010F0BAEC67
:103A4A000EF00E50000180270F5081231FC0F6FF91
:103A5A000E0EF76E000EF86E0800F5500009D8A495
:103A6A0039EF1DF03BEF1DF01EEF1DF080C01CF07A
:103A7A0081C01DF0120093EC1DF00C50D96EDA6A69
:103A8A0005C0DEFF06C0DDFFBBEC1DF00C50D96E91
:103A9A00DA6A020ED92605C0DEFF06C0DDFF0BEC8E
:103AAA001EF00C50D96EDA6A040ED92605C0DEFF64
:103ABA0006C0DDFFE3EC1DF00C50D96EDA6A060E83
:103ACA00D92605C0DEFF06C0DDFF12000001AF07E0
:103ADA00D8A0B007AD07D8A0AE07AB07D8A0AC07EF
:103AEA000101A407AFC0D9FFB0C0DAFF0150E16EEF
:103AFA00E26ADFCFE7FFADC0D9FFAEC0DAFF0250FE
:103B0A00E16EE26ADFCFE7FFABC0D9FFACC0DAFFF4
:103B1A000350E16EE26ADFCFE7FF1200CDEC20F03E
:103B2A00520EB1EC20F0B60EB1EC20F0C3EC20F04E
:103B3A00530EB1EC20F0010EC3EC1EF0076E0750D5
:103B4A000A6E0B6A000EC3EC1EF0076E0750096E70
:103B5A00086A0A5008100A6E0B5009100B6EC8EC5E
:103B6A0020F00AC005F00BC006F01200CDEC20F0E0
:103B7A00520EB1EC20F0B80EB1EC20F0C3EC20F0FC
:103B8A00530EB1EC20F0010EC3EC1EF0076E075085
:103B9A000A6E0B6A000EC3EC1EF0076E0750096E20
:103BAA00086A0A5008100A6E0B5009100B6EC8EC0E
:103BBA0020F00AC005F00BC006F01200CDEC20F090
:103BCA00520EB1EC20F0B40EB1EC20F0C3EC20F0B0
:103BDA00530EB1EC20F0010EC3EC1EF0076E075035
:103BEA000A6E0B6A000EC3EC1EF0076E0750096ED0
:103BFA00086A0A5008100A6E0B5009100B6EC8ECBE
:103C0A0020F00AC005F00BC006F01200CDEC20F03F
:103C1A00520EB1EC20F0BA0EB1EC20F0C3EC20F059
:103C2A00530EB1EC20F0010EC3EC1EF0076E0750E4
:103C3A000A6E0B6A000EC3EC1EF0076E0750096E7F
:103C4A00086A0A5008100A6E0B5009100B6EC8EC6D
:103C5A0020F00AC005F00BC006F012003B0E206EE1
:103C6A00216A040E226E3A50D96EDA6ADECF23F048
:103C7A00DDCF24F03A50D96EDA6A020ED926DECFA9
:103C8A0025F0DDCF26F03A50D96EDA6A040ED9262D
:103C9A00DECF27F0DDCF28F059EC1EF03B0E026E86
:103CAA00036AB5EC1CF01200230E2D6E20C02EF014
:103CBA0021C02FF0000E326E000E316E000E396EEA
:103CCA00000E386E2E0E1C6E22C01DF02D0E1E6EBA
:103CDA0015EC1DF01CC02BF01DC02CF03150202417
:103CEA00D96E32502120DA6EDF6A2BC020F02CC048
:103CFA0021F01200F80EF66E400EF76E000EF86E06
:103D0A0000EEABF010EE1EF00900F5CFEEFFE55025
:103D1A00E150FAE101EEA4F03E0EEE6AE806FDE19A
:103D2A0000EE60F0280EEE6AE806FDE15E6A5F903A
:103D3A005F920001E8EF12F0BAEF1EF00DC00CF02E
:103D4A0040EC1DF00D50D96EDA6A060ED926010E26
:103D5A00DB5007E1320EDE5CD8B0B6EF1EF0B8EFEA
:103D6A001EF0BAEF1EF0C2EF1EF00E50D8B4C0EF2C
:103D7A001EF0C2EF1EF0A3EF1EF01200036E0DEC50
:103D8A0020F00E01DA870DEC20F0D5CE04F00DEC10
:103D9A0020F00350D8B4D4EF1EF0D8EF1EF0026A18
:103DAA00022AD9EF1EF0026A023A02460E01DA51DD
:103DBA000218DF0B0218DA6FDA8904501200036E58
:103DCA00AFC0D9FFB0C0DAFF03C0DFFFADC0D9FF73
:103DDA00AEC0DAFF01C0DFFFABC0D9FFACC0DAFF6B
:103DEA0002C0DFFF0001AF4BB02BAD4BAE2BAB4B8C
:103DFA00AC2B0101A42B120008BE06EF1FF008EF3E
:103E0A001FF00EEF1FF007C007F008C008F01AEF06
:103E1A001FF007C009F008C00AF0091E0A1E094A65
:103E2A000A2A09C007F00AC008F01200F8EC1FF0CD
:103E3A00010E036E000E6CEC20F03F0E056E550E5F
:103E4A00E82EFED7052EFCD70000030E036E000EE7
:103E5A006CEC20F0D50E036E010E6CEC20F0120013
:103E6A0018C013F019C014F045EC18F0C70E1B6EF9
:103E7A000D0E1A6EC60EE82EFED71A2EFCD71B2E72
:103E8A00FAD700D018C013F019C014F092EC19F048
:103E9A00120018C013F019C014F08DEC17F0160EAA
:103EAA001B6E450E1A6E170EE82EFED71A2EFCD779
:103EBA001B2EFAD7000018C013F019C014F092ECA8
:103ECA0019F0120018C013F019C014F0E9EC17F039
:103EDA00150E1B6E4B0E1A6EBE0EE82EFED71A2E4C
:103EEA00FCD71B2EFAD700D018C013F019C014F053
:103EFA0092EC19F0120018C013F019C014F0E9EC92
:103F0A0017F0210E1B6E780E1A6E980EE82EFED749
:103F1A001A2EFCD71B2EFAD700D018C013F019C0DE
:103F2A0014F092EC19F0120018C013F019C014F032
:103F3A008DEC17F0090E1B6EC50E1A6E200EE82EB8
:103F4A00FED71A2EFCD71B2EFAD718C013F019C0A9
:103F5A0014F092EC19F0120018C013F019C014F002
:103F6A00E9EC17F0070E1B6ED20E1A6E6E0EE82ED3
:103F7A00FED71A2EFCD71B2EFAD718C013F019C079
:103F8A0014F092EC19F0120018C013F019C014F0D2
:103F9A0045EC18F0430E1B6E8F0E1A6EC80EE82EF3
:103FAA00FED71A2EFCD71B2EFAD718C013F019C049
:103FBA0014F092EC19F012008498889284968690F4
:103FCA0088907C9880927C967E9080908792819847
:103FDA00869E7F9279987E9E8790859E81967F9015
:103FEA007D9E799612000E01D951F00B0809D96FFE
:103FFA00D98B9F0ED66F848A848CA79BA79D1D0E92
:10400A001D6F1E0E1C6F1C0E6F6F1B0E706F120041
:10401A000E01D8B513EF20F015EF20F00DEF20F0C8
:10402A00DACE01F01F0E0116D8A41EEF20F020EF01
:10403A0020F00DEF20F01200D6501F0B4009D66E6B
:10404A00D688D588D650F00B0E09D66EB7EC20F07C
:10405A00D58ED4EC20F00E01298BF28CF28E120050
:10406A001CC018F01DC019F0C9EC1FF01CC018F0D4
:10407A001DC019F080EC1FF01CC018F01DC019F00B
:10408A00C9EC1FF0120001500302F3CF05F0F4CF80
:10409A0006F001500402F350062602500302F350C0
:1040AA00062605C001F006C002F012003C0E206E82
:1040BA00216A0F0E226E3AC023F03BC024F059EC5D
:1040CA001EF03C0E026E036AB5EC1CF01200046E80
:1040DA00CDEC20F0520EB1EC20F004508009B1EC86
:1040EA0020F00350B1EC20F0C8EC20F01200A60139
:1040FA00BA01CE018809340390010601FA006C0066
:10410A00540032002828151414140814120E0E0133
:10411A00626F110E156FE997E895330EE56F000E81
:10412A00E66FE789E88BE78F1200016E0E0137A56B
:10413A00A1EF20F0A3EF20F09BEF20F001C0E4FEF6
:10414A0012000250D96EDA6AD3CFDFFF0150D96E5E
:10415A00DA6AD4CFDFFF1200026E0DEC20F002C043
:10416A00D5FE1200000E016E000EBDEC20F012000A
:10417A00026E02C0D4FF01C0D3FF12000DEC20F082
:10418A000E01DA8312000DEC20F00E01DA8512001E
:10419A000DEC20F00E01DA811200D59E1200D58EA8
:0441AA0012001200ED
:020000040020DA
:10000000FFFFFFFFFFFFFFFFFFFFFFFFFFFFFFFF00
:020000040030CA
:0C000000AAFFFFFF9FFFFFFFFFFFFFFFB5
:00000001FF
