:040000001CEF00F001
:100008005F820E0133AB0BEF00F00DEF00F01AEF3B
:1000180000F000019D51D8B414EF00F016EF00F085
:1000280018EF00F0010E9C6F0E01339B5F921100D8
:040038008AEF0EF04D
:100E0000002575202575202575202575200D0025C8
:090E100064200D0025642000009F
:100E1A001450D96EDA6ADECF01F0DDCF02F0145039
:100E2A00D96EDA6A020ED926DECF03F0DDCF04F0DE
:100E3A0003EC0FF001C01BF002C01CF01BC001F054
:100E4A001CC002F01450D96EDA6A040ED926DECF1D
:100E5A0003F0DDCF04F003EC0FF001C027F002C06D
:100E6A0028F01450D96EDA6ADECF01F0DDCF02F035
:100E7A001450D96EDA6A020ED926DECF03F0DDCF1E
:100E8A0004F0E9EC0EF001C01DF002C01EF01DC016
:100E9A0001F01EC002F01450D96EDA6A040ED92687
:100EAA00DECF03F0DDCF04F0E9EC0EF001C019F05B
:100EBA0002C01AF01950275C256E1A502858266E5F
:100ECA0025502610D8A46CEF07F06EEF07F074EFE8
:100EDA0007F0000E226E000E216E5DEF08F014502E
:100EEA00D96EDA6A2750DE1807E12850DE18D8A42E
:100EFA0081EF07F083EF07F0C7EF07F0000E116EDE
:100F0A003C0E106E25C009F026C00AF01450D96EA6
:100F1A00DA6A040ED926DECF15F0DDCF16F01450AA
:100F2A00D96EDA6A020ED926DECF17F0DDCF18F0B5
:100F3A001550175C016E16501858026E000E046E9A
:100F4A000A0E036E77EC0FF001C007F002C008F03A
:100F5A007CEC0CF007C00EF008C00FF0B6EC0CF0F9
:100F6A000EC023F00FC024F023C001F024C002F009
:100F7A00000E046E3C0E036E77EC0FF001C021F0F8
:100F8A0002C022F01450D96EDA6A020ED92627500E
:100F9A00DE1807E12850DE18D8A4D6EF07F0D8EFFC
:100FAA0007F012EF08F025C009F026C00AF0145025
:100FBA00D96EDA6ADECF15F0DDCF16F01450D96E8D
:100FCA00DA6A040ED926DECF17F0DDCF18F01550F5
:100FDA00175C016E16501858026E000E046E0A0E47
:100FEA00036E77EC0FF001C007F002C008F07CEC4A
:100FFA000CF0140E0724236E000E0820246E23C062
:10100A0001F024C002F0000E046E3C0E036E77EC71
:10101A000FF001C021F002C022F01450D96EDA6A32
:10102A00020ED9262750DE1807E12850DE18D8A468
:10103A0021EF08F023EF08F05DEF08F025C009F072
:10104A0026C00AF01450D96EDA6A020ED926DECF0B
:10105A0015F0DDCF16F01450D96EDA6ADECF17F02C
:10106A00DDCF18F01550175C016E16501858026E35
:10107A00000E046E0A0E036E77EC0FF001C007F043
:10108A0002C008F07CEC0CF0280E0724236E000E38
:10109A000820246E23C001F024C002F0000E046E62
:1010AA003C0E036E77EC0FF001C021F002C022F073
:1010BA0027502810D8A464EF08F066EF08F06AEF0A
:1010CA0008F0000E206E000E1F6E27502810D8B4AC
:1010DA0071EF08F073EF08F08BEF08F025C001F00C
:1010EA0026C002F0000E046E0A0E036E77EC0FF0B3
:1010FA0001C007F002C008F027C009F028C00AF0B2
:10110A007CEC0CF007C01FF008C020F01350D96E19
:10111A00DA6A21C0DEFF22C0DDFF1350D96EDA6A17
:10112A00020ED9261FC0DEFF20C0DDFF1350D96E84
:10113A00DA6A040ED92627C0DEFF28C0DDFF1200B6
:10114A00000E1A6E000E196E1450D96EDA6ADFCFCD
:10115A00F6FF0E0EF76E000EF86E0800F550250A1F
:10116A00D8A4BAEF08F0BCEF08F011EF0AF0145057
:10117A00D96EDA6ADF2A000E0001976F000E966FA9
:10118A0096C09AF0986999691450D96EDA6ADF5054
:10119A001B6E1BC0F6FF0E0EF76E000EF86E0800EF
:1011AA00F550640AD8B4DCEF08F0DEEF08F0EEEF91
:1011BA0008F01BC0F6FF0E0EF76E000EF86E080060
:1011CA00F550690AD8A4ECEF08F0EEEF08F07CEFCE
:1011DA0009F01550D96EDA6A020EDF26DF5CD96E85
:1011EA00DA6ADECF1CF0DECF1DF01450D96EDA6A4F
:1011FA001B28DF6E200E206E1DBE06EF09F009EFD8
:10120A0009F0010E0AEF09F0000E186E20062050B0
:10121A00600FD96EDA6A1CC001F01DC002F0000E20
:10122A00046E0A0E036EDCEC0BF001C007F002C07C
:10123A0008F0CFEC0EF00750300FDF6E1CC001F043
:10124A001DC002F0000E046E0A0E036E1DEC0BF0B8
:10125A0001C01CF002C01DF0194A1A2A1C501D10A8
:10126A00D8B43AEF09F03CEF09F044EF09F0205006
:10127A00D8A442EF09F044EF09F00BEF09F020502F
:10128A00D8B44AEF09F04CEF09F06DEF09F01850A5
:10129A00D8B452EF09F054EF09F06DEF09F02006C7
:1012AA002050600FD96EDA6A2D0EDF6E194A1A2A9B
:1012BA006DEF09F02050600FD96EDA6ADF50166EB2
:1012CA001650016E026A13C003F07FEC0BF0202A5D
:1012DA00200E2018D8A474EF09F076EF09F05FEF1A
:1012EA0009F019C013F01AC014F02AEF0AF01BC053
:1012FA00F6FF0E0EF76E000EF86E0800F550750A2E
:10130A00D8A48AEF09F08CEF09F007EF0AF015501C
:10131A00D96EDA6A020EDF26DF5CD96EDA6ADECFB0
:10132A001CF0DECF1DF01450D96EDA6A1B28DF6E6E
:10133A00EFEF09F0200E206E20062050600FD96EC4
:10134A00DA6A1CC00EF01DC00FF0000E116E0A0EF4
:10135A00106EB6EC0CF00E50300FDF6E1CC007F0AA
:10136A001DC008F0000E0A6E0A0E096E7CEC0CF025
:10137A0007C01CF008C01DF0194A1A2A1C501D107B
:10138A00D8B4CAEF09F0CCEF09F0E4EF09F0205025
:10139A00D8A4D2EF09F0D4EF09F0A1EF09F0E4EFF5
:1013AA0009F02050600FD96EDA6ADF50166E1650B7
:1013BA00016E026A13C003F07FEC0BF0202A200EA4
:1013CA002018D8A4EBEF09F0EDEF09F0D6EF09F0F9
:1013DA0076EF09F01BC0F6FF0E0EF76E000EF86EE0
:1013EA000800F550166E176A1750000AD8B400EFB5
:1013FA000AF007EF0AF01650750AD8B49FEF09F001
:10140A0007EF0AF01450D96EDA6ADF2A000E146E5A
:10141A00000E136E2AEF0AF01450D96EDA6ADFCF83
:10142A00F6FF0E0EF76E000EF86E0800F550016E0C
:10143A00026A13C003F07FEC0BF01450D96EDA6A1B
:10144A00DF2A000E146E010E136E1200000E000148
:10145A00B86F000EB76F000EBA6F000EB96F000EAC
:10146A00BC6F000EBB6F000EBE6F000EBD6F000E8C
:10147A00A06F000E9F6F000EA26F000EA16F000EEC
:10148A00A46F000EA36F000EA56F010EA66F010ECA
:10149A00A76F000EA96F630EA86FAA0EAA6F0F0E90
:1014AA00AB6FA60EAC6F0F0EAD6F000EAE6F010ED6
:1014BA00AF6F010EB06F000EB26F630EB16F250EE3
:1014CA00B36F0F0EB46F210EB56F0F0EB66F000E0D
:1014DA00026E630E016E34EC0CF037EC0FF01DEC6B
:1014EA000FF0ACEC0FF08AEC0FF0849E88967C9E8D
:1014FA008096868486860E01B495B49780A688EF76
:10150A000AF08CEF0AF05A6A5A2A8DEF0AF05A6AE0
:10151A005A465A465A4680505A18F70B5A18806E3D
:10152A00B9EC0AF0B70E0C6E73EC0DF09F0E136E49
:10153A00B70E146E0DEC07F0B70E3F6E19EC0DF0F6
:10154A009F0E3F6E3EEC0EF0520E5B6E2B0E5A6EE5
:10155A00000EE82EFED75A2EFCD75B2EFAD700D003
:10156A0097EF0AF01CEF00F07FA2BEEF0AF0C2EF7D
:10157A000AF0016A012AC3EF0AF0016A01467F50A4
:10158A000118FD0B01187F6E79A8CEEF0AF0D2EF91
:10159A000AF0016A012AD3EF0AF0016A013A795086
:1015AA000118EF0B0118796E7EAEDEEF0AF0E2EF5A
:1015BA000AF0016A012AE3EF0AF0016A01320132F4
:1015CA007E5001187F0B01187E6E7FA0EFEF0AF0A4
:1015DA00F3EF0AF0016A012AF4EF0AF0016A7F5078
:1015EA000118FE0B01187F6E7DAEFEEF0AF002EFC6
:1015FA000BF0016A012A03EF0BF0016A0132013292
:10160A007D5001187F0B01187D6E79A60FEF0BF044
:10161A0013EF0BF0016A012A14EF0BF0016A01467D
:10162A000146014679500118F70B0118796E12002C
:10163A00000E066E04BE26EF0BF024EF0BF02CEF23
:10164A000BF0036C041ED8B0042A010E066E02BE0B
:10165A0033EF0BF031EF0BF039EF0BF0016C021E98
:10166A00D8B0022A010E061A000E086E000E076E86
:10167A0003500410D8B444EF0BF046EF0BF06EEFB2
:10168A000BF0010E056E4EEF0BF0D89003360436C0
:10169A00052A04AE53EF0BF055EF0BF04AEF0BF0AF
:1016AA00D890073608360350015C04500258D8A077
:1016BA0061EF0BF063EF0BF068EF0BF00350015E84
:1016CA000450025A0780D89004320332052E55EF8F
:1016DA000BF00650D8B474EF0BF076EF0BF07AEFFC
:1016EA000BF0076C081ED8B0082A07C001F008C022
:1016FA0002F012000350D8B485EF0BF087EF0BF01D
:10170A008FEF0BF00350D8A48DEF0BF08FEF0BF097
:10171A0094EF0BF00150F5EC0FF0DBEF0BF00350F8
:10172A00D96EDA6A0A0ED926DE50DE10D8B4A0EFD6
:10173A000BF0A2EF0BF0BBEF0BF00350D96EDA6A95
:10174A000A0ED9260350E16EE26A030EE126DE5044
:10175A00E65CE650800A086EDE50800A0858D8B067
:10176A00B9EF0BF0BBEF0BF0DBEF0BF00350D96EC8
:10177A00DA6A030ED926DECF04F0DDCF05F0035076
:10178A00D96EDA6ADECF06F0DDCF07F00450062400
:10179A00D96E05500720DA6E01C0DFFF0350D96EFB
:1017AA00DA6A030ED926DE2A000EDD221200000EA6
:1017BA00066E02BEE5EF0BF0E3EF0BF0EBEF0BF07A
:1017CA00016C021ED8B0022A010E066E04BEF2EFA8
:1017DA000BF0F0EF0BF0F6EF0BF0036C041ED8B031
:1017EA00042A03500410D8B4FDEF0BF0FFEF0BF0FE
:1017FA0023EF0CF0010E056E07EF0CF0D8900336BC
:10180A000436052A04AE0CEF0CF00EEF0CF003EFD1
:10181A000CF00350015C04500258D8A017EF0CF0EA
:10182A0019EF0CF01DEF0CF00350015E0450025A40
:10183A00D89004320332052E0EEF0CF00650D8B4BD
:10184A0029EF0CF02BEF0CF02FEF0CF0016C021EBD
:10185A00D8B0022A01C001F002C002F01200859439
:10186A008598839E879C7D947D987B9E7F9C050EA0
:10187A000E01746F060E766F070E696F080E886F79
:10188A00BD508F0B4009BD6EE00EBE16BF50F00B67
:10189A000109BF6E01C0BCFFBD8E000EAA6E000E0C
:1018AA00A66E000E0F01256F000E216FFC0EAD16FD
:1018BA00F30EAD16CF0EAD163F0EAD16AB88AB507C
:1018CA00F00B0C09AB6EAB8EA788A750F00B0C0976
:1018DA00A76EA78E26892651F00B0C09266F268F34
:1018EA0022892251F00B0C09226F228F1200000E5E
:1018FA000C6E000E0B6E09500A10D8B487EF0CF06C
:10190A0089EF0CF0B1EF0CF0010E0D6E91EF0CF0B7
:10191A00D89009360A360D2A0AAE96EF0CF098EFDF
:10192A000CF08DEF0CF0D8900B360C360950075C92
:10193A000A500858D8A0A4EF0CF0A6EF0CF0ABEFB1
:10194A000CF00950075E0A50085A0B80D8900A32E8
:10195A0009320D2E98EF0CF00BC007F00CC008F0FE
:10196A00120010501110D8B4BDEF0CF0BFEF0CF0FC
:10197A00E3EF0CF0010E126EC7EF0CF0D8901036A0
:10198A001136122A11AECCEF0CF0CEEF0CF0C3EFE9
:10199A000CF010500E5C11500F58D8A0D7EF0CF075
:1019AA00D9EF0CF0DDEF0CF010500E5E11500F5A0B
:1019BA00D89011321032122ECEEF0CF00EC00EF06B
:1019CA000FC00FF01200FFEF0CF002C0F6FF03C0C9
:1019DA00F7FF000EF86E0D0EF76403D00800F550FD
:1019EA0005D0F6CFE9FFF7CFEAFFEF50C8EC0FF0CA
:1019FA00024A032A02C0F6FF03C0F7FF000EF86E80
:101A0A000D0EF76403D00800F55005D0F6CFE9FFB4
:101A1A00F7CFEAFFEF500009D8A416EF0DF018EF40
:101A2A000DF0EAEF0CF01200400E256E266A010E48
:101A3A00276E3F50D96EDA6ADECF28F0DDCF29F063
:101A4A003F50D96EDA6A020ED926DECF2AF0DDCFF0
:101A5A002BF03F50D96EDA6A040ED926DECF2CF06D
:101A6A00DDCF2DF03F50D96EDA6A060ED926DECFC9
:101A7A002EF0DDCF2FF064EC0EF0400E026E036AFA
:101A8A00E8EC0CF0120022C024F0000E0001956F61
:101A9A00000E946F5EEF0DF021C013F0240E146E49
:101AAA0023C015F0A5EC08F0135000019427145038
:101ABA00952324C0F6FF0E0EF76E000EF86E08008E
:101ACA00F5500009D8A46CEF0DF06EEF0DF051EF50
:101ADA000DF094C021F095C022F012009EEC0DF09A
:101AEA000C50D96EDA6A05C0DEFF06C0DDFF16ECBF
:101AFA000EF00C50D96EDA6A040ED92605C0DEFF44
:101B0A0006C0DDFFC6EC0DF00C50D96EDA6A020E83
:101B1A00D92605C0DEFF06C0DDFFEEEC0DF00C5045
:101B2A00D96EDA6A060ED92605C0DEFF06C0DDFFC9
:101B3A001200F0EC0FF0520ED4EC0FF0B60ED4EC0B
:101B4A000FF0E6EC0FF0530ED4EC0FF0010EAEECF2
:101B5A000EF0076E07500A6E0B6A000EAEEC0EF01E
:101B6A00076E0750096E086A0A5008100A6E0B5071
:101B7A0009100B6EEBEC0FF00AC005F00BC006F073
:101B8A001200F0EC0FF0520ED4EC0FF0B80ED4ECB9
:101B9A000FF0E6EC0FF0530ED4EC0FF0010EAEECA2
:101BAA000EF0076E07500A6E0B6A000EAEEC0EF0CE
:101BBA00076E0750096E086A0A5008100A6E0B5021
:101BCA0009100B6EEBEC0FF00AC005F00BC006F023
:101BDA001200F0EC0FF0520ED4EC0FF0B40ED4EC6D
:101BEA000FF0E6EC0FF0530ED4EC0FF0010EAEEC52
:101BFA000EF0076E07500A6E0B6A000EAEEC0EF07E
:101C0A00076E0750096E086A0A5008100A6E0B50D0
:101C1A0009100B6EEBEC0FF00AC005F00BC006F0D2
:101C2A001200F0EC0FF0520ED4EC0FF0BA0ED4EC16
:101C3A000FF0E6EC0FF0530ED4EC0FF0010EAEEC01
:101C4A000EF0076E07500A6E0B6A000EAEEC0EF02D
:101C5A00076E0750096E086A0A5008100A6E0B5080
:101C6A0009100B6EEBEC0FF00AC005F00BC006F082
:101C7A001200400E256E266A040E276E3F50D96E5A
:101C8A00DA6ADECF28F0DDCF29F03F50D96EDA6A62
:101C9A00020ED926DECF2AF0DDCF2BF03F50D96EC7
:101CAA00DA6A040ED926DECF2CF0DDCF2DF064ECF3
:101CBA000EF0400E026E036AE8EC0CF01200280ED9
:101CCA00326E25C033F026C034F0000E376E000E97
:101CDA00366E000E3E6E000E3D6E330E216E27C02C
:101CEA0022F0320E236E48EC0DF021C030F022C0F3
:101CFA0031F036502524D96E37502620DA6EDF6A45
:101D0A0030C025F031C026F01200760EF66E1F0E96
:101D1A00F76E000EF86E00EEBFF010EE1AF0090032
:101D2A00F5CFEEFFE550E150FAE101EE00F0780E52
:101D3A00EE6AE806FDE100EE60F03F0EEE6AE806A4
:101D4A00FDE15E6A5D6A5C6A5F905F9200012BEF5B
:101D5A000AF0036E63EC0FF00E01DA8763EC0FF002
:101D6A00D5CE04F063EC0FF00350D8B4BFEF0EF0F9
:101D7A00C3EF0EF0026A022AC4EF0EF0026A023AB8
:101D8A0002460E01DA510218DF0B0218DA6FDA89FD
:101D9A000450120008BED4EF0EF0D6EF0EF0DCEFBE
:101DAA000EF007C007F008C008F0E8EF0EF007C011
:101DBA0009F008C00AF0091E0A1E094A0A2A09C0BF
:101DCA0007F00AC008F012000350015C04500258E0
:101DDA00D8B0F2EF0EF0F4EF0EF0FAEF0EF001C009
:101DEA0005F002C006F0FEEF0EF003C005F004C0D5
:101DFA0006F005C001F006C002F012000150035CB3
:101E0A0002500458D8B00CEF0FF00EEF0FF014EF99
:101E1A000FF001C005F002C006F018EF0FF003C082
:101E2A0005F004C006F005C001F006C002F0120079
:101E3A004EEC0FF0010E036E000E9CEC0FF03F0EFD
:101E4A00056E550EE82EFED7052EFCD70000030EB0
:101E5A00036E000E9CEC0FF0D50E036E010E9CEC87
:101E6A000FF01200849888928496869088907C98C5
:101E7A0080927C967E90809087928198869E7F92AF
:101E8A0079987E9E8790859E81967F907D9E799691
:101E9A0012000E01D951F00B0809D96FD98B9F0E88
:101EAA00D66F848A848CA79BA79D1D0E1D6F1E0E5C
:101EBA001C6F1C0E6F6F1B0E706F12000E01D8B5CF
:101ECA0069EF0FF06BEF0FF063EF0FF0DACE01F06E
:101EDA001F0E0116D8A474EF0FF076EF0FF063EF20
:101EEA000FF0120001500302F3CF05F0F4CF06F011
:101EFA0001500402F350062602500302F35006264C
:101F0A0005C001F006C002F01200D6501F0B4009AE
:101F1A00D66ED688D588D650F00B0E09D66EDAEC76
:101F2A000FF0D58E0E01298BF28CF28E1200046E00
:101F3A00F0EC0FF0520ED4EC0FF004508009D4EC00
:101F4A000FF00350D4EC0FF0EBEC0FF01200120E6E
:101F5A000E01626F110E156FE997E895330EE56F62
:101F6A00000EE66FE789E88BE78F12003C0150010B
:101F7A0064012C014600FE012C012C01AF00AF00C8
:101F8A002C012A141408016E0E0137A5CFEF0FF0A9
:101F9A00D1EF0FF0C9EF0FF001C0E4FE1200026E9C
:101FAA0063EC0FF002C0D5FE1200000E016E000EA7
:101FBA00E0EC0FF01200026E02C0D4FF01C0D3FFA2
:101FCA00120063EC0FF00E01DA83120063EC0FF0DB
:101FDA000E01DA85120063EC0FF00E01DA811200AD
:021FEA001200E3
:020000040020DA
:10000000FFFFFFFFFFFFFFFFFFFFFFFFFFFFFFFF00
:020000040030CA
:0C000000AAFFFFFF9FFFFFFFFFFFFFFFB5
:00000001FF
