:040000001AEF00F003
:100008005E820E0133AB0BEF00F00DEF00F018EF3E
:1000180000F05550D8B413EF00F015EF00F017EFCB
:1000280000F0010E546E339B5E921100B7EF09F099
:100E0000002564202564202564202564200D00250C
:100E100064200000000E116E000E106E0C50D96E92
:100E2000DA6ADFCFF6FF0E0EF76E000EF86E0800DE
:100E3000F550250AD8A41FEF07F021EF07F0EBEFDC
:100E400007F00C50D96EDA6ADF2A000E0001976FA6
:100E5000000E966F96C09AF0986999690C50D96EF9
:100E6000DA6ADF50126E12C0F6FF0E0EF76E000E39
:100E7000F86E0800F550640AD8B441EF07F043EF6C
:100E800007F053EF07F012C0F6FF0E0EF76E000EDC
:100E9000F86E0800F550690AD8A451EF07F053EF37
:100EA00007F0E1EF07F00D50D96EDA6A020EDF2687
:100EB000DF5CD96EDA6ADECF13F0DECF14F00C50AF
:100EC000D96EDA6A1228DF6E200E176E14BE6BEF31
:100ED00007F06EEF07F0010E6FEF07F0000E0F6ED8
:100EE00017061750600FD96EDA6A13C001F014C0EC
:100EF00002F0000E046E0A0E036EC4EC08F001C08E
:100F000007F002C008F09BEC0BF00750300FDF6ECB
:100F100013C001F014C002F0000E046E0A0E036E3E
:100F200005EC08F001C013F002C014F0104A112AB9
:100F300013501410D8B49FEF07F0A1EF07F0A9EFFA
:100F400007F01750D8A4A7EF07F0A9EF07F070EF4C
:100F500007F01750D8B4AFEF07F0B1EF07F0D2EFBA
:100F600007F00F50D8B4B7EF07F0B9EF07F0D2EFA2
:100F700007F017061750600FD96EDA6A2D0EDF6E74
:100F8000104A112AD2EF07F01750600FD96EDA6AB3
:100F9000DF500E6E0E50016E026A0BC003F067EC5C
:100FA00008F0172A200E1718D8A4D9EF07F0DBEFA6
:100FB00007F0C4EF07F010C00BF011C00CF004EF05
:100FC00008F00C50D96EDA6ADF2A000E0C6E000EA3
:100FD0000B6E04EF08F00C50D96EDA6ADFCFF6FF23
:100FE0000E0EF76E000EF86E0800F550016E026AE4
:100FF0000BC003F067EC08F00C50D96EDA6ADF2AF8
:10100000000E0C6E010E0B6E1200000E066E04BE7A
:101010000EEF08F00CEF08F014EF08F0036C041E5C
:10102000D8B0042A010E066E02BE1BEF08F019EFBD
:1010300008F021EF08F0016C021ED8B0022A010E60
:10104000061A000E086E000E076E03500410D8B486
:101050002CEF08F02EEF08F056EF08F0010E056EA9
:1010600036EF08F0D89003360436052A04AE3BEF7D
:1010700008F03DEF08F032EF08F0D8900736083658
:101080000350015C04500258D8A049EF08F04BEF20
:1010900008F050EF08F00350015E0450025A078038
:1010A000D89004320332052E3DEF08F00650D8B434
:1010B0005CEF08F05EEF08F062EF08F0076C081EC6
:1010C000D8B0082A07C001F008C002F0120003508F
:1010D000D8B46DEF08F06FEF08F077EF08F0035029
:1010E000D8A475EF08F077EF08F07CEF08F0015016
:1010F00083EC0CF0C3EF08F00350D96EDA6A0A0EE5
:10110000D926DE50DE10D8B488EF08F08AEF08F058
:10111000A3EF08F00350D96EDA6A0A0ED9260350FD
:10112000E16EE26A030EE126DE50E65CE650800ADC
:10113000086EDE50800A0858D8B0A1EF08F0A3EF7F
:1011400008F0C3EF08F00350D96EDA6A030ED9260F
:10115000DECF04F0DDCF05F00350D96EDA6ADECFC2
:1011600006F0DDCF07F004500624D96E05500720A5
:10117000DA6E01C0DFFF0350D96EDA6A030ED9269A
:10118000DE2A000EDD221200000E066E02BECDEF3A
:1011900008F0CBEF08F0D3EF08F0016C021ED8B0D6
:1011A000022A010E066E04BEDAEF08F0D8EF08F04E
:1011B000DEEF08F0036C041ED8B0042A03500410BC
:1011C000D8B4E5EF08F0E7EF08F00BEF09F0010EF7
:1011D000056EEFEF08F0D89003360436052A04AE0A
:1011E000F4EF08F0F6EF08F0EBEF08F00350015CC5
:1011F00004500258D8A0FFEF08F001EF09F005EF06
:1012000009F00350015E0450025AD89004320332B0
:10121000052EF6EF08F00650D8B411EF09F013EFE1
:1012200009F017EF09F0016C021ED8B0022A01C0C4
:1012300001F002C002F01200000E416E010E426E7B
:10124000010E436E000E456E630E446EAA0E466E8E
:101250000F0E476EA60E486E0F0E496E000E4A6EB8
:10126000010E4B6E010E4C6E000E4E6E630E4D6EF7
:10127000250E4F6E0F0E506E210E516E0F0E526ED8
:10128000000E026E630E016E6FEC09F0CFEC0BF0F6
:10129000B5EC0BF031EC0CF00FEC0CF0849E889662
:1012A0007C8E8086868486860E01B495B497390E2E
:1012B0000C6E89EC0AF0390E366E2FEC0AF0110E26
:1012C000386E3C0E376ECB0EE82EFED7372EFCD78D
:1012D000382EFAD7000057EF09F01AEF00F0859486
:1012E0008598839E879C7D947D987B9E7F9C050E30
:1012F0000E01746F060E766F070E696F080E886F09
:10130000BD508F0B4009BD6EE00EBE16BF50F00BF6
:101310000109BF6E01C0BCFFBD8E000EAA6E000E9B
:10132000A66E000E0F01256F000E216FFC0EAD168C
:10133000F30EAD16CF0EAD163F0EAD16AB88AB500B
:10134000F00B0C09AB6EAB8EA788A750F00B0C0905
:10135000A76EA78E26892651F00B0C09266F268FC3
:1013600022892251F00B0C09226F228F1200AC0E41
:10137000F66E180EF76E000EF86E01EE64F010EEC9
:1013800014F00900F5CFEEFFE550E150FAE1980EB8
:10139000F66E180EF76E000EF86E00EEC4F010EE4A
:1013A00014F00900F5CFEEFFE550E150FAE1020E2E
:1013B000F66E190EF76E000EF86E00EE5AF010EE93
:1013C00004F00900F5CFEEFFE550E150FAE101EE3F
:1013D00000F0640EEE6AE806FDE100EE60F03B0E00
:1013E000EE6AE806FDE100EE53F0070EEE6AE8064D
:1013F000FDE15E905E9200011CEF09F015EF0AF02E
:1014000002C0F6FF03C0F7FF000EF86E0D0EF76482
:1014100003D00800F55005D0F6CFE9FFF7CFEAFF7B
:10142000EF5040EC0CF0024A032A02C0F6FF03C062
:10143000F7FF000EF86E0D0EF76403D00800F550AC
:1014400005D0F6CFE9FFF7CFEAFFEF500009D8A4A7
:101450002CEF0AF02EEF0AF000EF0AF012009B0EBC
:101460001C6E1D6A010E1E6E3650D96EDA6ADECF12
:101470001FF0DDCF20F03650D96EDA6A020ED92681
:10148000DECF21F0DDCF22F03650D96EDA6A040EBD
:10149000D926DECF23F0DDCF24F03650D96EDA6ABC
:1014A000060ED926DECF25F0DDCF26F054EC0BF06A
:1014B0009B0E026E036AFEEC09F0120019C01BF0CD
:1014C000000E0001956F000E946F74EF0AF018C0C3
:1014D0000BF01B0E0C6E1AC00DF00AEC07F00B504F
:1014E000000194270C5095231BC0F6FF0E0EF76EDB
:1014F000000EF86E0800F5500009D8A482EF0AF03B
:1015000084EF0AF067EF0AF094C018F095C019F064
:101510001200B4EC0AF00C50D96EDA6A05C0DEFF96
:1015200006C0DDFF2CEC0BF00C50D96EDA6A040E0D
:10153000D92605C0DEFF06C0DDFFDCEC0AF00C504A
:10154000D96EDA6A020ED92605C0DEFF06C0DDFFBD
:1015500004EC0BF00C50D96EDA6A060ED92605C0E1
:10156000DEFF06C0DDFF12007CEC0CF0520E60ECDA
:101570000CF0B60E60EC0CF072EC0CF0530E60EC5C
:101580000CF0010E7AEC0BF0076E07500A6E0B6A36
:10159000000E7AEC0BF0076E0750096E086A0A50CD
:1015A00008100A6E0B5009100B6E77EC0CF00AC095
:1015B00005F00BC006F012007CEC0CF0520E60EC53
:1015C0000CF0B80E60EC0CF072EC0CF0530E60EC0A
:1015D0000CF0010E7AEC0BF0076E07500A6E0B6AE6
:1015E000000E7AEC0BF0076E0750096E086A0A507D
:1015F00008100A6E0B5009100B6E77EC0CF00AC045
:1016000005F00BC006F012007CEC0CF0520E60EC02
:101610000CF0B40E60EC0CF072EC0CF0530E60ECBD
:101620000CF0010E7AEC0BF0076E07500A6E0B6A95
:10163000000E7AEC0BF0076E0750096E086A0A502C
:1016400008100A6E0B5009100B6E77EC0CF00AC0F4
:1016500005F00BC006F012007CEC0CF0520E60ECB2
:101660000CF0BA0E60EC0CF072EC0CF0530E60EC67
:101670000CF0010E7AEC0BF0076E07500A6E0B6A45
:10168000000E7AEC0BF0076E0750096E086A0A50DC
:1016900008100A6E0B5009100B6E77EC0CF00AC0A4
:1016A00005F00BC006F012001F0E296E1CC02AF0B8
:1016B0001DC02BF0000E2E6E000E2D6E000E356E2E
:1016C000000E346E2A0E186E1EC019F0290E1A6E06
:1016D0005EEC0AF018C027F019C028F02D501C2429
:1016E000D96E2E501D20DA6EDF6A27C01CF028C08C
:1016F0001DF01200036EFBEC0BF00E01DA87FBEC21
:101700000BF0D5CE04F0FBEC0BF00350D8B48BEF0C
:101710000BF08FEF0BF0026A022A90EF0BF0026AD7
:10172000023A02460E01DA510218DF0B0218DA6F94
:10173000DA890450120008BEA0EF0BF0A2EF0BF004
:10174000A8EF0BF007C007F008C008F0B4EF0BF0EB
:1017500007C009F008C00AF0091E0A1E094A0A2A31
:1017600009C007F00AC008F01200E6EC0BF0010E09
:10177000036E000E21EC0CF03F0E056E550EE82EA8
:10178000FED7052EFCD70000030E036E000E21ECE1
:101790000CF0D50E036E010E21EC0CF012008498B3
:1017A00088928496869088907C9880927C967E9091
:1017B000809087928198869E7F9279987E9E87906E
:1017C000859E81967F907D9E799612000E01D9515B
:1017D000F00B0809D96FD98B9F0ED66F848A848C41
:1017E000A79BA79D1D0E1D6F1E0E1C6F1C0E6F6FFD
:1017F0001B0E706F12000E01D8B501EF0CF003EF55
:101800000CF0FBEF0BF0DACE01F01F0E0116D8A49E
:101810000CEF0CF00EEF0CF0FBEF0BF01200D650BB
:101820001F0B4009D66ED688D588D650F00B0E090E
:10183000D66E66EC0CF0D58E0E01298BF28CF28EF2
:101840001200046E7CEC0CF0520E60EC0CF00450B4
:10185000800960EC0CF0035060EC0CF077EC0CF0BD
:101860001200120E0E01626F110E156FE997E895C6
:10187000330EE56F000EE66FE789E88BE78F120005
:10188000016E0E0137A547EF0CF049EF0CF041EF68
:101890000CF001C0E4FE12003C0150012C01460096
:1018A000FE012C012C01AF00AF002A140306030631
:1018B00003060306030603060306030603060306E0
:1018C000026EFBEC0BF002C0D5FE1200000E016EA2
:1018D000000E6CEC0CF01200026E02C0D4FF01C0CE
:1018E000D3FF1200FBEC0BF00E01DA831200FBECCD
:1018F0000BF00E01DA851200FBEC0BF00E01DA8121
:0819000012006401140812003A
:020000040020DA
:10000000FFFFFFFFFFFFFFFFFFFFFFFFFFFFFFFF00
:020000040030CA
:0C000000AAFFFFFF9FFFFFFFFFFFFFFFB5
:00000001FF
