:0400000023EF00F0FA
:100008004D820E0133AB0BEF00F00DEF00F021EF46
:1000180000F080A612EF00F016EF00F0016A012A46
:1000280017EF00F0016A01460146014680500118A9
:10003800F70B0118806E0E01339B4D92110065EF8E
:020048000AF0BC
:100E0000002564200D0025640000000E126E000E07
:100E1000116E0D50D96EDA6ADFCFF6FF0E0EF76E47
:100E2000000EF86E0800F550250AD8A41AEF07F056
:100E30001CEF07F0E6EF07F00D50D96EDA6ADF2AF3
:100E4000000E0001BF6F000EBE6FBEC0C2F0C069D1
:100E5000C1690D50D96EDA6ADF50136E13C0F6FF08
:100E60000E0EF76E000EF86E0800F550640AD8B446
:100E70003CEF07F03EEF07F04EEF07F013C0F6FF30
:100E80000E0EF76E000EF86E0800F550690AD8A431
:100E90004CEF07F04EEF07F0DCEF07F00E50D96E85
:100EA000DA6A020EDF26DF5CD96EDA6ADECF14F072
:100EB000DECF15F00D50D96EDA6A1328DF6E200EE2
:100EC000186E15BE66EF07F069EF07F0010E6AEFC6
:100ED00007F0000E106E18061850600FD96EDA6A0F
:100EE00014C002F015C003F0000E056E0A0E046E69
:100EF000BAEC08F002C008F003C009F0A9EC0AF04F
:100F00000850300FDF6E14C002F015C003F0000E61
:100F1000056E0A0E046E00EC08F002C014F003C067
:100F200015F0114A122A14501510D8B49AEF07F090
:100F30009CEF07F0A4EF07F01850D8A4A2EF07F039
:100F4000A4EF07F06BEF07F01850D8B4AAEF07F042
:100F5000ACEF07F0CDEF07F01050D8B4B2EF07F0C8
:100F6000B4EF07F0CDEF07F018061850600FD96EF8
:100F7000DA6A2D0EDF6E114A122ACDEF07F01850F3
:100F8000600FD96EDA6ADF500F6E0F50026E036A7F
:100F90000CC004F012EC09F0182A200E1818D8A47E
:100FA000D4EF07F0D6EF07F0BFEF07F011C00CF059
:100FB00012C00DF0FFEF07F00D50D96EDA6ADF2A8C
:100FC000000E0D6E000E0C6EFFEF07F00D50D96E87
:100FD000DA6ADFCFF6FF0E0EF76E000EF86E08002D
:100FE000F550026E036A0CC004F012EC09F00D50CB
:100FF000D96EDA6ADF2A000E0D6E010E0C6E120039
:10100000000E076E05BE09EF08F007EF08F00FEFBE
:1010100008F0046C051ED8B0052A010E076E03BE49
:1010200016EF08F014EF08F01CEF08F0026C031E36
:10103000D8B0032A010E071A000E096E000E086EC2
:1010400004500510D8B427EF08F029EF08F051EF4D
:1010500008F0010E066E31EF08F0D8900436053620
:10106000062A05AE36EF08F038EF08F02DEF08F04D
:10107000D890083609360450025C05500358D8A0B1
:1010800044EF08F046EF08F04BEF08F00450025E22
:101090000550035A0880D89005320432062E38EFE6
:1010A00008F00750D8B457EF08F059EF08F05DEF9B
:1010B00008F0086C091ED8B0092A08C002F009C05F
:1010C00003F01200520E4B6E2B0E4A6E000EE82EED
:1010D000FED74A2EFCD74B2EFAD700D0000E036E57
:1010E000630E026E67EC09F0000E0001EE6F010E58
:1010F000EF6F010EF06F000EF26F630EF16FAA0E2C
:10110000F36F0F0EF46FA60EF56F0F0EF66F000E55
:10111000F76F010EF86F010EF96F000EFB6F630E93
:10112000FA6F250EFC6F0F0EFD6F210EFE6F0F0E76
:10113000FF6F3EEC0AF0C3EC0AF03EEC0BF006EC5D
:101140000BF0868486860E01B495B497DA0E306E65
:10115000AFEC09F0520E4B6E2B0E4A6E000EE82ECD
:10116000FED74A2EFCD74B2EFAD700D0A6EF08F0B8
:1011700023EF00F0000E076E03BEC3EF08F0C1EFCF
:1011800008F0C9EF08F0026C031ED8B0032A010E64
:10119000076E05BED0EF08F0CEEF08F0D4EF08F0F0
:1011A000046C051ED8B0052A04500510D8B4DBEF36
:1011B00008F0DDEF08F001EF09F0010E066EE5EF33
:1011C00008F0D89004360536062A05AEEAEF08F096
:1011D000ECEF08F0E1EF08F00450025C0550035812
:1011E000D8A0F5EF08F0F7EF08F0FBEF08F0045097
:1011F000025E0550035AD89005320432062EECEFF9
:1012000008F00750D8B407EF09F009EF09F00DEF27
:1012100009F0026C031ED8B0032A02C002F003C01A
:1012200003F012000450D8B418EF09F01AEF09F0D7
:1012300022EF09F00450D8A420EF09F022EF09F0C2
:1012400027EF09F0025069EC0BF066EF09F004504B
:10125000D96EDA6A0A0ED926DE50DE10D8B433EF22
:1012600009F035EF09F04EEF09F00450D96EDA6A53
:101270000A0ED9260450E16EE26A030EE126DE5022
:10128000E65CE650800A096EDE50800A0958D8B044
:101290004CEF09F04EEF09F066EF09F00450D96EFB
:1012A000DA6A030ED926DF50056E0450D96EDA6A69
:1012B000DF500524D96EDA6A02C0DFFF0450D96E10
:1012C000DA6A030ED926DE2A000EDD22120085948A
:1012D0008598839E879C7D947D987B9E7F9C050E40
:1012E0000E01746F060E766F070E696F080E886F19
:1012F000BD508F0B4009BD6EE00EBE16BF50F00B07
:101300000109BF6E02C0BCFFBD8E000EAA6E000EAA
:10131000A66E000E0F01256F000E216FFC0EAD169C
:10132000F30EAD16CF0EAD163F0EAD16AB88AB501B
:10133000F00B0C09AB6EAB8EA788A750F00B0C0915
:10134000A76EA78E26892651F00B0C09266F268FD3
:1013500022892251F00B0C09226F228F1200000EFD
:10136000476E000E496E000E486E4750320F1D6EDC
:10137000060E1E6E30504824D96EDA6ADF50316E88
:1013800031501F6E206A87EC0AF01D504726484AEC
:10139000492A495009E1140E485CD8A0D2EF09F05F
:1013A000D4EF09F0B5EF09F0320E036E046AE2ECF7
:1013B00009F0030E036E0350D8A40E0E046EE2EC87
:1013C00009F01200F9EF09F003C0F6FF04C0F7FFBF
:1013D000000EF86E0D0EF76403D00800F55005D02E
:1013E000F6CFE9FFF7CFEAFFEF504DEC0BF0034AE1
:1013F000042A03C0F6FF04C0F7FF000EF86E0D0EBE
:10140000F76403D00800F55005D0F6CFE9FFF7CF19
:10141000EAFFEF500009D8A410EF0AF012EF0AF02B
:10142000E4EF09F012001AC01CF0000E0001BD6FBD
:10143000000EBC6F29EF0AF019C00CF01C0E0D6EE7
:101440001BC00EF005EC07F00C500001BC270D503E
:10145000BD231CC0F6FF0E0EF76E000EF86E0800DE
:10146000F5500009D8A437EF0AF039EF0AF01CEF65
:101470000AF0BCC019F0BDC01AF01200849888921E
:101480008496869088907C8880827C867E8080800E
:10149000849E88967C8E80868190839484907980C7
:1014A0007B847C808192839C889479827B8C8084ED
:1014B00087928198869E7F8279887E8E8790859E8E
:1014C00081967F807D8E79861200340EF66E160E20
:1014D000F76E000EF86E00EEC7F010EE27F0090070
:1014E000F5CFEEFFE550E150FAE101EE00F03C0EE1
:1014F000EE6AE806FDE100EE60F0670EEE6AE806CF
:10150000FDE14C6A4D904D92000162EF08F01F0E14
:10151000236E1DC024F0000E286E000E276E000EF4
:101520002F6E000E2E6E240E196E1EC01AF0230EA2
:101530001B6E13EC0AF019C021F01AC022F01D50E6
:101540002724D96EDA6ADF6A21C01DF022C01EF09E
:10155000120009BEAEEF0AF0B0EF0AF0B6EF0AF0E3
:1015600008C008F009C009F0C2EF0AF008C00AF08C
:1015700009C00BF00A1E0B1E0A4A0B2A0AC008F00B
:101580000BC009F01200DDEC0AF0010E046E000E33
:101590002EEC0BF03F0E066E550EE82EFED7062EF3
:1015A000FCD70000030E046E000E2EEC0BF0D50EDF
:1015B000046E010E2EEC0BF012000E01D951F00B4F
:1015C0000809D96FD98B9F0ED66F848A848CA79B0C
:1015D000A79D1D0E1D6F1E0E1C6F1C0E6F6F1B0E28
:1015E000706F12000E01D8B5F8EF0AF0FAEF0AF0AA
:1015F000F2EF0AF0DACE02F01F0E0216D8A403EFC3
:101600000BF005EF0BF0F2EF0AF01200D6501F0BB3
:101610004009D66ED688D588D650F00B0E09D66E06
:10162000000ED46E000ED36ED58E0E01298BF28C77
:10163000F28E12002C014600FE012C012C01AF009D
:10164000AF00DA2A201E0801020304050607080974
:0B165000000102030405060708090062
:10165C00056E64EC0BF0520E59EC0BF00550800942
:10166C0059EC0BF0045059EC0BF05FEC0BF0120042
:10167C00120E0E01626F110E156FE997E895330E7D
:10168C00E56F000EE66FE789E88BE78F1200026EBC
:10169C000E0137A554EF0BF056EF0BF04EEF0BF09D
:1016AC0002C0E4FE1200036EF2EC0AF003C0D5FE99
:1016BC001200F2EC0AF00E01DA851200F2EC0AF0DC
:0816CC000E01DA811200120088
:020000040020DA
:10000000FFFFFFFFFFFFFFFFFFFFFFFFFFFFFFFF00
:020000040030CA
:0C000000AAFFFFFF9FFFFFFFFFFFFFFFB5
:00000001FF
