:040000001EEF00F0FF
:100008005E820E0133AB0BEF00F00DEF00F01CEF3A
:1000180000F05D50D8B413EF00F015EF00F019EFC1
:1000280000F0010E5C6E1BEF00F0010E5B6E339B5F
:080038005E92110093EF19F034
:100E0000002575202575202575202575200D0025C8
:090E100064200D0025642000009F
:100E1A00000E1F6E000E1E6E000E3D6E3C0E3C6EE6
:100E2A00000E196E640E186E0FC001F0E2EC17F096
:100E3A0001C03EF002C03FF00FC001F0A4EC17F071
:100E4A0001C01AF002C01BF01A503E5C406E1B50E3
:100E5A003F58416E40504110D8A436EF07F038EFA2
:100E6A0007F03EEF07F0000E1F6E000E1E6E0EEF2B
:100E7A000AF00F50D96EDA6A3E50DE1807E13F5089
:100E8A00DE18D8A44BEF07F04DEF07F03AEF08F061
:100E9A000F50D96EDA6A040ED9260F50E16EE26A53
:100EAA00020EE126DE50E65CDE50E658D8A060EF7E
:100EBA0007F062EF07F0C2EF07F0000E246E000E93
:100ECA00256E000E266E000E276E0F50D96EDA6A56
:100EDA00040ED926DECF10F0DDCF11F00F50D96EF7
:100EEA00DA6A020ED926DECF12F0DDCF13F01050E7
:100EFA00125C146E11501358156E14502426155096
:100F0A002522000E2622000E272224C001F025C029
:100F1A0002F026C003F027C004F03C0E056E000E56
:100F2A00066E000E076E000E086E5AEC18F001C02D
:100F3A0024F002C025F003C026F004C027F024C024
:100F4A0001F025C002F026C003F027C004F040C01B
:100F5A0005F041C006F0076A086AF2EC15F001C014
:100F6A0024F002C025F003C026F004C027F024C0F4
:100F7A001EF025C01FF03AEF08F040C038F041C01B
:100F8A0039F03A6A3B6A38C001F039C002F03AC017
:100F9A0003F03BC004F0060E056E000E066E000E4E
:100FAA00076E000E086E5AEC18F001C038F002C045
:100FBA0039F003C03AF004C03BF00F50D96EDA6A38
:100FCA00020ED926DECF10F0DDCF11F00F50D96E08
:100FDA00DA6A040ED926DECF12F0DDCF13F01050F4
:100FEA00125C146E11501358156E166A176A145053
:100FFA00385E1550395A16503A5A17503B5A38C06B
:10100A0001F039C002F03AC003F03BC004F03C0ED4
:10101A00056E000E066E000E076E000E086E5AEC84
:10102A0018F001C038F002C039F003C03AF004C029
:10103A003BF038C001F039C002F03AC003F03BC0BF
:10104A0004F040C005F041C006F0076A086AF2ECF5
:10105A0015F001C038F002C039F003C03AF004C0FC
:10106A003BF038C01EF039C01FF00F50D96EDA6A53
:10107A00020ED9263E50DE1807E13F50DE18D8A4EA
:10108A0049EF08F04BEF08F020EF09F00F50D96E46
:10109A00DA6A0F50E16EE26A040EE126DE50E65C7F
:1010AA00DE50E658D8A05CEF08F05EEF08F0BFEF1C
:1010BA0008F040C028F041C029F02A6A2B6AD8906B
:1010CA00283629362A362B360F50D96EDA6ADECF01
:1010DA0010F0DDCF11F00F50D96EDA6A040ED9265E
:1010EA00DECF12F0DDCF13F01050125C146E1150E7
:1010FA001358156E1450282615502922000E2A223C
:10110A00000E2B2228C001F029C002F02AC003F0E9
:10111A002BC004F03C0E056E000E066E000E076E24
:10112A00000E086E5AEC18F001C028F002C029F02F
:10113A0003C02AF004C02BF028C001F029C002F035
:10114A002AC003F02BC004F040C005F041C006F0ED
:10115A00076A086AF2EC15F001C028F002C029F00B
:10116A0003C02AF004C02BF028C01EF029C01FF0CB
:10117A0020EF09F040C02CF041C02DF02E6A2F6AF2
:10118A00D8902C362D362E362F360F50D96EDA6A75
:10119A00040ED926DECF10F0DDCF11F00F50D96E34
:1011AA00DA6ADECF12F0DDCF13F01050125C146E43
:1011BA0011501358156E166A176A14502C5E155082
:1011CA002D5A16502E5A17502F5A2CC001F02DC0E6
:1011DA0002F02EC003F02FC004F03C0E056E000E84
:1011EA00066E000E076E000E086E5AEC18F001C06B
:1011FA002CF002C02DF003C02EF004C02FF02CC03A
:10120A0001F02DC002F02EC003F02FC004F040C040
:10121A0005F041C006F0076A086AF2EC15F001C051
:10122A002CF002C02DF003C02EF004C02FF02CC009
:10123A001EF02DC01FF00F50D96EDA6A040ED9269F
:10124A003E50DE1807E13F50DE18D8A42FEF09F010
:10125A0031EF09F00EEF0AF00F50D96EDA6A020E7A
:10126A00D9260F50E16EE26ADE50E65CDE50E6589F
:10127A00D8A042EF09F044EF09F0A9EF09F040C005
:10128A0030F041C031F0326A336A020ED8903036FB
:10129A00313632363336E82E4BEF09F00F50D96E1D
:1012AA00DA6A020ED926DECF10F0DDCF11F00F5028
:1012BA00D96EDA6ADECF12F0DDCF13F01050125C6D
:1012CA00146E11501358156E1450302615503122D1
:1012DA00000E3222000E332230C001F031C002F07B
:1012EA0032C003F033C004F03C0E056E000E066EE9
:1012FA00000E076E000E086E5AEC18F001C030F0AE
:10130A0002C031F003C032F004C033F030C001F043
:10131A0031C002F032C003F033C004F040C005F01F
:10132A0041C006F0076A086AF2EC15F001C030F015
:10133A0002C031F003C032F004C033F030C01EF0F6
:10134A0031C01FF00EEF0AF040C034F041C035F052
:10135A00366A376A020ED89034363536363637361C
:10136A00E82EB0EF09F00F50D96EDA6ADECF10F02E
:10137A00DDCF11F00F50D96EDA6A020ED926DECF10
:10138A0012F0DDCF13F01050125C146E1150135886
:10139A00156E166A176A1450345E1550355A16506F
:1013AA00365A1750375A34C001F035C002F036C0E9
:1013BA0003F037C004F03C0E056E000E066E000EF8
:1013CA00076E000E086E5AEC18F001C034F002C025
:1013DA0035F003C036F004C037F034C001F035C030
:1013EA0002F036C003F037C004F040C005F041C037
:1013FA0006F0076A086AF2EC15F001C034F002C080
:10140A0035F003C036F004C037F034C01EF035C0E2
:10141A001FF03E503F10D8A415EF0AF017EF0AF05C
:10142A001DEF0AF0000E1D6E000E1C6E59EF0AF039
:10143A0040C020F041C021F0226A236A20C001F096
:10144A0021C002F022C003F023C004F0640E056E2E
:10145A00000E066E000E076E000E086E5AEC18F0AB
:10146A0001C020F002C021F003C022F004C023F022
:10147A0020C001F021C002F022C003F023C004F012
:10148A003EC005F03FC006F0076A086AF2EC15F0A4
:10149A0001C020F002C021F003C022F004C023F0F2
:1014AA0020C01CF021C01DF00E50D96EDA6A1EC091
:1014BA00DEFF1FC0DDFF0E50D96EDA6A020ED92692
:1014CA001CC0DEFF1DC0DDFF0E50D96EDA6A040EA5
:1014DA00D9263EC0DEFF3FC0DDFF1200000E056EBA
:1014EA000150D96EDA6A250EDE5C010EDE58D8A0EC
:1014FA0081EF0AF083EF0AF0B5EF0AF00150D96ED6
:10150A00DA6A690EDE5C010EDE58D8B08FEF0AF097
:10151A0091EF0AF0B5EF0AF00150D96EDA6A020EBD
:10152A00D926010EDB5009E12E0EDE5CD8A0A0EF11
:10153A000AF0A2EF0AF0B5EF0AF00150D96EDA6AA2
:10154A00020ED926010EDB5007E15B0EDE5CD8B035
:10155A00B1EF0AF0B3EF0AF0B5EF0AF0010E056E2B
:10156A000150D96EDA6A010EDB5009E1710EDE5CB8
:10157A00D8A0C2EF0AF0C4EF0AF0F7EF0AF0015060
:10158A00D96EDA6A010EDB5007E19A0EDE5CD8B03A
:10159A00D1EF0AF0D3EF0AF0F7EF0AF00150D96E53
:1015AA00DA6A020ED926010EDB5009E10D0EDE5C65
:1015BA00D8A0E2EF0AF0E4EF0AF0F7EF0AF00150E0
:1015CA00D96EDA6A020ED926010EDB5007E12C0E1B
:1015DA00DE5CD8B0F3EF0AF0F5EF0AF0F7EF0AF0A5
:1015EA00020E056E0150D96EDA6A010EDB5009E16E
:1015FA00B40EDE5CD8A004EF0BF006EF0BF039EF67
:10160A000BF00150D96EDA6A010EDB5007E1F50ED4
:10161A00DE5CD8B013EF0BF015EF0BF039EF0BF0DF
:10162A000150D96EDA6A020ED926010EDB5009E1A1
:10163A000D0EDE5CD8A024EF0BF026EF0BF039EF8D
:10164A000BF00150D96EDA6A020ED926010EDB5070
:10165A0007E1390EDE5CD8B035EF0BF037EF0BF04F
:10166A0039EF0BF0030E056E0150D96EDA6A010EDE
:10167A00DB5009E10A0EDE5CD8A046EF0BF048EF1A
:10168A000BF07BEF0BF00150D96EDA6A010EDB50DA
:10169A0007E1200EDE5CD8B055EF0BF057EF0BF0E8
:1016AA007BEF0BF00150D96EDA6A020ED926010ED1
:1016BA00DB5009E1110EDE5CD8A066EF0BF068EF93
:1016CA000BF07BEF0BF00150D96EDA6A020ED926C5
:1016DA00010EDB5007E1210EDE5CD8B077EF0BF08C
:1016EA0079EF0BF07BEF0BF0040E056E0150D96E0B
:1016FA00DA6A170EDE5C010EDE58D8A087EF0BF00F
:10170A0089EF0BF0BBEF0BF00150D96EDA6A690E64
:10171A00DE5C010EDE58D8B095EF0BF097EF0BF0B8
:10172A00BBEF0BF00150D96EDA6A020ED926010E10
:10173A00DB5009E10B0EDE5CD8A0A6EF0BF0A8EF98
:10174A000BF0BBEF0BF00150D96EDA6A020ED92604
:10175A00010EDB5007E1100EDE5CD8B0B7EF0BF0DC
:10176A00B9EF0BF0BBEF0BF0050E056E0150D96E09
:10177A00DA6A2A0EDE5C010EDE58D8A0C7EF0BF03B
:10178A00C9EF0BF0FBEF0BF00150D96EDA6A690E64
:10179A00DE5C010EDE58D8B0D5EF0BF0D7EF0BF0B8
:1017AA00FBEF0BF00150D96EDA6A020ED926010E50
:1017BA00DB5009E1140EDE5CD8A0E6EF0BF0E8EF8F
:1017CA000BF0FBEF0BF00150D96EDA6A020ED92644
:1017DA00010EDB5007E12E0EDE5CD8B0F7EF0BF0FE
:1017EA00F9EF0BF0FBEF0BF0060E056E0150D96E08
:1017FA00DA6A010EDB5009E19A0EDE5CD8A008EF26
:10180A000CF00AEF0CF03DEF0CF00150D96EDA6AD9
:10181A00010EDB5007E1D00EDE5CD8B017EF0CF0FA
:10182A0019EF0CF03DEF0CF00150D96EDA6A020E96
:10183A00D926010EDB5009E10D0EDE5CD8A028EF97
:10184A000CF02AEF0CF03DEF0CF00150D96EDA6A79
:10185A00020ED926010EDB5007E12E0EDE5CD8B04F
:10186A0039EF0CF03BEF0CF03DEF0CF0070E056E74
:10187A000250D96EDA6A060ED926B80EDE5C0B0E55
:10188A00DE58D8A04BEF0CF04DEF0CF070EF0CF0D7
:10189A000250D96EDA6A060ED926410EDE5C9C0E1B
:1018AA00DE58D8B05BEF0CF05DEF0CF070EF0CF087
:1018BA000150D96EDA6A020ED926010EDB5007E111
:1018CA000B0EDE5CD8B06CEF0CF06EEF0CF070EF24
:1018DA000CF0080E056E0250D96EDA6A060ED92689
:1018EA00E80EDE5C030EDE58D8A07EEF0CF080EF27
:1018FA000CF0A3EF0CF00250D96EDA6A060ED92664
:10190A00290EDE5C0A0EDE58D8B08EEF0CF090EF8E
:10191A000CF0A3EF0CF00150D96EDA6A020ED92648
:10192A00010EDB5007E10D0EDE5CD8B09FEF0CF024
:10193A00A1EF0CF0A3EF0CF0090E056E0550120092
:10194A001250800B1B6E12501224216E11AEB0EF92
:10195A000CF0B2EF0CF0B3EF0CF021802150D8B4A8
:10196A00B9EF0CF0BBEF0CF0CEEF0CF02128D8A4A5
:10197A00C1EF0CF0C3EF0CF0CBEF0CF0000E0F6EC2
:10198A00000E106E000E116E000E126E118ED6EF42
:10199A000CF0000E0F6E000E106E000E116E000E8F
:1019AA00126E1650800B1B1A16501624206E15AE96
:1019BA00E1EF0CF0E3EF0CF0E4EF0CF020802050A4
:1019CA00D8B4EAEF0CF0ECEF0CF0FFEF0CF02028A3
:1019DA00D8A4F2EF0CF0F4EF0CF0FCEF0CF0000ED0
:1019EA00136E000E146E000E156E000E166E158E16
:1019FA0007EF0DF0000E136E000E146E000E156E3A
:101A0A00000E166E2050D8B40DEF0DF00FEF0DF04A
:101A1A0017EF0DF02150D8A415EF0DF017EF0DF0C8
:101A2A0021EF0DF0000E0F6E000E106E000E116EFB
:101A3A00000E126EB9EF0EF015500F02F3CF26F01A
:101A4A00F4CF27F026501C6E1D6A1E6A1F6A2750A3
:101A5A00226E236A246A256A14501002F3CF26F0F4
:101A6A00F4CF27F026501C26000E1D221E221F220C
:101A7A0027502226000E2322242225221350110247
:101A8A00F3CF26F0F4CF27F026501C26000E1D2295
:101A9A001E221F2227502226000E2322242225221C
:101AAA001EC01FF01DC01EF01CC01DF01C6A135082
:101ABA001002F3CF26F0F4CF27F026501C26275029
:101ACA001D22000E1E22000E1F2214500F02F3CFF9
:101ADA0026F0F4CF27F026501C2627501D22000E90
:101AEA001E22000E1F221EC01FF01DC01EF01CC0A9
:101AFA001DF01C6A13500F02F3CF26F0F4CF27F023
:101B0A0026501C2627501D22000E1E22000E1F22C0
:101B1A0015501002F3CF26F0F4CF27F026502226D4
:101B2A0027502322000E2422000E252214501102CF
:101B3A00F3CF26F0F4CF27F026502226275023226F
:101B4A00000E2422000E252215501102F3CF26F092
:101B5A00F4CF27F02650176E2750186E196A1A6AA2
:101B6A0019C01AF018C019F017C018F0176A1750E0
:101B7A00222618502322195024221A5025221CC02A
:101B8A0017F01DC018F01EC019F01FC01AF0190E68
:101B9A00D4EF0DF0D8901A32193218321732E82ED3
:101BAA00CFEF0DF017502226185023221950242265
:101BBA001A5025221EC01FF01DC01EF01CC01DF0A9
:101BCA001C6A205021C017F0186A1726000E182226
:101BDA00820E1724266EFF0E1820276E0AEF0EF0CB
:101BEA00D89022362336243625361FAEFFEF0DF065
:101BFA0001EF0EF002EF0EF02280D8901C361D364F
:101C0A001E361F362606D8A0270624AE0FEF0EF082
:101C1A0011EF0EF0F5EF0DF0000E206E1FAE18EF6B
:101C2A000EF01AEF0EF03EEF0EF0FF0E1C14176EB8
:101C3A00FF0E1D14186EFF0E1E14196E7F0E1F1450
:101C4A001A6E1750181019101A10D8B42FEF0EF078
:101C5A0031EF0EF035EF0EF0010E206E3EEF0EF072
:101C6A0022A03AEF0EF03CEF0EF03EEF0EF031EF0D
:101C7A000EF02050D8B444EF0EF046EF0EF06AEFA3
:101C8A000EF0010E2226000E23222422252225A050
:101C9A0051EF0EF053EF0EF06AEF0EF022C017F07C
:101CAA0023C018F024C019F025C01AF01A341A32C9
:101CBA0019321832173217C022F018C023F019C08F
:101CCA0024F01AC025F0264A272A27BE75EF0EF0FF
:101CDA00275008E12628D8A075EF0EF077EF0EF00E
:101CEA0081EF0EF0000E226E000E236E800E246E1F
:101CFA007F0E256EAFEF0EF027BE8EEF0EF0275047
:101D0A0006E12604D8B08CEF0EF08EEF0EF09AEFB3
:101D1A000EF0000E226E000E236E000E246E000ED0
:101D2A00256E000E1B6EAFEF0EF026C021F0FF0EDF
:101D3A002216FF0E23167F0E2416000E251621A04A
:101D4A00A9EF0EF0ABEF0EF0ACEF0EF0248ED890A8
:101D5A002130256E1B50251222C00FF023C010F02F
:101D6A0024C011F025C012F01200000E126E000EEF
:101D7A00136E000E146E000E156E000E166E000E17
:101D8A00176E000E186E000E196E000E1A6E000EF7
:101D9A001B6E000E1C6E000E1D6E000E1E6E000ED7
:101DAA001F6E000E206E000E216E000E116E25EFC2
:101DBA000FF00EC00CF0C2EC19F00E50D96EDA6AB0
:101DCA00DECF0FF0DDCF10F00F5012261050132285
:101DDA00000E1422000E15220E50D96EDA6A020E77
:101DEA00D926DECF0FF0DDCF10F00F501626105097
:101DFA001722000E1822000E19220E50D96EDA6A26
:101E0A00040ED926DECF0FF0DDCF10F00F501A26C0
:101E1A0010501B22000E1C22000E1D220E50D96EDD
:101E2A00DA6A060ED926DECF0FF0DDCF10F00F509A
:101E3A001E2610501F22000E2022000E2122112AD7
:101E4A00130E11642BEF0FF02DEF0FF0DEEF0EF0F3
:101E5A0012C001F013C002F014C003F015C004F060
:101E6A00140E056E000E066E000E076E000E086E4A
:101E7A00F2EC15F001C012F002C013F003C014F026
:101E8A0004C015F016C001F017C002F018C003F024
:101E9A0019C004F0140E056E000E066E000E076ED1
:101EAA00000E086EF2EC15F001C016F002C017F031
:101EBA0003C018F004C019F01AC001F01BC002F0E8
:101ECA001CC003F01DC004F0140E056E000E066E51
:101EDA00000E076E000E086EF2EC15F001C01AF043
:101EEA0002C01BF003C01CF004C01DF01EC001F0AC
:101EFA001FC002F020C003F021C004F0140E056ECA
:101F0A00000E066E000E076E000E086EF2EC15F05B
:101F1A0001C01EF002C01FF003C020F004C021F06F
:101F2A000E50D96EDA6A12C0DEFF13C0DDFF0E5002
:101F3A00D96EDA6A020ED92616C0DEFF17C0DDFF97
:101F4A000E50D96EDA6A040ED9261AC0DEFF1BC0FB
:101F5A00DDFF0E50D96EDA6A060ED9261EC0DEFFE4
:101F6A001FC0DDFF1200096E0950D8B4BFEF0FF091
:101F7A00C1EF0FF0E3EF0FF004BEC8EF0FF0C6EFAA
:101F8A000FF0E3EF0FF001C005F002C006F003C046
:101F9A0007F004C008F0051E061E071E081E052AC3
:101FAA00000E06220722082205C00BF006C00CF01C
:101FBA0007C00DF008C00EF0EBEF0FF001C00BF0F8
:101FCA0002C00CF003C00DF004C00EF00150021064
:101FDA0003100410D8A4F4EF0FF0F6EF0FF000EF9F
:101FEA0010F0000E016E000E026E000E036E000E5F
:101FFA00046E91EF10F0960E0A6E0AEF10F00A2A9C
:10200A00D8900E320D320C320B32000E0B14056EC4
:10201A00000E0C14066E000E0D14076EFE0E0E1442
:10202A00086E0550061007100810D8A41FEF10F00C
:10203A0021EF10F004EF10F02FEF10F00A2A010E32
:10204A000B26000E0C220D220E22D8900E320D32D3
:10205A000C320B32000E0B14056E000E0C14066EB9
:10206A00000E0D14076EFF0E0E14086E05500610B2
:10207A0007100810D8A444EF10F046EF10F023EF31
:10208A0010F04EEF10F00A06D8900B360C360D36CB
:10209A000E360DBE53EF10F055EF10F05DEF10F055
:1020AA00020E0A605BEF10F05DEF10F048EF10F0DF
:1020BA000AB062EF10F064EF10F065EF10F00D9EB9
:1020CA00D8900A320AC005F0066A076A086A05C08B
:1020DA0008F0076A066A056A05500B1206500C12C8
:1020EA0007500D1208500E120950D8B47FEF10F0A5
:1020FA0081EF10F089EF10F004BE88EF10F086EF40
:10210A0010F089EF10F00E8E0BC001F00CC002F037
:10211A000DC003F00EC004F012005FEF11F0000EC4
:10212A00486E000E496EE1EC1CF0FEEC1CF042C059
:10213A0013F043C014F082EC14F045C00DF05BC0FC
:10214A000EF08DEC1AF0FCEC1CF0480E016E490EF4
:10215A00026EC2EC1CF042C013F043C014F0DDEC76
:10216A0016F01EEC14F0110E476E3C0E466ECB0EA6
:10217A00E82EFED7462EFCD7472EFAD7000045C0D8
:10218A000EF0BAEC0EF045C032F0B3EC13F044C0D6
:10219A000EF045C00FF00DEC07F044C001F045C049
:1021AA0002F073EC0AF04A6E1EEC14F0110E476E40
:1021BA003C0E466ECB0EE82EFED7462EFCD7472E97
:1021CA00FAD700005B50D8B4EDEF10F0EFEF10F043
:1021DA0004EF11F048684968080E4A6E7CAEF8EFC1
:1021EA0010F0FCEF10F0466A462AFDEF10F0466A3E
:1021FA00463246327C5046187F0B46187C6E130EC8
:10220A005A18D8B40BEF11F00DEF11F01EEF11F0C0
:10221A00090E4A18D8B414EF11F016EF11F01EEF98
:10222A0011F04A50D8A41CEF11F01EEF11F031EF53
:10223A0011F0080E4A6E7CAE25EF11F029EF11F06D
:10224A00466A462A2AEF11F0466A463246327C50DE
:10225A0046187F0B46187C6E49C001F04AC002F04E
:10226A004850EAEC1BF042C021F043C022F05DC0A6
:10227A0023F04AC024F035EC13F0080E4A18D8A40B
:10228A0049EF11F04BEF11F05FEF11F0010E5D6EA7
:10229A0080A652EF11F056EF11F0466A462A57EF20
:1022AA0011F0466A46464646464680504618F70B9F
:1022BA004618806E5D50D8B465EF11F067EF11F0E3
:1022CA0094EF10F012000E50D96EDA6A020ED92677
:1022DA00DF50D8B473EF11F075EF11F0A5EF11F0DC
:1022EA000E50D96EDA6ADF500F6E0F50016E026A15
:1022FA000E50D96EDA6A030ED926DECF03F0DDCF8F
:10230A0004F04EEC1CF001C007F002C008F0000E09
:10231A000A6E640E096E20EC18F00E50D96EDA6A55
:10232A00030ED926DF50106E0750105C116E0E5046
:10233A00D96EDA6A030ED926DF50126EC6EF11F093
:10234A00000E116E0E50D96EDA6ADF500F6E0F5002
:10235A00016E026A0E50D96EDA6A030ED926DECFF2
:10236A0003F0DDCF04F04EEC1CF001C007F002C010
:10237A0008F0000E0A6E640E096E20EC18F0075081
:10238A00126E0E50D96EDA6A010ED926DF50D8B411
:10239A00D1EF11F0D3EF11F0F3EF11F00E50D96E27
:1023AA00DA6A050ED926DECF0FF0DDCF10F00FC0A6
:1023BA00D9FF10C0DAFF11C0DFFF0E50D96EDA6AFA
:1023CA00070ED926DECF0FF0DDCF10F00FC0D9FFF0
:1023DA0010C0DAFF12C0DFFF11EF12F00E50D96EF3
:1023EA00DA6A050ED926DECF0FF0DDCF10F00FC066
:1023FA00D9FF10C0DAFF12C0DFFF0E50D96EDA6AB9
:10240A00070ED926DECF0FF0DDCF10F00FC0D9FFAF
:10241A0010C0DAFF11C0DFFF1200000E0001B56F15
:10242A00000EB46F000EB76F000EB66F000EB96FD4
:10243A00000EB86F000EBB6F000EBA6F000E9D6FD4
:10244A00000E9C6F000E9F6F000E9E6F000EA16F14
:10245A00000EA06F000EA26F010EA36F010EA46FF3
:10246A00000EA66F630EA56FAA0EA76F0F0EA86FB8
:10247A00A60EA96F0F0EAA6F000EAB6F010EAC6FFE
:10248A00010EAD6F000EAF6F630EAE6F250EB06F0B
:10249A000F0EB16F210EB26F0F0EB36F000E026EE8
:1024AA00630E016E95EC16F0D3EC1BF0B9EC1BF041
:1024BA00B3EC1CF072EC1CF0849E88967C9E80968D
:1024CA00868486860E01B495B4978EB66FEF12F0A5
:1024DA0071EF12F06AEF12F07CAE76EF12F07AEF3B
:1024EA0012F04B6A4B2A7BEF12F04B6A4B324B329B
:1024FA007C504B187F0B4B187C6E80A687EF12F02E
:10250A008BEF12F04B6A4B2A8CEF12F04B6A4B4658
:10251A004B464B4680504B18F70B4B18806E520EA9
:10252A004C6E2B0E4B6E000EE82EFED74B2EFCD7B0
:10253A004C2EFAD700D0A20E426EAB0E436E9C0E02
:10254A00446EB40E456E92EC10F0A20E276EAB0EDE
:10255A00286E44EC16F01EEF00F02A342B34316E4C
:10256A003150D8A4BBEF12F0BDEF12F0C7EF12F052
:10257A00000E286E000E296E000E2A6E000E2B6EBB
:10258A0034EF13F028C02CF029C02DF02AC02EF009
:10259A002BC02FF0200ED7EF12F0D8902F322E3208
:1025AA002D322C32E82ED2EF12F02C50306E2A8EB9
:1025BA00FF0E2816FF0E2916FF0E2A16000E2B16DE
:1025CA00960E315E31BEEEEF12F0ECEF12F004EF30
:1025DA0013F03150800A970FD8B0F6EF12F0F8EFE7
:1025EA0012F0FAEF12F0BDEF12F0D8902B322A3225
:1025FA0029322832313EFAEF12F01CEF13F01F0E87
:10260A0031640AEF13F00CEF13F014EF13F0BDEF7F
:10261A0012F0D890283629362A362B363106315010
:10262A00D8A41AEF13F01CEF13F00EEF13F030508A
:10263A00D8B422EF13F024EF13F02CEF13F02B1E73
:10264A002A1E291E286C000E29222A222B2228C083
:10265A0028F029C029F02AC02AF02BC02BF012003A
:10266A0085EF13F021C01CF022C01DF023C01EF01C
:10267A008FEC18F0B2EF13F021C01CF022C01DF04D
:10268A0023C01EF0F7EC18F0B2EF13F021C01CF0D3
:10269A0022C01DF023C01EF05FEC19F0B2EF13F058
:1026AA0021C01CF022C01DF023C01EF024EC17F03C
:1026BA00B2EF13F021C01CF022C01DF023C01EF09F
:1026CA0064EC17F0B2EF13F021C01CF022C01DF029
:1026DA0023C01EF0C3EC18F0B2EF13F021C01CF0B7
:1026EA0022C01DF023C01EF02BEC19F0B2EF13F03C
:1026FA0021C01CF022C01DF03BEC1CF0B2EF13F01D
:10270A002450256E266A2650000AD8B48FEF13F09B
:10271A00B2EF13F02550010AD8B437EF13F0030AC9
:10272A00D8B441EF13F0010AD8B44BEF13F0070AFB
:10273A00D8B455EF13F0010AD8B45FEF13F0030AC7
:10274A00D8B469EF13F0010AD8B473EF13F00F0A83
:10275A00D8B47DEF13F0B2EF13F01200000E136E2F
:10276A00000E146E000E156E3F0E166E3250D96EA4
:10277A00DA6ADECF33F0DDCF34F033C001F034C093
:10278A0002F0036A046A000EB8EC0FF001C00FF001
:10279A0002C010F003C011F004C012F0A5EC0CF056
:1027AA000FC028F010C029F011C02AF012C02BF077
:1027BA00B2EC12F03250D96EDA6A28C0DEFF29C0B4
:1027CA00DDFF330E136E330E146E330E156E3F0E8D
:1027DA00166E3250D96EDA6A020ED926DECF33F07F
:1027EA00DDCF34F033C001F034C002F0036A046A6A
:1027FA00000EB8EC0FF001C00FF002C010F003C0D9
:10280A0011F004C012F0A5EC0CF00FC028F010C0B3
:10281A0029F011C02AF012C02BF0B2EC12F032509B
:10282A00D96EDA6A020ED92628C0DEFF29C0DDFF7A
:10283A0012007FA023EF14F027EF14F0016A012A97
:10284A0028EF14F0016A7F500118FE0B01187F6E01
:10285A007DAE32EF14F036EF14F0016A012A37EF39
:10286A0014F0016A013201327D5001187F0B011800
:10287A007D6E79A643EF14F047EF14F0016A012A3E
:10288A0048EF14F0016A01460146014679500118E1
:10289A00F70B0118796E7FA255EF14F059EF14F077
:1028AA00016A012A5AEF14F0016A01467F500118A1
:1028BA00FD0B01187F6E79A865EF14F069EF14F02B
:1028CA00016A012A6AEF14F0016A013A7950011883
:1028DA00EF0B0118796E7EAE75EF14F079EF14F0F4
:1028EA00016A012A7AEF14F0016A013201327E503C
:1028FA0001187F0B01187E6E1200140E166E140E4C
:10290A00176E1350D96EDA6A010ED926010EDF6EE0
:10291A001450D96EDA6A010ED926010EDF6EC6EF9F
:10292A0014F01350D96EDA6A1650DE5CD8B0A0EFF4
:10293A0014F0A2EF14F0A6EF14F01350D96EDA6A6D
:10294A00DF2A1450D96EDA6A1750DE5CD8B0B0EFBD
:10295A0014F0B2EF14F0B6EF14F01450D96EDA6A2C
:10296A00DF2A13C00EF068EC11F014C00EF068EC08
:10297A0011F0A70E156E3A0EE82EFED7152EFCD7CB
:10298A0000D01350D96EDA6A1650DE5CD8A0D0EFA8
:10299A0014F0D2EF14F096EF14F01450D96EDA6AEC
:1029AA001750DE5CD8A0DCEF14F0DEEF14F096EFDF
:1029BA0014F01200280E166E280E176E1350D96ED8
:1029CA00DA6A010ED926010EDF6E1450D96EDA6A60
:1029DA00010ED926DF6A22EF15F01350D96EDA6A92
:1029EA001650DE5CD8B0FCEF14F0FEEF14F002EFE4
:1029FA0015F01350D96EDA6ADF2A1450D96EDA6AE2
:102A0A001750DE5CD8B00CEF15F00EEF15F012EF90
:102A1A0015F01450D96EDA6ADF2A13C00EF068EC8A
:102A2A0011F014C00EF068EC11F0A70E156E3A0EF4
:102A3A00E82EFED7152EFCD700D01350D96EDA6ACD
:102A4A001650DE5CD8A02CEF15F02EEF15F0F2EF41
:102A5A0014F01450D96EDA6A1750DE5CD8A038EF39
:102A6A0015F03AEF15F0F2EF14F01200280E166E78
:102A7A00280E176E1350D96EDA6A010ED926DF6A4C
:102A8A001450D96EDA6A010ED926010EDF6E7EEF76
:102A9A0015F01350D96EDA6A1650DE5CD8B058EFCA
:102AAA0015F05AEF15F05EEF15F01350D96EDA6A89
:102ABA00DF2A1450D96EDA6A1750DE5CD8B068EF94
:102ACA0015F06AEF15F06EEF15F01450D96EDA6A48
:102ADA00DF2A13C00EF068EC11F014C00EF068EC97
:102AEA0011F0A70E156E3A0EE82EFED7152EFCD75A
:102AFA0000D01350D96EDA6A1650DE5CD8A088EF7F
:102B0A0015F08AEF15F04EEF15F01450D96EDA6A07
:102B1A001750DE5CD8A094EF15F096EF15F04EEF43
:102B2A0015F01200140E166E150E176E1350D96E8C
:102B3A00DA6A010ED926DF6A1450D96EDA6A010EF2
:102B4A00D926DF6AD9EF15F01350D96EDA6A165012
:102B5A00DE5CD8B0B3EF15F0B5EF15F0B9EF15F0AC
:102B6A001350D96EDA6ADF2A1450D96EDA6A17500E
:102B7A00DE5CD8B0C3EF15F0C5EF15F0C9EF15F05C
:102B8A001450D96EDA6ADF2A13C00EF068EC11F01D
:102B9A0014C00EF068EC11F0A70E156E3A0EE82E6E
:102BAA00FED7152EFCD700D01350D96EDA6A16500C
:102BBA00DE5CD8A0E3EF15F0E5EF15F0A9EF15F00C
:102BCA001450D96EDA6A1750DE5CD8A0EFEF15F010
:102BDA00F1EF15F0A9EF15F01200000E096E000EC4
:102BEA000A6E000E0B6E000E0C6E055006100710D2
:102BFA000810D8B403EF16F005EF16F03BEF16F005
:102C0A00010E0D6E0FEF16F0D89005360636073610
:102C1A0008360D2A08AE14EF16F016EF16F009EF73
:102C2A0016F0D89009360A360B360C360550015C78
:102C3A00065002580750035808500458D8A028EFE5
:102C4A0016F02AEF16F033EF16F00550015E065023
:102C5A00025A0750035A0850045A0980D890083279
:102C6A000732063205320D2E16EF16F009C001F0B2
:102C7A000AC002F00BC003F00CC004F012008CEF83
:102C8A0016F0000E296E000E2A6E000E2B6E290E0B
:102C9A00016E2A0E026E2B0E036EF0EC1AF0080E6D
:102CAA002B18D8B45BEF16F05DEF16F067EF16F04D
:102CBA0027C021F028C022F05DC023F02BC024F0E9
:102CCA0035EC13F028EC1CF02A50FF0A016E29504B
:102CDA00FF0AE7EC1CF0FEEC1CF027C013F028C03A
:102CEA0014F082EC14F05C50D8B47EEF16F080EF4A
:102CFA0016F078EF16F027C013F028C014F0DDECB8
:102D0A0016F0FCEC1CF0000E5C6E28EC1CF05A501D
:102D1A00D8A492EF16F094EF16F046EF16F01200D0
:102D2A0085948598839E879C7D947D987B9E7F9CC5
:102D3A00050E0E01746F060E766F070E696F080E88
:102D4A00886FBD508F0B4009BD6EE00EBE16BF5096
:102D5A00F00B0109BF6E01C0BCFFBD8E000EAA6E4A
:102D6A00000EA66E000E0F01256F000E216FFC0EDD
:102D7A00AD16F30EAD16CF0EAD163F0EAD16AB88DF
:102D8A00AB50F00B0C09AB6EAB8EA788A750F00BBB
:102D9A000C09A76EA78E26892651F00B0C09266FFF
:102DAA00268F22892251F00B0C09226F228F1200E2
:102DBA000DEF17F01350D96EDA6ADF50D8B4E8EF86
:102DCA0016F0EAEF16F0EEEF16F01350D96EDA6A43
:102DDA00DF061450D96EDA6ADF50D8B4F7EF16F06E
:102DEA00F9EF16F0FDEF16F01450D96EDA6ADF0625
:102DFA0013C00EF068EC11F014C00EF068EC11F07C
:102E0A00A70E156E3A0EE82EFED7152EFCD700D067
:102E1A001350D96EDA6ADF50D8A416EF17F018EFFC
:102E2A0017F0DFEF16F01450D96EDA6ADF50D8A423
:102E3A0021EF17F023EF17F0DFEF16F012004EEF35
:102E4A0017F01CC018F01DC019F09DEC1BF01CC037
:102E5A0018F01DC019F00DEC1BF01CC018F01DC0B5
:102E6A0019F02AEC1BF063EF17F01CC018F01DC014
:102E7A0019F081EC1BF01CC018F01DC019F00DEC04
:102E8A001BF01CC018F01DC019F09DEC1BF063EF7D
:102E9A0017F01E501F6E206A2050000AD8B458EF4F
:102EAA0017F063EF17F01F50000AD8B426EF17F097
:102EBA00010AD8B43AEF17F063EF17F012008EEF59
:102ECA0017F01CC018F01DC019F09DEC1BF01CC0B7
:102EDA0018F01DC019F00DEC1BF01CC018F01DC035
:102EEA0019F081EC1BF0A3EF17F01CC018F01DC0FD
:102EFA0019F02AEC1BF01CC018F01DC019F00DECDB
:102F0A001BF01CC018F01DC019F09DEC1BF0A3EFBC
:102F1A0017F01E501F6E206A2050000AD8B498EF8E
:102F2A0017F0A3EF17F01F50000AD8B466EF17F096
:102F3A00010AD8B47AEF17F0A3EF17F01200015084
:102F4A00D96EDA6ADECF05F0DDCF06F00150D96E10
:102F5A00DA6A020ED9260550DE5C0650DE58D8B071
:102F6A00B9EF17F0BBEF17F0C4EF17F00150D96EA5
:102F7A00DA6A020ED926DECF05F0DDCF06F001505F
:102F8A00D96EDA6A040ED9260550DE5C0650DE5880
:102F9A00D8B0D2EF17F0D4EF17F0DDEF17F00150E9
:102FAA00D96EDA6A040ED926DECF05F0DDCF06F037
:102FBA0005C001F006C002F012000150D96EDA6AAB
:102FCA00DECF05F0DDCF06F00150D96EDA6A020EC7
:102FDA00D926DE50055CDE500658D8B0F7EF17F058
:102FEA00F9EF17F002EF18F00150D96EDA6A020E03
:102FFA00D926DECF05F0DDCF06F00150D96EDA6AA8
:10300A00040ED926DE50055CDE500658D8B010EF03
:10301A0018F012EF18F01BEF18F00150D96EDA6AA7
:10302A00040ED926DECF05F0DDCF06F005C001F08B
:10303A0006C002F01200000E0C6E000E0B6E095054
:10304A000A10D8B42BEF18F02DEF18F055EF18F03E
:10305A00010E0D6E35EF18F0D89009360A360D2A92
:10306A000AAE3AEF18F03CEF18F031EF18F0D890AA
:10307A000B360C360950075C0A500858D8A048EF9E
:10308A0018F04AEF18F04FEF18F00950075E0A508F
:10309A00085A0B80D8900A3209320D2E3CEF18F0EC
:1030AA000BC007F00CC008F01200000E096E000EEB
:1030BA000A6E000E0B6E000E0C6E01A067EF18F080
:1030CA0069EF18F071EF18F00550092606500A2228
:1030DA0007500B2208500C22D890053606360736C0
:1030EA000836D890043203320232013201500210FB
:1030FA0003100410D8A484EF18F086EF18F062EFDA
:10310A0018F009C001F00AC002F00BC003F00CC0AD
:10311A0004F01200ADEF18F01CC018F01DC019F031
:10312A009DEC1BF01CC018F01DC019F02AEC1BF016
:10313A00C2EF18F01CC018F01DC019F081EC1BF08A
:10314A001CC018F01DC019F09DEC1BF0C2EF18F05E
:10315A001E501F6E206A2050000AD8B4B7EF18F02C
:10316A00C2EF18F01F50000AD8B491EF18F0010A04
:10317A00D8B49FEF18F0C2EF18F01200E1EF18F080
:10318A001CC018F01DC019F09DEC1BF01CC018F0F3
:10319A001DC019F047EC1BF0F6EF18F01CC018F030
:1031AA001DC019F064EC1BF01CC018F01DC019F00A
:1031BA009DEC1BF0F6EF18F01E501F6E206A20508F
:1031CA00000AD8B4EBEF18F0F6EF18F01F50000A17
:1031DA00D8B4C5EF18F0010AD8B4D3EF18F0F6EF57
:1031EA0018F0120015EF19F01CC018F01DC019F0E4
:1031FA009DEC1BF01CC018F01DC019F081EC1BF0EF
:10320A002AEF19F01CC018F01DC019F02AEC1BF0A7
:10321A001CC018F01DC019F09DEC1BF02AEF19F024
:10322A001E501F6E206A2050000AD8B41FEF19F0F2
:10323A002AEF19F01F50000AD8B4F9EF18F0010A62
:10324A00D8B407EF19F02AEF19F0120049EF19F074
:10325A001CC018F01DC019F09DEC1BF01CC018F022
:10326A001DC019F064EC1BF05EEF19F01CC018F0D9
:10327A001DC019F047EC1BF01CC018F01DC019F056
:10328A009DEC1BF05EEF19F01E501F6E206A205055
:10329A00000AD8B453EF19F05EEF19F01F50000A74
:1032AA00D8B42DEF19F0010AD8B43BEF19F05EEF4C
:1032BA0019F012007DEF19F01CC018F01DC019F0AA
:1032CA009DEC1BF01CC018F01DC019F0D0EC1AF0D0
:1032DA0092EF19F01CC018F01DC019F0D0EC1AF0CA
:1032EA001CC018F01DC019F09DEC1BF092EF19F0EC
:1032FA001E501F6E206A2050000AD8B487EF19F0BA
:10330A0092EF19F01F50000AD8B461EF19F0010AC0
:10331A00D8B46FEF19F092EF19F012009A0EF66E08
:10332A00390EF76E000EF86E00EEBCF010EE0EF0DD
:10333A000900F5CFEEFFE550E150FAE1A80EF66E6E
:10334A00390EF76E000EF86E00EE4DF010EE0DF02D
:10335A000900F5CFEEFFE550E150FAE100EE60F02A
:10336A003C0EEE6AE806FDE15D6A5C6A5B6A5A6ACF
:10337A005E905E92000112EF12F0EDEC19F00C5023
:10338A00D96EDA6A05C0DEFF06C0DDFF15EC1AF059
:10339A000C50D96EDA6A020ED92605C0DEFF06C0C5
:1033AA00DDFF65EC1AF00C50D96EDA6A040ED926E4
:1033BA0005C0DEFF06C0DDFF3DEC1AF00C50D96EE9
:1033CA00DA6A060ED92605C0DEFF06C0DDFF120046
:1033DA00F7EC1CF0520EDBEC1CF0B60EDBEC1CF02A
:1033EA00EDEC1CF0530EDBEC1CF0010EAFEC1AF006
:1033FA00076E07500A6E0B6A000EAFEC1AF0076EE2
:10340A000750096E086A0A5008100A6E0B50091014
:10341A000B6EF2EC1CF00AC005F00BC006F01200AD
:10342A00F7EC1CF0520EDBEC1CF0B80EDBEC1CF0D7
:10343A00EDEC1CF0530EDBEC1CF0010EAFEC1AF0B5
:10344A00076E07500A6E0B6A000EAFEC1AF0076E91
:10345A000750096E086A0A5008100A6E0B500910C4
:10346A000B6EF2EC1CF00AC005F00BC006F012005D
:10347A00F7EC1CF0520EDBEC1CF0B40EDBEC1CF08B
:10348A00EDEC1CF0530EDBEC1CF0010EAFEC1AF065
:10349A00076E07500A6E0B6A000EAFEC1AF0076E41
:1034AA000750096E086A0A5008100A6E0B50091074
:1034BA000B6EF2EC1CF00AC005F00BC006F012000D
:1034CA00F7EC1CF0520EDBEC1CF0BA0EDBEC1CF035
:1034DA00EDEC1CF0530EDBEC1CF0010EAFEC1AF015
:1034EA00076E07500A6E0B6A000EAFEC1AF0076EF1
:1034FA000750096E086A0A5008100A6E0B50091024
:10350A000B6EF2EC1CF00AC005F00BC006F01200BC
:10351A00A6EF1AF00DC00CF0C2EC19F00D50D96EDE
:10352A00DA6A060ED926010EDB5007E1320EDE5C9E
:10353A00D8B0A2EF1AF0A4EF1AF0A6EF1AF0AEEF85
:10354A001AF00E50D8B4ACEF1AF0AEEF1AF08FEFB3
:10355A001AF01200036E14EC1CF00E01DA8714EC58
:10356A001CF0D5CE04F014EC1CF00350D8B4C0EF14
:10357A001AF0C4EF1AF0026A022AC5EF1AF0026AB8
:10358A00023A02460E01DA510218DF0B0218DA6F0C
:10359A00DA890450120093EC1CF083EC1CF018C07A
:1035AA0013F019C014F03BEC15F01F0E1B6ED90E68
:1035BA001A6E040EE82EFED71A2EFCD71B2EFAD747
:1035CA0018C013F019C014F0DDEC16F093EC1CF0DF
:1035DA0083EC1CF01200510650064F065A06515051
:1035EA00D96EDA6A0150E16EE26ADFCFE7FF505026
:1035FA00D96EDA6A0250E16EE26ADFCFE7FF4F5016
:10360A00D96EDA6A0350E16EE26ADFCFE7FF120091
:10361A0061EC1CF018C013F019C014F097EC15F007
:10362A00C70E1B6E0D0E1A6EC60EE82EFED71A2E88
:10363A00FCD71B2EFAD700D018C013F019C014F00B
:10364A00DDEC16F061EC1CF0120083EC1CF018C0E3
:10365A0013F019C014F0DFEC14F0080E1B6E780E8C
:10366A001A6EA90EE82EFED71A2EFCD71B2EFAD7F1
:10367A00000018C013F019C014F0DDEC16F083EC4A
:10368A001CF0120083EC1CF018C013F019C014F0DF
:10369A00DFEC14F0160E1B6E450E1A6E170EE82E8E
:1036AA00FED71A2EFCD71B2EFAD7000018C013F02B
:1036BA0019C014F0DDEC16F083EC1CF0120093EC48
:1036CA001CF018C013F019C014F03BEC15F0150EDD
:1036DA001B6E4B0E1A6EBE0EE82EFED71A2EFCD7A4
:1036EA001B2EFAD700D018C013F019C014F0DDEC65
:1036FA0016F093EC1CF0120093EC1CF018C013F0B7
:10370A0019C014F03BEC15F0070E1B6ED20E1A6EA0
:10371A006E0EE82EFED71A2EFCD71B2EFAD718C02B
:10372A0013F019C014F0DDEC16F093EC1CF0120043
:10373A0061EC1CF018C013F019C014F097EC15F0E6
:10374A00430E1B6E8F0E1A6EC80EE82EFED71A2E67
:10375A00FCD71B2EFAD718C013F019C014F0DDECF1
:10376A0016F061EC1CF01200FFEC1BF0010E036E68
:10377A00000EA3EC1CF03F0E056E550EE82EFED788
:10378A00052EFCD70000030E036E000EA3EC1CF0FE
:10379A00D50E036E010EA3EC1CF0120084988892D9
:1037AA008496869088907C9880927C967E90809071
:1037BA008790859E81967F907D9E79968792819843
:1037CA00869E7F9279987E9E1200036E5150D96E22
:1037DA00DA6A03C0DFFF5050D96EDA6A01C0DFFF30
:1037EA004F50D96EDA6A02C0DFFF512A502A4F2A97
:1037FA005A2A12000E01D951F00B0809D96FD98B38
:10380A009F0ED66F848A848CA79BA79D1D0E1D6F61
:10381A001E0E1C6F1C0E6F6F1B0E706F12000E01B6
:10382A00D8B51AEF1CF01CEF1CF014EF1CF0DACE1E
:10383A0001F01F0E0116D8A425EF1CF027EF1CF08B
:10384A0014EF1CF012007CA62DEF1CF031EF1CF0D7
:10385A00016A012A32EF1CF0016A0146014601465B
:10386A007C500118F70B01187C6E12001CC018F06E
:10387A001DC019F09DEC1BF01CC018F01DC019F0FA
:10388A00D0EC1AF01CC018F01DC019F09DEC1BF00A
:10389A00120001500302F3CF05F0F4CF06F00150F5
:1038AA000402F350062602500302F350062605C00E
:1038BA0001F006C002F012007CA866EF1CF06AEF65
:1038CA001CF0016A012A6BEF1CF0016A013A7C5074
:1038DA000118EF0B01187C6E1200D6501F0B40091D
:1038EA00D66ED688D588D650F00B0E09D66EE1EC86
:1038FA001CF00E01298BF28CF28E120080A088EF48
:10390A001CF08CEF1CF0016A012A8DEF1CF0016A91
:10391A0080500118FE0B0118806E12007EA098EFED
:10392A001CF09CEF1CF0016A012A9DEF1CF0016A51
:10393A007E500118FE0B01187E6E1200046EF7EC21
:10394A001CF0520EDBEC1CF004508009DBEC1CF07E
:10395A000350DBEC1CF0F2EC1CF01200120E0E010C
:10396A00626F110E156FE997E895330EE56F000E39
:10397A00E66FE789E88BE78F12000250D96EDA6AA0
:10398A00D3CFDFFF0150D96EDA6AD4CFDFFF12003E
:10399A00880934037C010601FA005C0054003200F5
:0B39AA006074880828281514141414F9
:1039B600026E14EC1CF002C0D5FE1200000E016E61
:1039C600000EE7EC1CF01200026E02C0D4FF01C02C
:1039D600D3FF120014EC1CF00E01DA83120014EC73
:1039E6001CF00E01DA85120014EC1CF00E01DA81CF
:0A39F6001200D59E1200D58E1200BB
:020000040020DA
:10000000FFFFFFFFFFFFFFFFFFFFFFFFFFFFFFFF00
:020000040030CA
:0C000000AAFFFFFF9FFFFFFFFFFFFFFFB5
:00000001FF
