:040000001DEFFFF001
:020000040001F9
:10FE1500FE012C012C01AF00AF002A01021E08844F
:10FE25009888928496869088907C8880827C867E4D
:10FE35008080801200150EF66EFE0EF76E010EF82C
:10FE45006E00EE2FF010EE0FF00900F5CFEEFFE596
:10FE550050E150FAE100EE60F03C0EEE6AE806FD76
:10FE6500E100EE01F0180EEE6AE806FDE1000184FE
:10FE7500EFFFF085948598839E879C7D947D987B84
:10FE85009E7F9C050E0E01746F060E766F070E6938
:10FE95006F080E886FBD508F0B4009BD6EE00EBE1A
:10FEA50016BF50F00B0109BF6E19C0BCFFBD8E0017
:10FEB5000EAA6E000EA66E000E0F01256F000E2114
:10FEC5006FFC0EAD16F30EAD16CF0EAD163F0EAD93
:10FED50016AB88AB50F00B0C09AB6EAB8EA788A7A1
:10FEE50050F00B0C09A76EA78E26892651F00B0C36
:10FEF50009266F268F22892251F00B0C09226F22C9
:10FF05008F1200000E1A6E630E196E3CECFFF000A6
:10FF15000E1D6E010E1E6E010E1F6E000E216E630C
:10FF25000E206EAA0E226E0F0E236EA60E246E0FE5
:10FF35000E256E000E266E010E276E010E286E0030
:10FF45000E2A6E630E296E250E2B6E0F0E2C6E215A
:10FF55000E2D6E0F0E2E6E12ECFFF07CA8B5EFFF86
:10FF6500F0B9EFFFF01B6A1B2ABAEFFFF01B6A1B03
:10FF75003A7C501B18EF0B1B187C6E7CA6C5EFFF57
:10FF8500F0C9EFFFF01B6A1B2ACAEFFFF01B6A1BC3
:10FF9500461B461B467C501B18F70B1B187C6E290D
:10FFA5000E1C6E960E1B6E7F0EE82EFED71B2EFCCA
:10FFB500D71C2EFAD700F07EA0E3EFFFF0E7EFFFA6
:10FFC500F01B6A1B2AE8EFFFF01B6A7E501B18FE28
:10FFD5000B1B187E6E80A0F2EFFFF0F6EFFFF01B13
:10FFE5006A1B2AF7EFFFF01B6A80501B18FE0B1BDC
:0BFFF50018806EB0EFFFF000EF00F08E
:020000040020DA
:10000000FF0FFF0FFF0FFF0FFF0FFF0FFF0FFF0F80
:020000040030CA
:0C000000AAFFFFFF9FFFFFFFFFFFFFFFB5
:00000001FF
