:0400000010EF00F00D
:100008005F820E0133AB0BEF00F00DEF00F00EEF47
:0C00180000F0339B5F921100DBEF09F059
:070E0000002564200D000035
:100E08000C50D96EDA6ADFCFF6FF0E0EF76E000EC1
:100E1800F86E0800F550250AD8A415EF07F017EF6B
:100E280007F0D5EF07F00C50D96EDA6ADF2A000E0A
:100E38000001D16F000ED06FD0C05AF0D269D369CB
:100E48000C50D96EDA6ADF50106E10C0F6FF0E0E25
:100E5800F76E000EF86E0800F550640AD8B437EF44
:100E680007F039EF07F049EF07F010C0F6FF0E0E54
:100E7800F76E000EF86E0800F550690AD8A447EF1F
:100E880007F049EF07F0CFEF07F00D50D96EDA6A97
:100E9800020EDF26DF5CD96EDA6ADECF11F0DECF14
:100EA80012F00C50D96EDA6A1028DF6E200E156E1B
:100EB80012BE61EF07F064EF07F0010E65EF07F06F
:100EC800000E0F6E150615509C0FD96EDA6A11C008
:100ED80001F012C002F0000E046E0A0E036E4BEC15
:100EE80008F001C007F002C008F06DEC0AF00750E6
:100EF800300FDF6E11C001F012C002F0000E046E58
:100F08000A0E036EE9EC07F001C011F002C012F0FE
:100F180011501210D8B493EF07F095EF07F09DEF3A
:100F280007F01550D8A49BEF07F09DEF07F066EF88
:100F380007F01550D8B4A3EF07F0A5EF07F0C4EFFA
:100F480007F00F50D8B4ABEF07F0ADEF07F0C4EFE0
:100F580007F0150615509C0FD96EDA6A2D0EDF6E54
:100F6800C4EF07F015509C0FD96EDA6ADF500E6E89
:100F78000E50016E026A0BC003F0A3EC08F0152AAC
:100F8800200E1518D8A4CBEF07F0CDEF07F0B6EF79
:100F980007F0E8EF07F00C50D96EDA6ADF2AE8EFBD
:100FA80007F00C50D96EDA6ADFCFF6FF0E0EF76E37
:100FB800000EF86E0800F550016E026A0BC003F0CF
:100FC800A3EC08F0CFEF07F01200000E066E04BE87
:100FD800F2EF07F0F0EF07F0F8EF07F0036C041EEC
:100FE800D8B0042A010E066E02BEFFEF07F0FDEF2F
:100FF80007F005EF08F0016C021ED8B0022A010EB6
:10100800061A000E086E000E076E03500410D8B4BE
:1010180010EF08F012EF08F03AEF08F0010E056E35
:101028001AEF08F0D89003360436052A04AE1FEFED
:1010380008F021EF08F016EF08F0D89007360836C8
:101048000350015C04500258D8A02DEF08F02FEF90
:1010580008F034EF08F00350015E0450025A07808C
:10106800D89004320332052E21EF08F00650D8B488
:1010780040EF08F042EF08F046EF08F0076C081E52
:10108800D8B0082A07C001F008C002F01200000E0C
:10109800066E02BE54EF08F052EF08F05AEF08F05F
:1010A800016C021ED8B0022A010E066E04BE61EF62
:1010B80008F05FEF08F065EF08F0036C041ED8B085
:1010C800042A03500410D8B46CEF08F06EEF08F04F
:1010D80092EF08F0010E056E76EF08F0D89003360F
:1010E8000436052A04AE7BEF08F07DEF08F072EFB6
:1010F80008F00350015C04500258D8A086EF08F0AD
:1011080088EF08F08CEF08F00350015E0450025A93
:10111800D89004320332052E7DEF08F00650D8B47B
:1011280098EF08F09AEF08F09EEF08F0016C021EA5
:10113800D8B0022A01C001F002C002F01200035028
:10114800D8B4A9EF08F0ABEF08F0B3EF08F00350FC
:10115800D8A4B1EF08F0B3EF08F0B8EF08F00150E9
:1011680046EC0BF0F7EF08F00350D96EDA6A0A0E76
:10117800D926DE50DE10D8B4C4EF08F0C6EF08F068
:10118800DFEF08F00350D96EDA6A0A0ED926035049
:10119800E16EE26A030EE126DE50E65CE650800A64
:1011A800086EDE50800A0858D8B0DDEF08F0DFEF8F
:1011B80008F0F7EF08F00350D96EDA6A030ED92663
:1011C800DF50046E0350D96EDA6ADF500424D96EFA
:1011D800DA6A01C0DFFF0350D96EDA6A030ED92636
:1011E800DE2A000EDD221200520E3F6E2B0E3E6EDE
:1011F800000EE82EFED73E2EFCD73F2EFAD700D0A1
:10120800000E026E630E016E93EC09F0000E406E44
:10121800010E416E010E426E000E446E630E436E67
:10122800AA0E456E0F0E466EA60E476E0F0E486E3E
:10123800000E496E010E4A6E010E4B6E000E4D6E89
:10124800630E4C6E250E4E6E0F0E4F6E210E506EB5
:101258000F0E516E0BEC0AF087EC0AF012EC0BF053
:10126800DFEC0AF0D3CF2BF02C6A03EC0BF0D4CFD1
:101278002BF02C6A03EC0BF046EC09F036EF09F082
:1012880010EF00F07CA84BEF09F04FEF09F0016A6E
:10129800012A50EF09F0016A013A7C500118EF0B5E
:1012A80001187C6E7CA65BEF09F05FEF09F0016A1C
:1012B800012A60EF09F0016A0146014601467C50A7
:1012C8000118F70B01187C6E290E026E960E016E3E
:1012D8007F0EE82EFED7012EFCD7022EFAD700008B
:1012E8007EA079EF09F07DEF09F0016A012A7EEF0F
:1012F80009F0016A7E500118FE0B01187E6E80A06D
:1013080088EF09F08CEF09F0016A012A8DEF09F0E6
:10131800016A80500118FE0B0118806E1200859436
:101328008598839E879C7D947D987B9E7F9C050EE7
:101338000E01746F060E766F070E696F080E886FC0
:10134800BD508F0B4009BD6EE00EBE16BF50F00BAE
:101358000109BF6E01C0BCFFBD8E000EAA6E000E53
:10136800A66E000E0F01256F000E216FFC0EAD1644
:10137800F30EAD16CF0EAD163F0EAD16AB88AB50C3
:10138800F00B0C09AB6EAB8EA788A750F00B0C09BD
:10139800A76EA78E26892651F00B0C09266F268F7B
:1013A80022892251F00B0C09226F228F1200660E3F
:1013B800F66E160EF76E000EF86E00EED4F010EE14
:1013C8000AF00900F5CFEEFFE550E150FAE1840E8E
:1013D800F66E160EF76E000EF86E00EE52F010EE76
:1013E80008F00900F5CFEEFFE550E150FAE100EE14
:1013F80060F0740EEE6AE806FDE15E6A5D6A5C6A9A
:101408005B6A5A6A5F905F920001F8EF08F084986F
:1014180088928496869088907C9880927C967E901C
:101428008090849E88967C8E808681908394849018
:1014380079907B947C908192839C889479927B9C10
:10144800809487928198869E7F9279987E9E8790D5
:10145800859E81967F907D9E7996120017C019F01F
:101468003EEF0AF016C00BF0190E0C6E18C00DF006
:1014780004EC07F019C0F6FF0E0EF76E000EF86EBA
:101488000800F5500009D8A44CEF0AF04EEF0AF016
:1014980036EF0AF0000E176E000E166E12001C0EC4
:1014A8001E6E1AC01FF0000E236E000E226E000E74
:1014B8002A6E000E296E1F0E166E1BC017F01E0E28
:1014C800186E32EC0AF01A502224D96EDA6ADF6AF2
:1014D800120008BE72EF0AF074EF0AF07AEF0AF011
:1014E80007C007F008C008F086EF0AF007C009F047
:1014F80008C00AF0091E0A1E094A0A2A09C007F08C
:101508000AC008F01200B6EC0AF0010E036E000ED5
:10151800F3EC0AF03F0E056E550EE82EFED7052EA9
:10152800FCD70000030E036E000EF3EC0AF0D50E94
:10153800036E010EF3EC0AF01200AAEF0AF0025053
:10154800D96EDA6ADF5021EC0BF0022A0250D96E0C
:10155800DA6ADF50D8A4B3EF0AF0B5EF0AF0A3EFC8
:101568000AF012000E01D951F00B0809D96FD98B76
:101578009F0ED66F848A848CA79BA79D1D0E1D6F16
:101588001E0E1C6F1C0E6F6F1B0E706F12000E016B
:10159800D8B5D1EF0AF0D3EF0AF0CBEF0AF0DACEE4
:1015A80001F01F0E0116D8A4DCEF0AF0DEEF0AF0F6
:1015B800CBEF0AF01200D6501F0B4009D66ED68822
:1015C800D588D650F00B0E09D66E000ED46E000EDC
:1015D800D36ED58E0E01298BF28CF28E1200046E1A
:1015E8003DEC0BF0520E2DEC0BF0045080092DEC65
:1015F8000BF003502DEC0BF038EC0BF012002D0E15
:101608001A6E010E1B6E2BC01CF02CC01DF053EC83
:101618000AF02D0E026EA1EC0AF01200120E0E0155
:10162800626F110E156FE997E895330EE56F000E9E
:10163800E66FE789E88BE78F1200016E0E0137A588
:1016480028EF0BF02AEF0BF022EF0BF001C0E4FEBD
:101658001200026ECBEC0AF002C0D5FE12002C017B
:101668004600FE012C012C01CBEC0AF00E01DA85B4
:101678001200CBEC0AF00E01DA811200AF00AF00C5
:061688002A201E081200DA
:020000040020DA
:10000000FFFFFFFFFFFFFFFFFFFFFFFFFFFFFFFF00
:020000040030CA
:0C000000AAFFFFFF9FFFFFFFFFFFFFFFB5
:00000001FF
