:040000001AEF00F003
:100008005F820E0133AB0BEF00F00DEF00F018EF3D
:1000180000F05550D8B413EF00F015EF00F017EFCB
:1000280000F0010E546E339B5F921100CEEF09F081
:100E0000002564202564202564202564200D00250C
:100E100064200000000E116E000E106E0C50D96E92
:100E2000DA6ADFCFF6FF0E0EF76E000EF86E0800DE
:100E3000F550250AD8A41FEF07F021EF07F0F1EFD6
:100E400007F00C50D96EDA6ADF2A000E0001776FC6
:100E5000000E766F76C07AF0786979690C50D96E99
:100E6000DA6ADF50126E12C0F6FF0E0EF76E000E39
:100E7000F86E0800F550640AD8B441EF07F043EF6C
:100E800007F053EF07F012C0F6FF0E0EF76E000EDC
:100E9000F86E0800F550690AD8A451EF07F053EF37
:100EA00007F0E7EF07F00D50D96EDA6A020EDF2681
:100EB000DF5CD96EDA6ADECF13F0DECF14F00C50AF
:100EC000D96EDA6A1228DF6E200E176E14BE6BEF31
:100ED00007F06EEF07F0010E6FEF07F0000E0F6ED8
:100EE00017063C0E1724D96EDA6A010EDA2213C0F7
:100EF00001F014C002F0000E046E0A0E036E2EEC18
:100F000009F001C007F002C008F0A2EC0BF0075096
:100F1000300FDF6E13C001F014C002F0000E046E3B
:100F20000A0E036E6FEC08F001C013F002C014F05B
:100F3000104A112A13501410D8B4A1EF07F0A3EFF0
:100F400007F0ABEF07F01750D8A4A9EF07F0ABEF0D
:100F500007F070EF07F01750D8B4B1EF07F0B3EF18
:100F600007F0D8EF07F00F50D8B4B9EF07F0BBEF98
:100F700007F0D8EF07F017063C0E1724D96EDA6A8F
:100F8000010EDA222D0EDF6E104A112AD8EF07F07B
:100F90003C0E1724D96EDA6A010EDA22DF500E6E8B
:100FA0000E50016E026A0BC003F0D1EC08F0172A54
:100FB000200E1718D8A4DFEF07F0E1EF07F0C8EF15
:100FC00007F010C00BF011C00CF00AEF08F00C5045
:100FD000D96EDA6ADF2A000E0C6E000E0B6E0AEF75
:100FE00008F00C50D96EDA6ADFCFF6FF0E0EF76EFE
:100FF000000EF86E0800F550016E026A0BC003F097
:10100000D1EC08F00C50D96EDA6ADF2A000E0C6EB3
:10101000010E0B6E1200000E416E010E426E010EAB
:10102000436E000E456E630E446EAA0E466E0F0EA2
:10103000476EA60E486E0F0E496E000E4A6E010EE8
:101040004B6E010E4C6E000E4E6E630E4D6E250EF5
:101050004F6E0F0E506E210E516E0F0E526E000E1F
:10106000026E630E016E86EC09F0D6EC0BF0BCEC60
:101070000BF04AEC0CF028EC0CF0849E88967C8EE9
:101080008086868486860E01B495B497390E0C6EE0
:1010900090EC0AF0390E366E36EC0AF07CAE53EF67
:1010A00008F057EF08F0376A372A58EF08F0376A28
:1010B000373237327C5037187F0B37187C6E110E61
:1010C000386E3C0E376ECB0EE82EFED7372EFCD78F
:1010D000382EFAD7000046EF08F01AEF00F0000EA5
:1010E000066E04BE78EF08F076EF08F07EEF08F0A9
:1010F000036C041ED8B0042A010E066E02BE85EFF2
:1011000008F083EF08F08BEF08F0016C021ED8B0F6
:10111000022A010E061A000E086E000E076E03501A
:101120000410D8B496EF08F098EF08F0C0EF08F07C
:10113000010E056EA0EF08F0D89003360436052A9C
:1011400004AEA5EF08F0A7EF08F09CEF08F0D890E8
:10115000073608360350015C04500258D8A0B3EF9C
:1011600008F0B5EF08F0BAEF08F00350015E045044
:10117000025A0780D89004320332052EA7EF08F0F8
:101180000650D8B4C6EF08F0C8EF08F0CCEF08F06E
:10119000076C081ED8B0082A07C001F008C002F08A
:1011A00012000350D8B4D7EF08F0D9EF08F0E1EF00
:1011B00008F00350D8A4DFEF08F0E1EF08F0E6EF05
:1011C00008F0015082EC0CF02DEF09F00350D96EBD
:1011D000DA6A0A0ED926DE50DE10D8B4F2EF08F033
:1011E000F4EF08F00DEF09F00350D96EDA6A0A0E39
:1011F000D9260350E16EE26A030EE126DE50E65C7A
:10120000E650800A086EDE50800A0858D8B00BEF0E
:1012100009F00DEF09F02DEF09F00350D96EDA6AED
:10122000030ED926DECF04F0DDCF05F00350D96ED2
:10123000DA6ADECF06F0DDCF07F004500624D96E5F
:1012400005500720DA6E01C0DFFF0350D96EDA6A5D
:10125000030ED926DE2A000EDD221200000E066ED5
:1012600002BE37EF09F035EF09F03DEF09F0016CF0
:10127000021ED8B0022A010E066E04BE44EF09F029
:1012800042EF09F048EF09F0036C041ED8B0042ABD
:1012900003500410D8B44FEF09F051EF09F075EF87
:1012A00009F0010E056E59EF09F0D89003360436A7
:1012B000052A04AE5EEF09F060EF09F055EF09F082
:1012C0000350015C04500258D8A069EF09F06BEF9D
:1012D00009F06FEF09F00350015E0450025AD890F4
:1012E00004320332052E60EF09F00650D8B47BEFCC
:1012F00009F07DEF09F081EF09F0016C021ED8B012
:10130000022A01C001F002C002F012008594859803
:10131000839E879C7D947D987B9E7F9C050E0E010D
:10132000746F060E766F070E696F080E886FBD50DA
:101330008F0B4009BD6EE00EBE16BF50F00B0109C9
:10134000BF6E01C0BCFFBD8E000EAA6E000EA66E61
:10135000000E0F01256F000E216FFC0EAD16F30E6F
:10136000AD16CF0EAD163F0EAD16AB88AB50F00BE1
:101370000C09AB6EAB8EA788A750F00B0C09A76EBB
:10138000A78E26892651F00B0C09266F268F2289FD
:101390002251F00B0C09226F228F12002C0EF66ED8
:1013A000180EF76E000EF86E00EECCF010EE24F082
:1013B0000900F5CFEEFFE550E150FAE1FE0EF66EC2
:1013C000180EF76E000EF86E00EE5AF010EE05F0F3
:1013D0000900F5CFEEFFE550E150FAE101EE00F033
:1013E0005C0EEE6AE806FDE100EE60F0430EEE6A88
:1013F000E806FDE100EE53F0070EEE6AE806FDE1B7
:101400005F905F9200010BEF08F01CEF0AF002C042
:10141000F6FF03C0F7FF000EF86E0D0EF76403D061
:101420000800F55005D0F6CFE9FFF7CFEAFFEF50FF
:1014300059EC0CF0024A032A02C0F6FF03C0F7FF82
:10144000000EF86E0D0EF76403D00800F55005D0BD
:10145000F6CFE9FFF7CFEAFFEF500009D8A433EF4A
:101460000AF035EF0AF007EF0AF01200A30E1C6E27
:101470001D6A010E1E6E3650D96EDA6ADECF1FF07D
:10148000DDCF20F03650D96EDA6A020ED926DECFD3
:1014900021F0DDCF22F03650D96EDA6A040ED9265B
:1014A000DECF23F0DDCF24F03650D96EDA6A060E97
:1014B000D926DECF25F0DDCF26F05BEC0BF0A30EB6
:1014C000026E036A05EC0AF0120019C01BF0000E50
:1014D0000001756F000E746F7BEF0AF018C00BF0FF
:1014E0001B0E0C6E1AC00DF00AEC07F00B50000139
:1014F00074270C5075231BC0F6FF0E0EF76E000EFE
:10150000F86E0800F5500009D8A489EF0AF08BEFB7
:101510000AF06EEF0AF074C018F075C019F01200EE
:10152000BBEC0AF00C50D96EDA6A05C0DEFF06C0CB
:10153000DDFF33EC0BF00C50D96EDA6A040ED926BD
:1015400005C0DEFF06C0DDFFE3EC0AF00C50D96EEB
:10155000DA6A020ED92605C0DEFF06C0DDFF0BECFD
:101560000BF00C50D96EDA6A060ED92605C0DEFFE4
:1015700006C0DDFF120075EC0CF0520E65EC0CF0AD
:10158000B60E65EC0CF06BEC0CF0530E65EC0CF049
:10159000010E81EC0BF0076E07500A6E0B6A000E0D
:1015A00081EC0BF0076E0750096E086A0A500810AC
:1015B0000A6E0B5009100B6E70EC0CF00AC005F0AF
:1015C0000BC006F0120075EC0CF0520E65EC0CF03E
:1015D000B80E65EC0CF06BEC0CF0530E65EC0CF0F7
:1015E000010E81EC0BF0076E07500A6E0B6A000EBD
:1015F00081EC0BF0076E0750096E086A0A5008105C
:101600000A6E0B5009100B6E70EC0CF00AC005F05E
:101610000BC006F0120075EC0CF0520E65EC0CF0ED
:10162000B40E65EC0CF06BEC0CF0530E65EC0CF0AA
:10163000010E81EC0BF0076E07500A6E0B6A000E6C
:1016400081EC0BF0076E0750096E086A0A5008100B
:101650000A6E0B5009100B6E70EC0CF00AC005F00E
:101660000BC006F0120075EC0CF0520E65EC0CF09D
:10167000BA0E65EC0CF06BEC0CF0530E65EC0CF054
:10168000010E81EC0BF0076E07500A6E0B6A000E1C
:1016900081EC0BF0076E0750096E086A0A500810BB
:1016A0000A6E0B5009100B6E70EC0CF00AC005F0BE
:1016B0000BC006F012001F0E296E1CC02AF01DC0C0
:1016C0002BF0000E2E6E000E2D6E000E356E000EED
:1016D000346E2A0E186E1EC019F0290E1A6E65ECB3
:1016E0000AF018C027F019C028F02D501C24D96E1C
:1016F0002E501D20DA6EDF6A27C01CF028C01DF0B6
:101700001200036E02EC0CF00E01DA8702EC0CF012
:10171000D5CE04F002EC0CF00350D8B492EF0BF0ED
:1017200096EF0BF0026A022A97EF0BF0026A023A78
:1017300002460E01DA510218DF0B0218DA6FDA895D
:101740000450120008BEA7EF0BF0A9EF0BF0AFEFAB
:101750000BF007C007F008C008F0BBEF0BF007C0A4
:1017600009F008C00AF0091E0A1E094A0A2A09C01F
:1017700007F00AC008F01200EDEC0BF0010E036E4A
:10178000000E3AEC0CF03F0E056E550EE82EFED71B
:10179000052EFCD70000030E036E000E3AEC0CF091
:1017A000D50E036E010E3AEC0CF01200849888926C
:1017B0008496869088907C9880927C967E9080908B
:1017C00087928198869E7F9279987E9E8790859E4B
:1017D00081967F907D9E799612000E01D951F00B73
:1017E0000809D96FD98B9F0ED66F848A848CA79BEA
:1017F000A79D1D0E1D6F1E0E1C6F1C0E6F6F1B0E06
:10180000706F12000E01D8B508EF0CF00AEF0CF063
:1018100002EF0CF0DACE01F01F0E0116D8A413EF80
:101820000CF015EF0CF002EF0CF012002C0146004A
:10183000FE012C012C01AF00AF002A1403060306A1
:101840000306030603060306030603060306030650
:10185000D6501F0B4009D66ED688D588D650F00BCF
:101860000E09D66E7AEC0CF0D58E0E01298BF28C17
:10187000F28E1200046E75EC0CF0520E65EC0CF05A
:101880000450800965EC0CF0035065EC0CF070EC32
:101890000CF01200120E0E01626F110E156FE99717
:1018A000E895330EE56F000EE66FE789E88BE78F6A
:1018B0001200016E0E0137A560EF0CF062EF0CF024
:1018C0005AEF0CF001C0E4FE1200026E02EC0CF0C4
:1018D00002C0D5FE120002EC0CF00E01DA831200F9
:1018E00002EC0CF00E01DA85120002EC0CF00E0195
:1018F000DA811200000ED46E000ED36E12007B8FC0
:03190000DC1408EC
:021904001200CF
:020000040020DA
:10000000FFFFFFFFFFFFFFFFFFFFFFFFFFFFFFFF00
:020000040030CA
:0C000000AAFFFFFF9FFFFFFFFFFFFFFFB5
:00000001FF
