:040000001AEF00F003
:100008005F820E0133AB0BEF00F00DEF00F018EF3D
:1000180000F05050D8B413EF00F015EF00F017EFD0
:1000280000F0010E4F6E339B5F921100D3EF09F081
:100E0000002564202564202564202564200D00250C
:100E100064200000000E116E000E106E0C50D96E92
:100E2000DA6ADFCFF6FF0E0EF76E000EF86E0800DE
:100E3000F550250AD8A41FEF07F021EF07F0EBEFDC
:100E400007F00C50D96EDA6ADF2A000E0001DA6F63
:100E5000000ED96FD9C04DF0DB69DC690C50D96E3A
:100E6000DA6ADF50126E12C0F6FF0E0EF76E000E39
:100E7000F86E0800F550640AD8B441EF07F043EF6C
:100E800007F053EF07F012C0F6FF0E0EF76E000EDC
:100E9000F86E0800F550690AD8A451EF07F053EF37
:100EA00007F0E1EF07F00D50D96EDA6A020EDF2687
:100EB000DF5CD96EDA6ADECF13F0DECF14F00C50AF
:100EC000D96EDA6A1228DF6E200E176E14BE6BEF31
:100ED00007F06EEF07F0010E6FEF07F0000E0F6ED8
:100EE00017061750A50FD96EDA6A13C001F014C0A7
:100EF00002F0000E046E0A0E036E33EC09F001C01E
:100F000007F002C008F044EC0CF00750300FDF6E21
:100F100013C001F014C002F0000E046E0A0E036E3E
:100F200074EC08F001C013F002C014F0104A112A4A
:100F300013501410D8B49FEF07F0A1EF07F0A9EFFA
:100F400007F01750D8A4A7EF07F0A9EF07F070EF4C
:100F500007F01750D8B4AFEF07F0B1EF07F0D2EFBA
:100F600007F00F50D8B4B7EF07F0B9EF07F0D2EFA2
:100F700007F017061750A50FD96EDA6A2D0EDF6E2F
:100F8000104A112AD2EF07F01750A50FD96EDA6A6E
:100F9000DF500E6E0E50016E026A0BC003F0D6ECED
:100FA00008F0172A200E1718D8A4D9EF07F0DBEFA6
:100FB00007F0C4EF07F010C00BF011C00CF004EF05
:100FC00008F00C50D96EDA6ADF2A000E0C6E000EA3
:100FD0000B6E04EF08F00C50D96EDA6ADFCFF6FF23
:100FE0000E0EF76E000EF86E0800F550016E026AE4
:100FF0000BC003F0D6EC08F00C50D96EDA6ADF2A89
:10100000000E0C6E010E0B6E1200000E0001936FAD
:10101000010E946F010E956F000E976F630E966F21
:10102000AA0E986F0F0E996FA60E9A6F0F0E9B6FF8
:10103000000E9C6F010E9D6F010E9E6F000EA06F43
:10104000630E9F6F250EA16F0F0EA26F210EA36F6F
:101050000F0EA46F000E026E630E016E8BEC09F092
:1010600078EC0CF05EEC0CF0EBEC0CF0B8EC0CF067
:10107000849E88967C9E8096868486860E01B49592
:10108000B497000E0001896F000E8A6F1EEC0DF000
:101090008B0E0D6E9FEC0BF0890E016E8A0E026EA8
:1010A00006EC0DF08AC001F0000E026E00018951BD
:1010B00029EC0CF00CEC0CF08B0E0C6EABEC0AF087
:1010C0008B0E366E7CEC0AF0110E4A6E3C0E496EA9
:1010D000CB0EE82EFED7492EFCD74A2EFAD70000B9
:1010E0005AEF08F01AEF00F0000E066E04BE7DEF16
:1010F00008F07BEF08F083EF08F0036C041ED8B013
:10110000042A010E066E02BE8AEF08F088EF08F08E
:1011100090EF08F0016C021ED8B0022A010E061AE8
:10112000000E086E000E076E03500410D8B49BEF3B
:1011300008F09DEF08F0C5EF08F0010E056EA5EF71
:1011400008F0D89003360436052A04AEAAEF08F05A
:10115000ACEF08F0A1EF08F0D8900736083603503E
:10116000015C04500258D8A0B8EF08F0BAEF08F0BC
:10117000BFEF08F00350015E0450025A0780D89078
:1011800004320332052EACEF08F00650D8B4CBEF92
:1011900008F0CDEF08F0D1EF08F0076C081ED8B0CA
:1011A000082A07C001F008C002F012000350D8B4AA
:1011B000DCEF08F0DEEF08F0E6EF08F00350D8A40B
:1011C000E4EF08F0E6EF08F0EBEF08F001503EEC3A
:1011D0000DF032EF09F00350D96EDA6A0A0ED92603
:1011E000DE50DE10D8B4F7EF08F0F9EF08F012EF98
:1011F00009F00350D96EDA6A0A0ED9260350E16E5F
:10120000E26A030EE126DE50E65CE650800A086ED4
:10121000DE50800A0858D8B010EF09F012EF09F03C
:1012200032EF09F00350D96EDA6A030ED926DECF09
:1012300004F0DDCF05F00350D96EDA6ADECF06F098
:10124000DDCF07F004500624D96E05500720DA6E72
:1012500001C0DFFF0350D96EDA6A030ED926DE2AF9
:10126000000EDD221200000E066E02BE3CEF09F0F9
:101270003AEF09F042EF09F0016C021ED8B0022AE1
:10128000010E066E04BE49EF09F047EF09F04DEF7D
:1012900009F0036C041ED8B0042A03500410D8B41B
:1012A00054EF09F056EF09F07AEF09F0010E056EE0
:1012B0005EEF09F0D89003360436052A04AE63EFDA
:1012C00009F065EF09F05AEF09F00350015C045092
:1012D0000258D8A06EEF09F070EF09F074EF09F032
:1012E0000350015E0450025AD89004320332052E96
:1012F00065EF09F00650D8B480EF09F082EF09F0ED
:1013000086EF09F0016C021ED8B0022A01C001F07C
:1013100002C002F0120085948598839E879C7D947C
:101320007D987B9E7F9C050E0E01746F060E766F76
:10133000070E696F080E886FBD508F0B4009BD6E98
:10134000E00EBE16BF50F00B0109BF6E01C0BCFF1E
:10135000BD8E000EAA6E000EA66E000E0F01256F48
:10136000000E216FFC0EAD16F30EAD16CF0EAD16AE
:101370003F0EAD16AB88AB50F00B0C09AB6EAB8ECD
:10138000A788A750F00B0C09A76EA78E26892651B7
:10139000F00B0C09266F268F22892251F00B0C09C5
:1013A000226F228F1200220EF66E1A0EF76E000EBA
:1013B000F86E00EEDDF010EE0EF00900F5CFEEFF56
:1013C000E550E150FAE1540EF66E1A0EF76E000E7B
:1013D000F86E00EE55F010EE0AF00900F5CFEEFFC2
:1013E000E550E150FAE102EE00F03C0EEE6AE8064C
:1013F000FDE101EEA4F03C0EEE6AE806FDE100EE30
:10140000A5F0380EEE6AE806FDE100EE4BF00A0E9C
:10141000EE6AE806FDE15F905F92000105EF08F0DB
:10142000000E0101A16F000EA36F000EA26F000E4F
:10143000A1251C6E1D6A010E1D220F0E1E6EA251EB
:101440003624D96EA3513720DA6EDF50386E38500B
:101450001F6E206AC5EC0BF01C500101A127A24BA6
:10146000A32BA35109E1140EA25DD8A03AEF0AF014
:101470003CEF0AF017EF0AF0000E026E010E036E49
:101480004BEC0AF00C0E026E0250D8A40E0E036E46
:101490004BEC0AF0120062EF0AF002C0F6FF03C044
:1014A000F7FF000EF86E0D0EF76403D00800F5503C
:1014B00005D0F6CFE9FFF7CFEAFFEF50FAEC0CF0DA
:1014C000024A032A02C0F6FF03C0F7FF000EF86EBF
:1014D0000D0EF76403D00800F55005D0F6CFE9FFF4
:1014E000F7CFEAFFEF500009D8A479EF0AF07BEFBD
:1014F0000AF04DEF0AF01200600E1C6E1D6A010E1C
:101500001E6E3650D96EDA6ADECF1FF0DDCF20F0C6
:101510003650D96EDA6A020ED926DECF21F0DDCF41
:1015200022F03650D96EDA6A040ED926DECF23F0C7
:10153000DDCF24F03650D96EDA6A060ED926DECF1A
:1015400025F0DDCF26F0C5EC0BF0600E026E036ACD
:101550004BEC0AF01200FFEC0AF00C50D96EDA6A7C
:1015600005C0DEFF06C0DDFF77EC0BF00C50D96E36
:10157000DA6A040ED92605C0DEFF06C0DDFF27ECBF
:101580000BF00C50D96EDA6A020ED92605C0DEFFC8
:1015900006C0DDFF4FEC0BF00C50D96EDA6A060E78
:1015A000D92605C0DEFF06C0DDFF120019C01BF002
:1015B000000E4C6E000E4B6EEAEF0AF018C00BF0F6
:1015C0001B0E0C6E1AC00DF00AEC07F00B504B26E8
:1015D0000C504C221BC0F6FF0E0EF76E000EF86E7C
:1015E0000800F5500009D8A4F8EF0AF0FAEF0AF065
:1015F000DEEF0AF04BC018F04CC019F0120039ECC5
:101600000DF0520E18EC0DF0B60E18EC0DF02FEC9C
:101610000DF0530E18EC0DF0010EEBEC0BF0076E15
:1016200007500A6E0B6A000EEBEC0BF0076E0750CA
:10163000096E086A0A5008100A6E0B5009100B6EEA
:1016400034EC0DF00AC005F00BC006F0120039ECC6
:101650000DF0520E18EC0DF0B80E18EC0DF02FEC4A
:101660000DF0530E18EC0DF0010EEBEC0BF0076EC5
:1016700007500A6E0B6A000EEBEC0BF0076E07507A
:10168000096E086A0A5008100A6E0B5009100B6E9A
:1016900034EC0DF00AC005F00BC006F0120039EC76
:1016A0000DF0520E18EC0DF0B40E18EC0DF02FECFE
:1016B0000DF0530E18EC0DF0010EEBEC0BF0076E75
:1016C00007500A6E0B6A000EEBEC0BF0076E07502A
:1016D000096E086A0A5008100A6E0B5009100B6E4A
:1016E00034EC0DF00AC005F00BC006F0120039EC26
:1016F0000DF0520E18EC0DF0BA0E18EC0DF02FECA8
:101700000DF0530E18EC0DF0010EEBEC0BF0076E24
:1017100007500A6E0B6A000EEBEC0BF0076E0750D9
:10172000096E086A0A5008100A6E0B5009100B6EF9
:1017300034EC0DF00AC005F00BC006F012000DC02D
:101740000CF0ABEC0AF00D50D96EDA6A060ED92611
:101750002C0EDE5C010EDE58D8B0B1EF0BF0B3EF0B
:101760000BF09FEF0BF07CAEB8EF0BF0BCEF0BF083
:101770000E6A0E2ABDEF0BF00E6A0E320E327C504E
:101780000E187F0B0E187C6E12001F0E296E1CC0E7
:101790002AF01DC02BF0000E2E6E000E2D6E000ED6
:1017A000356E000E346E2A0E186E1EC019F0290E0A
:1017B0001A6ED6EC0AF018C027F019C028F02D5088
:1017C0001C24D96E2E501D20DA6EDF6A27C01CF053
:1017D00028C01DF01200036EA4EC0CF00E01DA8795
:1017E000A4EC0CF0D5CE04F0A4EC0CF00350D8B46B
:1017F000FCEF0BF000EF0CF0026A022A01EF0CF094
:10180000026A023A02460E01DA510218DF0B021890
:10181000DA6FDA8904501200D3CF36F0376ACAEC97
:101820000CF0D4CF36F0376ACAEC0CF0CC0E366E22
:10183000010E376E10EC0AF0B80E366E010E376EE0
:1018400010EC0AF0A40E366E010E376E10EC0AF0A2
:101850001200036E59C0D9FF5AC0DAFF03C0DFFF80
:1018600057C0D9FF58C0DAFF01C0DFFF55C0D9FF0C
:1018700056C0DAFF02C0DFFF594A5A2A574A582A8F
:10188000554A562A4E2A120008BE49EF0CF04BEF7B
:101890000CF051EF0CF007C007F008C008F05DEF46
:1018A0000CF007C009F008C00AF0091E0A1E094A18
:1018B0000A2A09C007F00AC008F012008FEC0CF0E9
:1018C000010E036E000EDBEC0CF03F0E056E550EA4
:1018D000E82EFED7052EFCD70000030E036E000E87
:1018E000DBEC0CF0D50E036E010EDBEC0CF01200FD
:1018F000849888928496869088907C9880927C9632
:101900007E90809087928198869E7F9279987E9E25
:101910008790859E81967F907D9E799612000E011C
:10192000D951F00B0809D96FD98B9F0ED66F848AD5
:10193000848CA79BA79D1D0E1D6F1E0E1C6F1C0E79
:101940006F6F1B0E706F12000E01D8B5AAEF0CF06E
:10195000ACEF0CF0A4EF0CF0DACE01F01F0E011684
:10196000D8A4B5EF0CF0B7EF0CF0A4EF0CF0120018
:10197000D6501F0B4009D66ED688D588D650F00BAE
:101980000E09D66E1EEC0DF0D58E0E01298BF28C51
:10199000F28E1200380E1C6E1D6A0A0E1E6E36C0C4
:1019A0001FF037C020F0C5EC0BF0380E026E036A52
:1019B0004BEC0AF01200046E39EC0DF0520E18ECEC
:1019C0000DF00450800918EC0DF0035018EC0DF0E8
:1019D00034EC0DF01200120E0E01626F110E156F35
:1019E000E997E895330EE56F000EE66FE789E88B1F
:1019F000E78F1200016E0E0137A501EF0DF003EF26
:101A00000DF0FBEF0CF001C0E4FE12000250D96EA5
:101A1000DA6AD3CFDFFF0150D96EDA6AD4CFDFFFA5
:101A200012002C014600FE012C012C01AF00AF007A
:101A3000026EA4EC0CF002C0D5FE1200000E016E86
:101A4000000E24EC0DF01200026E02C0D4FF01C0A3
:101A5000D3FF1200A401B801CC012A141408A4EC8D
:101A60000CF00E01DA831200A4EC0CF00E01DA8502
:0E1A70001200A4EC0CF00E01DA81120012003C
:020000040020DA
:10000000FFFFFFFFFFFFFFFFFFFFFFFFFFFFFFFF00
:020000040030CA
:0C000000AAFFFFFF9FFFFFFFFFFFFFFFB5
:00000001FF
